{
	"Voting_Contracts/Proposal.sol": {
		"Proposal": {
			"abi": [
				{
					"inputs": [
						{
							"internalType": "string",
							"name": "_name",
							"type": "string"
						},
						{
							"internalType": "string",
							"name": "_description",
							"type": "string"
						},
						{
							"internalType": "uint256",
							"name": "_duration",
							"type": "uint256"
						}
					],
					"stateMutability": "nonpayable",
					"type": "constructor"
				},
				{
					"anonymous": false,
					"inputs": [
						{
							"indexed": false,
							"internalType": "uint256",
							"name": "proposalId",
							"type": "uint256"
						},
						{
							"indexed": false,
							"internalType": "uint256",
							"name": "yesVotes",
							"type": "uint256"
						},
						{
							"indexed": false,
							"internalType": "uint256",
							"name": "noVotes",
							"type": "uint256"
						}
					],
					"name": "VotingEnded",
					"type": "event"
				},
				{
					"inputs": [],
					"name": "deadline",
					"outputs": [
						{
							"internalType": "uint256",
							"name": "",
							"type": "uint256"
						}
					],
					"stateMutability": "view",
					"type": "function"
				},
				{
					"inputs": [],
					"name": "description",
					"outputs": [
						{
							"internalType": "string",
							"name": "",
							"type": "string"
						}
					],
					"stateMutability": "view",
					"type": "function"
				},
				{
					"inputs": [],
					"name": "endVoting",
					"outputs": [],
					"stateMutability": "nonpayable",
					"type": "function"
				},
				{
					"inputs": [],
					"name": "getResults",
					"outputs": [
						{
							"internalType": "string",
							"name": "outcome",
							"type": "string"
						},
						{
							"internalType": "uint256",
							"name": "yesVotesCount",
							"type": "uint256"
						},
						{
							"internalType": "uint256",
							"name": "noVotesCount",
							"type": "uint256"
						},
						{
							"internalType": "bool",
							"name": "votingStatus",
							"type": "bool"
						}
					],
					"stateMutability": "view",
					"type": "function"
				},
				{
					"inputs": [],
					"name": "name",
					"outputs": [
						{
							"internalType": "string",
							"name": "",
							"type": "string"
						}
					],
					"stateMutability": "view",
					"type": "function"
				},
				{
					"inputs": [],
					"name": "noVotes",
					"outputs": [
						{
							"internalType": "uint256",
							"name": "",
							"type": "uint256"
						}
					],
					"stateMutability": "view",
					"type": "function"
				},
				{
					"inputs": [
						{
							"internalType": "bool",
							"name": "voteYes",
							"type": "bool"
						},
						{
							"internalType": "uint256",
							"name": "weight",
							"type": "uint256"
						}
					],
					"name": "recordVote",
					"outputs": [],
					"stateMutability": "nonpayable",
					"type": "function"
				},
				{
					"inputs": [],
					"name": "votingEnded",
					"outputs": [
						{
							"internalType": "bool",
							"name": "",
							"type": "bool"
						}
					],
					"stateMutability": "view",
					"type": "function"
				},
				{
					"inputs": [],
					"name": "yesVotes",
					"outputs": [
						{
							"internalType": "uint256",
							"name": "",
							"type": "uint256"
						}
					],
					"stateMutability": "view",
					"type": "function"
				}
			],
			"devdoc": {
				"kind": "dev",
				"methods": {},
				"version": 1
			},
			"evm": {
				"assembly": "    /* \"Voting_Contracts/Proposal.sol\":61:1711  contract Proposal {... */\n  mstore(0x40, 0x80)\n    /* \"Voting_Contracts/Proposal.sol\":327:551  constructor(string memory _name, string memory _description, uint _duration) {... */\n  callvalue\n  dup1\n  iszero\n  tag_1\n  jumpi\n  0x00\n  dup1\n  revert\ntag_1:\n  pop\n  mload(0x40)\n  sub(codesize, bytecodeSize)\n  dup1\n  bytecodeSize\n  dup4\n  codecopy\n  dup2\n  dup2\n  add\n  0x40\n  mstore\n  dup2\n  add\n  swap1\n  tag_2\n  swap2\n  swap1\n  tag_3\n  jump\t// in\ntag_2:\n    /* \"Voting_Contracts/Proposal.sol\":422:427  _name */\n  dup3\n    /* \"Voting_Contracts/Proposal.sol\":415:419  name */\n  0x00\n    /* \"Voting_Contracts/Proposal.sol\":415:427  name = _name */\n  swap1\n  dup2\n  tag_6\n  swap2\n  swap1\n  tag_7\n  jump\t// in\ntag_6:\n  pop\n    /* \"Voting_Contracts/Proposal.sol\":452:464  _description */\n  dup2\n    /* \"Voting_Contracts/Proposal.sol\":438:449  description */\n  0x01\n    /* \"Voting_Contracts/Proposal.sol\":438:464  description = _description */\n  swap1\n  dup2\n  tag_8\n  swap2\n  swap1\n  tag_7\n  jump\t// in\ntag_8:\n  pop\n    /* \"Voting_Contracts/Proposal.sol\":504:513  _duration */\n  dup1\n    /* \"Voting_Contracts/Proposal.sol\":486:501  block.timestamp */\n  timestamp\n    /* \"Voting_Contracts/Proposal.sol\":486:513  block.timestamp + _duration */\n  tag_9\n  swap2\n  swap1\n  tag_10\n  jump\t// in\ntag_9:\n    /* \"Voting_Contracts/Proposal.sol\":475:483  deadline */\n  0x02\n    /* \"Voting_Contracts/Proposal.sol\":475:513  deadline = block.timestamp + _duration */\n  dup2\n  swap1\n  sstore\n  pop\n    /* \"Voting_Contracts/Proposal.sol\":538:543  false */\n  0x00\n    /* \"Voting_Contracts/Proposal.sol\":524:535  votingEnded */\n  0x05\n  0x00\n    /* \"Voting_Contracts/Proposal.sol\":524:543  votingEnded = false */\n  0x0100\n  exp\n  dup2\n  sload\n  dup2\n  0xff\n  mul\n  not\n  and\n  swap1\n  dup4\n  iszero\n  iszero\n  mul\n  or\n  swap1\n  sstore\n  pop\n    /* \"Voting_Contracts/Proposal.sol\":327:551  constructor(string memory _name, string memory _description, uint _duration) {... */\n  pop\n  pop\n  pop\n    /* \"Voting_Contracts/Proposal.sol\":61:1711  contract Proposal {... */\n  jump(tag_11)\n    /* \"#utility.yul\":7:82   */\ntag_12:\n    /* \"#utility.yul\":40:46   */\n  0x00\n    /* \"#utility.yul\":73:75   */\n  0x40\n    /* \"#utility.yul\":67:76   */\n  mload\n    /* \"#utility.yul\":57:76   */\n  swap1\n  pop\n    /* \"#utility.yul\":7:82   */\n  swap1\n  jump\t// out\n    /* \"#utility.yul\":88:205   */\ntag_13:\n    /* \"#utility.yul\":197:198   */\n  0x00\n    /* \"#utility.yul\":194:195   */\n  dup1\n    /* \"#utility.yul\":187:199   */\n  revert\n    /* \"#utility.yul\":211:328   */\ntag_14:\n    /* \"#utility.yul\":320:321   */\n  0x00\n    /* \"#utility.yul\":317:318   */\n  dup1\n    /* \"#utility.yul\":310:322   */\n  revert\n    /* \"#utility.yul\":334:451   */\ntag_15:\n    /* \"#utility.yul\":443:444   */\n  0x00\n    /* \"#utility.yul\":440:441   */\n  dup1\n    /* \"#utility.yul\":433:445   */\n  revert\n    /* \"#utility.yul\":457:574   */\ntag_16:\n    /* \"#utility.yul\":566:567   */\n  0x00\n    /* \"#utility.yul\":563:564   */\n  dup1\n    /* \"#utility.yul\":556:568   */\n  revert\n    /* \"#utility.yul\":580:682   */\ntag_17:\n    /* \"#utility.yul\":621:627   */\n  0x00\n    /* \"#utility.yul\":672:674   */\n  0x1f\n    /* \"#utility.yul\":668:675   */\n  not\n    /* \"#utility.yul\":663:665   */\n  0x1f\n    /* \"#utility.yul\":656:661   */\n  dup4\n    /* \"#utility.yul\":652:666   */\n  add\n    /* \"#utility.yul\":648:676   */\n  and\n    /* \"#utility.yul\":638:676   */\n  swap1\n  pop\n    /* \"#utility.yul\":580:682   */\n  swap2\n  swap1\n  pop\n  jump\t// out\n    /* \"#utility.yul\":688:868   */\ntag_18:\n    /* \"#utility.yul\":736:813   */\n  0x4e487b7100000000000000000000000000000000000000000000000000000000\n    /* \"#utility.yul\":733:734   */\n  0x00\n    /* \"#utility.yul\":726:814   */\n  mstore\n    /* \"#utility.yul\":833:837   */\n  0x41\n    /* \"#utility.yul\":830:831   */\n  0x04\n    /* \"#utility.yul\":823:838   */\n  mstore\n    /* \"#utility.yul\":857:861   */\n  0x24\n    /* \"#utility.yul\":854:855   */\n  0x00\n    /* \"#utility.yul\":847:862   */\n  revert\n    /* \"#utility.yul\":874:1155   */\ntag_19:\n    /* \"#utility.yul\":957:984   */\n  tag_56\n    /* \"#utility.yul\":979:983   */\n  dup3\n    /* \"#utility.yul\":957:984   */\n  tag_17\n  jump\t// in\ntag_56:\n    /* \"#utility.yul\":949:955   */\n  dup2\n    /* \"#utility.yul\":945:985   */\n  add\n    /* \"#utility.yul\":1087:1093   */\n  dup2\n    /* \"#utility.yul\":1075:1085   */\n  dup2\n    /* \"#utility.yul\":1072:1094   */\n  lt\n    /* \"#utility.yul\":1051:1069   */\n  0xffffffffffffffff\n    /* \"#utility.yul\":1039:1049   */\n  dup3\n    /* \"#utility.yul\":1036:1070   */\n  gt\n    /* \"#utility.yul\":1033:1095   */\n  or\n    /* \"#utility.yul\":1030:1118   */\n  iszero\n  tag_57\n  jumpi\n    /* \"#utility.yul\":1098:1116   */\n  tag_58\n  tag_18\n  jump\t// in\ntag_58:\n    /* \"#utility.yul\":1030:1118   */\ntag_57:\n    /* \"#utility.yul\":1138:1148   */\n  dup1\n    /* \"#utility.yul\":1134:1136   */\n  0x40\n    /* \"#utility.yul\":1127:1149   */\n  mstore\n    /* \"#utility.yul\":917:1155   */\n  pop\n    /* \"#utility.yul\":874:1155   */\n  pop\n  pop\n  jump\t// out\n    /* \"#utility.yul\":1161:1290   */\ntag_20:\n    /* \"#utility.yul\":1195:1201   */\n  0x00\n    /* \"#utility.yul\":1222:1242   */\n  tag_60\n  tag_12\n  jump\t// in\ntag_60:\n    /* \"#utility.yul\":1212:1242   */\n  swap1\n  pop\n    /* \"#utility.yul\":1251:1284   */\n  tag_61\n    /* \"#utility.yul\":1279:1283   */\n  dup3\n    /* \"#utility.yul\":1271:1277   */\n  dup3\n    /* \"#utility.yul\":1251:1284   */\n  tag_19\n  jump\t// in\ntag_61:\n    /* \"#utility.yul\":1161:1290   */\n  swap2\n  swap1\n  pop\n  jump\t// out\n    /* \"#utility.yul\":1296:1604   */\ntag_21:\n    /* \"#utility.yul\":1358:1362   */\n  0x00\n    /* \"#utility.yul\":1448:1466   */\n  0xffffffffffffffff\n    /* \"#utility.yul\":1440:1446   */\n  dup3\n    /* \"#utility.yul\":1437:1467   */\n  gt\n    /* \"#utility.yul\":1434:1490   */\n  iszero\n  tag_63\n  jumpi\n    /* \"#utility.yul\":1470:1488   */\n  tag_64\n  tag_18\n  jump\t// in\ntag_64:\n    /* \"#utility.yul\":1434:1490   */\ntag_63:\n    /* \"#utility.yul\":1508:1537   */\n  tag_65\n    /* \"#utility.yul\":1530:1536   */\n  dup3\n    /* \"#utility.yul\":1508:1537   */\n  tag_17\n  jump\t// in\ntag_65:\n    /* \"#utility.yul\":1500:1537   */\n  swap1\n  pop\n    /* \"#utility.yul\":1592:1596   */\n  0x20\n    /* \"#utility.yul\":1586:1590   */\n  dup2\n    /* \"#utility.yul\":1582:1597   */\n  add\n    /* \"#utility.yul\":1574:1597   */\n  swap1\n  pop\n    /* \"#utility.yul\":1296:1604   */\n  swap2\n  swap1\n  pop\n  jump\t// out\n    /* \"#utility.yul\":1610:1749   */\ntag_22:\n    /* \"#utility.yul\":1699:1705   */\n  dup3\n    /* \"#utility.yul\":1694:1697   */\n  dup2\n    /* \"#utility.yul\":1689:1692   */\n  dup4\n    /* \"#utility.yul\":1683:1706   */\n  mcopy\n    /* \"#utility.yul\":1740:1741   */\n  0x00\n    /* \"#utility.yul\":1731:1737   */\n  dup4\n    /* \"#utility.yul\":1726:1729   */\n  dup4\n    /* \"#utility.yul\":1722:1738   */\n  add\n    /* \"#utility.yul\":1715:1742   */\n  mstore\n    /* \"#utility.yul\":1610:1749   */\n  pop\n  pop\n  pop\n  jump\t// out\n    /* \"#utility.yul\":1755:2189   */\ntag_23:\n    /* \"#utility.yul\":1844:1849   */\n  0x00\n    /* \"#utility.yul\":1869:1935   */\n  tag_68\n    /* \"#utility.yul\":1885:1934   */\n  tag_69\n    /* \"#utility.yul\":1927:1933   */\n  dup5\n    /* \"#utility.yul\":1885:1934   */\n  tag_21\n  jump\t// in\ntag_69:\n    /* \"#utility.yul\":1869:1935   */\n  tag_20\n  jump\t// in\ntag_68:\n    /* \"#utility.yul\":1860:1935   */\n  swap1\n  pop\n    /* \"#utility.yul\":1958:1964   */\n  dup3\n    /* \"#utility.yul\":1951:1956   */\n  dup2\n    /* \"#utility.yul\":1944:1965   */\n  mstore\n    /* \"#utility.yul\":1996:2000   */\n  0x20\n    /* \"#utility.yul\":1989:1994   */\n  dup2\n    /* \"#utility.yul\":1985:2001   */\n  add\n    /* \"#utility.yul\":2034:2037   */\n  dup5\n    /* \"#utility.yul\":2025:2031   */\n  dup5\n    /* \"#utility.yul\":2020:2023   */\n  dup5\n    /* \"#utility.yul\":2016:2032   */\n  add\n    /* \"#utility.yul\":2013:2038   */\n  gt\n    /* \"#utility.yul\":2010:2122   */\n  iszero\n  tag_70\n  jumpi\n    /* \"#utility.yul\":2041:2120   */\n  tag_71\n  tag_16\n  jump\t// in\ntag_71:\n    /* \"#utility.yul\":2010:2122   */\ntag_70:\n    /* \"#utility.yul\":2131:2183   */\n  tag_72\n    /* \"#utility.yul\":2176:2182   */\n  dup5\n    /* \"#utility.yul\":2171:2174   */\n  dup3\n    /* \"#utility.yul\":2166:2169   */\n  dup6\n    /* \"#utility.yul\":2131:2183   */\n  tag_22\n  jump\t// in\ntag_72:\n    /* \"#utility.yul\":1850:2189   */\n  pop\n    /* \"#utility.yul\":1755:2189   */\n  swap4\n  swap3\n  pop\n  pop\n  pop\n  jump\t// out\n    /* \"#utility.yul\":2209:2564   */\ntag_24:\n    /* \"#utility.yul\":2276:2281   */\n  0x00\n    /* \"#utility.yul\":2325:2328   */\n  dup3\n    /* \"#utility.yul\":2318:2322   */\n  0x1f\n    /* \"#utility.yul\":2310:2316   */\n  dup4\n    /* \"#utility.yul\":2306:2323   */\n  add\n    /* \"#utility.yul\":2302:2329   */\n  slt\n    /* \"#utility.yul\":2292:2414   */\n  tag_74\n  jumpi\n    /* \"#utility.yul\":2333:2412   */\n  tag_75\n  tag_15\n  jump\t// in\ntag_75:\n    /* \"#utility.yul\":2292:2414   */\ntag_74:\n    /* \"#utility.yul\":2443:2449   */\n  dup2\n    /* \"#utility.yul\":2437:2450   */\n  mload\n    /* \"#utility.yul\":2468:2558   */\n  tag_76\n    /* \"#utility.yul\":2554:2557   */\n  dup5\n    /* \"#utility.yul\":2546:2552   */\n  dup3\n    /* \"#utility.yul\":2539:2543   */\n  0x20\n    /* \"#utility.yul\":2531:2537   */\n  dup7\n    /* \"#utility.yul\":2527:2544   */\n  add\n    /* \"#utility.yul\":2468:2558   */\n  tag_23\n  jump\t// in\ntag_76:\n    /* \"#utility.yul\":2459:2558   */\n  swap2\n  pop\n    /* \"#utility.yul\":2282:2564   */\n  pop\n    /* \"#utility.yul\":2209:2564   */\n  swap3\n  swap2\n  pop\n  pop\n  jump\t// out\n    /* \"#utility.yul\":2570:2647   */\ntag_25:\n    /* \"#utility.yul\":2607:2614   */\n  0x00\n    /* \"#utility.yul\":2636:2641   */\n  dup2\n    /* \"#utility.yul\":2625:2641   */\n  swap1\n  pop\n    /* \"#utility.yul\":2570:2647   */\n  swap2\n  swap1\n  pop\n  jump\t// out\n    /* \"#utility.yul\":2653:2775   */\ntag_26:\n    /* \"#utility.yul\":2726:2750   */\n  tag_79\n    /* \"#utility.yul\":2744:2749   */\n  dup2\n    /* \"#utility.yul\":2726:2750   */\n  tag_25\n  jump\t// in\ntag_79:\n    /* \"#utility.yul\":2719:2724   */\n  dup2\n    /* \"#utility.yul\":2716:2751   */\n  eq\n    /* \"#utility.yul\":2706:2769   */\n  tag_80\n  jumpi\n    /* \"#utility.yul\":2765:2766   */\n  0x00\n    /* \"#utility.yul\":2762:2763   */\n  dup1\n    /* \"#utility.yul\":2755:2767   */\n  revert\n    /* \"#utility.yul\":2706:2769   */\ntag_80:\n    /* \"#utility.yul\":2653:2775   */\n  pop\n  jump\t// out\n    /* \"#utility.yul\":2781:2924   */\ntag_27:\n    /* \"#utility.yul\":2838:2843   */\n  0x00\n    /* \"#utility.yul\":2869:2875   */\n  dup2\n    /* \"#utility.yul\":2863:2876   */\n  mload\n    /* \"#utility.yul\":2854:2876   */\n  swap1\n  pop\n    /* \"#utility.yul\":2885:2918   */\n  tag_82\n    /* \"#utility.yul\":2912:2917   */\n  dup2\n    /* \"#utility.yul\":2885:2918   */\n  tag_26\n  jump\t// in\ntag_82:\n    /* \"#utility.yul\":2781:2924   */\n  swap3\n  swap2\n  pop\n  pop\n  jump\t// out\n    /* \"#utility.yul\":2930:3939   */\ntag_3:\n    /* \"#utility.yul\":3038:3044   */\n  0x00\n    /* \"#utility.yul\":3046:3052   */\n  dup1\n    /* \"#utility.yul\":3054:3060   */\n  0x00\n    /* \"#utility.yul\":3103:3105   */\n  0x60\n    /* \"#utility.yul\":3091:3100   */\n  dup5\n    /* \"#utility.yul\":3082:3089   */\n  dup7\n    /* \"#utility.yul\":3078:3101   */\n  sub\n    /* \"#utility.yul\":3074:3106   */\n  slt\n    /* \"#utility.yul\":3071:3190   */\n  iszero\n  tag_84\n  jumpi\n    /* \"#utility.yul\":3109:3188   */\n  tag_85\n  tag_13\n  jump\t// in\ntag_85:\n    /* \"#utility.yul\":3071:3190   */\ntag_84:\n    /* \"#utility.yul\":3250:3251   */\n  0x00\n    /* \"#utility.yul\":3239:3248   */\n  dup5\n    /* \"#utility.yul\":3235:3252   */\n  add\n    /* \"#utility.yul\":3229:3253   */\n  mload\n    /* \"#utility.yul\":3280:3298   */\n  0xffffffffffffffff\n    /* \"#utility.yul\":3272:3278   */\n  dup2\n    /* \"#utility.yul\":3269:3299   */\n  gt\n    /* \"#utility.yul\":3266:3383   */\n  iszero\n  tag_86\n  jumpi\n    /* \"#utility.yul\":3302:3381   */\n  tag_87\n  tag_14\n  jump\t// in\ntag_87:\n    /* \"#utility.yul\":3266:3383   */\ntag_86:\n    /* \"#utility.yul\":3407:3481   */\n  tag_88\n    /* \"#utility.yul\":3473:3480   */\n  dup7\n    /* \"#utility.yul\":3464:3470   */\n  dup3\n    /* \"#utility.yul\":3453:3462   */\n  dup8\n    /* \"#utility.yul\":3449:3471   */\n  add\n    /* \"#utility.yul\":3407:3481   */\n  tag_24\n  jump\t// in\ntag_88:\n    /* \"#utility.yul\":3397:3481   */\n  swap4\n  pop\n    /* \"#utility.yul\":3200:3491   */\n  pop\n    /* \"#utility.yul\":3551:3553   */\n  0x20\n    /* \"#utility.yul\":3540:3549   */\n  dup5\n    /* \"#utility.yul\":3536:3554   */\n  add\n    /* \"#utility.yul\":3530:3555   */\n  mload\n    /* \"#utility.yul\":3582:3600   */\n  0xffffffffffffffff\n    /* \"#utility.yul\":3574:3580   */\n  dup2\n    /* \"#utility.yul\":3571:3601   */\n  gt\n    /* \"#utility.yul\":3568:3685   */\n  iszero\n  tag_89\n  jumpi\n    /* \"#utility.yul\":3604:3683   */\n  tag_90\n  tag_14\n  jump\t// in\ntag_90:\n    /* \"#utility.yul\":3568:3685   */\ntag_89:\n    /* \"#utility.yul\":3709:3783   */\n  tag_91\n    /* \"#utility.yul\":3775:3782   */\n  dup7\n    /* \"#utility.yul\":3766:3772   */\n  dup3\n    /* \"#utility.yul\":3755:3764   */\n  dup8\n    /* \"#utility.yul\":3751:3773   */\n  add\n    /* \"#utility.yul\":3709:3783   */\n  tag_24\n  jump\t// in\ntag_91:\n    /* \"#utility.yul\":3699:3783   */\n  swap3\n  pop\n    /* \"#utility.yul\":3501:3793   */\n  pop\n    /* \"#utility.yul\":3832:3834   */\n  0x40\n    /* \"#utility.yul\":3858:3922   */\n  tag_92\n    /* \"#utility.yul\":3914:3921   */\n  dup7\n    /* \"#utility.yul\":3905:3911   */\n  dup3\n    /* \"#utility.yul\":3894:3903   */\n  dup8\n    /* \"#utility.yul\":3890:3912   */\n  add\n    /* \"#utility.yul\":3858:3922   */\n  tag_27\n  jump\t// in\ntag_92:\n    /* \"#utility.yul\":3848:3922   */\n  swap2\n  pop\n    /* \"#utility.yul\":3803:3932   */\n  pop\n    /* \"#utility.yul\":2930:3939   */\n  swap3\n  pop\n  swap3\n  pop\n  swap3\n  jump\t// out\n    /* \"#utility.yul\":3945:4044   */\ntag_28:\n    /* \"#utility.yul\":3997:4003   */\n  0x00\n    /* \"#utility.yul\":4031:4036   */\n  dup2\n    /* \"#utility.yul\":4025:4037   */\n  mload\n    /* \"#utility.yul\":4015:4037   */\n  swap1\n  pop\n    /* \"#utility.yul\":3945:4044   */\n  swap2\n  swap1\n  pop\n  jump\t// out\n    /* \"#utility.yul\":4050:4230   */\ntag_29:\n    /* \"#utility.yul\":4098:4175   */\n  0x4e487b7100000000000000000000000000000000000000000000000000000000\n    /* \"#utility.yul\":4095:4096   */\n  0x00\n    /* \"#utility.yul\":4088:4176   */\n  mstore\n    /* \"#utility.yul\":4195:4199   */\n  0x22\n    /* \"#utility.yul\":4192:4193   */\n  0x04\n    /* \"#utility.yul\":4185:4200   */\n  mstore\n    /* \"#utility.yul\":4219:4223   */\n  0x24\n    /* \"#utility.yul\":4216:4217   */\n  0x00\n    /* \"#utility.yul\":4209:4224   */\n  revert\n    /* \"#utility.yul\":4236:4556   */\ntag_30:\n    /* \"#utility.yul\":4280:4286   */\n  0x00\n    /* \"#utility.yul\":4317:4318   */\n  0x02\n    /* \"#utility.yul\":4311:4315   */\n  dup3\n    /* \"#utility.yul\":4307:4319   */\n  div\n    /* \"#utility.yul\":4297:4319   */\n  swap1\n  pop\n    /* \"#utility.yul\":4364:4365   */\n  0x01\n    /* \"#utility.yul\":4358:4362   */\n  dup3\n    /* \"#utility.yul\":4354:4366   */\n  and\n    /* \"#utility.yul\":4385:4403   */\n  dup1\n    /* \"#utility.yul\":4375:4456   */\n  tag_96\n  jumpi\n    /* \"#utility.yul\":4441:4445   */\n  0x7f\n    /* \"#utility.yul\":4433:4439   */\n  dup3\n    /* \"#utility.yul\":4429:4446   */\n  and\n    /* \"#utility.yul\":4419:4446   */\n  swap2\n  pop\n    /* \"#utility.yul\":4375:4456   */\ntag_96:\n    /* \"#utility.yul\":4503:4505   */\n  0x20\n    /* \"#utility.yul\":4495:4501   */\n  dup3\n    /* \"#utility.yul\":4492:4506   */\n  lt\n    /* \"#utility.yul\":4472:4490   */\n  dup2\n    /* \"#utility.yul\":4469:4507   */\n  sub\n    /* \"#utility.yul\":4466:4550   */\n  tag_97\n  jumpi\n    /* \"#utility.yul\":4522:4540   */\n  tag_98\n  tag_29\n  jump\t// in\ntag_98:\n    /* \"#utility.yul\":4466:4550   */\ntag_97:\n    /* \"#utility.yul\":4287:4556   */\n  pop\n    /* \"#utility.yul\":4236:4556   */\n  swap2\n  swap1\n  pop\n  jump\t// out\n    /* \"#utility.yul\":4562:4703   */\ntag_31:\n    /* \"#utility.yul\":4611:4615   */\n  0x00\n    /* \"#utility.yul\":4634:4637   */\n  dup2\n    /* \"#utility.yul\":4626:4637   */\n  swap1\n  pop\n    /* \"#utility.yul\":4657:4660   */\n  dup2\n    /* \"#utility.yul\":4654:4655   */\n  0x00\n    /* \"#utility.yul\":4647:4661   */\n  mstore\n    /* \"#utility.yul\":4691:4695   */\n  0x20\n    /* \"#utility.yul\":4688:4689   */\n  0x00\n    /* \"#utility.yul\":4678:4696   */\n  keccak256\n    /* \"#utility.yul\":4670:4696   */\n  swap1\n  pop\n    /* \"#utility.yul\":4562:4703   */\n  swap2\n  swap1\n  pop\n  jump\t// out\n    /* \"#utility.yul\":4709:4802   */\ntag_32:\n    /* \"#utility.yul\":4746:4752   */\n  0x00\n    /* \"#utility.yul\":4793:4795   */\n  0x20\n    /* \"#utility.yul\":4788:4790   */\n  0x1f\n    /* \"#utility.yul\":4781:4786   */\n  dup4\n    /* \"#utility.yul\":4777:4791   */\n  add\n    /* \"#utility.yul\":4773:4796   */\n  div\n    /* \"#utility.yul\":4763:4796   */\n  swap1\n  pop\n    /* \"#utility.yul\":4709:4802   */\n  swap2\n  swap1\n  pop\n  jump\t// out\n    /* \"#utility.yul\":4808:4915   */\ntag_33:\n    /* \"#utility.yul\":4852:4860   */\n  0x00\n    /* \"#utility.yul\":4902:4907   */\n  dup3\n    /* \"#utility.yul\":4896:4900   */\n  dup3\n    /* \"#utility.yul\":4892:4908   */\n  shl\n    /* \"#utility.yul\":4871:4908   */\n  swap1\n  pop\n    /* \"#utility.yul\":4808:4915   */\n  swap3\n  swap2\n  pop\n  pop\n  jump\t// out\n    /* \"#utility.yul\":4921:5314   */\ntag_34:\n    /* \"#utility.yul\":4990:4996   */\n  0x00\n    /* \"#utility.yul\":5040:5041   */\n  0x08\n    /* \"#utility.yul\":5028:5038   */\n  dup4\n    /* \"#utility.yul\":5024:5042   */\n  mul\n    /* \"#utility.yul\":5063:5160   */\n  tag_103\n    /* \"#utility.yul\":5093:5159   */\n  0xffffffffffffffffffffffffffffffffffffffffffffffffffffffffffffffff\n    /* \"#utility.yul\":5082:5091   */\n  dup3\n    /* \"#utility.yul\":5063:5160   */\n  tag_33\n  jump\t// in\ntag_103:\n    /* \"#utility.yul\":5181:5220   */\n  tag_104\n    /* \"#utility.yul\":5211:5219   */\n  dup7\n    /* \"#utility.yul\":5200:5209   */\n  dup4\n    /* \"#utility.yul\":5181:5220   */\n  tag_33\n  jump\t// in\ntag_104:\n    /* \"#utility.yul\":5169:5220   */\n  swap6\n  pop\n    /* \"#utility.yul\":5253:5257   */\n  dup1\n    /* \"#utility.yul\":5249:5258   */\n  not\n    /* \"#utility.yul\":5242:5247   */\n  dup5\n    /* \"#utility.yul\":5238:5259   */\n  and\n    /* \"#utility.yul\":5229:5259   */\n  swap4\n  pop\n    /* \"#utility.yul\":5302:5306   */\n  dup1\n    /* \"#utility.yul\":5292:5300   */\n  dup7\n    /* \"#utility.yul\":5288:5307   */\n  and\n    /* \"#utility.yul\":5281:5286   */\n  dup5\n    /* \"#utility.yul\":5278:5308   */\n  or\n    /* \"#utility.yul\":5268:5308   */\n  swap3\n  pop\n    /* \"#utility.yul\":4997:5314   */\n  pop\n  pop\n    /* \"#utility.yul\":4921:5314   */\n  swap4\n  swap3\n  pop\n  pop\n  pop\n  jump\t// out\n    /* \"#utility.yul\":5320:5380   */\ntag_35:\n    /* \"#utility.yul\":5348:5351   */\n  0x00\n    /* \"#utility.yul\":5369:5374   */\n  dup2\n    /* \"#utility.yul\":5362:5374   */\n  swap1\n  pop\n    /* \"#utility.yul\":5320:5380   */\n  swap2\n  swap1\n  pop\n  jump\t// out\n    /* \"#utility.yul\":5386:5528   */\ntag_36:\n    /* \"#utility.yul\":5436:5445   */\n  0x00\n    /* \"#utility.yul\":5469:5522   */\n  tag_107\n    /* \"#utility.yul\":5487:5521   */\n  tag_108\n    /* \"#utility.yul\":5496:5520   */\n  tag_109\n    /* \"#utility.yul\":5514:5519   */\n  dup5\n    /* \"#utility.yul\":5496:5520   */\n  tag_25\n  jump\t// in\ntag_109:\n    /* \"#utility.yul\":5487:5521   */\n  tag_35\n  jump\t// in\ntag_108:\n    /* \"#utility.yul\":5469:5522   */\n  tag_25\n  jump\t// in\ntag_107:\n    /* \"#utility.yul\":5456:5522   */\n  swap1\n  pop\n    /* \"#utility.yul\":5386:5528   */\n  swap2\n  swap1\n  pop\n  jump\t// out\n    /* \"#utility.yul\":5534:5609   */\ntag_37:\n    /* \"#utility.yul\":5577:5580   */\n  0x00\n    /* \"#utility.yul\":5598:5603   */\n  dup2\n    /* \"#utility.yul\":5591:5603   */\n  swap1\n  pop\n    /* \"#utility.yul\":5534:5609   */\n  swap2\n  swap1\n  pop\n  jump\t// out\n    /* \"#utility.yul\":5615:5884   */\ntag_38:\n    /* \"#utility.yul\":5725:5764   */\n  tag_112\n    /* \"#utility.yul\":5756:5763   */\n  dup4\n    /* \"#utility.yul\":5725:5764   */\n  tag_36\n  jump\t// in\ntag_112:\n    /* \"#utility.yul\":5786:5877   */\n  tag_113\n    /* \"#utility.yul\":5835:5876   */\n  tag_114\n    /* \"#utility.yul\":5859:5875   */\n  dup3\n    /* \"#utility.yul\":5835:5876   */\n  tag_37\n  jump\t// in\ntag_114:\n    /* \"#utility.yul\":5827:5833   */\n  dup5\n    /* \"#utility.yul\":5820:5824   */\n  dup5\n    /* \"#utility.yul\":5814:5825   */\n  sload\n    /* \"#utility.yul\":5786:5877   */\n  tag_34\n  jump\t// in\ntag_113:\n    /* \"#utility.yul\":5780:5784   */\n  dup3\n    /* \"#utility.yul\":5773:5878   */\n  sstore\n    /* \"#utility.yul\":5691:5884   */\n  pop\n    /* \"#utility.yul\":5615:5884   */\n  pop\n  pop\n  pop\n  jump\t// out\n    /* \"#utility.yul\":5890:5963   */\ntag_39:\n    /* \"#utility.yul\":5935:5938   */\n  0x00\n    /* \"#utility.yul\":5890:5963   */\n  swap1\n  jump\t// out\n    /* \"#utility.yul\":5969:6158   */\ntag_40:\n    /* \"#utility.yul\":6046:6078   */\n  tag_117\n  tag_39\n  jump\t// in\ntag_117:\n    /* \"#utility.yul\":6087:6152   */\n  tag_118\n    /* \"#utility.yul\":6145:6151   */\n  dup2\n    /* \"#utility.yul\":6137:6143   */\n  dup5\n    /* \"#utility.yul\":6131:6135   */\n  dup5\n    /* \"#utility.yul\":6087:6152   */\n  tag_38\n  jump\t// in\ntag_118:\n    /* \"#utility.yul\":6022:6158   */\n  pop\n    /* \"#utility.yul\":5969:6158   */\n  pop\n  pop\n  jump\t// out\n    /* \"#utility.yul\":6164:6350   */\ntag_41:\n    /* \"#utility.yul\":6224:6344   */\ntag_120:\n    /* \"#utility.yul\":6241:6244   */\n  dup2\n    /* \"#utility.yul\":6234:6239   */\n  dup2\n    /* \"#utility.yul\":6231:6245   */\n  lt\n    /* \"#utility.yul\":6224:6344   */\n  iszero\n  tag_122\n  jumpi\n    /* \"#utility.yul\":6295:6334   */\n  tag_123\n    /* \"#utility.yul\":6332:6333   */\n  0x00\n    /* \"#utility.yul\":6325:6330   */\n  dup3\n    /* \"#utility.yul\":6295:6334   */\n  tag_40\n  jump\t// in\ntag_123:\n    /* \"#utility.yul\":6268:6269   */\n  0x01\n    /* \"#utility.yul\":6261:6266   */\n  dup2\n    /* \"#utility.yul\":6257:6270   */\n  add\n    /* \"#utility.yul\":6248:6270   */\n  swap1\n  pop\n    /* \"#utility.yul\":6224:6344   */\n  jump(tag_120)\ntag_122:\n    /* \"#utility.yul\":6164:6350   */\n  pop\n  pop\n  jump\t// out\n    /* \"#utility.yul\":6356:6899   */\ntag_42:\n    /* \"#utility.yul\":6457:6459   */\n  0x1f\n    /* \"#utility.yul\":6452:6455   */\n  dup3\n    /* \"#utility.yul\":6449:6460   */\n  gt\n    /* \"#utility.yul\":6446:6892   */\n  iszero\n  tag_125\n  jumpi\n    /* \"#utility.yul\":6491:6529   */\n  tag_126\n    /* \"#utility.yul\":6523:6528   */\n  dup2\n    /* \"#utility.yul\":6491:6529   */\n  tag_31\n  jump\t// in\ntag_126:\n    /* \"#utility.yul\":6575:6604   */\n  tag_127\n    /* \"#utility.yul\":6593:6603   */\n  dup5\n    /* \"#utility.yul\":6575:6604   */\n  tag_32\n  jump\t// in\ntag_127:\n    /* \"#utility.yul\":6565:6573   */\n  dup2\n    /* \"#utility.yul\":6561:6605   */\n  add\n    /* \"#utility.yul\":6758:6760   */\n  0x20\n    /* \"#utility.yul\":6746:6756   */\n  dup6\n    /* \"#utility.yul\":6743:6761   */\n  lt\n    /* \"#utility.yul\":6740:6789   */\n  iszero\n  tag_128\n  jumpi\n    /* \"#utility.yul\":6779:6787   */\n  dup2\n    /* \"#utility.yul\":6764:6787   */\n  swap1\n  pop\n    /* \"#utility.yul\":6740:6789   */\ntag_128:\n    /* \"#utility.yul\":6802:6882   */\n  tag_129\n    /* \"#utility.yul\":6858:6880   */\n  tag_130\n    /* \"#utility.yul\":6876:6879   */\n  dup6\n    /* \"#utility.yul\":6858:6880   */\n  tag_32\n  jump\t// in\ntag_130:\n    /* \"#utility.yul\":6848:6856   */\n  dup4\n    /* \"#utility.yul\":6844:6881   */\n  add\n    /* \"#utility.yul\":6831:6842   */\n  dup3\n    /* \"#utility.yul\":6802:6882   */\n  tag_41\n  jump\t// in\ntag_129:\n    /* \"#utility.yul\":6461:6892   */\n  pop\n  pop\n    /* \"#utility.yul\":6446:6892   */\ntag_125:\n    /* \"#utility.yul\":6356:6899   */\n  pop\n  pop\n  pop\n  jump\t// out\n    /* \"#utility.yul\":6905:7022   */\ntag_43:\n    /* \"#utility.yul\":6959:6967   */\n  0x00\n    /* \"#utility.yul\":7009:7014   */\n  dup3\n    /* \"#utility.yul\":7003:7007   */\n  dup3\n    /* \"#utility.yul\":6999:7015   */\n  shr\n    /* \"#utility.yul\":6978:7015   */\n  swap1\n  pop\n    /* \"#utility.yul\":6905:7022   */\n  swap3\n  swap2\n  pop\n  pop\n  jump\t// out\n    /* \"#utility.yul\":7028:7197   */\ntag_44:\n    /* \"#utility.yul\":7072:7078   */\n  0x00\n    /* \"#utility.yul\":7105:7156   */\n  tag_133\n    /* \"#utility.yul\":7153:7154   */\n  0x00\n    /* \"#utility.yul\":7149:7155   */\n  not\n    /* \"#utility.yul\":7141:7146   */\n  dup5\n    /* \"#utility.yul\":7138:7139   */\n  0x08\n    /* \"#utility.yul\":7134:7147   */\n  mul\n    /* \"#utility.yul\":7105:7156   */\n  tag_43\n  jump\t// in\ntag_133:\n    /* \"#utility.yul\":7101:7157   */\n  not\n    /* \"#utility.yul\":7186:7190   */\n  dup1\n    /* \"#utility.yul\":7180:7184   */\n  dup4\n    /* \"#utility.yul\":7176:7191   */\n  and\n    /* \"#utility.yul\":7166:7191   */\n  swap2\n  pop\n    /* \"#utility.yul\":7079:7197   */\n  pop\n    /* \"#utility.yul\":7028:7197   */\n  swap3\n  swap2\n  pop\n  pop\n  jump\t// out\n    /* \"#utility.yul\":7202:7497   */\ntag_45:\n    /* \"#utility.yul\":7278:7282   */\n  0x00\n    /* \"#utility.yul\":7424:7453   */\n  tag_135\n    /* \"#utility.yul\":7449:7452   */\n  dup4\n    /* \"#utility.yul\":7443:7447   */\n  dup4\n    /* \"#utility.yul\":7424:7453   */\n  tag_44\n  jump\t// in\ntag_135:\n    /* \"#utility.yul\":7416:7453   */\n  swap2\n  pop\n    /* \"#utility.yul\":7486:7489   */\n  dup3\n    /* \"#utility.yul\":7483:7484   */\n  0x02\n    /* \"#utility.yul\":7479:7490   */\n  mul\n    /* \"#utility.yul\":7473:7477   */\n  dup3\n    /* \"#utility.yul\":7470:7491   */\n  or\n    /* \"#utility.yul\":7462:7491   */\n  swap1\n  pop\n    /* \"#utility.yul\":7202:7497   */\n  swap3\n  swap2\n  pop\n  pop\n  jump\t// out\n    /* \"#utility.yul\":7502:8897   */\ntag_7:\n    /* \"#utility.yul\":7619:7656   */\n  tag_137\n    /* \"#utility.yul\":7652:7655   */\n  dup3\n    /* \"#utility.yul\":7619:7656   */\n  tag_28\n  jump\t// in\ntag_137:\n    /* \"#utility.yul\":7721:7739   */\n  0xffffffffffffffff\n    /* \"#utility.yul\":7713:7719   */\n  dup2\n    /* \"#utility.yul\":7710:7740   */\n  gt\n    /* \"#utility.yul\":7707:7763   */\n  iszero\n  tag_138\n  jumpi\n    /* \"#utility.yul\":7743:7761   */\n  tag_139\n  tag_18\n  jump\t// in\ntag_139:\n    /* \"#utility.yul\":7707:7763   */\ntag_138:\n    /* \"#utility.yul\":7787:7825   */\n  tag_140\n    /* \"#utility.yul\":7819:7823   */\n  dup3\n    /* \"#utility.yul\":7813:7824   */\n  sload\n    /* \"#utility.yul\":7787:7825   */\n  tag_30\n  jump\t// in\ntag_140:\n    /* \"#utility.yul\":7872:7939   */\n  tag_141\n    /* \"#utility.yul\":7932:7938   */\n  dup3\n    /* \"#utility.yul\":7924:7930   */\n  dup3\n    /* \"#utility.yul\":7918:7922   */\n  dup6\n    /* \"#utility.yul\":7872:7939   */\n  tag_42\n  jump\t// in\ntag_141:\n    /* \"#utility.yul\":7966:7967   */\n  0x00\n    /* \"#utility.yul\":7990:7994   */\n  0x20\n    /* \"#utility.yul\":7977:7994   */\n  swap1\n  pop\n    /* \"#utility.yul\":8022:8024   */\n  0x1f\n    /* \"#utility.yul\":8014:8020   */\n  dup4\n    /* \"#utility.yul\":8011:8025   */\n  gt\n    /* \"#utility.yul\":8039:8040   */\n  0x01\n    /* \"#utility.yul\":8034:8652   */\n  dup2\n  eq\n  tag_143\n  jumpi\n    /* \"#utility.yul\":8696:8697   */\n  0x00\n    /* \"#utility.yul\":8713:8719   */\n  dup5\n    /* \"#utility.yul\":8710:8787   */\n  iszero\n  tag_144\n  jumpi\n    /* \"#utility.yul\":8762:8771   */\n  dup3\n    /* \"#utility.yul\":8757:8760   */\n  dup8\n    /* \"#utility.yul\":8753:8772   */\n  add\n    /* \"#utility.yul\":8747:8773   */\n  mload\n    /* \"#utility.yul\":8738:8773   */\n  swap1\n  pop\n    /* \"#utility.yul\":8710:8787   */\ntag_144:\n    /* \"#utility.yul\":8813:8880   */\n  tag_145\n    /* \"#utility.yul\":8873:8879   */\n  dup6\n    /* \"#utility.yul\":8866:8871   */\n  dup3\n    /* \"#utility.yul\":8813:8880   */\n  tag_45\n  jump\t// in\ntag_145:\n    /* \"#utility.yul\":8807:8811   */\n  dup7\n    /* \"#utility.yul\":8800:8881   */\n  sstore\n    /* \"#utility.yul\":8669:8891   */\n  pop\n    /* \"#utility.yul\":8004:8891   */\n  jump(tag_142)\n    /* \"#utility.yul\":8034:8652   */\ntag_143:\n    /* \"#utility.yul\":8086:8090   */\n  0x1f\n    /* \"#utility.yul\":8082:8091   */\n  not\n    /* \"#utility.yul\":8074:8080   */\n  dup5\n    /* \"#utility.yul\":8070:8092   */\n  and\n    /* \"#utility.yul\":8120:8157   */\n  tag_146\n    /* \"#utility.yul\":8152:8156   */\n  dup7\n    /* \"#utility.yul\":8120:8157   */\n  tag_31\n  jump\t// in\ntag_146:\n    /* \"#utility.yul\":8179:8180   */\n  0x00\n    /* \"#utility.yul\":8193:8401   */\ntag_147:\n    /* \"#utility.yul\":8207:8214   */\n  dup3\n    /* \"#utility.yul\":8204:8205   */\n  dup2\n    /* \"#utility.yul\":8201:8215   */\n  lt\n    /* \"#utility.yul\":8193:8401   */\n  iszero\n  tag_149\n  jumpi\n    /* \"#utility.yul\":8286:8295   */\n  dup5\n    /* \"#utility.yul\":8281:8284   */\n  dup10\n    /* \"#utility.yul\":8277:8296   */\n  add\n    /* \"#utility.yul\":8271:8297   */\n  mload\n    /* \"#utility.yul\":8263:8269   */\n  dup3\n    /* \"#utility.yul\":8256:8298   */\n  sstore\n    /* \"#utility.yul\":8337:8338   */\n  0x01\n    /* \"#utility.yul\":8329:8335   */\n  dup3\n    /* \"#utility.yul\":8325:8339   */\n  add\n    /* \"#utility.yul\":8315:8339   */\n  swap2\n  pop\n    /* \"#utility.yul\":8384:8386   */\n  0x20\n    /* \"#utility.yul\":8373:8382   */\n  dup6\n    /* \"#utility.yul\":8369:8387   */\n  add\n    /* \"#utility.yul\":8356:8387   */\n  swap5\n  pop\n    /* \"#utility.yul\":8230:8234   */\n  0x20\n    /* \"#utility.yul\":8227:8228   */\n  dup2\n    /* \"#utility.yul\":8223:8235   */\n  add\n    /* \"#utility.yul\":8218:8235   */\n  swap1\n  pop\n    /* \"#utility.yul\":8193:8401   */\n  jump(tag_147)\ntag_149:\n    /* \"#utility.yul\":8429:8435   */\n  dup7\n    /* \"#utility.yul\":8420:8427   */\n  dup4\n    /* \"#utility.yul\":8417:8436   */\n  lt\n    /* \"#utility.yul\":8414:8593   */\n  iszero\n  tag_150\n  jumpi\n    /* \"#utility.yul\":8487:8496   */\n  dup5\n    /* \"#utility.yul\":8482:8485   */\n  dup10\n    /* \"#utility.yul\":8478:8497   */\n  add\n    /* \"#utility.yul\":8472:8498   */\n  mload\n    /* \"#utility.yul\":8530:8578   */\n  tag_151\n    /* \"#utility.yul\":8572:8576   */\n  0x1f\n    /* \"#utility.yul\":8564:8570   */\n  dup10\n    /* \"#utility.yul\":8560:8577   */\n  and\n    /* \"#utility.yul\":8549:8558   */\n  dup3\n    /* \"#utility.yul\":8530:8578   */\n  tag_44\n  jump\t// in\ntag_151:\n    /* \"#utility.yul\":8522:8528   */\n  dup4\n    /* \"#utility.yul\":8515:8579   */\n  sstore\n    /* \"#utility.yul\":8437:8593   */\n  pop\n    /* \"#utility.yul\":8414:8593   */\ntag_150:\n    /* \"#utility.yul\":8639:8640   */\n  0x01\n    /* \"#utility.yul\":8635:8636   */\n  0x02\n    /* \"#utility.yul\":8627:8633   */\n  dup9\n    /* \"#utility.yul\":8623:8637   */\n  mul\n    /* \"#utility.yul\":8619:8641   */\n  add\n    /* \"#utility.yul\":8613:8617   */\n  dup9\n    /* \"#utility.yul\":8606:8642   */\n  sstore\n    /* \"#utility.yul\":8041:8652   */\n  pop\n  pop\n  pop\n    /* \"#utility.yul\":8004:8891   */\ntag_142:\n  pop\n    /* \"#utility.yul\":7594:8897   */\n  pop\n  pop\n  pop\n    /* \"#utility.yul\":7502:8897   */\n  pop\n  pop\n  jump\t// out\n    /* \"#utility.yul\":8903:9083   */\ntag_46:\n    /* \"#utility.yul\":8951:9028   */\n  0x4e487b7100000000000000000000000000000000000000000000000000000000\n    /* \"#utility.yul\":8948:8949   */\n  0x00\n    /* \"#utility.yul\":8941:9029   */\n  mstore\n    /* \"#utility.yul\":9048:9052   */\n  0x11\n    /* \"#utility.yul\":9045:9046   */\n  0x04\n    /* \"#utility.yul\":9038:9053   */\n  mstore\n    /* \"#utility.yul\":9072:9076   */\n  0x24\n    /* \"#utility.yul\":9069:9070   */\n  0x00\n    /* \"#utility.yul\":9062:9077   */\n  revert\n    /* \"#utility.yul\":9089:9280   */\ntag_10:\n    /* \"#utility.yul\":9129:9132   */\n  0x00\n    /* \"#utility.yul\":9148:9168   */\n  tag_154\n    /* \"#utility.yul\":9166:9167   */\n  dup3\n    /* \"#utility.yul\":9148:9168   */\n  tag_25\n  jump\t// in\ntag_154:\n    /* \"#utility.yul\":9143:9168   */\n  swap2\n  pop\n    /* \"#utility.yul\":9182:9202   */\n  tag_155\n    /* \"#utility.yul\":9200:9201   */\n  dup4\n    /* \"#utility.yul\":9182:9202   */\n  tag_25\n  jump\t// in\ntag_155:\n    /* \"#utility.yul\":9177:9202   */\n  swap3\n  pop\n    /* \"#utility.yul\":9225:9226   */\n  dup3\n    /* \"#utility.yul\":9222:9223   */\n  dup3\n    /* \"#utility.yul\":9218:9227   */\n  add\n    /* \"#utility.yul\":9211:9227   */\n  swap1\n  pop\n    /* \"#utility.yul\":9246:9249   */\n  dup1\n    /* \"#utility.yul\":9243:9244   */\n  dup3\n    /* \"#utility.yul\":9240:9250   */\n  gt\n    /* \"#utility.yul\":9237:9273   */\n  iszero\n  tag_156\n  jumpi\n    /* \"#utility.yul\":9253:9271   */\n  tag_157\n  tag_46\n  jump\t// in\ntag_157:\n    /* \"#utility.yul\":9237:9273   */\ntag_156:\n    /* \"#utility.yul\":9089:9280   */\n  swap3\n  swap2\n  pop\n  pop\n  jump\t// out\n    /* \"Voting_Contracts/Proposal.sol\":61:1711  contract Proposal {... */\ntag_11:\n  dataSize(sub_0)\n  dup1\n  dataOffset(sub_0)\n  0x00\n  codecopy\n  0x00\n  return\nstop\n\nsub_0: assembly {\n        /* \"Voting_Contracts/Proposal.sol\":61:1711  contract Proposal {... */\n      mstore(0x40, 0x80)\n      callvalue\n      dup1\n      iszero\n      tag_1\n      jumpi\n      0x00\n      dup1\n      revert\n    tag_1:\n      pop\n      jumpi(tag_2, lt(calldatasize, 0x04))\n      shr(0xe0, calldataload(0x00))\n      dup1\n      0x9d5a0529\n      gt\n      tag_12\n      jumpi\n      dup1\n      0x9d5a0529\n      eq\n      tag_7\n      jumpi\n      dup1\n      0xb5b47f42\n      eq\n      tag_8\n      jumpi\n      dup1\n      0xb7156512\n      eq\n      tag_9\n      jumpi\n      dup1\n      0xc3403ddf\n      eq\n      tag_10\n      jumpi\n      dup1\n      0xfb286c65\n      eq\n      tag_11\n      jumpi\n      jump(tag_2)\n    tag_12:\n      dup1\n      0x06fdde03\n      eq\n      tag_3\n      jumpi\n      dup1\n      0x29dcb0cf\n      eq\n      tag_4\n      jumpi\n      dup1\n      0x4717f97c\n      eq\n      tag_5\n      jumpi\n      dup1\n      0x7284e416\n      eq\n      tag_6\n      jumpi\n    tag_2:\n      0x00\n      dup1\n      revert\n        /* \"Voting_Contracts/Proposal.sol\":86:104  string public name */\n    tag_3:\n      tag_13\n      tag_14\n      jump\t// in\n    tag_13:\n      mload(0x40)\n      tag_15\n      swap2\n      swap1\n      tag_16\n      jump\t// in\n    tag_15:\n      mload(0x40)\n      dup1\n      swap2\n      sub\n      swap1\n      return\n        /* \"Voting_Contracts/Proposal.sol\":143:163  uint public deadline */\n    tag_4:\n      tag_17\n      tag_18\n      jump\t// in\n    tag_17:\n      mload(0x40)\n      tag_19\n      swap2\n      swap1\n      tag_20\n      jump\t// in\n    tag_19:\n      mload(0x40)\n      dup1\n      swap2\n      sub\n      swap1\n      return\n        /* \"Voting_Contracts/Proposal.sol\":1171:1706  function getResults() external view returns (string memory outcome, uint yesVotesCount, uint noVotesCount, bool votingStatus) {... */\n    tag_5:\n      tag_21\n      tag_22\n      jump\t// in\n    tag_21:\n      mload(0x40)\n      tag_23\n      swap5\n      swap4\n      swap3\n      swap2\n      swap1\n      tag_24\n      jump\t// in\n    tag_23:\n      mload(0x40)\n      dup1\n      swap2\n      sub\n      swap1\n      return\n        /* \"Voting_Contracts/Proposal.sol\":111:136  string public description */\n    tag_6:\n      tag_25\n      tag_26\n      jump\t// in\n    tag_25:\n      mload(0x40)\n      tag_27\n      swap2\n      swap1\n      tag_16\n      jump\t// in\n    tag_27:\n      mload(0x40)\n      dup1\n      swap2\n      sub\n      swap1\n      return\n        /* \"Voting_Contracts/Proposal.sol\":223:246  bool public votingEnded */\n    tag_7:\n      tag_28\n      tag_29\n      jump\t// in\n    tag_28:\n      mload(0x40)\n      tag_30\n      swap2\n      swap1\n      tag_31\n      jump\t// in\n    tag_30:\n      mload(0x40)\n      dup1\n      swap2\n      sub\n      swap1\n      return\n        /* \"Voting_Contracts/Proposal.sol\":197:216  uint public noVotes */\n    tag_8:\n      tag_32\n      tag_33\n      jump\t// in\n    tag_32:\n      mload(0x40)\n      tag_34\n      swap2\n      swap1\n      tag_20\n      jump\t// in\n    tag_34:\n      mload(0x40)\n      dup1\n      swap2\n      sub\n      swap1\n      return\n        /* \"Voting_Contracts/Proposal.sol\":853:1163  function recordVote(bool voteYes, uint weight) external {... */\n    tag_9:\n      tag_35\n      0x04\n      dup1\n      calldatasize\n      sub\n      dup2\n      add\n      swap1\n      tag_36\n      swap2\n      swap1\n      tag_37\n      jump\t// in\n    tag_36:\n      tag_38\n      jump\t// in\n    tag_35:\n      stop\n        /* \"Voting_Contracts/Proposal.sol\":559:845  function endVoting() external {... */\n    tag_10:\n      tag_39\n      tag_40\n      jump\t// in\n    tag_39:\n      stop\n        /* \"Voting_Contracts/Proposal.sol\":170:190  uint public yesVotes */\n    tag_11:\n      tag_41\n      tag_42\n      jump\t// in\n    tag_41:\n      mload(0x40)\n      tag_43\n      swap2\n      swap1\n      tag_20\n      jump\t// in\n    tag_43:\n      mload(0x40)\n      dup1\n      swap2\n      sub\n      swap1\n      return\n        /* \"Voting_Contracts/Proposal.sol\":86:104  string public name */\n    tag_14:\n      0x00\n      dup1\n      sload\n      tag_44\n      swap1\n      tag_45\n      jump\t// in\n    tag_44:\n      dup1\n      0x1f\n      add\n      0x20\n      dup1\n      swap2\n      div\n      mul\n      0x20\n      add\n      mload(0x40)\n      swap1\n      dup2\n      add\n      0x40\n      mstore\n      dup1\n      swap3\n      swap2\n      swap1\n      dup2\n      dup2\n      mstore\n      0x20\n      add\n      dup3\n      dup1\n      sload\n      tag_46\n      swap1\n      tag_45\n      jump\t// in\n    tag_46:\n      dup1\n      iszero\n      tag_47\n      jumpi\n      dup1\n      0x1f\n      lt\n      tag_48\n      jumpi\n      0x0100\n      dup1\n      dup4\n      sload\n      div\n      mul\n      dup4\n      mstore\n      swap2\n      0x20\n      add\n      swap2\n      jump(tag_47)\n    tag_48:\n      dup3\n      add\n      swap2\n      swap1\n      0x00\n      mstore\n      keccak256(0x00, 0x20)\n      swap1\n    tag_49:\n      dup2\n      sload\n      dup2\n      mstore\n      swap1\n      0x01\n      add\n      swap1\n      0x20\n      add\n      dup1\n      dup4\n      gt\n      tag_49\n      jumpi\n      dup3\n      swap1\n      sub\n      0x1f\n      and\n      dup3\n      add\n      swap2\n    tag_47:\n      pop\n      pop\n      pop\n      pop\n      pop\n      dup2\n      jump\t// out\n        /* \"Voting_Contracts/Proposal.sol\":143:163  uint public deadline */\n    tag_18:\n      sload(0x02)\n      dup2\n      jump\t// out\n        /* \"Voting_Contracts/Proposal.sol\":1171:1706  function getResults() external view returns (string memory outcome, uint yesVotesCount, uint noVotesCount, bool votingStatus) {... */\n    tag_22:\n        /* \"Voting_Contracts/Proposal.sol\":1216:1237  string memory outcome */\n      0x60\n        /* \"Voting_Contracts/Proposal.sol\":1239:1257  uint yesVotesCount */\n      0x00\n        /* \"Voting_Contracts/Proposal.sol\":1259:1276  uint noVotesCount */\n      dup1\n        /* \"Voting_Contracts/Proposal.sol\":1278:1295  bool votingStatus */\n      0x00\n        /* \"Voting_Contracts/Proposal.sol\":1324:1332  yesVotes */\n      sload(0x03)\n        /* \"Voting_Contracts/Proposal.sol\":1308:1332  yesVotesCount = yesVotes */\n      swap3\n      pop\n        /* \"Voting_Contracts/Proposal.sol\":1358:1365  noVotes */\n      sload(0x04)\n        /* \"Voting_Contracts/Proposal.sol\":1343:1365  noVotesCount = noVotes */\n      swap2\n      pop\n        /* \"Voting_Contracts/Proposal.sol\":1391:1402  votingEnded */\n      0x05\n      0x00\n      swap1\n      sload\n      swap1\n      0x0100\n      exp\n      swap1\n      div\n      0xff\n      and\n        /* \"Voting_Contracts/Proposal.sol\":1376:1402  votingStatus = votingEnded */\n      swap1\n      pop\n        /* \"Voting_Contracts/Proposal.sol\":1430:1437  noVotes */\n      sload(0x04)\n        /* \"Voting_Contracts/Proposal.sol\":1419:1427  yesVotes */\n      sload(0x03)\n        /* \"Voting_Contracts/Proposal.sol\":1419:1437  yesVotes > noVotes */\n      gt\n        /* \"Voting_Contracts/Proposal.sol\":1415:1627  if (yesVotes > noVotes) {... */\n      iszero\n      tag_51\n      jumpi\n        /* \"Voting_Contracts/Proposal.sol\":1454:1479  outcome = \"Yes votes won\" */\n      mload(0x40)\n      dup1\n      0x40\n      add\n      0x40\n      mstore\n      dup1\n      0x0d\n      dup2\n      mstore\n      0x20\n      add\n      0x59657320766f74657320776f6e00000000000000000000000000000000000000\n      dup2\n      mstore\n      pop\n      swap4\n      pop\n        /* \"Voting_Contracts/Proposal.sol\":1415:1627  if (yesVotes > noVotes) {... */\n      jump(tag_52)\n    tag_51:\n        /* \"Voting_Contracts/Proposal.sol\":1511:1519  yesVotes */\n      sload(0x03)\n        /* \"Voting_Contracts/Proposal.sol\":1501:1508  noVotes */\n      sload(0x04)\n        /* \"Voting_Contracts/Proposal.sol\":1501:1519  noVotes > yesVotes */\n      gt\n        /* \"Voting_Contracts/Proposal.sol\":1497:1627  if (noVotes > yesVotes) {... */\n      iszero\n      tag_53\n      jumpi\n        /* \"Voting_Contracts/Proposal.sol\":1536:1560  outcome = \"No votes won\" */\n      mload(0x40)\n      dup1\n      0x40\n      add\n      0x40\n      mstore\n      dup1\n      0x0c\n      dup2\n      mstore\n      0x20\n      add\n      0x4e6f20766f74657320776f6e0000000000000000000000000000000000000000\n      dup2\n      mstore\n      pop\n      swap4\n      pop\n        /* \"Voting_Contracts/Proposal.sol\":1497:1627  if (noVotes > yesVotes) {... */\n      jump(tag_54)\n    tag_53:\n        /* \"Voting_Contracts/Proposal.sol\":1593:1615  outcome = \"It's a tie\" */\n      mload(0x40)\n      dup1\n      0x40\n      add\n      0x40\n      mstore\n      dup1\n      0x0a\n      dup2\n      mstore\n      0x20\n      add\n      0x4974277320612074696500000000000000000000000000000000000000000000\n      dup2\n      mstore\n      pop\n      swap4\n      pop\n        /* \"Voting_Contracts/Proposal.sol\":1497:1627  if (noVotes > yesVotes) {... */\n    tag_54:\n        /* \"Voting_Contracts/Proposal.sol\":1415:1627  if (yesVotes > noVotes) {... */\n    tag_52:\n        /* \"Voting_Contracts/Proposal.sol\":1171:1706  function getResults() external view returns (string memory outcome, uint yesVotesCount, uint noVotesCount, bool votingStatus) {... */\n      swap1\n      swap2\n      swap3\n      swap4\n      jump\t// out\n        /* \"Voting_Contracts/Proposal.sol\":111:136  string public description */\n    tag_26:\n      0x01\n      dup1\n      sload\n      tag_55\n      swap1\n      tag_45\n      jump\t// in\n    tag_55:\n      dup1\n      0x1f\n      add\n      0x20\n      dup1\n      swap2\n      div\n      mul\n      0x20\n      add\n      mload(0x40)\n      swap1\n      dup2\n      add\n      0x40\n      mstore\n      dup1\n      swap3\n      swap2\n      swap1\n      dup2\n      dup2\n      mstore\n      0x20\n      add\n      dup3\n      dup1\n      sload\n      tag_56\n      swap1\n      tag_45\n      jump\t// in\n    tag_56:\n      dup1\n      iszero\n      tag_57\n      jumpi\n      dup1\n      0x1f\n      lt\n      tag_58\n      jumpi\n      0x0100\n      dup1\n      dup4\n      sload\n      div\n      mul\n      dup4\n      mstore\n      swap2\n      0x20\n      add\n      swap2\n      jump(tag_57)\n    tag_58:\n      dup3\n      add\n      swap2\n      swap1\n      0x00\n      mstore\n      keccak256(0x00, 0x20)\n      swap1\n    tag_59:\n      dup2\n      sload\n      dup2\n      mstore\n      swap1\n      0x01\n      add\n      swap1\n      0x20\n      add\n      dup1\n      dup4\n      gt\n      tag_59\n      jumpi\n      dup3\n      swap1\n      sub\n      0x1f\n      and\n      dup3\n      add\n      swap2\n    tag_57:\n      pop\n      pop\n      pop\n      pop\n      pop\n      dup2\n      jump\t// out\n        /* \"Voting_Contracts/Proposal.sol\":223:246  bool public votingEnded */\n    tag_29:\n      0x05\n      0x00\n      swap1\n      sload\n      swap1\n      0x0100\n      exp\n      swap1\n      div\n      0xff\n      and\n      dup2\n      jump\t// out\n        /* \"Voting_Contracts/Proposal.sol\":197:216  uint public noVotes */\n    tag_33:\n      sload(0x04)\n      dup2\n      jump\t// out\n        /* \"Voting_Contracts/Proposal.sol\":853:1163  function recordVote(bool voteYes, uint weight) external {... */\n    tag_38:\n        /* \"Voting_Contracts/Proposal.sol\":946:954  deadline */\n      sload(0x02)\n        /* \"Voting_Contracts/Proposal.sol\":928:943  block.timestamp */\n      timestamp\n        /* \"Voting_Contracts/Proposal.sol\":928:954  block.timestamp < deadline */\n      lt\n        /* \"Voting_Contracts/Proposal.sol\":920:975  require(block.timestamp < deadline, \"Voting has ended\") */\n      tag_61\n      jumpi\n      mload(0x40)\n      0x08c379a000000000000000000000000000000000000000000000000000000000\n      dup2\n      mstore\n      0x04\n      add\n      tag_62\n      swap1\n      tag_63\n      jump\t// in\n    tag_62:\n      mload(0x40)\n      dup1\n      swap2\n      sub\n      swap1\n      revert\n    tag_61:\n        /* \"Voting_Contracts/Proposal.sol\":995:1006  votingEnded */\n      0x05\n      0x00\n      swap1\n      sload\n      swap1\n      0x0100\n      exp\n      swap1\n      div\n      0xff\n      and\n        /* \"Voting_Contracts/Proposal.sol\":994:1006  !votingEnded */\n      iszero\n        /* \"Voting_Contracts/Proposal.sol\":986:1027  require(!votingEnded, \"Voting has ended\") */\n      tag_64\n      jumpi\n      mload(0x40)\n      0x08c379a000000000000000000000000000000000000000000000000000000000\n      dup2\n      mstore\n      0x04\n      add\n      tag_65\n      swap1\n      tag_63\n      jump\t// in\n    tag_65:\n      mload(0x40)\n      dup1\n      swap2\n      sub\n      swap1\n      revert\n    tag_64:\n        /* \"Voting_Contracts/Proposal.sol\":1052:1059  voteYes */\n      dup2\n        /* \"Voting_Contracts/Proposal.sol\":1048:1156  if (voteYes) {... */\n      iszero\n      tag_66\n      jumpi\n        /* \"Voting_Contracts/Proposal.sol\":1088:1094  weight */\n      dup1\n        /* \"Voting_Contracts/Proposal.sol\":1076:1084  yesVotes */\n      0x03\n      0x00\n        /* \"Voting_Contracts/Proposal.sol\":1076:1094  yesVotes += weight */\n      dup3\n      dup3\n      sload\n      tag_67\n      swap2\n      swap1\n      tag_68\n      jump\t// in\n    tag_67:\n      swap3\n      pop\n      pop\n      dup2\n      swap1\n      sstore\n      pop\n        /* \"Voting_Contracts/Proposal.sol\":1048:1156  if (voteYes) {... */\n      jump(tag_69)\n    tag_66:\n        /* \"Voting_Contracts/Proposal.sol\":1138:1144  weight */\n      dup1\n        /* \"Voting_Contracts/Proposal.sol\":1127:1134  noVotes */\n      0x04\n      0x00\n        /* \"Voting_Contracts/Proposal.sol\":1127:1144  noVotes += weight */\n      dup3\n      dup3\n      sload\n      tag_70\n      swap2\n      swap1\n      tag_68\n      jump\t// in\n    tag_70:\n      swap3\n      pop\n      pop\n      dup2\n      swap1\n      sstore\n      pop\n        /* \"Voting_Contracts/Proposal.sol\":1048:1156  if (voteYes) {... */\n    tag_69:\n        /* \"Voting_Contracts/Proposal.sol\":853:1163  function recordVote(bool voteYes, uint weight) external {... */\n      pop\n      pop\n      jump\t// out\n        /* \"Voting_Contracts/Proposal.sol\":559:845  function endVoting() external {... */\n    tag_40:\n        /* \"Voting_Contracts/Proposal.sol\":626:634  deadline */\n      sload(0x02)\n        /* \"Voting_Contracts/Proposal.sol\":608:623  block.timestamp */\n      timestamp\n        /* \"Voting_Contracts/Proposal.sol\":608:634  block.timestamp > deadline */\n      gt\n        /* \"Voting_Contracts/Proposal.sol\":600:665  require(block.timestamp > deadline, \"Voting period not yet over\") */\n      tag_72\n      jumpi\n      mload(0x40)\n      0x08c379a000000000000000000000000000000000000000000000000000000000\n      dup2\n      mstore\n      0x04\n      add\n      tag_73\n      swap1\n      tag_74\n      jump\t// in\n    tag_73:\n      mload(0x40)\n      dup1\n      swap2\n      sub\n      swap1\n      revert\n    tag_72:\n        /* \"Voting_Contracts/Proposal.sol\":685:696  votingEnded */\n      0x05\n      0x00\n      swap1\n      sload\n      swap1\n      0x0100\n      exp\n      swap1\n      div\n      0xff\n      and\n        /* \"Voting_Contracts/Proposal.sol\":684:696  !votingEnded */\n      iszero\n        /* \"Voting_Contracts/Proposal.sol\":676:721  require(!votingEnded, \"Voting already ended\") */\n      tag_75\n      jumpi\n      mload(0x40)\n      0x08c379a000000000000000000000000000000000000000000000000000000000\n      dup2\n      mstore\n      0x04\n      add\n      tag_76\n      swap1\n      tag_77\n      jump\t// in\n    tag_76:\n      mload(0x40)\n      dup1\n      swap2\n      sub\n      swap1\n      revert\n    tag_75:\n        /* \"Voting_Contracts/Proposal.sol\":746:750  true */\n      0x01\n        /* \"Voting_Contracts/Proposal.sol\":732:743  votingEnded */\n      0x05\n      0x00\n        /* \"Voting_Contracts/Proposal.sol\":732:750  votingEnded = true */\n      0x0100\n      exp\n      dup2\n      sload\n      dup2\n      0xff\n      mul\n      not\n      and\n      swap1\n      dup4\n      iszero\n      iszero\n      mul\n      or\n      swap1\n      sstore\n      pop\n        /* \"Voting_Contracts/Proposal.sol\":766:837  VotingEnded(uint(keccak256(abi.encodePacked(name))), yesVotes, noVotes) */\n      0xcea89ec8feb1022162fb57e69a2bb2c4774289bcc281c3e4ff611d3a63ee6e08\n        /* \"Voting_Contracts/Proposal.sol\":810:814  name */\n      0x00\n        /* \"Voting_Contracts/Proposal.sol\":793:815  abi.encodePacked(name) */\n      add(0x20, mload(0x40))\n      tag_78\n      swap2\n      swap1\n      tag_79\n      jump\t// in\n    tag_78:\n      mload(0x40)\n      0x20\n      dup2\n      dup4\n      sub\n      sub\n      dup2\n      mstore\n      swap1\n      0x40\n      mstore\n        /* \"Voting_Contracts/Proposal.sol\":783:816  keccak256(abi.encodePacked(name)) */\n      dup1\n      mload\n      swap1\n      0x20\n      add\n      keccak256\n        /* \"Voting_Contracts/Proposal.sol\":778:817  uint(keccak256(abi.encodePacked(name))) */\n      0x00\n      shr\n        /* \"Voting_Contracts/Proposal.sol\":819:827  yesVotes */\n      sload(0x03)\n        /* \"Voting_Contracts/Proposal.sol\":829:836  noVotes */\n      sload(0x04)\n        /* \"Voting_Contracts/Proposal.sol\":766:837  VotingEnded(uint(keccak256(abi.encodePacked(name))), yesVotes, noVotes) */\n      mload(0x40)\n      tag_80\n      swap4\n      swap3\n      swap2\n      swap1\n      tag_81\n      jump\t// in\n    tag_80:\n      mload(0x40)\n      dup1\n      swap2\n      sub\n      swap1\n      log1\n        /* \"Voting_Contracts/Proposal.sol\":559:845  function endVoting() external {... */\n      jump\t// out\n        /* \"Voting_Contracts/Proposal.sol\":170:190  uint public yesVotes */\n    tag_42:\n      sload(0x03)\n      dup2\n      jump\t// out\n        /* \"#utility.yul\":7:106   */\n    tag_82:\n        /* \"#utility.yul\":59:65   */\n      0x00\n        /* \"#utility.yul\":93:98   */\n      dup2\n        /* \"#utility.yul\":87:99   */\n      mload\n        /* \"#utility.yul\":77:99   */\n      swap1\n      pop\n        /* \"#utility.yul\":7:106   */\n      swap2\n      swap1\n      pop\n      jump\t// out\n        /* \"#utility.yul\":112:281   */\n    tag_83:\n        /* \"#utility.yul\":196:207   */\n      0x00\n        /* \"#utility.yul\":230:236   */\n      dup3\n        /* \"#utility.yul\":225:228   */\n      dup3\n        /* \"#utility.yul\":218:237   */\n      mstore\n        /* \"#utility.yul\":270:274   */\n      0x20\n        /* \"#utility.yul\":265:268   */\n      dup3\n        /* \"#utility.yul\":261:275   */\n      add\n        /* \"#utility.yul\":246:275   */\n      swap1\n      pop\n        /* \"#utility.yul\":112:281   */\n      swap3\n      swap2\n      pop\n      pop\n      jump\t// out\n        /* \"#utility.yul\":287:426   */\n    tag_84:\n        /* \"#utility.yul\":376:382   */\n      dup3\n        /* \"#utility.yul\":371:374   */\n      dup2\n        /* \"#utility.yul\":366:369   */\n      dup4\n        /* \"#utility.yul\":360:383   */\n      mcopy\n        /* \"#utility.yul\":417:418   */\n      0x00\n        /* \"#utility.yul\":408:414   */\n      dup4\n        /* \"#utility.yul\":403:406   */\n      dup4\n        /* \"#utility.yul\":399:415   */\n      add\n        /* \"#utility.yul\":392:419   */\n      mstore\n        /* \"#utility.yul\":287:426   */\n      pop\n      pop\n      pop\n      jump\t// out\n        /* \"#utility.yul\":432:534   */\n    tag_85:\n        /* \"#utility.yul\":473:479   */\n      0x00\n        /* \"#utility.yul\":524:526   */\n      0x1f\n        /* \"#utility.yul\":520:527   */\n      not\n        /* \"#utility.yul\":515:517   */\n      0x1f\n        /* \"#utility.yul\":508:513   */\n      dup4\n        /* \"#utility.yul\":504:518   */\n      add\n        /* \"#utility.yul\":500:528   */\n      and\n        /* \"#utility.yul\":490:528   */\n      swap1\n      pop\n        /* \"#utility.yul\":432:534   */\n      swap2\n      swap1\n      pop\n      jump\t// out\n        /* \"#utility.yul\":540:917   */\n    tag_86:\n        /* \"#utility.yul\":628:631   */\n      0x00\n        /* \"#utility.yul\":656:695   */\n      tag_115\n        /* \"#utility.yul\":689:694   */\n      dup3\n        /* \"#utility.yul\":656:695   */\n      tag_82\n      jump\t// in\n    tag_115:\n        /* \"#utility.yul\":711:782   */\n      tag_116\n        /* \"#utility.yul\":775:781   */\n      dup2\n        /* \"#utility.yul\":770:773   */\n      dup6\n        /* \"#utility.yul\":711:782   */\n      tag_83\n      jump\t// in\n    tag_116:\n        /* \"#utility.yul\":704:782   */\n      swap4\n      pop\n        /* \"#utility.yul\":791:856   */\n      tag_117\n        /* \"#utility.yul\":849:855   */\n      dup2\n        /* \"#utility.yul\":844:847   */\n      dup6\n        /* \"#utility.yul\":837:841   */\n      0x20\n        /* \"#utility.yul\":830:835   */\n      dup7\n        /* \"#utility.yul\":826:842   */\n      add\n        /* \"#utility.yul\":791:856   */\n      tag_84\n      jump\t// in\n    tag_117:\n        /* \"#utility.yul\":881:910   */\n      tag_118\n        /* \"#utility.yul\":903:909   */\n      dup2\n        /* \"#utility.yul\":881:910   */\n      tag_85\n      jump\t// in\n    tag_118:\n        /* \"#utility.yul\":876:879   */\n      dup5\n        /* \"#utility.yul\":872:911   */\n      add\n        /* \"#utility.yul\":865:911   */\n      swap2\n      pop\n        /* \"#utility.yul\":632:917   */\n      pop\n        /* \"#utility.yul\":540:917   */\n      swap3\n      swap2\n      pop\n      pop\n      jump\t// out\n        /* \"#utility.yul\":923:1236   */\n    tag_16:\n        /* \"#utility.yul\":1036:1040   */\n      0x00\n        /* \"#utility.yul\":1074:1076   */\n      0x20\n        /* \"#utility.yul\":1063:1072   */\n      dup3\n        /* \"#utility.yul\":1059:1077   */\n      add\n        /* \"#utility.yul\":1051:1077   */\n      swap1\n      pop\n        /* \"#utility.yul\":1123:1132   */\n      dup2\n        /* \"#utility.yul\":1117:1121   */\n      dup2\n        /* \"#utility.yul\":1113:1133   */\n      sub\n        /* \"#utility.yul\":1109:1110   */\n      0x00\n        /* \"#utility.yul\":1098:1107   */\n      dup4\n        /* \"#utility.yul\":1094:1111   */\n      add\n        /* \"#utility.yul\":1087:1134   */\n      mstore\n        /* \"#utility.yul\":1151:1229   */\n      tag_120\n        /* \"#utility.yul\":1224:1228   */\n      dup2\n        /* \"#utility.yul\":1215:1221   */\n      dup5\n        /* \"#utility.yul\":1151:1229   */\n      tag_86\n      jump\t// in\n    tag_120:\n        /* \"#utility.yul\":1143:1229   */\n      swap1\n      pop\n        /* \"#utility.yul\":923:1236   */\n      swap3\n      swap2\n      pop\n      pop\n      jump\t// out\n        /* \"#utility.yul\":1242:1319   */\n    tag_87:\n        /* \"#utility.yul\":1279:1286   */\n      0x00\n        /* \"#utility.yul\":1308:1313   */\n      dup2\n        /* \"#utility.yul\":1297:1313   */\n      swap1\n      pop\n        /* \"#utility.yul\":1242:1319   */\n      swap2\n      swap1\n      pop\n      jump\t// out\n        /* \"#utility.yul\":1325:1443   */\n    tag_88:\n        /* \"#utility.yul\":1412:1436   */\n      tag_123\n        /* \"#utility.yul\":1430:1435   */\n      dup2\n        /* \"#utility.yul\":1412:1436   */\n      tag_87\n      jump\t// in\n    tag_123:\n        /* \"#utility.yul\":1407:1410   */\n      dup3\n        /* \"#utility.yul\":1400:1437   */\n      mstore\n        /* \"#utility.yul\":1325:1443   */\n      pop\n      pop\n      jump\t// out\n        /* \"#utility.yul\":1449:1671   */\n    tag_20:\n        /* \"#utility.yul\":1542:1546   */\n      0x00\n        /* \"#utility.yul\":1580:1582   */\n      0x20\n        /* \"#utility.yul\":1569:1578   */\n      dup3\n        /* \"#utility.yul\":1565:1583   */\n      add\n        /* \"#utility.yul\":1557:1583   */\n      swap1\n      pop\n        /* \"#utility.yul\":1593:1664   */\n      tag_125\n        /* \"#utility.yul\":1661:1662   */\n      0x00\n        /* \"#utility.yul\":1650:1659   */\n      dup4\n        /* \"#utility.yul\":1646:1663   */\n      add\n        /* \"#utility.yul\":1637:1643   */\n      dup5\n        /* \"#utility.yul\":1593:1664   */\n      tag_88\n      jump\t// in\n    tag_125:\n        /* \"#utility.yul\":1449:1671   */\n      swap3\n      swap2\n      pop\n      pop\n      jump\t// out\n        /* \"#utility.yul\":1677:1767   */\n    tag_89:\n        /* \"#utility.yul\":1711:1718   */\n      0x00\n        /* \"#utility.yul\":1754:1759   */\n      dup2\n        /* \"#utility.yul\":1747:1760   */\n      iszero\n        /* \"#utility.yul\":1740:1761   */\n      iszero\n        /* \"#utility.yul\":1729:1761   */\n      swap1\n      pop\n        /* \"#utility.yul\":1677:1767   */\n      swap2\n      swap1\n      pop\n      jump\t// out\n        /* \"#utility.yul\":1773:1882   */\n    tag_90:\n        /* \"#utility.yul\":1854:1875   */\n      tag_128\n        /* \"#utility.yul\":1869:1874   */\n      dup2\n        /* \"#utility.yul\":1854:1875   */\n      tag_89\n      jump\t// in\n    tag_128:\n        /* \"#utility.yul\":1849:1852   */\n      dup3\n        /* \"#utility.yul\":1842:1876   */\n      mstore\n        /* \"#utility.yul\":1773:1882   */\n      pop\n      pop\n      jump\t// out\n        /* \"#utility.yul\":1888:2520   */\n    tag_24:\n        /* \"#utility.yul\":2079:2083   */\n      0x00\n        /* \"#utility.yul\":2117:2120   */\n      0x80\n        /* \"#utility.yul\":2106:2115   */\n      dup3\n        /* \"#utility.yul\":2102:2121   */\n      add\n        /* \"#utility.yul\":2094:2121   */\n      swap1\n      pop\n        /* \"#utility.yul\":2167:2176   */\n      dup2\n        /* \"#utility.yul\":2161:2165   */\n      dup2\n        /* \"#utility.yul\":2157:2177   */\n      sub\n        /* \"#utility.yul\":2153:2154   */\n      0x00\n        /* \"#utility.yul\":2142:2151   */\n      dup4\n        /* \"#utility.yul\":2138:2155   */\n      add\n        /* \"#utility.yul\":2131:2178   */\n      mstore\n        /* \"#utility.yul\":2195:2273   */\n      tag_130\n        /* \"#utility.yul\":2268:2272   */\n      dup2\n        /* \"#utility.yul\":2259:2265   */\n      dup8\n        /* \"#utility.yul\":2195:2273   */\n      tag_86\n      jump\t// in\n    tag_130:\n        /* \"#utility.yul\":2187:2273   */\n      swap1\n      pop\n        /* \"#utility.yul\":2283:2355   */\n      tag_131\n        /* \"#utility.yul\":2351:2353   */\n      0x20\n        /* \"#utility.yul\":2340:2349   */\n      dup4\n        /* \"#utility.yul\":2336:2354   */\n      add\n        /* \"#utility.yul\":2327:2333   */\n      dup7\n        /* \"#utility.yul\":2283:2355   */\n      tag_88\n      jump\t// in\n    tag_131:\n        /* \"#utility.yul\":2365:2437   */\n      tag_132\n        /* \"#utility.yul\":2433:2435   */\n      0x40\n        /* \"#utility.yul\":2422:2431   */\n      dup4\n        /* \"#utility.yul\":2418:2436   */\n      add\n        /* \"#utility.yul\":2409:2415   */\n      dup6\n        /* \"#utility.yul\":2365:2437   */\n      tag_88\n      jump\t// in\n    tag_132:\n        /* \"#utility.yul\":2447:2513   */\n      tag_133\n        /* \"#utility.yul\":2509:2511   */\n      0x60\n        /* \"#utility.yul\":2498:2507   */\n      dup4\n        /* \"#utility.yul\":2494:2512   */\n      add\n        /* \"#utility.yul\":2485:2491   */\n      dup5\n        /* \"#utility.yul\":2447:2513   */\n      tag_90\n      jump\t// in\n    tag_133:\n        /* \"#utility.yul\":1888:2520   */\n      swap6\n      swap5\n      pop\n      pop\n      pop\n      pop\n      pop\n      jump\t// out\n        /* \"#utility.yul\":2526:2736   */\n    tag_31:\n        /* \"#utility.yul\":2613:2617   */\n      0x00\n        /* \"#utility.yul\":2651:2653   */\n      0x20\n        /* \"#utility.yul\":2640:2649   */\n      dup3\n        /* \"#utility.yul\":2636:2654   */\n      add\n        /* \"#utility.yul\":2628:2654   */\n      swap1\n      pop\n        /* \"#utility.yul\":2664:2729   */\n      tag_135\n        /* \"#utility.yul\":2726:2727   */\n      0x00\n        /* \"#utility.yul\":2715:2724   */\n      dup4\n        /* \"#utility.yul\":2711:2728   */\n      add\n        /* \"#utility.yul\":2702:2708   */\n      dup5\n        /* \"#utility.yul\":2664:2729   */\n      tag_90\n      jump\t// in\n    tag_135:\n        /* \"#utility.yul\":2526:2736   */\n      swap3\n      swap2\n      pop\n      pop\n      jump\t// out\n        /* \"#utility.yul\":2823:2940   */\n    tag_92:\n        /* \"#utility.yul\":2932:2933   */\n      0x00\n        /* \"#utility.yul\":2929:2930   */\n      dup1\n        /* \"#utility.yul\":2922:2934   */\n      revert\n        /* \"#utility.yul\":3069:3185   */\n    tag_94:\n        /* \"#utility.yul\":3139:3160   */\n      tag_140\n        /* \"#utility.yul\":3154:3159   */\n      dup2\n        /* \"#utility.yul\":3139:3160   */\n      tag_89\n      jump\t// in\n    tag_140:\n        /* \"#utility.yul\":3132:3137   */\n      dup2\n        /* \"#utility.yul\":3129:3161   */\n      eq\n        /* \"#utility.yul\":3119:3179   */\n      tag_141\n      jumpi\n        /* \"#utility.yul\":3175:3176   */\n      0x00\n        /* \"#utility.yul\":3172:3173   */\n      dup1\n        /* \"#utility.yul\":3165:3177   */\n      revert\n        /* \"#utility.yul\":3119:3179   */\n    tag_141:\n        /* \"#utility.yul\":3069:3185   */\n      pop\n      jump\t// out\n        /* \"#utility.yul\":3191:3324   */\n    tag_95:\n        /* \"#utility.yul\":3234:3239   */\n      0x00\n        /* \"#utility.yul\":3272:3278   */\n      dup2\n        /* \"#utility.yul\":3259:3279   */\n      calldataload\n        /* \"#utility.yul\":3250:3279   */\n      swap1\n      pop\n        /* \"#utility.yul\":3288:3318   */\n      tag_143\n        /* \"#utility.yul\":3312:3317   */\n      dup2\n        /* \"#utility.yul\":3288:3318   */\n      tag_94\n      jump\t// in\n    tag_143:\n        /* \"#utility.yul\":3191:3324   */\n      swap3\n      swap2\n      pop\n      pop\n      jump\t// out\n        /* \"#utility.yul\":3330:3452   */\n    tag_96:\n        /* \"#utility.yul\":3403:3427   */\n      tag_145\n        /* \"#utility.yul\":3421:3426   */\n      dup2\n        /* \"#utility.yul\":3403:3427   */\n      tag_87\n      jump\t// in\n    tag_145:\n        /* \"#utility.yul\":3396:3401   */\n      dup2\n        /* \"#utility.yul\":3393:3428   */\n      eq\n        /* \"#utility.yul\":3383:3446   */\n      tag_146\n      jumpi\n        /* \"#utility.yul\":3442:3443   */\n      0x00\n        /* \"#utility.yul\":3439:3440   */\n      dup1\n        /* \"#utility.yul\":3432:3444   */\n      revert\n        /* \"#utility.yul\":3383:3446   */\n    tag_146:\n        /* \"#utility.yul\":3330:3452   */\n      pop\n      jump\t// out\n        /* \"#utility.yul\":3458:3597   */\n    tag_97:\n        /* \"#utility.yul\":3504:3509   */\n      0x00\n        /* \"#utility.yul\":3542:3548   */\n      dup2\n        /* \"#utility.yul\":3529:3549   */\n      calldataload\n        /* \"#utility.yul\":3520:3549   */\n      swap1\n      pop\n        /* \"#utility.yul\":3558:3591   */\n      tag_148\n        /* \"#utility.yul\":3585:3590   */\n      dup2\n        /* \"#utility.yul\":3558:3591   */\n      tag_96\n      jump\t// in\n    tag_148:\n        /* \"#utility.yul\":3458:3597   */\n      swap3\n      swap2\n      pop\n      pop\n      jump\t// out\n        /* \"#utility.yul\":3603:4071   */\n    tag_37:\n        /* \"#utility.yul\":3668:3674   */\n      0x00\n        /* \"#utility.yul\":3676:3682   */\n      dup1\n        /* \"#utility.yul\":3725:3727   */\n      0x40\n        /* \"#utility.yul\":3713:3722   */\n      dup4\n        /* \"#utility.yul\":3704:3711   */\n      dup6\n        /* \"#utility.yul\":3700:3723   */\n      sub\n        /* \"#utility.yul\":3696:3728   */\n      slt\n        /* \"#utility.yul\":3693:3812   */\n      iszero\n      tag_150\n      jumpi\n        /* \"#utility.yul\":3731:3810   */\n      tag_151\n      tag_92\n      jump\t// in\n    tag_151:\n        /* \"#utility.yul\":3693:3812   */\n    tag_150:\n        /* \"#utility.yul\":3851:3852   */\n      0x00\n        /* \"#utility.yul\":3876:3926   */\n      tag_152\n        /* \"#utility.yul\":3918:3925   */\n      dup6\n        /* \"#utility.yul\":3909:3915   */\n      dup3\n        /* \"#utility.yul\":3898:3907   */\n      dup7\n        /* \"#utility.yul\":3894:3916   */\n      add\n        /* \"#utility.yul\":3876:3926   */\n      tag_95\n      jump\t// in\n    tag_152:\n        /* \"#utility.yul\":3866:3926   */\n      swap3\n      pop\n        /* \"#utility.yul\":3822:3936   */\n      pop\n        /* \"#utility.yul\":3975:3977   */\n      0x20\n        /* \"#utility.yul\":4001:4054   */\n      tag_153\n        /* \"#utility.yul\":4046:4053   */\n      dup6\n        /* \"#utility.yul\":4037:4043   */\n      dup3\n        /* \"#utility.yul\":4026:4035   */\n      dup7\n        /* \"#utility.yul\":4022:4044   */\n      add\n        /* \"#utility.yul\":4001:4054   */\n      tag_97\n      jump\t// in\n    tag_153:\n        /* \"#utility.yul\":3991:4054   */\n      swap2\n      pop\n        /* \"#utility.yul\":3946:4064   */\n      pop\n        /* \"#utility.yul\":3603:4071   */\n      swap3\n      pop\n      swap3\n      swap1\n      pop\n      jump\t// out\n        /* \"#utility.yul\":4077:4257   */\n    tag_98:\n        /* \"#utility.yul\":4125:4202   */\n      0x4e487b7100000000000000000000000000000000000000000000000000000000\n        /* \"#utility.yul\":4122:4123   */\n      0x00\n        /* \"#utility.yul\":4115:4203   */\n      mstore\n        /* \"#utility.yul\":4222:4226   */\n      0x22\n        /* \"#utility.yul\":4219:4220   */\n      0x04\n        /* \"#utility.yul\":4212:4227   */\n      mstore\n        /* \"#utility.yul\":4246:4250   */\n      0x24\n        /* \"#utility.yul\":4243:4244   */\n      0x00\n        /* \"#utility.yul\":4236:4251   */\n      revert\n        /* \"#utility.yul\":4263:4583   */\n    tag_45:\n        /* \"#utility.yul\":4307:4313   */\n      0x00\n        /* \"#utility.yul\":4344:4345   */\n      0x02\n        /* \"#utility.yul\":4338:4342   */\n      dup3\n        /* \"#utility.yul\":4334:4346   */\n      div\n        /* \"#utility.yul\":4324:4346   */\n      swap1\n      pop\n        /* \"#utility.yul\":4391:4392   */\n      0x01\n        /* \"#utility.yul\":4385:4389   */\n      dup3\n        /* \"#utility.yul\":4381:4393   */\n      and\n        /* \"#utility.yul\":4412:4430   */\n      dup1\n        /* \"#utility.yul\":4402:4483   */\n      tag_156\n      jumpi\n        /* \"#utility.yul\":4468:4472   */\n      0x7f\n        /* \"#utility.yul\":4460:4466   */\n      dup3\n        /* \"#utility.yul\":4456:4473   */\n      and\n        /* \"#utility.yul\":4446:4473   */\n      swap2\n      pop\n        /* \"#utility.yul\":4402:4483   */\n    tag_156:\n        /* \"#utility.yul\":4530:4532   */\n      0x20\n        /* \"#utility.yul\":4522:4528   */\n      dup3\n        /* \"#utility.yul\":4519:4533   */\n      lt\n        /* \"#utility.yul\":4499:4517   */\n      dup2\n        /* \"#utility.yul\":4496:4534   */\n      sub\n        /* \"#utility.yul\":4493:4577   */\n      tag_157\n      jumpi\n        /* \"#utility.yul\":4549:4567   */\n      tag_158\n      tag_98\n      jump\t// in\n    tag_158:\n        /* \"#utility.yul\":4493:4577   */\n    tag_157:\n        /* \"#utility.yul\":4314:4583   */\n      pop\n        /* \"#utility.yul\":4263:4583   */\n      swap2\n      swap1\n      pop\n      jump\t// out\n        /* \"#utility.yul\":4589:4755   */\n    tag_99:\n        /* \"#utility.yul\":4729:4747   */\n      0x566f74696e672068617320656e64656400000000000000000000000000000000\n        /* \"#utility.yul\":4725:4726   */\n      0x00\n        /* \"#utility.yul\":4717:4723   */\n      dup3\n        /* \"#utility.yul\":4713:4727   */\n      add\n        /* \"#utility.yul\":4706:4748   */\n      mstore\n        /* \"#utility.yul\":4589:4755   */\n      pop\n      jump\t// out\n        /* \"#utility.yul\":4761:5127   */\n    tag_100:\n        /* \"#utility.yul\":4903:4906   */\n      0x00\n        /* \"#utility.yul\":4924:4991   */\n      tag_161\n        /* \"#utility.yul\":4988:4990   */\n      0x10\n        /* \"#utility.yul\":4983:4986   */\n      dup4\n        /* \"#utility.yul\":4924:4991   */\n      tag_83\n      jump\t// in\n    tag_161:\n        /* \"#utility.yul\":4917:4991   */\n      swap2\n      pop\n        /* \"#utility.yul\":5000:5093   */\n      tag_162\n        /* \"#utility.yul\":5089:5092   */\n      dup3\n        /* \"#utility.yul\":5000:5093   */\n      tag_99\n      jump\t// in\n    tag_162:\n        /* \"#utility.yul\":5118:5120   */\n      0x20\n        /* \"#utility.yul\":5113:5116   */\n      dup3\n        /* \"#utility.yul\":5109:5121   */\n      add\n        /* \"#utility.yul\":5102:5121   */\n      swap1\n      pop\n        /* \"#utility.yul\":4761:5127   */\n      swap2\n      swap1\n      pop\n      jump\t// out\n        /* \"#utility.yul\":5133:5552   */\n    tag_63:\n        /* \"#utility.yul\":5299:5303   */\n      0x00\n        /* \"#utility.yul\":5337:5339   */\n      0x20\n        /* \"#utility.yul\":5326:5335   */\n      dup3\n        /* \"#utility.yul\":5322:5340   */\n      add\n        /* \"#utility.yul\":5314:5340   */\n      swap1\n      pop\n        /* \"#utility.yul\":5386:5395   */\n      dup2\n        /* \"#utility.yul\":5380:5384   */\n      dup2\n        /* \"#utility.yul\":5376:5396   */\n      sub\n        /* \"#utility.yul\":5372:5373   */\n      0x00\n        /* \"#utility.yul\":5361:5370   */\n      dup4\n        /* \"#utility.yul\":5357:5374   */\n      add\n        /* \"#utility.yul\":5350:5397   */\n      mstore\n        /* \"#utility.yul\":5414:5545   */\n      tag_164\n        /* \"#utility.yul\":5540:5544   */\n      dup2\n        /* \"#utility.yul\":5414:5545   */\n      tag_100\n      jump\t// in\n    tag_164:\n        /* \"#utility.yul\":5406:5545   */\n      swap1\n      pop\n        /* \"#utility.yul\":5133:5552   */\n      swap2\n      swap1\n      pop\n      jump\t// out\n        /* \"#utility.yul\":5558:5738   */\n    tag_101:\n        /* \"#utility.yul\":5606:5683   */\n      0x4e487b7100000000000000000000000000000000000000000000000000000000\n        /* \"#utility.yul\":5603:5604   */\n      0x00\n        /* \"#utility.yul\":5596:5684   */\n      mstore\n        /* \"#utility.yul\":5703:5707   */\n      0x11\n        /* \"#utility.yul\":5700:5701   */\n      0x04\n        /* \"#utility.yul\":5693:5708   */\n      mstore\n        /* \"#utility.yul\":5727:5731   */\n      0x24\n        /* \"#utility.yul\":5724:5725   */\n      0x00\n        /* \"#utility.yul\":5717:5732   */\n      revert\n        /* \"#utility.yul\":5744:5935   */\n    tag_68:\n        /* \"#utility.yul\":5784:5787   */\n      0x00\n        /* \"#utility.yul\":5803:5823   */\n      tag_167\n        /* \"#utility.yul\":5821:5822   */\n      dup3\n        /* \"#utility.yul\":5803:5823   */\n      tag_87\n      jump\t// in\n    tag_167:\n        /* \"#utility.yul\":5798:5823   */\n      swap2\n      pop\n        /* \"#utility.yul\":5837:5857   */\n      tag_168\n        /* \"#utility.yul\":5855:5856   */\n      dup4\n        /* \"#utility.yul\":5837:5857   */\n      tag_87\n      jump\t// in\n    tag_168:\n        /* \"#utility.yul\":5832:5857   */\n      swap3\n      pop\n        /* \"#utility.yul\":5880:5881   */\n      dup3\n        /* \"#utility.yul\":5877:5878   */\n      dup3\n        /* \"#utility.yul\":5873:5882   */\n      add\n        /* \"#utility.yul\":5866:5882   */\n      swap1\n      pop\n        /* \"#utility.yul\":5901:5904   */\n      dup1\n        /* \"#utility.yul\":5898:5899   */\n      dup3\n        /* \"#utility.yul\":5895:5905   */\n      gt\n        /* \"#utility.yul\":5892:5928   */\n      iszero\n      tag_169\n      jumpi\n        /* \"#utility.yul\":5908:5926   */\n      tag_170\n      tag_101\n      jump\t// in\n    tag_170:\n        /* \"#utility.yul\":5892:5928   */\n    tag_169:\n        /* \"#utility.yul\":5744:5935   */\n      swap3\n      swap2\n      pop\n      pop\n      jump\t// out\n        /* \"#utility.yul\":5941:6117   */\n    tag_102:\n        /* \"#utility.yul\":6081:6109   */\n      0x566f74696e6720706572696f64206e6f7420796574206f766572000000000000\n        /* \"#utility.yul\":6077:6078   */\n      0x00\n        /* \"#utility.yul\":6069:6075   */\n      dup3\n        /* \"#utility.yul\":6065:6079   */\n      add\n        /* \"#utility.yul\":6058:6110   */\n      mstore\n        /* \"#utility.yul\":5941:6117   */\n      pop\n      jump\t// out\n        /* \"#utility.yul\":6123:6489   */\n    tag_103:\n        /* \"#utility.yul\":6265:6268   */\n      0x00\n        /* \"#utility.yul\":6286:6353   */\n      tag_173\n        /* \"#utility.yul\":6350:6352   */\n      0x1a\n        /* \"#utility.yul\":6345:6348   */\n      dup4\n        /* \"#utility.yul\":6286:6353   */\n      tag_83\n      jump\t// in\n    tag_173:\n        /* \"#utility.yul\":6279:6353   */\n      swap2\n      pop\n        /* \"#utility.yul\":6362:6455   */\n      tag_174\n        /* \"#utility.yul\":6451:6454   */\n      dup3\n        /* \"#utility.yul\":6362:6455   */\n      tag_102\n      jump\t// in\n    tag_174:\n        /* \"#utility.yul\":6480:6482   */\n      0x20\n        /* \"#utility.yul\":6475:6478   */\n      dup3\n        /* \"#utility.yul\":6471:6483   */\n      add\n        /* \"#utility.yul\":6464:6483   */\n      swap1\n      pop\n        /* \"#utility.yul\":6123:6489   */\n      swap2\n      swap1\n      pop\n      jump\t// out\n        /* \"#utility.yul\":6495:6914   */\n    tag_74:\n        /* \"#utility.yul\":6661:6665   */\n      0x00\n        /* \"#utility.yul\":6699:6701   */\n      0x20\n        /* \"#utility.yul\":6688:6697   */\n      dup3\n        /* \"#utility.yul\":6684:6702   */\n      add\n        /* \"#utility.yul\":6676:6702   */\n      swap1\n      pop\n        /* \"#utility.yul\":6748:6757   */\n      dup2\n        /* \"#utility.yul\":6742:6746   */\n      dup2\n        /* \"#utility.yul\":6738:6758   */\n      sub\n        /* \"#utility.yul\":6734:6735   */\n      0x00\n        /* \"#utility.yul\":6723:6732   */\n      dup4\n        /* \"#utility.yul\":6719:6736   */\n      add\n        /* \"#utility.yul\":6712:6759   */\n      mstore\n        /* \"#utility.yul\":6776:6907   */\n      tag_176\n        /* \"#utility.yul\":6902:6906   */\n      dup2\n        /* \"#utility.yul\":6776:6907   */\n      tag_103\n      jump\t// in\n    tag_176:\n        /* \"#utility.yul\":6768:6907   */\n      swap1\n      pop\n        /* \"#utility.yul\":6495:6914   */\n      swap2\n      swap1\n      pop\n      jump\t// out\n        /* \"#utility.yul\":6920:7090   */\n    tag_104:\n        /* \"#utility.yul\":7060:7082   */\n      0x566f74696e6720616c726561647920656e646564000000000000000000000000\n        /* \"#utility.yul\":7056:7057   */\n      0x00\n        /* \"#utility.yul\":7048:7054   */\n      dup3\n        /* \"#utility.yul\":7044:7058   */\n      add\n        /* \"#utility.yul\":7037:7083   */\n      mstore\n        /* \"#utility.yul\":6920:7090   */\n      pop\n      jump\t// out\n        /* \"#utility.yul\":7096:7462   */\n    tag_105:\n        /* \"#utility.yul\":7238:7241   */\n      0x00\n        /* \"#utility.yul\":7259:7326   */\n      tag_179\n        /* \"#utility.yul\":7323:7325   */\n      0x14\n        /* \"#utility.yul\":7318:7321   */\n      dup4\n        /* \"#utility.yul\":7259:7326   */\n      tag_83\n      jump\t// in\n    tag_179:\n        /* \"#utility.yul\":7252:7326   */\n      swap2\n      pop\n        /* \"#utility.yul\":7335:7428   */\n      tag_180\n        /* \"#utility.yul\":7424:7427   */\n      dup3\n        /* \"#utility.yul\":7335:7428   */\n      tag_104\n      jump\t// in\n    tag_180:\n        /* \"#utility.yul\":7453:7455   */\n      0x20\n        /* \"#utility.yul\":7448:7451   */\n      dup3\n        /* \"#utility.yul\":7444:7456   */\n      add\n        /* \"#utility.yul\":7437:7456   */\n      swap1\n      pop\n        /* \"#utility.yul\":7096:7462   */\n      swap2\n      swap1\n      pop\n      jump\t// out\n        /* \"#utility.yul\":7468:7887   */\n    tag_77:\n        /* \"#utility.yul\":7634:7638   */\n      0x00\n        /* \"#utility.yul\":7672:7674   */\n      0x20\n        /* \"#utility.yul\":7661:7670   */\n      dup3\n        /* \"#utility.yul\":7657:7675   */\n      add\n        /* \"#utility.yul\":7649:7675   */\n      swap1\n      pop\n        /* \"#utility.yul\":7721:7730   */\n      dup2\n        /* \"#utility.yul\":7715:7719   */\n      dup2\n        /* \"#utility.yul\":7711:7731   */\n      sub\n        /* \"#utility.yul\":7707:7708   */\n      0x00\n        /* \"#utility.yul\":7696:7705   */\n      dup4\n        /* \"#utility.yul\":7692:7709   */\n      add\n        /* \"#utility.yul\":7685:7732   */\n      mstore\n        /* \"#utility.yul\":7749:7880   */\n      tag_182\n        /* \"#utility.yul\":7875:7879   */\n      dup2\n        /* \"#utility.yul\":7749:7880   */\n      tag_105\n      jump\t// in\n    tag_182:\n        /* \"#utility.yul\":7741:7880   */\n      swap1\n      pop\n        /* \"#utility.yul\":7468:7887   */\n      swap2\n      swap1\n      pop\n      jump\t// out\n        /* \"#utility.yul\":7893:8041   */\n    tag_106:\n        /* \"#utility.yul\":7995:8006   */\n      0x00\n        /* \"#utility.yul\":8032:8035   */\n      dup2\n        /* \"#utility.yul\":8017:8035   */\n      swap1\n      pop\n        /* \"#utility.yul\":7893:8041   */\n      swap3\n      swap2\n      pop\n      pop\n      jump\t// out\n        /* \"#utility.yul\":8047:8188   */\n    tag_107:\n        /* \"#utility.yul\":8096:8100   */\n      0x00\n        /* \"#utility.yul\":8119:8122   */\n      dup2\n        /* \"#utility.yul\":8111:8122   */\n      swap1\n      pop\n        /* \"#utility.yul\":8142:8145   */\n      dup2\n        /* \"#utility.yul\":8139:8140   */\n      0x00\n        /* \"#utility.yul\":8132:8146   */\n      mstore\n        /* \"#utility.yul\":8176:8180   */\n      0x20\n        /* \"#utility.yul\":8173:8174   */\n      0x00\n        /* \"#utility.yul\":8163:8181   */\n      keccak256\n        /* \"#utility.yul\":8155:8181   */\n      swap1\n      pop\n        /* \"#utility.yul\":8047:8188   */\n      swap2\n      swap1\n      pop\n      jump\t// out\n        /* \"#utility.yul\":8218:9092   */\n    tag_108:\n        /* \"#utility.yul\":8321:8324   */\n      0x00\n        /* \"#utility.yul\":8358:8363   */\n      dup2\n        /* \"#utility.yul\":8352:8364   */\n      sload\n        /* \"#utility.yul\":8387:8423   */\n      tag_186\n        /* \"#utility.yul\":8413:8422   */\n      dup2\n        /* \"#utility.yul\":8387:8423   */\n      tag_45\n      jump\t// in\n    tag_186:\n        /* \"#utility.yul\":8439:8528   */\n      tag_187\n        /* \"#utility.yul\":8521:8527   */\n      dup2\n        /* \"#utility.yul\":8516:8519   */\n      dup7\n        /* \"#utility.yul\":8439:8528   */\n      tag_106\n      jump\t// in\n    tag_187:\n        /* \"#utility.yul\":8432:8528   */\n      swap5\n      pop\n        /* \"#utility.yul\":8559:8560   */\n      0x01\n        /* \"#utility.yul\":8548:8557   */\n      dup3\n        /* \"#utility.yul\":8544:8561   */\n      and\n        /* \"#utility.yul\":8575:8576   */\n      0x00\n        /* \"#utility.yul\":8570:8736   */\n      dup2\n      eq\n      tag_189\n      jumpi\n        /* \"#utility.yul\":8750:8751   */\n      0x01\n        /* \"#utility.yul\":8745:9086   */\n      dup2\n      eq\n      tag_190\n      jumpi\n        /* \"#utility.yul\":8537:9086   */\n      jump(tag_188)\n        /* \"#utility.yul\":8570:8736   */\n    tag_189:\n        /* \"#utility.yul\":8654:8658   */\n      0xff\n        /* \"#utility.yul\":8650:8659   */\n      not\n        /* \"#utility.yul\":8639:8648   */\n      dup4\n        /* \"#utility.yul\":8635:8660   */\n      and\n        /* \"#utility.yul\":8630:8633   */\n      dup7\n        /* \"#utility.yul\":8623:8661   */\n      mstore\n        /* \"#utility.yul\":8716:8722   */\n      dup2\n        /* \"#utility.yul\":8709:8723   */\n      iszero\n        /* \"#utility.yul\":8702:8724   */\n      iszero\n        /* \"#utility.yul\":8694:8700   */\n      dup3\n        /* \"#utility.yul\":8690:8725   */\n      mul\n        /* \"#utility.yul\":8685:8688   */\n      dup7\n        /* \"#utility.yul\":8681:8726   */\n      add\n        /* \"#utility.yul\":8674:8726   */\n      swap4\n      pop\n        /* \"#utility.yul\":8570:8736   */\n      jump(tag_188)\n        /* \"#utility.yul\":8745:9086   */\n    tag_190:\n        /* \"#utility.yul\":8812:8850   */\n      tag_191\n        /* \"#utility.yul\":8844:8849   */\n      dup6\n        /* \"#utility.yul\":8812:8850   */\n      tag_107\n      jump\t// in\n    tag_191:\n        /* \"#utility.yul\":8872:8873   */\n      0x00\n        /* \"#utility.yul\":8886:9040   */\n    tag_192:\n        /* \"#utility.yul\":8900:8906   */\n      dup4\n        /* \"#utility.yul\":8897:8898   */\n      dup2\n        /* \"#utility.yul\":8894:8907   */\n      lt\n        /* \"#utility.yul\":8886:9040   */\n      iszero\n      tag_194\n      jumpi\n        /* \"#utility.yul\":8974:8981   */\n      dup2\n        /* \"#utility.yul\":8968:8982   */\n      sload\n        /* \"#utility.yul\":8964:8965   */\n      dup2\n        /* \"#utility.yul\":8959:8962   */\n      dup10\n        /* \"#utility.yul\":8955:8966   */\n      add\n        /* \"#utility.yul\":8948:8983   */\n      mstore\n        /* \"#utility.yul\":9024:9025   */\n      0x01\n        /* \"#utility.yul\":9015:9022   */\n      dup3\n        /* \"#utility.yul\":9011:9026   */\n      add\n        /* \"#utility.yul\":9000:9026   */\n      swap2\n      pop\n        /* \"#utility.yul\":8922:8926   */\n      0x20\n        /* \"#utility.yul\":8919:8920   */\n      dup2\n        /* \"#utility.yul\":8915:8927   */\n      add\n        /* \"#utility.yul\":8910:8927   */\n      swap1\n      pop\n        /* \"#utility.yul\":8886:9040   */\n      jump(tag_192)\n    tag_194:\n        /* \"#utility.yul\":9069:9075   */\n      dup4\n        /* \"#utility.yul\":9064:9067   */\n      dup9\n        /* \"#utility.yul\":9060:9076   */\n      add\n        /* \"#utility.yul\":9053:9076   */\n      swap6\n      pop\n        /* \"#utility.yul\":8752:9086   */\n      pop\n      pop\n        /* \"#utility.yul\":8537:9086   */\n    tag_188:\n      pop\n        /* \"#utility.yul\":8325:9092   */\n      pop\n      pop\n        /* \"#utility.yul\":8218:9092   */\n      swap3\n      swap2\n      pop\n      pop\n      jump\t// out\n        /* \"#utility.yul\":9098:9367   */\n    tag_79:\n        /* \"#utility.yul\":9227:9230   */\n      0x00\n        /* \"#utility.yul\":9249:9341   */\n      tag_196\n        /* \"#utility.yul\":9337:9340   */\n      dup3\n        /* \"#utility.yul\":9328:9334   */\n      dup5\n        /* \"#utility.yul\":9249:9341   */\n      tag_108\n      jump\t// in\n    tag_196:\n        /* \"#utility.yul\":9242:9341   */\n      swap2\n      pop\n        /* \"#utility.yul\":9358:9361   */\n      dup2\n        /* \"#utility.yul\":9351:9361   */\n      swap1\n      pop\n        /* \"#utility.yul\":9098:9367   */\n      swap3\n      swap2\n      pop\n      pop\n      jump\t// out\n        /* \"#utility.yul\":9373:9815   */\n    tag_81:\n        /* \"#utility.yul\":9522:9526   */\n      0x00\n        /* \"#utility.yul\":9560:9562   */\n      0x60\n        /* \"#utility.yul\":9549:9558   */\n      dup3\n        /* \"#utility.yul\":9545:9563   */\n      add\n        /* \"#utility.yul\":9537:9563   */\n      swap1\n      pop\n        /* \"#utility.yul\":9573:9644   */\n      tag_198\n        /* \"#utility.yul\":9641:9642   */\n      0x00\n        /* \"#utility.yul\":9630:9639   */\n      dup4\n        /* \"#utility.yul\":9626:9643   */\n      add\n        /* \"#utility.yul\":9617:9623   */\n      dup7\n        /* \"#utility.yul\":9573:9644   */\n      tag_88\n      jump\t// in\n    tag_198:\n        /* \"#utility.yul\":9654:9726   */\n      tag_199\n        /* \"#utility.yul\":9722:9724   */\n      0x20\n        /* \"#utility.yul\":9711:9720   */\n      dup4\n        /* \"#utility.yul\":9707:9725   */\n      add\n        /* \"#utility.yul\":9698:9704   */\n      dup6\n        /* \"#utility.yul\":9654:9726   */\n      tag_88\n      jump\t// in\n    tag_199:\n        /* \"#utility.yul\":9736:9808   */\n      tag_200\n        /* \"#utility.yul\":9804:9806   */\n      0x40\n        /* \"#utility.yul\":9793:9802   */\n      dup4\n        /* \"#utility.yul\":9789:9807   */\n      add\n        /* \"#utility.yul\":9780:9786   */\n      dup5\n        /* \"#utility.yul\":9736:9808   */\n      tag_88\n      jump\t// in\n    tag_200:\n        /* \"#utility.yul\":9373:9815   */\n      swap5\n      swap4\n      pop\n      pop\n      pop\n      pop\n      jump\t// out\n\n    auxdata: 0xa2646970667358221220a067eee021f94a6ff0acf6b2fdcf957b7e905c567bb976783dcb005f0b0798e064736f6c634300081a0033\n}\n",
				"bytecode": {
					"linkReferences": {},
					"object": "608060405234801561000f575f80fd5b5060405161105738038061105783398181016040528101906100319190610203565b825f908161003f919061048f565b50816001908161004f919061048f565b50804261005c919061058b565b6002819055505f60055f6101000a81548160ff0219169083151502179055505050506105be565b5f604051905090565b5f80fd5b5f80fd5b5f80fd5b5f80fd5b5f601f19601f8301169050919050565b7f4e487b71000000000000000000000000000000000000000000000000000000005f52604160045260245ffd5b6100e28261009c565b810181811067ffffffffffffffff82111715610101576101006100ac565b5b80604052505050565b5f610113610083565b905061011f82826100d9565b919050565b5f67ffffffffffffffff82111561013e5761013d6100ac565b5b6101478261009c565b9050602081019050919050565b8281835e5f83830152505050565b5f61017461016f84610124565b61010a565b9050828152602081018484840111156101905761018f610098565b5b61019b848285610154565b509392505050565b5f82601f8301126101b7576101b6610094565b5b81516101c7848260208601610162565b91505092915050565b5f819050919050565b6101e2816101d0565b81146101ec575f80fd5b50565b5f815190506101fd816101d9565b92915050565b5f805f6060848603121561021a5761021961008c565b5b5f84015167ffffffffffffffff81111561023757610236610090565b5b610243868287016101a3565b935050602084015167ffffffffffffffff81111561026457610263610090565b5b610270868287016101a3565b9250506040610281868287016101ef565b9150509250925092565b5f81519050919050565b7f4e487b71000000000000000000000000000000000000000000000000000000005f52602260045260245ffd5b5f60028204905060018216806102d957607f821691505b6020821081036102ec576102eb610295565b5b50919050565b5f819050815f5260205f209050919050565b5f6020601f8301049050919050565b5f82821b905092915050565b5f6008830261034e7fffffffffffffffffffffffffffffffffffffffffffffffffffffffffffffffff82610313565b6103588683610313565b95508019841693508086168417925050509392505050565b5f819050919050565b5f61039361038e610389846101d0565b610370565b6101d0565b9050919050565b5f819050919050565b6103ac83610379565b6103c06103b88261039a565b84845461031f565b825550505050565b5f90565b6103d46103c8565b6103df8184846103a3565b505050565b5b81811015610402576103f75f826103cc565b6001810190506103e5565b5050565b601f82111561044757610418816102f2565b61042184610304565b81016020851015610430578190505b61044461043c85610304565b8301826103e4565b50505b505050565b5f82821c905092915050565b5f6104675f198460080261044c565b1980831691505092915050565b5f61047f8383610458565b9150826002028217905092915050565b6104988261028b565b67ffffffffffffffff8111156104b1576104b06100ac565b5b6104bb82546102c2565b6104c6828285610406565b5f60209050601f8311600181146104f7575f84156104e5578287015190505b6104ef8582610474565b865550610556565b601f198416610505866102f2565b5f5b8281101561052c57848901518255600182019150602085019450602081019050610507565b868310156105495784890151610545601f891682610458565b8355505b6001600288020188555050505b505050505050565b7f4e487b71000000000000000000000000000000000000000000000000000000005f52601160045260245ffd5b5f610595826101d0565b91506105a0836101d0565b92508282019050808211156105b8576105b761055e565b5b92915050565b610a8c806105cb5f395ff3fe608060405234801561000f575f80fd5b5060043610610091575f3560e01c80639d5a0529116100645780639d5a052914610110578063b5b47f421461012e578063b71565121461014c578063c3403ddf14610168578063fb286c651461017257610091565b806306fdde031461009557806329dcb0cf146100b35780634717f97c146100d15780637284e416146100f2575b5f80fd5b61009d610190565b6040516100aa9190610616565b60405180910390f35b6100bb61021b565b6040516100c8919061064e565b60405180910390f35b6100d9610221565b6040516100e99493929190610681565b60405180910390f35b6100fa610313565b6040516101079190610616565b60405180910390f35b61011861039f565b60405161012591906106cb565b60405180910390f35b6101366103b1565b604051610143919061064e565b60405180910390f35b6101666004803603810190610161919061073c565b6103b7565b005b61017061048a565b005b61017a6105a0565b604051610187919061064e565b60405180910390f35b5f805461019c906107a7565b80601f01602080910402602001604051908101604052809291908181526020018280546101c8906107a7565b80156102135780601f106101ea57610100808354040283529160200191610213565b820191905f5260205f20905b8154815290600101906020018083116101f657829003601f168201915b505050505081565b60025481565b60605f805f6003549250600454915060055f9054906101000a900460ff169050600454600354111561028a576040518060400160405280600d81526020017f59657320766f74657320776f6e00000000000000000000000000000000000000815250935061030d565b60035460045411156102d3576040518060400160405280600c81526020017f4e6f20766f74657320776f6e0000000000000000000000000000000000000000815250935061030c565b6040518060400160405280600a81526020017f497427732061207469650000000000000000000000000000000000000000000081525093505b5b90919293565b60018054610320906107a7565b80601f016020809104026020016040519081016040528092919081815260200182805461034c906107a7565b80156103975780601f1061036e57610100808354040283529160200191610397565b820191905f5260205f20905b81548152906001019060200180831161037a57829003601f168201915b505050505081565b60055f9054906101000a900460ff1681565b60045481565b60025442106103fb576040517f08c379a00000000000000000000000000000000000000000000000000000000081526004016103f290610821565b60405180910390fd5b60055f9054906101000a900460ff161561044a576040517f08c379a000000000000000000000000000000000000000000000000000000000815260040161044190610821565b60405180910390fd5b811561046d578060035f828254610461919061086c565b92505081905550610486565b8060045f82825461047e919061086c565b925050819055505b5050565b60025442116104ce576040517f08c379a00000000000000000000000000000000000000000000000000000000081526004016104c5906108e9565b60405180910390fd5b60055f9054906101000a900460ff161561051d576040517f08c379a000000000000000000000000000000000000000000000000000000000815260040161051490610951565b60405180910390fd5b600160055f6101000a81548160ff0219169083151502179055507fcea89ec8feb1022162fb57e69a2bb2c4774289bcc281c3e4ff611d3a63ee6e085f6040516020016105699190610a0b565b604051602081830303815290604052805190602001205f1c60035460045460405161059693929190610a21565b60405180910390a1565b60035481565b5f81519050919050565b5f82825260208201905092915050565b8281835e5f83830152505050565b5f601f19601f8301169050919050565b5f6105e8826105a6565b6105f281856105b0565b93506106028185602086016105c0565b61060b816105ce565b840191505092915050565b5f6020820190508181035f83015261062e81846105de565b905092915050565b5f819050919050565b61064881610636565b82525050565b5f6020820190506106615f83018461063f565b92915050565b5f8115159050919050565b61067b81610667565b82525050565b5f6080820190508181035f83015261069981876105de565b90506106a8602083018661063f565b6106b5604083018561063f565b6106c26060830184610672565b95945050505050565b5f6020820190506106de5f830184610672565b92915050565b5f80fd5b6106f181610667565b81146106fb575f80fd5b50565b5f8135905061070c816106e8565b92915050565b61071b81610636565b8114610725575f80fd5b50565b5f8135905061073681610712565b92915050565b5f8060408385031215610752576107516106e4565b5b5f61075f858286016106fe565b925050602061077085828601610728565b9150509250929050565b7f4e487b71000000000000000000000000000000000000000000000000000000005f52602260045260245ffd5b5f60028204905060018216806107be57607f821691505b6020821081036107d1576107d061077a565b5b50919050565b7f566f74696e672068617320656e646564000000000000000000000000000000005f82015250565b5f61080b6010836105b0565b9150610816826107d7565b602082019050919050565b5f6020820190508181035f830152610838816107ff565b9050919050565b7f4e487b71000000000000000000000000000000000000000000000000000000005f52601160045260245ffd5b5f61087682610636565b915061088183610636565b92508282019050808211156108995761089861083f565b5b92915050565b7f566f74696e6720706572696f64206e6f7420796574206f7665720000000000005f82015250565b5f6108d3601a836105b0565b91506108de8261089f565b602082019050919050565b5f6020820190508181035f830152610900816108c7565b9050919050565b7f566f74696e6720616c726561647920656e6465640000000000000000000000005f82015250565b5f61093b6014836105b0565b915061094682610907565b602082019050919050565b5f6020820190508181035f8301526109688161092f565b9050919050565b5f81905092915050565b5f819050815f5260205f209050919050565b5f8154610997816107a7565b6109a1818661096f565b9450600182165f81146109bb57600181146109d057610a02565b60ff1983168652811515820286019350610a02565b6109d985610979565b5f5b838110156109fa578154818901526001820191506020810190506109db565b838801955050505b50505092915050565b5f610a16828461098b565b915081905092915050565b5f606082019050610a345f83018661063f565b610a41602083018561063f565b610a4e604083018461063f565b94935050505056fea2646970667358221220a067eee021f94a6ff0acf6b2fdcf957b7e905c567bb976783dcb005f0b0798e064736f6c634300081a0033",
					"opcodes": "PUSH1 0x80 PUSH1 0x40 MSTORE CALLVALUE DUP1 ISZERO PUSH2 0xF JUMPI PUSH0 DUP1 REVERT JUMPDEST POP PUSH1 0x40 MLOAD PUSH2 0x1057 CODESIZE SUB DUP1 PUSH2 0x1057 DUP4 CODECOPY DUP2 DUP2 ADD PUSH1 0x40 MSTORE DUP2 ADD SWAP1 PUSH2 0x31 SWAP2 SWAP1 PUSH2 0x203 JUMP JUMPDEST DUP3 PUSH0 SWAP1 DUP2 PUSH2 0x3F SWAP2 SWAP1 PUSH2 0x48F JUMP JUMPDEST POP DUP2 PUSH1 0x1 SWAP1 DUP2 PUSH2 0x4F SWAP2 SWAP1 PUSH2 0x48F JUMP JUMPDEST POP DUP1 TIMESTAMP PUSH2 0x5C SWAP2 SWAP1 PUSH2 0x58B JUMP JUMPDEST PUSH1 0x2 DUP2 SWAP1 SSTORE POP PUSH0 PUSH1 0x5 PUSH0 PUSH2 0x100 EXP DUP2 SLOAD DUP2 PUSH1 0xFF MUL NOT AND SWAP1 DUP4 ISZERO ISZERO MUL OR SWAP1 SSTORE POP POP POP POP PUSH2 0x5BE JUMP JUMPDEST PUSH0 PUSH1 0x40 MLOAD SWAP1 POP SWAP1 JUMP JUMPDEST PUSH0 DUP1 REVERT JUMPDEST PUSH0 DUP1 REVERT JUMPDEST PUSH0 DUP1 REVERT JUMPDEST PUSH0 DUP1 REVERT JUMPDEST PUSH0 PUSH1 0x1F NOT PUSH1 0x1F DUP4 ADD AND SWAP1 POP SWAP2 SWAP1 POP JUMP JUMPDEST PUSH32 0x4E487B7100000000000000000000000000000000000000000000000000000000 PUSH0 MSTORE PUSH1 0x41 PUSH1 0x4 MSTORE PUSH1 0x24 PUSH0 REVERT JUMPDEST PUSH2 0xE2 DUP3 PUSH2 0x9C JUMP JUMPDEST DUP2 ADD DUP2 DUP2 LT PUSH8 0xFFFFFFFFFFFFFFFF DUP3 GT OR ISZERO PUSH2 0x101 JUMPI PUSH2 0x100 PUSH2 0xAC JUMP JUMPDEST JUMPDEST DUP1 PUSH1 0x40 MSTORE POP POP POP JUMP JUMPDEST PUSH0 PUSH2 0x113 PUSH2 0x83 JUMP JUMPDEST SWAP1 POP PUSH2 0x11F DUP3 DUP3 PUSH2 0xD9 JUMP JUMPDEST SWAP2 SWAP1 POP JUMP JUMPDEST PUSH0 PUSH8 0xFFFFFFFFFFFFFFFF DUP3 GT ISZERO PUSH2 0x13E JUMPI PUSH2 0x13D PUSH2 0xAC JUMP JUMPDEST JUMPDEST PUSH2 0x147 DUP3 PUSH2 0x9C JUMP JUMPDEST SWAP1 POP PUSH1 0x20 DUP2 ADD SWAP1 POP SWAP2 SWAP1 POP JUMP JUMPDEST DUP3 DUP2 DUP4 MCOPY PUSH0 DUP4 DUP4 ADD MSTORE POP POP POP JUMP JUMPDEST PUSH0 PUSH2 0x174 PUSH2 0x16F DUP5 PUSH2 0x124 JUMP JUMPDEST PUSH2 0x10A JUMP JUMPDEST SWAP1 POP DUP3 DUP2 MSTORE PUSH1 0x20 DUP2 ADD DUP5 DUP5 DUP5 ADD GT ISZERO PUSH2 0x190 JUMPI PUSH2 0x18F PUSH2 0x98 JUMP JUMPDEST JUMPDEST PUSH2 0x19B DUP5 DUP3 DUP6 PUSH2 0x154 JUMP JUMPDEST POP SWAP4 SWAP3 POP POP POP JUMP JUMPDEST PUSH0 DUP3 PUSH1 0x1F DUP4 ADD SLT PUSH2 0x1B7 JUMPI PUSH2 0x1B6 PUSH2 0x94 JUMP JUMPDEST JUMPDEST DUP2 MLOAD PUSH2 0x1C7 DUP5 DUP3 PUSH1 0x20 DUP7 ADD PUSH2 0x162 JUMP JUMPDEST SWAP2 POP POP SWAP3 SWAP2 POP POP JUMP JUMPDEST PUSH0 DUP2 SWAP1 POP SWAP2 SWAP1 POP JUMP JUMPDEST PUSH2 0x1E2 DUP2 PUSH2 0x1D0 JUMP JUMPDEST DUP2 EQ PUSH2 0x1EC JUMPI PUSH0 DUP1 REVERT JUMPDEST POP JUMP JUMPDEST PUSH0 DUP2 MLOAD SWAP1 POP PUSH2 0x1FD DUP2 PUSH2 0x1D9 JUMP JUMPDEST SWAP3 SWAP2 POP POP JUMP JUMPDEST PUSH0 DUP1 PUSH0 PUSH1 0x60 DUP5 DUP7 SUB SLT ISZERO PUSH2 0x21A JUMPI PUSH2 0x219 PUSH2 0x8C JUMP JUMPDEST JUMPDEST PUSH0 DUP5 ADD MLOAD PUSH8 0xFFFFFFFFFFFFFFFF DUP2 GT ISZERO PUSH2 0x237 JUMPI PUSH2 0x236 PUSH2 0x90 JUMP JUMPDEST JUMPDEST PUSH2 0x243 DUP7 DUP3 DUP8 ADD PUSH2 0x1A3 JUMP JUMPDEST SWAP4 POP POP PUSH1 0x20 DUP5 ADD MLOAD PUSH8 0xFFFFFFFFFFFFFFFF DUP2 GT ISZERO PUSH2 0x264 JUMPI PUSH2 0x263 PUSH2 0x90 JUMP JUMPDEST JUMPDEST PUSH2 0x270 DUP7 DUP3 DUP8 ADD PUSH2 0x1A3 JUMP JUMPDEST SWAP3 POP POP PUSH1 0x40 PUSH2 0x281 DUP7 DUP3 DUP8 ADD PUSH2 0x1EF JUMP JUMPDEST SWAP2 POP POP SWAP3 POP SWAP3 POP SWAP3 JUMP JUMPDEST PUSH0 DUP2 MLOAD SWAP1 POP SWAP2 SWAP1 POP JUMP JUMPDEST PUSH32 0x4E487B7100000000000000000000000000000000000000000000000000000000 PUSH0 MSTORE PUSH1 0x22 PUSH1 0x4 MSTORE PUSH1 0x24 PUSH0 REVERT JUMPDEST PUSH0 PUSH1 0x2 DUP3 DIV SWAP1 POP PUSH1 0x1 DUP3 AND DUP1 PUSH2 0x2D9 JUMPI PUSH1 0x7F DUP3 AND SWAP2 POP JUMPDEST PUSH1 0x20 DUP3 LT DUP2 SUB PUSH2 0x2EC JUMPI PUSH2 0x2EB PUSH2 0x295 JUMP JUMPDEST JUMPDEST POP SWAP2 SWAP1 POP JUMP JUMPDEST PUSH0 DUP2 SWAP1 POP DUP2 PUSH0 MSTORE PUSH1 0x20 PUSH0 KECCAK256 SWAP1 POP SWAP2 SWAP1 POP JUMP JUMPDEST PUSH0 PUSH1 0x20 PUSH1 0x1F DUP4 ADD DIV SWAP1 POP SWAP2 SWAP1 POP JUMP JUMPDEST PUSH0 DUP3 DUP3 SHL SWAP1 POP SWAP3 SWAP2 POP POP JUMP JUMPDEST PUSH0 PUSH1 0x8 DUP4 MUL PUSH2 0x34E PUSH32 0xFFFFFFFFFFFFFFFFFFFFFFFFFFFFFFFFFFFFFFFFFFFFFFFFFFFFFFFFFFFFFFFF DUP3 PUSH2 0x313 JUMP JUMPDEST PUSH2 0x358 DUP7 DUP4 PUSH2 0x313 JUMP JUMPDEST SWAP6 POP DUP1 NOT DUP5 AND SWAP4 POP DUP1 DUP7 AND DUP5 OR SWAP3 POP POP POP SWAP4 SWAP3 POP POP POP JUMP JUMPDEST PUSH0 DUP2 SWAP1 POP SWAP2 SWAP1 POP JUMP JUMPDEST PUSH0 PUSH2 0x393 PUSH2 0x38E PUSH2 0x389 DUP5 PUSH2 0x1D0 JUMP JUMPDEST PUSH2 0x370 JUMP JUMPDEST PUSH2 0x1D0 JUMP JUMPDEST SWAP1 POP SWAP2 SWAP1 POP JUMP JUMPDEST PUSH0 DUP2 SWAP1 POP SWAP2 SWAP1 POP JUMP JUMPDEST PUSH2 0x3AC DUP4 PUSH2 0x379 JUMP JUMPDEST PUSH2 0x3C0 PUSH2 0x3B8 DUP3 PUSH2 0x39A JUMP JUMPDEST DUP5 DUP5 SLOAD PUSH2 0x31F JUMP JUMPDEST DUP3 SSTORE POP POP POP POP JUMP JUMPDEST PUSH0 SWAP1 JUMP JUMPDEST PUSH2 0x3D4 PUSH2 0x3C8 JUMP JUMPDEST PUSH2 0x3DF DUP2 DUP5 DUP5 PUSH2 0x3A3 JUMP JUMPDEST POP POP POP JUMP JUMPDEST JUMPDEST DUP2 DUP2 LT ISZERO PUSH2 0x402 JUMPI PUSH2 0x3F7 PUSH0 DUP3 PUSH2 0x3CC JUMP JUMPDEST PUSH1 0x1 DUP2 ADD SWAP1 POP PUSH2 0x3E5 JUMP JUMPDEST POP POP JUMP JUMPDEST PUSH1 0x1F DUP3 GT ISZERO PUSH2 0x447 JUMPI PUSH2 0x418 DUP2 PUSH2 0x2F2 JUMP JUMPDEST PUSH2 0x421 DUP5 PUSH2 0x304 JUMP JUMPDEST DUP2 ADD PUSH1 0x20 DUP6 LT ISZERO PUSH2 0x430 JUMPI DUP2 SWAP1 POP JUMPDEST PUSH2 0x444 PUSH2 0x43C DUP6 PUSH2 0x304 JUMP JUMPDEST DUP4 ADD DUP3 PUSH2 0x3E4 JUMP JUMPDEST POP POP JUMPDEST POP POP POP JUMP JUMPDEST PUSH0 DUP3 DUP3 SHR SWAP1 POP SWAP3 SWAP2 POP POP JUMP JUMPDEST PUSH0 PUSH2 0x467 PUSH0 NOT DUP5 PUSH1 0x8 MUL PUSH2 0x44C JUMP JUMPDEST NOT DUP1 DUP4 AND SWAP2 POP POP SWAP3 SWAP2 POP POP JUMP JUMPDEST PUSH0 PUSH2 0x47F DUP4 DUP4 PUSH2 0x458 JUMP JUMPDEST SWAP2 POP DUP3 PUSH1 0x2 MUL DUP3 OR SWAP1 POP SWAP3 SWAP2 POP POP JUMP JUMPDEST PUSH2 0x498 DUP3 PUSH2 0x28B JUMP JUMPDEST PUSH8 0xFFFFFFFFFFFFFFFF DUP2 GT ISZERO PUSH2 0x4B1 JUMPI PUSH2 0x4B0 PUSH2 0xAC JUMP JUMPDEST JUMPDEST PUSH2 0x4BB DUP3 SLOAD PUSH2 0x2C2 JUMP JUMPDEST PUSH2 0x4C6 DUP3 DUP3 DUP6 PUSH2 0x406 JUMP JUMPDEST PUSH0 PUSH1 0x20 SWAP1 POP PUSH1 0x1F DUP4 GT PUSH1 0x1 DUP2 EQ PUSH2 0x4F7 JUMPI PUSH0 DUP5 ISZERO PUSH2 0x4E5 JUMPI DUP3 DUP8 ADD MLOAD SWAP1 POP JUMPDEST PUSH2 0x4EF DUP6 DUP3 PUSH2 0x474 JUMP JUMPDEST DUP7 SSTORE POP PUSH2 0x556 JUMP JUMPDEST PUSH1 0x1F NOT DUP5 AND PUSH2 0x505 DUP7 PUSH2 0x2F2 JUMP JUMPDEST PUSH0 JUMPDEST DUP3 DUP2 LT ISZERO PUSH2 0x52C JUMPI DUP5 DUP10 ADD MLOAD DUP3 SSTORE PUSH1 0x1 DUP3 ADD SWAP2 POP PUSH1 0x20 DUP6 ADD SWAP5 POP PUSH1 0x20 DUP2 ADD SWAP1 POP PUSH2 0x507 JUMP JUMPDEST DUP7 DUP4 LT ISZERO PUSH2 0x549 JUMPI DUP5 DUP10 ADD MLOAD PUSH2 0x545 PUSH1 0x1F DUP10 AND DUP3 PUSH2 0x458 JUMP JUMPDEST DUP4 SSTORE POP JUMPDEST PUSH1 0x1 PUSH1 0x2 DUP9 MUL ADD DUP9 SSTORE POP POP POP JUMPDEST POP POP POP POP POP POP JUMP JUMPDEST PUSH32 0x4E487B7100000000000000000000000000000000000000000000000000000000 PUSH0 MSTORE PUSH1 0x11 PUSH1 0x4 MSTORE PUSH1 0x24 PUSH0 REVERT JUMPDEST PUSH0 PUSH2 0x595 DUP3 PUSH2 0x1D0 JUMP JUMPDEST SWAP2 POP PUSH2 0x5A0 DUP4 PUSH2 0x1D0 JUMP JUMPDEST SWAP3 POP DUP3 DUP3 ADD SWAP1 POP DUP1 DUP3 GT ISZERO PUSH2 0x5B8 JUMPI PUSH2 0x5B7 PUSH2 0x55E JUMP JUMPDEST JUMPDEST SWAP3 SWAP2 POP POP JUMP JUMPDEST PUSH2 0xA8C DUP1 PUSH2 0x5CB PUSH0 CODECOPY PUSH0 RETURN INVALID PUSH1 0x80 PUSH1 0x40 MSTORE CALLVALUE DUP1 ISZERO PUSH2 0xF JUMPI PUSH0 DUP1 REVERT JUMPDEST POP PUSH1 0x4 CALLDATASIZE LT PUSH2 0x91 JUMPI PUSH0 CALLDATALOAD PUSH1 0xE0 SHR DUP1 PUSH4 0x9D5A0529 GT PUSH2 0x64 JUMPI DUP1 PUSH4 0x9D5A0529 EQ PUSH2 0x110 JUMPI DUP1 PUSH4 0xB5B47F42 EQ PUSH2 0x12E JUMPI DUP1 PUSH4 0xB7156512 EQ PUSH2 0x14C JUMPI DUP1 PUSH4 0xC3403DDF EQ PUSH2 0x168 JUMPI DUP1 PUSH4 0xFB286C65 EQ PUSH2 0x172 JUMPI PUSH2 0x91 JUMP JUMPDEST DUP1 PUSH4 0x6FDDE03 EQ PUSH2 0x95 JUMPI DUP1 PUSH4 0x29DCB0CF EQ PUSH2 0xB3 JUMPI DUP1 PUSH4 0x4717F97C EQ PUSH2 0xD1 JUMPI DUP1 PUSH4 0x7284E416 EQ PUSH2 0xF2 JUMPI JUMPDEST PUSH0 DUP1 REVERT JUMPDEST PUSH2 0x9D PUSH2 0x190 JUMP JUMPDEST PUSH1 0x40 MLOAD PUSH2 0xAA SWAP2 SWAP1 PUSH2 0x616 JUMP JUMPDEST PUSH1 0x40 MLOAD DUP1 SWAP2 SUB SWAP1 RETURN JUMPDEST PUSH2 0xBB PUSH2 0x21B JUMP JUMPDEST PUSH1 0x40 MLOAD PUSH2 0xC8 SWAP2 SWAP1 PUSH2 0x64E JUMP JUMPDEST PUSH1 0x40 MLOAD DUP1 SWAP2 SUB SWAP1 RETURN JUMPDEST PUSH2 0xD9 PUSH2 0x221 JUMP JUMPDEST PUSH1 0x40 MLOAD PUSH2 0xE9 SWAP5 SWAP4 SWAP3 SWAP2 SWAP1 PUSH2 0x681 JUMP JUMPDEST PUSH1 0x40 MLOAD DUP1 SWAP2 SUB SWAP1 RETURN JUMPDEST PUSH2 0xFA PUSH2 0x313 JUMP JUMPDEST PUSH1 0x40 MLOAD PUSH2 0x107 SWAP2 SWAP1 PUSH2 0x616 JUMP JUMPDEST PUSH1 0x40 MLOAD DUP1 SWAP2 SUB SWAP1 RETURN JUMPDEST PUSH2 0x118 PUSH2 0x39F JUMP JUMPDEST PUSH1 0x40 MLOAD PUSH2 0x125 SWAP2 SWAP1 PUSH2 0x6CB JUMP JUMPDEST PUSH1 0x40 MLOAD DUP1 SWAP2 SUB SWAP1 RETURN JUMPDEST PUSH2 0x136 PUSH2 0x3B1 JUMP JUMPDEST PUSH1 0x40 MLOAD PUSH2 0x143 SWAP2 SWAP1 PUSH2 0x64E JUMP JUMPDEST PUSH1 0x40 MLOAD DUP1 SWAP2 SUB SWAP1 RETURN JUMPDEST PUSH2 0x166 PUSH1 0x4 DUP1 CALLDATASIZE SUB DUP2 ADD SWAP1 PUSH2 0x161 SWAP2 SWAP1 PUSH2 0x73C JUMP JUMPDEST PUSH2 0x3B7 JUMP JUMPDEST STOP JUMPDEST PUSH2 0x170 PUSH2 0x48A JUMP JUMPDEST STOP JUMPDEST PUSH2 0x17A PUSH2 0x5A0 JUMP JUMPDEST PUSH1 0x40 MLOAD PUSH2 0x187 SWAP2 SWAP1 PUSH2 0x64E JUMP JUMPDEST PUSH1 0x40 MLOAD DUP1 SWAP2 SUB SWAP1 RETURN JUMPDEST PUSH0 DUP1 SLOAD PUSH2 0x19C SWAP1 PUSH2 0x7A7 JUMP JUMPDEST DUP1 PUSH1 0x1F ADD PUSH1 0x20 DUP1 SWAP2 DIV MUL PUSH1 0x20 ADD PUSH1 0x40 MLOAD SWAP1 DUP2 ADD PUSH1 0x40 MSTORE DUP1 SWAP3 SWAP2 SWAP1 DUP2 DUP2 MSTORE PUSH1 0x20 ADD DUP3 DUP1 SLOAD PUSH2 0x1C8 SWAP1 PUSH2 0x7A7 JUMP JUMPDEST DUP1 ISZERO PUSH2 0x213 JUMPI DUP1 PUSH1 0x1F LT PUSH2 0x1EA JUMPI PUSH2 0x100 DUP1 DUP4 SLOAD DIV MUL DUP4 MSTORE SWAP2 PUSH1 0x20 ADD SWAP2 PUSH2 0x213 JUMP JUMPDEST DUP3 ADD SWAP2 SWAP1 PUSH0 MSTORE PUSH1 0x20 PUSH0 KECCAK256 SWAP1 JUMPDEST DUP2 SLOAD DUP2 MSTORE SWAP1 PUSH1 0x1 ADD SWAP1 PUSH1 0x20 ADD DUP1 DUP4 GT PUSH2 0x1F6 JUMPI DUP3 SWAP1 SUB PUSH1 0x1F AND DUP3 ADD SWAP2 JUMPDEST POP POP POP POP POP DUP2 JUMP JUMPDEST PUSH1 0x2 SLOAD DUP2 JUMP JUMPDEST PUSH1 0x60 PUSH0 DUP1 PUSH0 PUSH1 0x3 SLOAD SWAP3 POP PUSH1 0x4 SLOAD SWAP2 POP PUSH1 0x5 PUSH0 SWAP1 SLOAD SWAP1 PUSH2 0x100 EXP SWAP1 DIV PUSH1 0xFF AND SWAP1 POP PUSH1 0x4 SLOAD PUSH1 0x3 SLOAD GT ISZERO PUSH2 0x28A JUMPI PUSH1 0x40 MLOAD DUP1 PUSH1 0x40 ADD PUSH1 0x40 MSTORE DUP1 PUSH1 0xD DUP2 MSTORE PUSH1 0x20 ADD PUSH32 0x59657320766F74657320776F6E00000000000000000000000000000000000000 DUP2 MSTORE POP SWAP4 POP PUSH2 0x30D JUMP JUMPDEST PUSH1 0x3 SLOAD PUSH1 0x4 SLOAD GT ISZERO PUSH2 0x2D3 JUMPI PUSH1 0x40 MLOAD DUP1 PUSH1 0x40 ADD PUSH1 0x40 MSTORE DUP1 PUSH1 0xC DUP2 MSTORE PUSH1 0x20 ADD PUSH32 0x4E6F20766F74657320776F6E0000000000000000000000000000000000000000 DUP2 MSTORE POP SWAP4 POP PUSH2 0x30C JUMP JUMPDEST PUSH1 0x40 MLOAD DUP1 PUSH1 0x40 ADD PUSH1 0x40 MSTORE DUP1 PUSH1 0xA DUP2 MSTORE PUSH1 0x20 ADD PUSH32 0x4974277320612074696500000000000000000000000000000000000000000000 DUP2 MSTORE POP SWAP4 POP JUMPDEST JUMPDEST SWAP1 SWAP2 SWAP3 SWAP4 JUMP JUMPDEST PUSH1 0x1 DUP1 SLOAD PUSH2 0x320 SWAP1 PUSH2 0x7A7 JUMP JUMPDEST DUP1 PUSH1 0x1F ADD PUSH1 0x20 DUP1 SWAP2 DIV MUL PUSH1 0x20 ADD PUSH1 0x40 MLOAD SWAP1 DUP2 ADD PUSH1 0x40 MSTORE DUP1 SWAP3 SWAP2 SWAP1 DUP2 DUP2 MSTORE PUSH1 0x20 ADD DUP3 DUP1 SLOAD PUSH2 0x34C SWAP1 PUSH2 0x7A7 JUMP JUMPDEST DUP1 ISZERO PUSH2 0x397 JUMPI DUP1 PUSH1 0x1F LT PUSH2 0x36E JUMPI PUSH2 0x100 DUP1 DUP4 SLOAD DIV MUL DUP4 MSTORE SWAP2 PUSH1 0x20 ADD SWAP2 PUSH2 0x397 JUMP JUMPDEST DUP3 ADD SWAP2 SWAP1 PUSH0 MSTORE PUSH1 0x20 PUSH0 KECCAK256 SWAP1 JUMPDEST DUP2 SLOAD DUP2 MSTORE SWAP1 PUSH1 0x1 ADD SWAP1 PUSH1 0x20 ADD DUP1 DUP4 GT PUSH2 0x37A JUMPI DUP3 SWAP1 SUB PUSH1 0x1F AND DUP3 ADD SWAP2 JUMPDEST POP POP POP POP POP DUP2 JUMP JUMPDEST PUSH1 0x5 PUSH0 SWAP1 SLOAD SWAP1 PUSH2 0x100 EXP SWAP1 DIV PUSH1 0xFF AND DUP2 JUMP JUMPDEST PUSH1 0x4 SLOAD DUP2 JUMP JUMPDEST PUSH1 0x2 SLOAD TIMESTAMP LT PUSH2 0x3FB JUMPI PUSH1 0x40 MLOAD PUSH32 0x8C379A000000000000000000000000000000000000000000000000000000000 DUP2 MSTORE PUSH1 0x4 ADD PUSH2 0x3F2 SWAP1 PUSH2 0x821 JUMP JUMPDEST PUSH1 0x40 MLOAD DUP1 SWAP2 SUB SWAP1 REVERT JUMPDEST PUSH1 0x5 PUSH0 SWAP1 SLOAD SWAP1 PUSH2 0x100 EXP SWAP1 DIV PUSH1 0xFF AND ISZERO PUSH2 0x44A JUMPI PUSH1 0x40 MLOAD PUSH32 0x8C379A000000000000000000000000000000000000000000000000000000000 DUP2 MSTORE PUSH1 0x4 ADD PUSH2 0x441 SWAP1 PUSH2 0x821 JUMP JUMPDEST PUSH1 0x40 MLOAD DUP1 SWAP2 SUB SWAP1 REVERT JUMPDEST DUP2 ISZERO PUSH2 0x46D JUMPI DUP1 PUSH1 0x3 PUSH0 DUP3 DUP3 SLOAD PUSH2 0x461 SWAP2 SWAP1 PUSH2 0x86C JUMP JUMPDEST SWAP3 POP POP DUP2 SWAP1 SSTORE POP PUSH2 0x486 JUMP JUMPDEST DUP1 PUSH1 0x4 PUSH0 DUP3 DUP3 SLOAD PUSH2 0x47E SWAP2 SWAP1 PUSH2 0x86C JUMP JUMPDEST SWAP3 POP POP DUP2 SWAP1 SSTORE POP JUMPDEST POP POP JUMP JUMPDEST PUSH1 0x2 SLOAD TIMESTAMP GT PUSH2 0x4CE JUMPI PUSH1 0x40 MLOAD PUSH32 0x8C379A000000000000000000000000000000000000000000000000000000000 DUP2 MSTORE PUSH1 0x4 ADD PUSH2 0x4C5 SWAP1 PUSH2 0x8E9 JUMP JUMPDEST PUSH1 0x40 MLOAD DUP1 SWAP2 SUB SWAP1 REVERT JUMPDEST PUSH1 0x5 PUSH0 SWAP1 SLOAD SWAP1 PUSH2 0x100 EXP SWAP1 DIV PUSH1 0xFF AND ISZERO PUSH2 0x51D JUMPI PUSH1 0x40 MLOAD PUSH32 0x8C379A000000000000000000000000000000000000000000000000000000000 DUP2 MSTORE PUSH1 0x4 ADD PUSH2 0x514 SWAP1 PUSH2 0x951 JUMP JUMPDEST PUSH1 0x40 MLOAD DUP1 SWAP2 SUB SWAP1 REVERT JUMPDEST PUSH1 0x1 PUSH1 0x5 PUSH0 PUSH2 0x100 EXP DUP2 SLOAD DUP2 PUSH1 0xFF MUL NOT AND SWAP1 DUP4 ISZERO ISZERO MUL OR SWAP1 SSTORE POP PUSH32 0xCEA89EC8FEB1022162FB57E69A2BB2C4774289BCC281C3E4FF611D3A63EE6E08 PUSH0 PUSH1 0x40 MLOAD PUSH1 0x20 ADD PUSH2 0x569 SWAP2 SWAP1 PUSH2 0xA0B JUMP JUMPDEST PUSH1 0x40 MLOAD PUSH1 0x20 DUP2 DUP4 SUB SUB DUP2 MSTORE SWAP1 PUSH1 0x40 MSTORE DUP1 MLOAD SWAP1 PUSH1 0x20 ADD KECCAK256 PUSH0 SHR PUSH1 0x3 SLOAD PUSH1 0x4 SLOAD PUSH1 0x40 MLOAD PUSH2 0x596 SWAP4 SWAP3 SWAP2 SWAP1 PUSH2 0xA21 JUMP JUMPDEST PUSH1 0x40 MLOAD DUP1 SWAP2 SUB SWAP1 LOG1 JUMP JUMPDEST PUSH1 0x3 SLOAD DUP2 JUMP JUMPDEST PUSH0 DUP2 MLOAD SWAP1 POP SWAP2 SWAP1 POP JUMP JUMPDEST PUSH0 DUP3 DUP3 MSTORE PUSH1 0x20 DUP3 ADD SWAP1 POP SWAP3 SWAP2 POP POP JUMP JUMPDEST DUP3 DUP2 DUP4 MCOPY PUSH0 DUP4 DUP4 ADD MSTORE POP POP POP JUMP JUMPDEST PUSH0 PUSH1 0x1F NOT PUSH1 0x1F DUP4 ADD AND SWAP1 POP SWAP2 SWAP1 POP JUMP JUMPDEST PUSH0 PUSH2 0x5E8 DUP3 PUSH2 0x5A6 JUMP JUMPDEST PUSH2 0x5F2 DUP2 DUP6 PUSH2 0x5B0 JUMP JUMPDEST SWAP4 POP PUSH2 0x602 DUP2 DUP6 PUSH1 0x20 DUP7 ADD PUSH2 0x5C0 JUMP JUMPDEST PUSH2 0x60B DUP2 PUSH2 0x5CE JUMP JUMPDEST DUP5 ADD SWAP2 POP POP SWAP3 SWAP2 POP POP JUMP JUMPDEST PUSH0 PUSH1 0x20 DUP3 ADD SWAP1 POP DUP2 DUP2 SUB PUSH0 DUP4 ADD MSTORE PUSH2 0x62E DUP2 DUP5 PUSH2 0x5DE JUMP JUMPDEST SWAP1 POP SWAP3 SWAP2 POP POP JUMP JUMPDEST PUSH0 DUP2 SWAP1 POP SWAP2 SWAP1 POP JUMP JUMPDEST PUSH2 0x648 DUP2 PUSH2 0x636 JUMP JUMPDEST DUP3 MSTORE POP POP JUMP JUMPDEST PUSH0 PUSH1 0x20 DUP3 ADD SWAP1 POP PUSH2 0x661 PUSH0 DUP4 ADD DUP5 PUSH2 0x63F JUMP JUMPDEST SWAP3 SWAP2 POP POP JUMP JUMPDEST PUSH0 DUP2 ISZERO ISZERO SWAP1 POP SWAP2 SWAP1 POP JUMP JUMPDEST PUSH2 0x67B DUP2 PUSH2 0x667 JUMP JUMPDEST DUP3 MSTORE POP POP JUMP JUMPDEST PUSH0 PUSH1 0x80 DUP3 ADD SWAP1 POP DUP2 DUP2 SUB PUSH0 DUP4 ADD MSTORE PUSH2 0x699 DUP2 DUP8 PUSH2 0x5DE JUMP JUMPDEST SWAP1 POP PUSH2 0x6A8 PUSH1 0x20 DUP4 ADD DUP7 PUSH2 0x63F JUMP JUMPDEST PUSH2 0x6B5 PUSH1 0x40 DUP4 ADD DUP6 PUSH2 0x63F JUMP JUMPDEST PUSH2 0x6C2 PUSH1 0x60 DUP4 ADD DUP5 PUSH2 0x672 JUMP JUMPDEST SWAP6 SWAP5 POP POP POP POP POP JUMP JUMPDEST PUSH0 PUSH1 0x20 DUP3 ADD SWAP1 POP PUSH2 0x6DE PUSH0 DUP4 ADD DUP5 PUSH2 0x672 JUMP JUMPDEST SWAP3 SWAP2 POP POP JUMP JUMPDEST PUSH0 DUP1 REVERT JUMPDEST PUSH2 0x6F1 DUP2 PUSH2 0x667 JUMP JUMPDEST DUP2 EQ PUSH2 0x6FB JUMPI PUSH0 DUP1 REVERT JUMPDEST POP JUMP JUMPDEST PUSH0 DUP2 CALLDATALOAD SWAP1 POP PUSH2 0x70C DUP2 PUSH2 0x6E8 JUMP JUMPDEST SWAP3 SWAP2 POP POP JUMP JUMPDEST PUSH2 0x71B DUP2 PUSH2 0x636 JUMP JUMPDEST DUP2 EQ PUSH2 0x725 JUMPI PUSH0 DUP1 REVERT JUMPDEST POP JUMP JUMPDEST PUSH0 DUP2 CALLDATALOAD SWAP1 POP PUSH2 0x736 DUP2 PUSH2 0x712 JUMP JUMPDEST SWAP3 SWAP2 POP POP JUMP JUMPDEST PUSH0 DUP1 PUSH1 0x40 DUP4 DUP6 SUB SLT ISZERO PUSH2 0x752 JUMPI PUSH2 0x751 PUSH2 0x6E4 JUMP JUMPDEST JUMPDEST PUSH0 PUSH2 0x75F DUP6 DUP3 DUP7 ADD PUSH2 0x6FE JUMP JUMPDEST SWAP3 POP POP PUSH1 0x20 PUSH2 0x770 DUP6 DUP3 DUP7 ADD PUSH2 0x728 JUMP JUMPDEST SWAP2 POP POP SWAP3 POP SWAP3 SWAP1 POP JUMP JUMPDEST PUSH32 0x4E487B7100000000000000000000000000000000000000000000000000000000 PUSH0 MSTORE PUSH1 0x22 PUSH1 0x4 MSTORE PUSH1 0x24 PUSH0 REVERT JUMPDEST PUSH0 PUSH1 0x2 DUP3 DIV SWAP1 POP PUSH1 0x1 DUP3 AND DUP1 PUSH2 0x7BE JUMPI PUSH1 0x7F DUP3 AND SWAP2 POP JUMPDEST PUSH1 0x20 DUP3 LT DUP2 SUB PUSH2 0x7D1 JUMPI PUSH2 0x7D0 PUSH2 0x77A JUMP JUMPDEST JUMPDEST POP SWAP2 SWAP1 POP JUMP JUMPDEST PUSH32 0x566F74696E672068617320656E64656400000000000000000000000000000000 PUSH0 DUP3 ADD MSTORE POP JUMP JUMPDEST PUSH0 PUSH2 0x80B PUSH1 0x10 DUP4 PUSH2 0x5B0 JUMP JUMPDEST SWAP2 POP PUSH2 0x816 DUP3 PUSH2 0x7D7 JUMP JUMPDEST PUSH1 0x20 DUP3 ADD SWAP1 POP SWAP2 SWAP1 POP JUMP JUMPDEST PUSH0 PUSH1 0x20 DUP3 ADD SWAP1 POP DUP2 DUP2 SUB PUSH0 DUP4 ADD MSTORE PUSH2 0x838 DUP2 PUSH2 0x7FF JUMP JUMPDEST SWAP1 POP SWAP2 SWAP1 POP JUMP JUMPDEST PUSH32 0x4E487B7100000000000000000000000000000000000000000000000000000000 PUSH0 MSTORE PUSH1 0x11 PUSH1 0x4 MSTORE PUSH1 0x24 PUSH0 REVERT JUMPDEST PUSH0 PUSH2 0x876 DUP3 PUSH2 0x636 JUMP JUMPDEST SWAP2 POP PUSH2 0x881 DUP4 PUSH2 0x636 JUMP JUMPDEST SWAP3 POP DUP3 DUP3 ADD SWAP1 POP DUP1 DUP3 GT ISZERO PUSH2 0x899 JUMPI PUSH2 0x898 PUSH2 0x83F JUMP JUMPDEST JUMPDEST SWAP3 SWAP2 POP POP JUMP JUMPDEST PUSH32 0x566F74696E6720706572696F64206E6F7420796574206F766572000000000000 PUSH0 DUP3 ADD MSTORE POP JUMP JUMPDEST PUSH0 PUSH2 0x8D3 PUSH1 0x1A DUP4 PUSH2 0x5B0 JUMP JUMPDEST SWAP2 POP PUSH2 0x8DE DUP3 PUSH2 0x89F JUMP JUMPDEST PUSH1 0x20 DUP3 ADD SWAP1 POP SWAP2 SWAP1 POP JUMP JUMPDEST PUSH0 PUSH1 0x20 DUP3 ADD SWAP1 POP DUP2 DUP2 SUB PUSH0 DUP4 ADD MSTORE PUSH2 0x900 DUP2 PUSH2 0x8C7 JUMP JUMPDEST SWAP1 POP SWAP2 SWAP1 POP JUMP JUMPDEST PUSH32 0x566F74696E6720616C726561647920656E646564000000000000000000000000 PUSH0 DUP3 ADD MSTORE POP JUMP JUMPDEST PUSH0 PUSH2 0x93B PUSH1 0x14 DUP4 PUSH2 0x5B0 JUMP JUMPDEST SWAP2 POP PUSH2 0x946 DUP3 PUSH2 0x907 JUMP JUMPDEST PUSH1 0x20 DUP3 ADD SWAP1 POP SWAP2 SWAP1 POP JUMP JUMPDEST PUSH0 PUSH1 0x20 DUP3 ADD SWAP1 POP DUP2 DUP2 SUB PUSH0 DUP4 ADD MSTORE PUSH2 0x968 DUP2 PUSH2 0x92F JUMP JUMPDEST SWAP1 POP SWAP2 SWAP1 POP JUMP JUMPDEST PUSH0 DUP2 SWAP1 POP SWAP3 SWAP2 POP POP JUMP JUMPDEST PUSH0 DUP2 SWAP1 POP DUP2 PUSH0 MSTORE PUSH1 0x20 PUSH0 KECCAK256 SWAP1 POP SWAP2 SWAP1 POP JUMP JUMPDEST PUSH0 DUP2 SLOAD PUSH2 0x997 DUP2 PUSH2 0x7A7 JUMP JUMPDEST PUSH2 0x9A1 DUP2 DUP7 PUSH2 0x96F JUMP JUMPDEST SWAP5 POP PUSH1 0x1 DUP3 AND PUSH0 DUP2 EQ PUSH2 0x9BB JUMPI PUSH1 0x1 DUP2 EQ PUSH2 0x9D0 JUMPI PUSH2 0xA02 JUMP JUMPDEST PUSH1 0xFF NOT DUP4 AND DUP7 MSTORE DUP2 ISZERO ISZERO DUP3 MUL DUP7 ADD SWAP4 POP PUSH2 0xA02 JUMP JUMPDEST PUSH2 0x9D9 DUP6 PUSH2 0x979 JUMP JUMPDEST PUSH0 JUMPDEST DUP4 DUP2 LT ISZERO PUSH2 0x9FA JUMPI DUP2 SLOAD DUP2 DUP10 ADD MSTORE PUSH1 0x1 DUP3 ADD SWAP2 POP PUSH1 0x20 DUP2 ADD SWAP1 POP PUSH2 0x9DB JUMP JUMPDEST DUP4 DUP9 ADD SWAP6 POP POP POP JUMPDEST POP POP POP SWAP3 SWAP2 POP POP JUMP JUMPDEST PUSH0 PUSH2 0xA16 DUP3 DUP5 PUSH2 0x98B JUMP JUMPDEST SWAP2 POP DUP2 SWAP1 POP SWAP3 SWAP2 POP POP JUMP JUMPDEST PUSH0 PUSH1 0x60 DUP3 ADD SWAP1 POP PUSH2 0xA34 PUSH0 DUP4 ADD DUP7 PUSH2 0x63F JUMP JUMPDEST PUSH2 0xA41 PUSH1 0x20 DUP4 ADD DUP6 PUSH2 0x63F JUMP JUMPDEST PUSH2 0xA4E PUSH1 0x40 DUP4 ADD DUP5 PUSH2 0x63F JUMP JUMPDEST SWAP5 SWAP4 POP POP POP POP JUMP INVALID LOG2 PUSH5 0x6970667358 0x22 SLT KECCAK256 LOG0 PUSH8 0xEEE021F94A6FF0AC 0xF6 0xB2 REVERT 0xCF SWAP6 PUSH28 0x7E905C567BB976783DCB005F0B0798E064736F6C634300081A003300 "
				},
				"gasEstimates": {
					"creation": {
						"codeDepositCost": "540000",
						"executionCost": "infinite",
						"totalCost": "infinite"
					},
					"external": {
						"deadline()": "2448",
						"description()": "infinite",
						"endVoting()": "infinite",
						"getResults()": "infinite",
						"name()": "infinite",
						"noVotes()": "2447",
						"recordVote(bool,uint256)": "infinite",
						"votingEnded()": "2466",
						"yesVotes()": "2513"
					}
				},
				"methodIdentifiers": {
					"deadline()": "29dcb0cf",
					"description()": "7284e416",
					"endVoting()": "c3403ddf",
					"getResults()": "4717f97c",
					"name()": "06fdde03",
					"noVotes()": "b5b47f42",
					"recordVote(bool,uint256)": "b7156512",
					"votingEnded()": "9d5a0529",
					"yesVotes()": "fb286c65"
				}
			},
			"storageLayout": {
				"storage": [
					{
						"astId": 448,
						"contract": "Voting_Contracts/Proposal.sol:Proposal",
						"label": "name",
						"offset": 0,
						"slot": "0",
						"type": "t_string_storage"
					},
					{
						"astId": 450,
						"contract": "Voting_Contracts/Proposal.sol:Proposal",
						"label": "description",
						"offset": 0,
						"slot": "1",
						"type": "t_string_storage"
					},
					{
						"astId": 452,
						"contract": "Voting_Contracts/Proposal.sol:Proposal",
						"label": "deadline",
						"offset": 0,
						"slot": "2",
						"type": "t_uint256"
					},
					{
						"astId": 454,
						"contract": "Voting_Contracts/Proposal.sol:Proposal",
						"label": "yesVotes",
						"offset": 0,
						"slot": "3",
						"type": "t_uint256"
					},
					{
						"astId": 456,
						"contract": "Voting_Contracts/Proposal.sol:Proposal",
						"label": "noVotes",
						"offset": 0,
						"slot": "4",
						"type": "t_uint256"
					},
					{
						"astId": 458,
						"contract": "Voting_Contracts/Proposal.sol:Proposal",
						"label": "votingEnded",
						"offset": 0,
						"slot": "5",
						"type": "t_bool"
					}
				],
				"types": {
					"t_bool": {
						"encoding": "inplace",
						"label": "bool",
						"numberOfBytes": "1"
					},
					"t_string_storage": {
						"encoding": "bytes",
						"label": "string",
						"numberOfBytes": "32"
					},
					"t_uint256": {
						"encoding": "inplace",
						"label": "uint256",
						"numberOfBytes": "32"
					}
				}
			},
			"userdoc": {
				"kind": "user",
				"methods": {},
				"version": 1
			}
		}
	}
}