{
	"Voting_Contracts/Master.sol": {
		"Master": {
			"abi": [
				{
					"inputs": [],
					"stateMutability": "nonpayable",
					"type": "constructor"
				},
				{
					"anonymous": false,
					"inputs": [
						{
							"indexed": false,
							"internalType": "address",
							"name": "account",
							"type": "address"
						}
					],
					"name": "Paused",
					"type": "event"
				},
				{
					"anonymous": false,
					"inputs": [
						{
							"indexed": false,
							"internalType": "uint256",
							"name": "id",
							"type": "uint256"
						},
						{
							"indexed": false,
							"internalType": "string",
							"name": "name",
							"type": "string"
						},
						{
							"indexed": false,
							"internalType": "string",
							"name": "description",
							"type": "string"
						},
						{
							"indexed": false,
							"internalType": "uint256",
							"name": "deadline",
							"type": "uint256"
						}
					],
					"name": "ProposalCreated",
					"type": "event"
				},
				{
					"anonymous": false,
					"inputs": [
						{
							"indexed": false,
							"internalType": "address",
							"name": "shareholder",
							"type": "address"
						}
					],
					"name": "ShareholderRemoved",
					"type": "event"
				},
				{
					"anonymous": false,
					"inputs": [
						{
							"indexed": false,
							"internalType": "address",
							"name": "shareholder",
							"type": "address"
						},
						{
							"indexed": false,
							"internalType": "uint256",
							"name": "amount",
							"type": "uint256"
						}
					],
					"name": "TokensAssigned",
					"type": "event"
				},
				{
					"anonymous": false,
					"inputs": [
						{
							"indexed": false,
							"internalType": "address",
							"name": "account",
							"type": "address"
						}
					],
					"name": "Unpaused",
					"type": "event"
				},
				{
					"inputs": [],
					"name": "admin",
					"outputs": [
						{
							"internalType": "address",
							"name": "",
							"type": "address"
						}
					],
					"stateMutability": "view",
					"type": "function"
				},
				{
					"inputs": [
						{
							"internalType": "address",
							"name": "shareholder",
							"type": "address"
						},
						{
							"internalType": "uint256",
							"name": "amount",
							"type": "uint256"
						}
					],
					"name": "assignTokens",
					"outputs": [],
					"stateMutability": "nonpayable",
					"type": "function"
				},
				{
					"inputs": [
						{
							"internalType": "string",
							"name": "name",
							"type": "string"
						},
						{
							"internalType": "string",
							"name": "description",
							"type": "string"
						},
						{
							"internalType": "uint256",
							"name": "duration",
							"type": "uint256"
						}
					],
					"name": "createProposal",
					"outputs": [],
					"stateMutability": "nonpayable",
					"type": "function"
				},
				{
					"inputs": [
						{
							"internalType": "uint256",
							"name": "index",
							"type": "uint256"
						}
					],
					"name": "getProposal",
					"outputs": [
						{
							"internalType": "contract Proposal",
							"name": "",
							"type": "address"
						}
					],
					"stateMutability": "view",
					"type": "function"
				},
				{
					"inputs": [],
					"name": "pause",
					"outputs": [],
					"stateMutability": "nonpayable",
					"type": "function"
				},
				{
					"inputs": [],
					"name": "paused",
					"outputs": [
						{
							"internalType": "bool",
							"name": "",
							"type": "bool"
						}
					],
					"stateMutability": "view",
					"type": "function"
				},
				{
					"inputs": [
						{
							"internalType": "uint256",
							"name": "",
							"type": "uint256"
						}
					],
					"name": "proposals",
					"outputs": [
						{
							"internalType": "contract Proposal",
							"name": "",
							"type": "address"
						}
					],
					"stateMutability": "view",
					"type": "function"
				},
				{
					"inputs": [
						{
							"internalType": "address",
							"name": "shareholder",
							"type": "address"
						}
					],
					"name": "removeShareholder",
					"outputs": [],
					"stateMutability": "nonpayable",
					"type": "function"
				},
				{
					"inputs": [
						{
							"internalType": "address",
							"name": "",
							"type": "address"
						}
					],
					"name": "shareholderTokens",
					"outputs": [
						{
							"internalType": "uint256",
							"name": "",
							"type": "uint256"
						}
					],
					"stateMutability": "view",
					"type": "function"
				},
				{
					"inputs": [
						{
							"internalType": "address",
							"name": "newAdmin",
							"type": "address"
						}
					],
					"name": "transferAdmin",
					"outputs": [],
					"stateMutability": "nonpayable",
					"type": "function"
				},
				{
					"inputs": [],
					"name": "unpause",
					"outputs": [],
					"stateMutability": "nonpayable",
					"type": "function"
				},
				{
					"inputs": [],
					"name": "voter",
					"outputs": [
						{
							"internalType": "contract Voter",
							"name": "",
							"type": "address"
						}
					],
					"stateMutability": "view",
					"type": "function"
				}
			],
			"devdoc": {
				"events": {
					"Paused(address)": {
						"details": "Emitted when the pause is triggered by `account`."
					},
					"Unpaused(address)": {
						"details": "Emitted when the pause is lifted by `account`."
					}
				},
				"kind": "dev",
				"methods": {
					"paused()": {
						"details": "Returns true if the contract is paused, and false otherwise."
					}
				},
				"version": 1
			},
			"evm": {
				"assembly": "    /* \"Voting_Contracts/Master.sol\":233:2725  contract Master is Pausable, ReentrancyGuard {... */\n  mstore(0x40, 0x80)\n    /* \"Voting_Contracts/Master.sol\":924:1039  constructor() {... */\n  callvalue\n  dup1\n  iszero\n  tag_1\n  jumpi\n  0x00\n  dup1\n  revert\ntag_1:\n  pop\n    /* \"@openzeppelin/contracts/security/Pausable.sol\":1006:1011  false */\n  0x00\n    /* \"@openzeppelin/contracts/security/Pausable.sol\":996:1003  _paused */\n  dup1\n  0x00\n    /* \"@openzeppelin/contracts/security/Pausable.sol\":996:1011  _paused = false */\n  0x0100\n  exp\n  dup2\n  sload\n  dup2\n  0xff\n  mul\n  not\n  and\n  swap1\n  dup4\n  iszero\n  iszero\n  mul\n  or\n  swap1\n  sstore\n  pop\n    /* \"@openzeppelin/contracts/security/ReentrancyGuard.sol\":1716:1717  1 */\n  0x01\n    /* \"@openzeppelin/contracts/security/ReentrancyGuard.sol\":1821:1828  _status */\n  dup1\n    /* \"@openzeppelin/contracts/security/ReentrancyGuard.sol\":1821:1843  _status = _NOT_ENTERED */\n  dup2\n  swap1\n  sstore\n  pop\n    /* \"Voting_Contracts/Master.sol\":957:967  msg.sender */\n  caller\n    /* \"Voting_Contracts/Master.sol\":949:954  admin */\n  0x02\n  0x00\n    /* \"Voting_Contracts/Master.sol\":949:967  admin = msg.sender */\n  0x0100\n  exp\n  dup2\n  sload\n  dup2\n  0xffffffffffffffffffffffffffffffffffffffff\n  mul\n  not\n  and\n  swap1\n  dup4\n  0xffffffffffffffffffffffffffffffffffffffff\n  and\n  mul\n  or\n  swap1\n  sstore\n  pop\n    /* \"Voting_Contracts/Master.sol\":1020:1031  new Voter() */\n  mload(0x40)\n  tag_8\n  swap1\n  tag_9\n  jump\t// in\ntag_8:\n  mload(0x40)\n  dup1\n  swap2\n  sub\n  swap1\n  0x00\n  create\n  dup1\n  iszero\n  dup1\n  iszero\n  tag_10\n  jumpi\n  returndatasize\n  0x00\n  dup1\n  returndatacopy\n  revert(0x00, returndatasize)\ntag_10:\n  pop\n    /* \"Voting_Contracts/Master.sol\":1012:1017  voter */\n  0x05\n  0x00\n    /* \"Voting_Contracts/Master.sol\":1012:1031  voter = new Voter() */\n  0x0100\n  exp\n  dup2\n  sload\n  dup2\n  0xffffffffffffffffffffffffffffffffffffffff\n  mul\n  not\n  and\n  swap1\n  dup4\n  0xffffffffffffffffffffffffffffffffffffffff\n  and\n  mul\n  or\n  swap1\n  sstore\n  pop\n    /* \"Voting_Contracts/Master.sol\":233:2725  contract Master is Pausable, ReentrancyGuard {... */\n  jump(tag_11)\ntag_9:\n  dataSize(sub_1)\n  dup1\n  dataOffset(sub_1)\n  dup4\n  codecopy\n  add\n  swap1\n  jump\t// out\ntag_11:\n  dataSize(sub_0)\n  dup1\n  dataOffset(sub_0)\n  0x00\n  codecopy\n  0x00\n  return\nstop\n\nsub_0: assembly {\n        /* \"Voting_Contracts/Master.sol\":233:2725  contract Master is Pausable, ReentrancyGuard {... */\n      mstore(0x40, 0x80)\n      callvalue\n      dup1\n      iszero\n      tag_1\n      jumpi\n      0x00\n      dup1\n      revert\n    tag_1:\n      pop\n      jumpi(tag_2, lt(calldatasize, 0x04))\n      shr(0xe0, calldataload(0x00))\n      dup1\n      0x5c975abb\n      gt\n      tag_15\n      jumpi\n      dup1\n      0x5c975abb\n      eq\n      tag_9\n      jumpi\n      dup1\n      0x75829def\n      eq\n      tag_10\n      jumpi\n      dup1\n      0x8456cb59\n      eq\n      tag_11\n      jumpi\n      dup1\n      0x9babdad6\n      eq\n      tag_12\n      jumpi\n      dup1\n      0xc7f758a8\n      eq\n      tag_13\n      jumpi\n      dup1\n      0xf851a440\n      eq\n      tag_14\n      jumpi\n      jump(tag_2)\n    tag_15:\n      dup1\n      0x013cf08b\n      eq\n      tag_3\n      jumpi\n      dup1\n      0x07e5678c\n      eq\n      tag_4\n      jumpi\n      dup1\n      0x0ce0ebf4\n      eq\n      tag_5\n      jumpi\n      dup1\n      0x3f4ba83a\n      eq\n      tag_6\n      jumpi\n      dup1\n      0x46c96aac\n      eq\n      tag_7\n      jumpi\n      dup1\n      0x4d7edc15\n      eq\n      tag_8\n      jumpi\n    tag_2:\n      0x00\n      dup1\n      revert\n        /* \"Voting_Contracts/Master.sol\":391:418  Proposal[] public proposals */\n    tag_3:\n      tag_16\n      0x04\n      dup1\n      calldatasize\n      sub\n      dup2\n      add\n      swap1\n      tag_17\n      swap2\n      swap1\n      tag_18\n      jump\t// in\n    tag_17:\n      tag_19\n      jump\t// in\n    tag_16:\n      mload(0x40)\n      tag_20\n      swap2\n      swap1\n      tag_21\n      jump\t// in\n    tag_20:\n      mload(0x40)\n      dup1\n      swap2\n      sub\n      swap1\n      return\n        /* \"Voting_Contracts/Master.sol\":335:384  mapping(address => uint) public shareholderTokens */\n    tag_4:\n      tag_22\n      0x04\n      dup1\n      calldatasize\n      sub\n      dup2\n      add\n      swap1\n      tag_23\n      swap2\n      swap1\n      tag_24\n      jump\t// in\n    tag_23:\n      tag_25\n      jump\t// in\n    tag_22:\n      mload(0x40)\n      tag_26\n      swap2\n      swap1\n      tag_27\n      jump\t// in\n    tag_26:\n      mload(0x40)\n      dup1\n      swap2\n      sub\n      swap1\n      return\n        /* \"Voting_Contracts/Master.sol\":1329:1674  function createProposal(string memory name, string memory description, uint duration) public onlyAdmin whenNotPaused nonReentrant {... */\n    tag_5:\n      tag_28\n      0x04\n      dup1\n      calldatasize\n      sub\n      dup2\n      add\n      swap1\n      tag_29\n      swap2\n      swap1\n      tag_30\n      jump\t// in\n    tag_29:\n      tag_31\n      jump\t// in\n    tag_28:\n      stop\n        /* \"Voting_Contracts/Master.sol\":2632:2722  function unpause() public onlyAdmin {... */\n    tag_6:\n      tag_32\n      tag_33\n      jump\t// in\n    tag_32:\n      stop\n        /* \"Voting_Contracts/Master.sol\":425:443  Voter public voter */\n    tag_7:\n      tag_34\n      tag_35\n      jump\t// in\n    tag_34:\n      mload(0x40)\n      tag_36\n      swap2\n      swap1\n      tag_37\n      jump\t// in\n    tag_36:\n      mload(0x40)\n      dup1\n      swap2\n      sub\n      swap1\n      return\n        /* \"Voting_Contracts/Master.sol\":1086:1295  function assignTokens(address shareholder, uint amount) public onlyAdmin whenNotPaused nonReentrant {... */\n    tag_8:\n      tag_38\n      0x04\n      dup1\n      calldatasize\n      sub\n      dup2\n      add\n      swap1\n      tag_39\n      swap2\n      swap1\n      tag_40\n      jump\t// in\n    tag_39:\n      tag_41\n      jump\t// in\n    tag_38:\n      stop\n        /* \"@openzeppelin/contracts/security/Pausable.sol\":1615:1699  function paused() public view virtual returns (bool) {... */\n    tag_9:\n      tag_42\n      tag_43\n      jump\t// in\n    tag_42:\n      mload(0x40)\n      tag_44\n      swap2\n      swap1\n      tag_45\n      jump\t// in\n    tag_44:\n      mload(0x40)\n      dup1\n      swap2\n      sub\n      swap1\n      return\n        /* \"Voting_Contracts/Master.sol\":1877:2069  function transferAdmin(address newAdmin) public onlyAdmin nonReentrant {... */\n    tag_10:\n      tag_46\n      0x04\n      dup1\n      calldatasize\n      sub\n      dup2\n      add\n      swap1\n      tag_47\n      swap2\n      swap1\n      tag_24\n      jump\t// in\n    tag_47:\n      tag_48\n      jump\t// in\n    tag_46:\n      stop\n        /* \"Voting_Contracts/Master.sol\":2492:2576  function pause() public onlyAdmin {... */\n    tag_11:\n      tag_49\n      tag_50\n      jump\t// in\n    tag_49:\n      stop\n        /* \"Voting_Contracts/Master.sol\":2140:2429  function removeShareholder(address shareholder) public onlyAdmin whenNotPaused nonReentrant {... */\n    tag_12:\n      tag_51\n      0x04\n      dup1\n      calldatasize\n      sub\n      dup2\n      add\n      swap1\n      tag_52\n      swap2\n      swap1\n      tag_24\n      jump\t// in\n    tag_52:\n      tag_53\n      jump\t// in\n    tag_51:\n      stop\n        /* \"Voting_Contracts/Master.sol\":1718:1824  function getProposal(uint index) public view returns (Proposal) {... */\n    tag_13:\n      tag_54\n      0x04\n      dup1\n      calldatasize\n      sub\n      dup2\n      add\n      swap1\n      tag_55\n      swap2\n      swap1\n      tag_18\n      jump\t// in\n    tag_55:\n      tag_56\n      jump\t// in\n    tag_54:\n      mload(0x40)\n      tag_57\n      swap2\n      swap1\n      tag_21\n      jump\t// in\n    tag_57:\n      mload(0x40)\n      dup1\n      swap2\n      sub\n      swap1\n      return\n        /* \"Voting_Contracts/Master.sol\":285:305  address public admin */\n    tag_14:\n      tag_58\n      tag_59\n      jump\t// in\n    tag_58:\n      mload(0x40)\n      tag_60\n      swap2\n      swap1\n      tag_61\n      jump\t// in\n    tag_60:\n      mload(0x40)\n      dup1\n      swap2\n      sub\n      swap1\n      return\n        /* \"Voting_Contracts/Master.sol\":391:418  Proposal[] public proposals */\n    tag_19:\n      0x04\n      dup2\n      dup2\n      sload\n      dup2\n      lt\n      tag_62\n      jumpi\n      0x00\n      dup1\n      revert\n    tag_62:\n      swap1\n      0x00\n      mstore\n      keccak256(0x00, 0x20)\n      add\n      0x00\n      swap2\n      pop\n      sload\n      swap1\n      0x0100\n      exp\n      swap1\n      div\n      0xffffffffffffffffffffffffffffffffffffffff\n      and\n      dup2\n      jump\t// out\n        /* \"Voting_Contracts/Master.sol\":335:384  mapping(address => uint) public shareholderTokens */\n    tag_25:\n      mstore(0x20, 0x03)\n      dup1\n      0x00\n      mstore\n      keccak256(0x00, 0x40)\n      0x00\n      swap2\n      pop\n      swap1\n      pop\n      sload\n      dup2\n      jump\t// out\n        /* \"Voting_Contracts/Master.sol\":1329:1674  function createProposal(string memory name, string memory description, uint duration) public onlyAdmin whenNotPaused nonReentrant {... */\n    tag_31:\n        /* \"Voting_Contracts/Master.sol\":706:711  admin */\n      0x02\n      0x00\n      swap1\n      sload\n      swap1\n      0x0100\n      exp\n      swap1\n      div\n      0xffffffffffffffffffffffffffffffffffffffff\n      and\n        /* \"Voting_Contracts/Master.sol\":692:711  msg.sender == admin */\n      0xffffffffffffffffffffffffffffffffffffffff\n      and\n        /* \"Voting_Contracts/Master.sol\":692:702  msg.sender */\n      caller\n        /* \"Voting_Contracts/Master.sol\":692:711  msg.sender == admin */\n      0xffffffffffffffffffffffffffffffffffffffff\n      and\n      eq\n        /* \"Voting_Contracts/Master.sol\":684:754  require(msg.sender == admin, \"Only the admin can perform this action\") */\n      tag_65\n      jumpi\n      mload(0x40)\n      0x08c379a000000000000000000000000000000000000000000000000000000000\n      dup2\n      mstore\n      0x04\n      add\n      tag_66\n      swap1\n      tag_67\n      jump\t// in\n    tag_66:\n      mload(0x40)\n      dup1\n      swap2\n      sub\n      swap1\n      revert\n    tag_65:\n        /* \"@openzeppelin/contracts/security/Pausable.sol\":1239:1258  _requireNotPaused() */\n      tag_69\n        /* \"@openzeppelin/contracts/security/Pausable.sol\":1239:1256  _requireNotPaused */\n      tag_70\n        /* \"@openzeppelin/contracts/security/Pausable.sol\":1239:1258  _requireNotPaused() */\n      jump\t// in\n    tag_69:\n        /* \"@openzeppelin/contracts/security/ReentrancyGuard.sol\":2261:2282  _nonReentrantBefore() */\n      tag_72\n        /* \"@openzeppelin/contracts/security/ReentrancyGuard.sol\":2261:2280  _nonReentrantBefore */\n      tag_73\n        /* \"@openzeppelin/contracts/security/ReentrancyGuard.sol\":2261:2282  _nonReentrantBefore() */\n      jump\t// in\n    tag_72:\n        /* \"Voting_Contracts/Master.sol\":1470:1487  Proposal proposal */\n      0x00\n        /* \"Voting_Contracts/Master.sol\":1503:1507  name */\n      dup4\n        /* \"Voting_Contracts/Master.sol\":1509:1520  description */\n      dup4\n        /* \"Voting_Contracts/Master.sol\":1522:1530  duration */\n      dup4\n        /* \"Voting_Contracts/Master.sol\":1490:1531  new Proposal(name, description, duration) */\n      mload(0x40)\n      tag_75\n      swap1\n      tag_76\n      jump\t// in\n    tag_75:\n      tag_77\n      swap4\n      swap3\n      swap2\n      swap1\n      tag_78\n      jump\t// in\n    tag_77:\n      mload(0x40)\n      dup1\n      swap2\n      sub\n      swap1\n      0x00\n      create\n      dup1\n      iszero\n      dup1\n      iszero\n      tag_79\n      jumpi\n      returndatasize\n      0x00\n      dup1\n      returndatacopy\n      revert(0x00, returndatasize)\n    tag_79:\n      pop\n        /* \"Voting_Contracts/Master.sol\":1470:1531  Proposal proposal = new Proposal(name, description, duration) */\n      swap1\n      pop\n        /* \"Voting_Contracts/Master.sol\":1542:1551  proposals */\n      0x04\n        /* \"Voting_Contracts/Master.sol\":1557:1565  proposal */\n      dup2\n        /* \"Voting_Contracts/Master.sol\":1542:1566  proposals.push(proposal) */\n      swap1\n      dup1\n      0x01\n      dup2\n      sload\n      add\n      dup1\n      dup3\n      sstore\n      dup1\n      swap2\n      pop\n      pop\n      0x01\n      swap1\n      sub\n      swap1\n      0x00\n      mstore\n      keccak256(0x00, 0x20)\n      add\n      0x00\n      swap1\n      swap2\n      swap1\n      swap2\n      swap1\n      swap2\n      0x0100\n      exp\n      dup2\n      sload\n      dup2\n      0xffffffffffffffffffffffffffffffffffffffff\n      mul\n      not\n      and\n      swap1\n      dup4\n      0xffffffffffffffffffffffffffffffffffffffff\n      and\n      mul\n      or\n      swap1\n      sstore\n      pop\n        /* \"Voting_Contracts/Master.sol\":1582:1666  ProposalCreated(proposals.length - 1, name, description, block.timestamp + duration) */\n      0x3f86606f711a448daf3ec6c75d04db9515b24b20b64a68406f971eb5a4e16187\n        /* \"Voting_Contracts/Master.sol\":1617:1618  1 */\n      0x01\n        /* \"Voting_Contracts/Master.sol\":1598:1607  proposals */\n      0x04\n        /* \"Voting_Contracts/Master.sol\":1598:1614  proposals.length */\n      dup1\n      sload\n      swap1\n      pop\n        /* \"Voting_Contracts/Master.sol\":1598:1618  proposals.length - 1 */\n      tag_81\n      swap2\n      swap1\n      tag_82\n      jump\t// in\n    tag_81:\n        /* \"Voting_Contracts/Master.sol\":1620:1624  name */\n      dup6\n        /* \"Voting_Contracts/Master.sol\":1626:1637  description */\n      dup6\n        /* \"Voting_Contracts/Master.sol\":1657:1665  duration */\n      dup6\n        /* \"Voting_Contracts/Master.sol\":1639:1654  block.timestamp */\n      timestamp\n        /* \"Voting_Contracts/Master.sol\":1639:1665  block.timestamp + duration */\n      tag_83\n      swap2\n      swap1\n      tag_84\n      jump\t// in\n    tag_83:\n        /* \"Voting_Contracts/Master.sol\":1582:1666  ProposalCreated(proposals.length - 1, name, description, block.timestamp + duration) */\n      mload(0x40)\n      tag_85\n      swap5\n      swap4\n      swap3\n      swap2\n      swap1\n      tag_86\n      jump\t// in\n    tag_85:\n      mload(0x40)\n      dup1\n      swap2\n      sub\n      swap1\n      log1\n        /* \"Voting_Contracts/Master.sol\":1459:1674  {... */\n      pop\n        /* \"@openzeppelin/contracts/security/ReentrancyGuard.sol\":2303:2323  _nonReentrantAfter() */\n      tag_87\n        /* \"@openzeppelin/contracts/security/ReentrancyGuard.sol\":2303:2321  _nonReentrantAfter */\n      tag_88\n        /* \"@openzeppelin/contracts/security/ReentrancyGuard.sol\":2303:2323  _nonReentrantAfter() */\n      jump\t// in\n    tag_87:\n        /* \"Voting_Contracts/Master.sol\":1329:1674  function createProposal(string memory name, string memory description, uint duration) public onlyAdmin whenNotPaused nonReentrant {... */\n      pop\n      pop\n      pop\n      jump\t// out\n        /* \"Voting_Contracts/Master.sol\":2632:2722  function unpause() public onlyAdmin {... */\n    tag_33:\n        /* \"Voting_Contracts/Master.sol\":706:711  admin */\n      0x02\n      0x00\n      swap1\n      sload\n      swap1\n      0x0100\n      exp\n      swap1\n      div\n      0xffffffffffffffffffffffffffffffffffffffff\n      and\n        /* \"Voting_Contracts/Master.sol\":692:711  msg.sender == admin */\n      0xffffffffffffffffffffffffffffffffffffffff\n      and\n        /* \"Voting_Contracts/Master.sol\":692:702  msg.sender */\n      caller\n        /* \"Voting_Contracts/Master.sol\":692:711  msg.sender == admin */\n      0xffffffffffffffffffffffffffffffffffffffff\n      and\n      eq\n        /* \"Voting_Contracts/Master.sol\":684:754  require(msg.sender == admin, \"Only the admin can perform this action\") */\n      tag_90\n      jumpi\n      mload(0x40)\n      0x08c379a000000000000000000000000000000000000000000000000000000000\n      dup2\n      mstore\n      0x04\n      add\n      tag_91\n      swap1\n      tag_67\n      jump\t// in\n    tag_91:\n      mload(0x40)\n      dup1\n      swap2\n      sub\n      swap1\n      revert\n    tag_90:\n        /* \"Voting_Contracts/Master.sol\":2679:2689  _unpause() */\n      tag_93\n        /* \"Voting_Contracts/Master.sol\":2679:2687  _unpause */\n      tag_94\n        /* \"Voting_Contracts/Master.sol\":2679:2689  _unpause() */\n      jump\t// in\n    tag_93:\n        /* \"Voting_Contracts/Master.sol\":2632:2722  function unpause() public onlyAdmin {... */\n      jump\t// out\n        /* \"Voting_Contracts/Master.sol\":425:443  Voter public voter */\n    tag_35:\n      0x05\n      0x00\n      swap1\n      sload\n      swap1\n      0x0100\n      exp\n      swap1\n      div\n      0xffffffffffffffffffffffffffffffffffffffff\n      and\n      dup2\n      jump\t// out\n        /* \"Voting_Contracts/Master.sol\":1086:1295  function assignTokens(address shareholder, uint amount) public onlyAdmin whenNotPaused nonReentrant {... */\n    tag_41:\n        /* \"Voting_Contracts/Master.sol\":706:711  admin */\n      0x02\n      0x00\n      swap1\n      sload\n      swap1\n      0x0100\n      exp\n      swap1\n      div\n      0xffffffffffffffffffffffffffffffffffffffff\n      and\n        /* \"Voting_Contracts/Master.sol\":692:711  msg.sender == admin */\n      0xffffffffffffffffffffffffffffffffffffffff\n      and\n        /* \"Voting_Contracts/Master.sol\":692:702  msg.sender */\n      caller\n        /* \"Voting_Contracts/Master.sol\":692:711  msg.sender == admin */\n      0xffffffffffffffffffffffffffffffffffffffff\n      and\n      eq\n        /* \"Voting_Contracts/Master.sol\":684:754  require(msg.sender == admin, \"Only the admin can perform this action\") */\n      tag_96\n      jumpi\n      mload(0x40)\n      0x08c379a000000000000000000000000000000000000000000000000000000000\n      dup2\n      mstore\n      0x04\n      add\n      tag_97\n      swap1\n      tag_67\n      jump\t// in\n    tag_97:\n      mload(0x40)\n      dup1\n      swap2\n      sub\n      swap1\n      revert\n    tag_96:\n        /* \"@openzeppelin/contracts/security/Pausable.sol\":1239:1258  _requireNotPaused() */\n      tag_99\n        /* \"@openzeppelin/contracts/security/Pausable.sol\":1239:1256  _requireNotPaused */\n      tag_70\n        /* \"@openzeppelin/contracts/security/Pausable.sol\":1239:1258  _requireNotPaused() */\n      jump\t// in\n    tag_99:\n        /* \"@openzeppelin/contracts/security/ReentrancyGuard.sol\":2261:2282  _nonReentrantBefore() */\n      tag_101\n        /* \"@openzeppelin/contracts/security/ReentrancyGuard.sol\":2261:2280  _nonReentrantBefore */\n      tag_73\n        /* \"@openzeppelin/contracts/security/ReentrancyGuard.sol\":2261:2282  _nonReentrantBefore() */\n      jump\t// in\n    tag_101:\n        /* \"Voting_Contracts/Master.sol\":1230:1236  amount */\n      dup1\n        /* \"Voting_Contracts/Master.sol\":1197:1214  shareholderTokens */\n      0x03\n        /* \"Voting_Contracts/Master.sol\":1197:1227  shareholderTokens[shareholder] */\n      0x00\n        /* \"Voting_Contracts/Master.sol\":1215:1226  shareholder */\n      dup5\n        /* \"Voting_Contracts/Master.sol\":1197:1227  shareholderTokens[shareholder] */\n      0xffffffffffffffffffffffffffffffffffffffff\n      and\n      0xffffffffffffffffffffffffffffffffffffffff\n      and\n      dup2\n      mstore\n      0x20\n      add\n      swap1\n      dup2\n      mstore\n      0x20\n      add\n      0x00\n      keccak256\n        /* \"Voting_Contracts/Master.sol\":1197:1236  shareholderTokens[shareholder] = amount */\n      dup2\n      swap1\n      sstore\n      pop\n        /* \"Voting_Contracts/Master.sol\":1252:1287  TokensAssigned(shareholder, amount) */\n      0x15ecb136272ddf7c77d05760345f8602ce35fe776160e3f4622d911cc4851d8c\n        /* \"Voting_Contracts/Master.sol\":1267:1278  shareholder */\n      dup3\n        /* \"Voting_Contracts/Master.sol\":1280:1286  amount */\n      dup3\n        /* \"Voting_Contracts/Master.sol\":1252:1287  TokensAssigned(shareholder, amount) */\n      mload(0x40)\n      tag_103\n      swap3\n      swap2\n      swap1\n      tag_104\n      jump\t// in\n    tag_103:\n      mload(0x40)\n      dup1\n      swap2\n      sub\n      swap1\n      log1\n        /* \"@openzeppelin/contracts/security/ReentrancyGuard.sol\":2303:2323  _nonReentrantAfter() */\n      tag_105\n        /* \"@openzeppelin/contracts/security/ReentrancyGuard.sol\":2303:2321  _nonReentrantAfter */\n      tag_88\n        /* \"@openzeppelin/contracts/security/ReentrancyGuard.sol\":2303:2323  _nonReentrantAfter() */\n      jump\t// in\n    tag_105:\n        /* \"Voting_Contracts/Master.sol\":1086:1295  function assignTokens(address shareholder, uint amount) public onlyAdmin whenNotPaused nonReentrant {... */\n      pop\n      pop\n      jump\t// out\n        /* \"@openzeppelin/contracts/security/Pausable.sol\":1615:1699  function paused() public view virtual returns (bool) {... */\n    tag_43:\n        /* \"@openzeppelin/contracts/security/Pausable.sol\":1662:1666  bool */\n      0x00\n        /* \"@openzeppelin/contracts/security/Pausable.sol\":1685:1692  _paused */\n      dup1\n      0x00\n      swap1\n      sload\n      swap1\n      0x0100\n      exp\n      swap1\n      div\n      0xff\n      and\n        /* \"@openzeppelin/contracts/security/Pausable.sol\":1678:1692  return _paused */\n      swap1\n      pop\n        /* \"@openzeppelin/contracts/security/Pausable.sol\":1615:1699  function paused() public view virtual returns (bool) {... */\n      swap1\n      jump\t// out\n        /* \"Voting_Contracts/Master.sol\":1877:2069  function transferAdmin(address newAdmin) public onlyAdmin nonReentrant {... */\n    tag_48:\n        /* \"Voting_Contracts/Master.sol\":706:711  admin */\n      0x02\n      0x00\n      swap1\n      sload\n      swap1\n      0x0100\n      exp\n      swap1\n      div\n      0xffffffffffffffffffffffffffffffffffffffff\n      and\n        /* \"Voting_Contracts/Master.sol\":692:711  msg.sender == admin */\n      0xffffffffffffffffffffffffffffffffffffffff\n      and\n        /* \"Voting_Contracts/Master.sol\":692:702  msg.sender */\n      caller\n        /* \"Voting_Contracts/Master.sol\":692:711  msg.sender == admin */\n      0xffffffffffffffffffffffffffffffffffffffff\n      and\n      eq\n        /* \"Voting_Contracts/Master.sol\":684:754  require(msg.sender == admin, \"Only the admin can perform this action\") */\n      tag_108\n      jumpi\n      mload(0x40)\n      0x08c379a000000000000000000000000000000000000000000000000000000000\n      dup2\n      mstore\n      0x04\n      add\n      tag_109\n      swap1\n      tag_67\n      jump\t// in\n    tag_109:\n      mload(0x40)\n      dup1\n      swap2\n      sub\n      swap1\n      revert\n    tag_108:\n        /* \"@openzeppelin/contracts/security/ReentrancyGuard.sol\":2261:2282  _nonReentrantBefore() */\n      tag_111\n        /* \"@openzeppelin/contracts/security/ReentrancyGuard.sol\":2261:2280  _nonReentrantBefore */\n      tag_73\n        /* \"@openzeppelin/contracts/security/ReentrancyGuard.sol\":2261:2282  _nonReentrantBefore() */\n      jump\t// in\n    tag_111:\n        /* \"Voting_Contracts/Master.sol\":1987:1988  0 */\n      0x00\n        /* \"Voting_Contracts/Master.sol\":1967:1989  newAdmin != address(0) */\n      0xffffffffffffffffffffffffffffffffffffffff\n      and\n        /* \"Voting_Contracts/Master.sol\":1967:1975  newAdmin */\n      dup2\n        /* \"Voting_Contracts/Master.sol\":1967:1989  newAdmin != address(0) */\n      0xffffffffffffffffffffffffffffffffffffffff\n      and\n      sub\n        /* \"Voting_Contracts/Master.sol\":1959:2034  require(newAdmin != address(0), \"New admin address cannot be zero address\") */\n      tag_113\n      jumpi\n      mload(0x40)\n      0x08c379a000000000000000000000000000000000000000000000000000000000\n      dup2\n      mstore\n      0x04\n      add\n      tag_114\n      swap1\n      tag_115\n      jump\t// in\n    tag_114:\n      mload(0x40)\n      dup1\n      swap2\n      sub\n      swap1\n      revert\n    tag_113:\n        /* \"Voting_Contracts/Master.sol\":2053:2061  newAdmin */\n      dup1\n        /* \"Voting_Contracts/Master.sol\":2045:2050  admin */\n      0x02\n      0x00\n        /* \"Voting_Contracts/Master.sol\":2045:2061  admin = newAdmin */\n      0x0100\n      exp\n      dup2\n      sload\n      dup2\n      0xffffffffffffffffffffffffffffffffffffffff\n      mul\n      not\n      and\n      swap1\n      dup4\n      0xffffffffffffffffffffffffffffffffffffffff\n      and\n      mul\n      or\n      swap1\n      sstore\n      pop\n        /* \"@openzeppelin/contracts/security/ReentrancyGuard.sol\":2303:2323  _nonReentrantAfter() */\n      tag_116\n        /* \"@openzeppelin/contracts/security/ReentrancyGuard.sol\":2303:2321  _nonReentrantAfter */\n      tag_88\n        /* \"@openzeppelin/contracts/security/ReentrancyGuard.sol\":2303:2323  _nonReentrantAfter() */\n      jump\t// in\n    tag_116:\n        /* \"Voting_Contracts/Master.sol\":1877:2069  function transferAdmin(address newAdmin) public onlyAdmin nonReentrant {... */\n      pop\n      jump\t// out\n        /* \"Voting_Contracts/Master.sol\":2492:2576  function pause() public onlyAdmin {... */\n    tag_50:\n        /* \"Voting_Contracts/Master.sol\":706:711  admin */\n      0x02\n      0x00\n      swap1\n      sload\n      swap1\n      0x0100\n      exp\n      swap1\n      div\n      0xffffffffffffffffffffffffffffffffffffffff\n      and\n        /* \"Voting_Contracts/Master.sol\":692:711  msg.sender == admin */\n      0xffffffffffffffffffffffffffffffffffffffff\n      and\n        /* \"Voting_Contracts/Master.sol\":692:702  msg.sender */\n      caller\n        /* \"Voting_Contracts/Master.sol\":692:711  msg.sender == admin */\n      0xffffffffffffffffffffffffffffffffffffffff\n      and\n      eq\n        /* \"Voting_Contracts/Master.sol\":684:754  require(msg.sender == admin, \"Only the admin can perform this action\") */\n      tag_118\n      jumpi\n      mload(0x40)\n      0x08c379a000000000000000000000000000000000000000000000000000000000\n      dup2\n      mstore\n      0x04\n      add\n      tag_119\n      swap1\n      tag_67\n      jump\t// in\n    tag_119:\n      mload(0x40)\n      dup1\n      swap2\n      sub\n      swap1\n      revert\n    tag_118:\n        /* \"Voting_Contracts/Master.sol\":2537:2545  _pause() */\n      tag_121\n        /* \"Voting_Contracts/Master.sol\":2537:2543  _pause */\n      tag_122\n        /* \"Voting_Contracts/Master.sol\":2537:2545  _pause() */\n      jump\t// in\n    tag_121:\n        /* \"Voting_Contracts/Master.sol\":2492:2576  function pause() public onlyAdmin {... */\n      jump\t// out\n        /* \"Voting_Contracts/Master.sol\":2140:2429  function removeShareholder(address shareholder) public onlyAdmin whenNotPaused nonReentrant {... */\n    tag_53:\n        /* \"Voting_Contracts/Master.sol\":706:711  admin */\n      0x02\n      0x00\n      swap1\n      sload\n      swap1\n      0x0100\n      exp\n      swap1\n      div\n      0xffffffffffffffffffffffffffffffffffffffff\n      and\n        /* \"Voting_Contracts/Master.sol\":692:711  msg.sender == admin */\n      0xffffffffffffffffffffffffffffffffffffffff\n      and\n        /* \"Voting_Contracts/Master.sol\":692:702  msg.sender */\n      caller\n        /* \"Voting_Contracts/Master.sol\":692:711  msg.sender == admin */\n      0xffffffffffffffffffffffffffffffffffffffff\n      and\n      eq\n        /* \"Voting_Contracts/Master.sol\":684:754  require(msg.sender == admin, \"Only the admin can perform this action\") */\n      tag_124\n      jumpi\n      mload(0x40)\n      0x08c379a000000000000000000000000000000000000000000000000000000000\n      dup2\n      mstore\n      0x04\n      add\n      tag_125\n      swap1\n      tag_67\n      jump\t// in\n    tag_125:\n      mload(0x40)\n      dup1\n      swap2\n      sub\n      swap1\n      revert\n    tag_124:\n        /* \"@openzeppelin/contracts/security/Pausable.sol\":1239:1258  _requireNotPaused() */\n      tag_127\n        /* \"@openzeppelin/contracts/security/Pausable.sol\":1239:1256  _requireNotPaused */\n      tag_70\n        /* \"@openzeppelin/contracts/security/Pausable.sol\":1239:1258  _requireNotPaused() */\n      jump\t// in\n    tag_127:\n        /* \"@openzeppelin/contracts/security/ReentrancyGuard.sol\":2261:2282  _nonReentrantBefore() */\n      tag_129\n        /* \"@openzeppelin/contracts/security/ReentrancyGuard.sol\":2261:2280  _nonReentrantBefore */\n      tag_73\n        /* \"@openzeppelin/contracts/security/ReentrancyGuard.sol\":2261:2282  _nonReentrantBefore() */\n      jump\t// in\n    tag_129:\n        /* \"Voting_Contracts/Master.sol\":2284:2285  0 */\n      0x00\n        /* \"Voting_Contracts/Master.sol\":2251:2268  shareholderTokens */\n      0x03\n        /* \"Voting_Contracts/Master.sol\":2251:2281  shareholderTokens[shareholder] */\n      0x00\n        /* \"Voting_Contracts/Master.sol\":2269:2280  shareholder */\n      dup4\n        /* \"Voting_Contracts/Master.sol\":2251:2281  shareholderTokens[shareholder] */\n      0xffffffffffffffffffffffffffffffffffffffff\n      and\n      0xffffffffffffffffffffffffffffffffffffffff\n      and\n      dup2\n      mstore\n      0x20\n      add\n      swap1\n      dup2\n      mstore\n      0x20\n      add\n      0x00\n      keccak256\n      sload\n        /* \"Voting_Contracts/Master.sol\":2251:2285  shareholderTokens[shareholder] > 0 */\n      gt\n        /* \"Voting_Contracts/Master.sol\":2243:2326  require(shareholderTokens[shareholder] > 0, \"The address does not have any tokens\") */\n      tag_131\n      jumpi\n      mload(0x40)\n      0x08c379a000000000000000000000000000000000000000000000000000000000\n      dup2\n      mstore\n      0x04\n      add\n      tag_132\n      swap1\n      tag_133\n      jump\t// in\n    tag_132:\n      mload(0x40)\n      dup1\n      swap2\n      sub\n      swap1\n      revert\n    tag_131:\n        /* \"Voting_Contracts/Master.sol\":2344:2361  shareholderTokens */\n      0x03\n        /* \"Voting_Contracts/Master.sol\":2344:2374  shareholderTokens[shareholder] */\n      0x00\n        /* \"Voting_Contracts/Master.sol\":2362:2373  shareholder */\n      dup3\n        /* \"Voting_Contracts/Master.sol\":2344:2374  shareholderTokens[shareholder] */\n      0xffffffffffffffffffffffffffffffffffffffff\n      and\n      0xffffffffffffffffffffffffffffffffffffffff\n      and\n      dup2\n      mstore\n      0x20\n      add\n      swap1\n      dup2\n      mstore\n      0x20\n      add\n      0x00\n      keccak256\n        /* \"Voting_Contracts/Master.sol\":2337:2374  delete shareholderTokens[shareholder] */\n      0x00\n      swap1\n      sstore\n        /* \"Voting_Contracts/Master.sol\":2390:2421  ShareholderRemoved(shareholder) */\n      0x7ba114ff3d9844510a088eea94cd35562e7c97a2d36a418b37b2e61e5c77affe\n        /* \"Voting_Contracts/Master.sol\":2409:2420  shareholder */\n      dup2\n        /* \"Voting_Contracts/Master.sol\":2390:2421  ShareholderRemoved(shareholder) */\n      mload(0x40)\n      tag_134\n      swap2\n      swap1\n      tag_61\n      jump\t// in\n    tag_134:\n      mload(0x40)\n      dup1\n      swap2\n      sub\n      swap1\n      log1\n        /* \"@openzeppelin/contracts/security/ReentrancyGuard.sol\":2303:2323  _nonReentrantAfter() */\n      tag_135\n        /* \"@openzeppelin/contracts/security/ReentrancyGuard.sol\":2303:2321  _nonReentrantAfter */\n      tag_88\n        /* \"@openzeppelin/contracts/security/ReentrancyGuard.sol\":2303:2323  _nonReentrantAfter() */\n      jump\t// in\n    tag_135:\n        /* \"Voting_Contracts/Master.sol\":2140:2429  function removeShareholder(address shareholder) public onlyAdmin whenNotPaused nonReentrant {... */\n      pop\n      jump\t// out\n        /* \"Voting_Contracts/Master.sol\":1718:1824  function getProposal(uint index) public view returns (Proposal) {... */\n    tag_56:\n        /* \"Voting_Contracts/Master.sol\":1772:1780  Proposal */\n      0x00\n        /* \"Voting_Contracts/Master.sol\":1800:1809  proposals */\n      0x04\n        /* \"Voting_Contracts/Master.sol\":1810:1815  index */\n      dup3\n        /* \"Voting_Contracts/Master.sol\":1800:1816  proposals[index] */\n      dup2\n      sload\n      dup2\n      lt\n      tag_137\n      jumpi\n      tag_138\n      tag_139\n      jump\t// in\n    tag_138:\n    tag_137:\n      swap1\n      0x00\n      mstore\n      keccak256(0x00, 0x20)\n      add\n      0x00\n      swap1\n      sload\n      swap1\n      0x0100\n      exp\n      swap1\n      div\n      0xffffffffffffffffffffffffffffffffffffffff\n      and\n        /* \"Voting_Contracts/Master.sol\":1793:1816  return proposals[index] */\n      swap1\n      pop\n        /* \"Voting_Contracts/Master.sol\":1718:1824  function getProposal(uint index) public view returns (Proposal) {... */\n      swap2\n      swap1\n      pop\n      jump\t// out\n        /* \"Voting_Contracts/Master.sol\":285:305  address public admin */\n    tag_59:\n      0x02\n      0x00\n      swap1\n      sload\n      swap1\n      0x0100\n      exp\n      swap1\n      div\n      0xffffffffffffffffffffffffffffffffffffffff\n      and\n      dup2\n      jump\t// out\n        /* \"@openzeppelin/contracts/security/Pausable.sol\":1767:1873  function _requireNotPaused() internal view virtual {... */\n    tag_70:\n        /* \"@openzeppelin/contracts/security/Pausable.sol\":1837:1845  paused() */\n      tag_142\n        /* \"@openzeppelin/contracts/security/Pausable.sol\":1837:1843  paused */\n      tag_43\n        /* \"@openzeppelin/contracts/security/Pausable.sol\":1837:1845  paused() */\n      jump\t// in\n    tag_142:\n        /* \"@openzeppelin/contracts/security/Pausable.sol\":1836:1845  !paused() */\n      iszero\n        /* \"@openzeppelin/contracts/security/Pausable.sol\":1828:1866  require(!paused(), \"Pausable: paused\") */\n      tag_143\n      jumpi\n      mload(0x40)\n      0x08c379a000000000000000000000000000000000000000000000000000000000\n      dup2\n      mstore\n      0x04\n      add\n      tag_144\n      swap1\n      tag_145\n      jump\t// in\n    tag_144:\n      mload(0x40)\n      dup1\n      swap2\n      sub\n      swap1\n      revert\n    tag_143:\n        /* \"@openzeppelin/contracts/security/Pausable.sol\":1767:1873  function _requireNotPaused() internal view virtual {... */\n      jump\t// out\n        /* \"@openzeppelin/contracts/security/ReentrancyGuard.sol\":2336:2623  function _nonReentrantBefore() private {... */\n    tag_73:\n        /* \"@openzeppelin/contracts/security/ReentrancyGuard.sol\":1759:1760  2 */\n      0x02\n        /* \"@openzeppelin/contracts/security/ReentrancyGuard.sol\":2468:2475  _status */\n      sload(0x01)\n        /* \"@openzeppelin/contracts/security/ReentrancyGuard.sol\":2468:2487  _status != _ENTERED */\n      sub\n        /* \"@openzeppelin/contracts/security/ReentrancyGuard.sol\":2460:2523  require(_status != _ENTERED, \"ReentrancyGuard: reentrant call\") */\n      tag_147\n      jumpi\n      mload(0x40)\n      0x08c379a000000000000000000000000000000000000000000000000000000000\n      dup2\n      mstore\n      0x04\n      add\n      tag_148\n      swap1\n      tag_149\n      jump\t// in\n    tag_148:\n      mload(0x40)\n      dup1\n      swap2\n      sub\n      swap1\n      revert\n    tag_147:\n        /* \"@openzeppelin/contracts/security/ReentrancyGuard.sol\":1759:1760  2 */\n      0x02\n        /* \"@openzeppelin/contracts/security/ReentrancyGuard.sol\":2598:2605  _status */\n      0x01\n        /* \"@openzeppelin/contracts/security/ReentrancyGuard.sol\":2598:2616  _status = _ENTERED */\n      dup2\n      swap1\n      sstore\n      pop\n        /* \"@openzeppelin/contracts/security/ReentrancyGuard.sol\":2336:2623  function _nonReentrantBefore() private {... */\n      jump\t// out\n        /* \"@openzeppelin/contracts/security/ReentrancyGuard.sol\":2629:2838  function _nonReentrantAfter() private {... */\n    tag_88:\n        /* \"@openzeppelin/contracts/security/ReentrancyGuard.sol\":1716:1717  1 */\n      0x01\n        /* \"@openzeppelin/contracts/security/ReentrancyGuard.sol\":2809:2816  _status */\n      dup1\n        /* \"@openzeppelin/contracts/security/ReentrancyGuard.sol\":2809:2831  _status = _NOT_ENTERED */\n      dup2\n      swap1\n      sstore\n      pop\n        /* \"@openzeppelin/contracts/security/ReentrancyGuard.sol\":2629:2838  function _nonReentrantAfter() private {... */\n      jump\t// out\n        /* \"@openzeppelin/contracts/security/Pausable.sol\":2433:2550  function _unpause() internal virtual whenPaused {... */\n    tag_94:\n        /* \"@openzeppelin/contracts/security/Pausable.sol\":1486:1502  _requirePaused() */\n      tag_152\n        /* \"@openzeppelin/contracts/security/Pausable.sol\":1486:1500  _requirePaused */\n      tag_153\n        /* \"@openzeppelin/contracts/security/Pausable.sol\":1486:1502  _requirePaused() */\n      jump\t// in\n    tag_152:\n        /* \"@openzeppelin/contracts/security/Pausable.sol\":2501:2506  false */\n      0x00\n        /* \"@openzeppelin/contracts/security/Pausable.sol\":2491:2498  _paused */\n      dup1\n      0x00\n        /* \"@openzeppelin/contracts/security/Pausable.sol\":2491:2506  _paused = false */\n      0x0100\n      exp\n      dup2\n      sload\n      dup2\n      0xff\n      mul\n      not\n      and\n      swap1\n      dup4\n      iszero\n      iszero\n      mul\n      or\n      swap1\n      sstore\n      pop\n        /* \"@openzeppelin/contracts/security/Pausable.sol\":2521:2543  Unpaused(_msgSender()) */\n      0x5db9ee0a495bf2e6ff9c91a7834c1ba4fdd244a5e8aa4e537bd38aeae4b073aa\n        /* \"@openzeppelin/contracts/security/Pausable.sol\":2530:2542  _msgSender() */\n      tag_155\n        /* \"@openzeppelin/contracts/security/Pausable.sol\":2530:2540  _msgSender */\n      tag_156\n        /* \"@openzeppelin/contracts/security/Pausable.sol\":2530:2542  _msgSender() */\n      jump\t// in\n    tag_155:\n        /* \"@openzeppelin/contracts/security/Pausable.sol\":2521:2543  Unpaused(_msgSender()) */\n      mload(0x40)\n      tag_157\n      swap2\n      swap1\n      tag_61\n      jump\t// in\n    tag_157:\n      mload(0x40)\n      dup1\n      swap2\n      sub\n      swap1\n      log1\n        /* \"@openzeppelin/contracts/security/Pausable.sol\":2433:2550  function _unpause() internal virtual whenPaused {... */\n      jump\t// out\n        /* \"@openzeppelin/contracts/security/Pausable.sol\":2186:2301  function _pause() internal virtual whenNotPaused {... */\n    tag_122:\n        /* \"@openzeppelin/contracts/security/Pausable.sol\":1239:1258  _requireNotPaused() */\n      tag_159\n        /* \"@openzeppelin/contracts/security/Pausable.sol\":1239:1256  _requireNotPaused */\n      tag_70\n        /* \"@openzeppelin/contracts/security/Pausable.sol\":1239:1258  _requireNotPaused() */\n      jump\t// in\n    tag_159:\n        /* \"@openzeppelin/contracts/security/Pausable.sol\":2255:2259  true */\n      0x01\n        /* \"@openzeppelin/contracts/security/Pausable.sol\":2245:2252  _paused */\n      0x00\n      dup1\n        /* \"@openzeppelin/contracts/security/Pausable.sol\":2245:2259  _paused = true */\n      0x0100\n      exp\n      dup2\n      sload\n      dup2\n      0xff\n      mul\n      not\n      and\n      swap1\n      dup4\n      iszero\n      iszero\n      mul\n      or\n      swap1\n      sstore\n      pop\n        /* \"@openzeppelin/contracts/security/Pausable.sol\":2274:2294  Paused(_msgSender()) */\n      0x62e78cea01bee320cd4e420270b5ea74000d11b0c9f74754ebdbfc544b05a258\n        /* \"@openzeppelin/contracts/security/Pausable.sol\":2281:2293  _msgSender() */\n      tag_161\n        /* \"@openzeppelin/contracts/security/Pausable.sol\":2281:2291  _msgSender */\n      tag_156\n        /* \"@openzeppelin/contracts/security/Pausable.sol\":2281:2293  _msgSender() */\n      jump\t// in\n    tag_161:\n        /* \"@openzeppelin/contracts/security/Pausable.sol\":2274:2294  Paused(_msgSender()) */\n      mload(0x40)\n      tag_162\n      swap2\n      swap1\n      tag_61\n      jump\t// in\n    tag_162:\n      mload(0x40)\n      dup1\n      swap2\n      sub\n      swap1\n      log1\n        /* \"@openzeppelin/contracts/security/Pausable.sol\":2186:2301  function _pause() internal virtual whenNotPaused {... */\n      jump\t// out\n        /* \"@openzeppelin/contracts/security/Pausable.sol\":1945:2051  function _requirePaused() internal view virtual {... */\n    tag_153:\n        /* \"@openzeppelin/contracts/security/Pausable.sol\":2011:2019  paused() */\n      tag_164\n        /* \"@openzeppelin/contracts/security/Pausable.sol\":2011:2017  paused */\n      tag_43\n        /* \"@openzeppelin/contracts/security/Pausable.sol\":2011:2019  paused() */\n      jump\t// in\n    tag_164:\n        /* \"@openzeppelin/contracts/security/Pausable.sol\":2003:2044  require(paused(), \"Pausable: not paused\") */\n      tag_165\n      jumpi\n      mload(0x40)\n      0x08c379a000000000000000000000000000000000000000000000000000000000\n      dup2\n      mstore\n      0x04\n      add\n      tag_166\n      swap1\n      tag_167\n      jump\t// in\n    tag_166:\n      mload(0x40)\n      dup1\n      swap2\n      sub\n      swap1\n      revert\n    tag_165:\n        /* \"@openzeppelin/contracts/security/Pausable.sol\":1945:2051  function _requirePaused() internal view virtual {... */\n      jump\t// out\n        /* \"@openzeppelin/contracts/utils/Context.sol\":656:752  function _msgSender() internal view virtual returns (address) {... */\n    tag_156:\n        /* \"@openzeppelin/contracts/utils/Context.sol\":709:716  address */\n      0x00\n        /* \"@openzeppelin/contracts/utils/Context.sol\":735:745  msg.sender */\n      caller\n        /* \"@openzeppelin/contracts/utils/Context.sol\":728:745  return msg.sender */\n      swap1\n      pop\n        /* \"@openzeppelin/contracts/utils/Context.sol\":656:752  function _msgSender() internal view virtual returns (address) {... */\n      swap1\n      jump\t// out\n    tag_76:\n      dataSize(sub_0)\n      dup1\n      dataOffset(sub_0)\n      dup4\n      codecopy\n      add\n      swap1\n      jump\t// out\n        /* \"#utility.yul\":7:82   */\n    tag_169:\n        /* \"#utility.yul\":40:46   */\n      0x00\n        /* \"#utility.yul\":73:75   */\n      0x40\n        /* \"#utility.yul\":67:76   */\n      mload\n        /* \"#utility.yul\":57:76   */\n      swap1\n      pop\n        /* \"#utility.yul\":7:82   */\n      swap1\n      jump\t// out\n        /* \"#utility.yul\":88:205   */\n    tag_170:\n        /* \"#utility.yul\":197:198   */\n      0x00\n        /* \"#utility.yul\":194:195   */\n      dup1\n        /* \"#utility.yul\":187:199   */\n      revert\n        /* \"#utility.yul\":211:328   */\n    tag_171:\n        /* \"#utility.yul\":320:321   */\n      0x00\n        /* \"#utility.yul\":317:318   */\n      dup1\n        /* \"#utility.yul\":310:322   */\n      revert\n        /* \"#utility.yul\":334:411   */\n    tag_172:\n        /* \"#utility.yul\":371:378   */\n      0x00\n        /* \"#utility.yul\":400:405   */\n      dup2\n        /* \"#utility.yul\":389:405   */\n      swap1\n      pop\n        /* \"#utility.yul\":334:411   */\n      swap2\n      swap1\n      pop\n      jump\t// out\n        /* \"#utility.yul\":417:539   */\n    tag_173:\n        /* \"#utility.yul\":490:514   */\n      tag_223\n        /* \"#utility.yul\":508:513   */\n      dup2\n        /* \"#utility.yul\":490:514   */\n      tag_172\n      jump\t// in\n    tag_223:\n        /* \"#utility.yul\":483:488   */\n      dup2\n        /* \"#utility.yul\":480:515   */\n      eq\n        /* \"#utility.yul\":470:533   */\n      tag_224\n      jumpi\n        /* \"#utility.yul\":529:530   */\n      0x00\n        /* \"#utility.yul\":526:527   */\n      dup1\n        /* \"#utility.yul\":519:531   */\n      revert\n        /* \"#utility.yul\":470:533   */\n    tag_224:\n        /* \"#utility.yul\":417:539   */\n      pop\n      jump\t// out\n        /* \"#utility.yul\":545:684   */\n    tag_174:\n        /* \"#utility.yul\":591:596   */\n      0x00\n        /* \"#utility.yul\":629:635   */\n      dup2\n        /* \"#utility.yul\":616:636   */\n      calldataload\n        /* \"#utility.yul\":607:636   */\n      swap1\n      pop\n        /* \"#utility.yul\":645:678   */\n      tag_226\n        /* \"#utility.yul\":672:677   */\n      dup2\n        /* \"#utility.yul\":645:678   */\n      tag_173\n      jump\t// in\n    tag_226:\n        /* \"#utility.yul\":545:684   */\n      swap3\n      swap2\n      pop\n      pop\n      jump\t// out\n        /* \"#utility.yul\":690:1019   */\n    tag_18:\n        /* \"#utility.yul\":749:755   */\n      0x00\n        /* \"#utility.yul\":798:800   */\n      0x20\n        /* \"#utility.yul\":786:795   */\n      dup3\n        /* \"#utility.yul\":777:784   */\n      dup5\n        /* \"#utility.yul\":773:796   */\n      sub\n        /* \"#utility.yul\":769:801   */\n      slt\n        /* \"#utility.yul\":766:885   */\n      iszero\n      tag_228\n      jumpi\n        /* \"#utility.yul\":804:883   */\n      tag_229\n      tag_170\n      jump\t// in\n    tag_229:\n        /* \"#utility.yul\":766:885   */\n    tag_228:\n        /* \"#utility.yul\":924:925   */\n      0x00\n        /* \"#utility.yul\":949:1002   */\n      tag_230\n        /* \"#utility.yul\":994:1001   */\n      dup5\n        /* \"#utility.yul\":985:991   */\n      dup3\n        /* \"#utility.yul\":974:983   */\n      dup6\n        /* \"#utility.yul\":970:992   */\n      add\n        /* \"#utility.yul\":949:1002   */\n      tag_174\n      jump\t// in\n    tag_230:\n        /* \"#utility.yul\":939:1002   */\n      swap2\n      pop\n        /* \"#utility.yul\":895:1012   */\n      pop\n        /* \"#utility.yul\":690:1019   */\n      swap3\n      swap2\n      pop\n      pop\n      jump\t// out\n        /* \"#utility.yul\":1025:1151   */\n    tag_175:\n        /* \"#utility.yul\":1062:1069   */\n      0x00\n        /* \"#utility.yul\":1102:1144   */\n      0xffffffffffffffffffffffffffffffffffffffff\n        /* \"#utility.yul\":1095:1100   */\n      dup3\n        /* \"#utility.yul\":1091:1145   */\n      and\n        /* \"#utility.yul\":1080:1145   */\n      swap1\n      pop\n        /* \"#utility.yul\":1025:1151   */\n      swap2\n      swap1\n      pop\n      jump\t// out\n        /* \"#utility.yul\":1157:1217   */\n    tag_176:\n        /* \"#utility.yul\":1185:1188   */\n      0x00\n        /* \"#utility.yul\":1206:1211   */\n      dup2\n        /* \"#utility.yul\":1199:1211   */\n      swap1\n      pop\n        /* \"#utility.yul\":1157:1217   */\n      swap2\n      swap1\n      pop\n      jump\t// out\n        /* \"#utility.yul\":1223:1365   */\n    tag_177:\n        /* \"#utility.yul\":1273:1282   */\n      0x00\n        /* \"#utility.yul\":1306:1359   */\n      tag_234\n        /* \"#utility.yul\":1324:1358   */\n      tag_235\n        /* \"#utility.yul\":1333:1357   */\n      tag_236\n        /* \"#utility.yul\":1351:1356   */\n      dup5\n        /* \"#utility.yul\":1333:1357   */\n      tag_175\n      jump\t// in\n    tag_236:\n        /* \"#utility.yul\":1324:1358   */\n      tag_176\n      jump\t// in\n    tag_235:\n        /* \"#utility.yul\":1306:1359   */\n      tag_175\n      jump\t// in\n    tag_234:\n        /* \"#utility.yul\":1293:1359   */\n      swap1\n      pop\n        /* \"#utility.yul\":1223:1365   */\n      swap2\n      swap1\n      pop\n      jump\t// out\n        /* \"#utility.yul\":1371:1497   */\n    tag_178:\n        /* \"#utility.yul\":1421:1430   */\n      0x00\n        /* \"#utility.yul\":1454:1491   */\n      tag_238\n        /* \"#utility.yul\":1485:1490   */\n      dup3\n        /* \"#utility.yul\":1454:1491   */\n      tag_177\n      jump\t// in\n    tag_238:\n        /* \"#utility.yul\":1441:1491   */\n      swap1\n      pop\n        /* \"#utility.yul\":1371:1497   */\n      swap2\n      swap1\n      pop\n      jump\t// out\n        /* \"#utility.yul\":1503:1645   */\n    tag_179:\n        /* \"#utility.yul\":1569:1578   */\n      0x00\n        /* \"#utility.yul\":1602:1639   */\n      tag_240\n        /* \"#utility.yul\":1633:1638   */\n      dup3\n        /* \"#utility.yul\":1602:1639   */\n      tag_178\n      jump\t// in\n    tag_240:\n        /* \"#utility.yul\":1589:1639   */\n      swap1\n      pop\n        /* \"#utility.yul\":1503:1645   */\n      swap2\n      swap1\n      pop\n      jump\t// out\n        /* \"#utility.yul\":1651:1814   */\n    tag_180:\n        /* \"#utility.yul\":1754:1807   */\n      tag_242\n        /* \"#utility.yul\":1801:1806   */\n      dup2\n        /* \"#utility.yul\":1754:1807   */\n      tag_179\n      jump\t// in\n    tag_242:\n        /* \"#utility.yul\":1749:1752   */\n      dup3\n        /* \"#utility.yul\":1742:1808   */\n      mstore\n        /* \"#utility.yul\":1651:1814   */\n      pop\n      pop\n      jump\t// out\n        /* \"#utility.yul\":1820:2074   */\n    tag_21:\n        /* \"#utility.yul\":1929:1933   */\n      0x00\n        /* \"#utility.yul\":1967:1969   */\n      0x20\n        /* \"#utility.yul\":1956:1965   */\n      dup3\n        /* \"#utility.yul\":1952:1970   */\n      add\n        /* \"#utility.yul\":1944:1970   */\n      swap1\n      pop\n        /* \"#utility.yul\":1980:2067   */\n      tag_244\n        /* \"#utility.yul\":2064:2065   */\n      0x00\n        /* \"#utility.yul\":2053:2062   */\n      dup4\n        /* \"#utility.yul\":2049:2066   */\n      add\n        /* \"#utility.yul\":2040:2046   */\n      dup5\n        /* \"#utility.yul\":1980:2067   */\n      tag_180\n      jump\t// in\n    tag_244:\n        /* \"#utility.yul\":1820:2074   */\n      swap3\n      swap2\n      pop\n      pop\n      jump\t// out\n        /* \"#utility.yul\":2080:2176   */\n    tag_181:\n        /* \"#utility.yul\":2117:2124   */\n      0x00\n        /* \"#utility.yul\":2146:2170   */\n      tag_246\n        /* \"#utility.yul\":2164:2169   */\n      dup3\n        /* \"#utility.yul\":2146:2170   */\n      tag_175\n      jump\t// in\n    tag_246:\n        /* \"#utility.yul\":2135:2170   */\n      swap1\n      pop\n        /* \"#utility.yul\":2080:2176   */\n      swap2\n      swap1\n      pop\n      jump\t// out\n        /* \"#utility.yul\":2182:2304   */\n    tag_182:\n        /* \"#utility.yul\":2255:2279   */\n      tag_248\n        /* \"#utility.yul\":2273:2278   */\n      dup2\n        /* \"#utility.yul\":2255:2279   */\n      tag_181\n      jump\t// in\n    tag_248:\n        /* \"#utility.yul\":2248:2253   */\n      dup2\n        /* \"#utility.yul\":2245:2280   */\n      eq\n        /* \"#utility.yul\":2235:2298   */\n      tag_249\n      jumpi\n        /* \"#utility.yul\":2294:2295   */\n      0x00\n        /* \"#utility.yul\":2291:2292   */\n      dup1\n        /* \"#utility.yul\":2284:2296   */\n      revert\n        /* \"#utility.yul\":2235:2298   */\n    tag_249:\n        /* \"#utility.yul\":2182:2304   */\n      pop\n      jump\t// out\n        /* \"#utility.yul\":2310:2449   */\n    tag_183:\n        /* \"#utility.yul\":2356:2361   */\n      0x00\n        /* \"#utility.yul\":2394:2400   */\n      dup2\n        /* \"#utility.yul\":2381:2401   */\n      calldataload\n        /* \"#utility.yul\":2372:2401   */\n      swap1\n      pop\n        /* \"#utility.yul\":2410:2443   */\n      tag_251\n        /* \"#utility.yul\":2437:2442   */\n      dup2\n        /* \"#utility.yul\":2410:2443   */\n      tag_182\n      jump\t// in\n    tag_251:\n        /* \"#utility.yul\":2310:2449   */\n      swap3\n      swap2\n      pop\n      pop\n      jump\t// out\n        /* \"#utility.yul\":2455:2784   */\n    tag_24:\n        /* \"#utility.yul\":2514:2520   */\n      0x00\n        /* \"#utility.yul\":2563:2565   */\n      0x20\n        /* \"#utility.yul\":2551:2560   */\n      dup3\n        /* \"#utility.yul\":2542:2549   */\n      dup5\n        /* \"#utility.yul\":2538:2561   */\n      sub\n        /* \"#utility.yul\":2534:2566   */\n      slt\n        /* \"#utility.yul\":2531:2650   */\n      iszero\n      tag_253\n      jumpi\n        /* \"#utility.yul\":2569:2648   */\n      tag_254\n      tag_170\n      jump\t// in\n    tag_254:\n        /* \"#utility.yul\":2531:2650   */\n    tag_253:\n        /* \"#utility.yul\":2689:2690   */\n      0x00\n        /* \"#utility.yul\":2714:2767   */\n      tag_255\n        /* \"#utility.yul\":2759:2766   */\n      dup5\n        /* \"#utility.yul\":2750:2756   */\n      dup3\n        /* \"#utility.yul\":2739:2748   */\n      dup6\n        /* \"#utility.yul\":2735:2757   */\n      add\n        /* \"#utility.yul\":2714:2767   */\n      tag_183\n      jump\t// in\n    tag_255:\n        /* \"#utility.yul\":2704:2767   */\n      swap2\n      pop\n        /* \"#utility.yul\":2660:2777   */\n      pop\n        /* \"#utility.yul\":2455:2784   */\n      swap3\n      swap2\n      pop\n      pop\n      jump\t// out\n        /* \"#utility.yul\":2790:2908   */\n    tag_184:\n        /* \"#utility.yul\":2877:2901   */\n      tag_257\n        /* \"#utility.yul\":2895:2900   */\n      dup2\n        /* \"#utility.yul\":2877:2901   */\n      tag_172\n      jump\t// in\n    tag_257:\n        /* \"#utility.yul\":2872:2875   */\n      dup3\n        /* \"#utility.yul\":2865:2902   */\n      mstore\n        /* \"#utility.yul\":2790:2908   */\n      pop\n      pop\n      jump\t// out\n        /* \"#utility.yul\":2914:3136   */\n    tag_27:\n        /* \"#utility.yul\":3007:3011   */\n      0x00\n        /* \"#utility.yul\":3045:3047   */\n      0x20\n        /* \"#utility.yul\":3034:3043   */\n      dup3\n        /* \"#utility.yul\":3030:3048   */\n      add\n        /* \"#utility.yul\":3022:3048   */\n      swap1\n      pop\n        /* \"#utility.yul\":3058:3129   */\n      tag_259\n        /* \"#utility.yul\":3126:3127   */\n      0x00\n        /* \"#utility.yul\":3115:3124   */\n      dup4\n        /* \"#utility.yul\":3111:3128   */\n      add\n        /* \"#utility.yul\":3102:3108   */\n      dup5\n        /* \"#utility.yul\":3058:3129   */\n      tag_184\n      jump\t// in\n    tag_259:\n        /* \"#utility.yul\":2914:3136   */\n      swap3\n      swap2\n      pop\n      pop\n      jump\t// out\n        /* \"#utility.yul\":3142:3259   */\n    tag_185:\n        /* \"#utility.yul\":3251:3252   */\n      0x00\n        /* \"#utility.yul\":3248:3249   */\n      dup1\n        /* \"#utility.yul\":3241:3253   */\n      revert\n        /* \"#utility.yul\":3265:3382   */\n    tag_186:\n        /* \"#utility.yul\":3374:3375   */\n      0x00\n        /* \"#utility.yul\":3371:3372   */\n      dup1\n        /* \"#utility.yul\":3364:3376   */\n      revert\n        /* \"#utility.yul\":3388:3490   */\n    tag_187:\n        /* \"#utility.yul\":3429:3435   */\n      0x00\n        /* \"#utility.yul\":3480:3482   */\n      0x1f\n        /* \"#utility.yul\":3476:3483   */\n      not\n        /* \"#utility.yul\":3471:3473   */\n      0x1f\n        /* \"#utility.yul\":3464:3469   */\n      dup4\n        /* \"#utility.yul\":3460:3474   */\n      add\n        /* \"#utility.yul\":3456:3484   */\n      and\n        /* \"#utility.yul\":3446:3484   */\n      swap1\n      pop\n        /* \"#utility.yul\":3388:3490   */\n      swap2\n      swap1\n      pop\n      jump\t// out\n        /* \"#utility.yul\":3496:3676   */\n    tag_188:\n        /* \"#utility.yul\":3544:3621   */\n      0x4e487b7100000000000000000000000000000000000000000000000000000000\n        /* \"#utility.yul\":3541:3542   */\n      0x00\n        /* \"#utility.yul\":3534:3622   */\n      mstore\n        /* \"#utility.yul\":3641:3645   */\n      0x41\n        /* \"#utility.yul\":3638:3639   */\n      0x04\n        /* \"#utility.yul\":3631:3646   */\n      mstore\n        /* \"#utility.yul\":3665:3669   */\n      0x24\n        /* \"#utility.yul\":3662:3663   */\n      0x00\n        /* \"#utility.yul\":3655:3670   */\n      revert\n        /* \"#utility.yul\":3682:3963   */\n    tag_189:\n        /* \"#utility.yul\":3765:3792   */\n      tag_265\n        /* \"#utility.yul\":3787:3791   */\n      dup3\n        /* \"#utility.yul\":3765:3792   */\n      tag_187\n      jump\t// in\n    tag_265:\n        /* \"#utility.yul\":3757:3763   */\n      dup2\n        /* \"#utility.yul\":3753:3793   */\n      add\n        /* \"#utility.yul\":3895:3901   */\n      dup2\n        /* \"#utility.yul\":3883:3893   */\n      dup2\n        /* \"#utility.yul\":3880:3902   */\n      lt\n        /* \"#utility.yul\":3859:3877   */\n      0xffffffffffffffff\n        /* \"#utility.yul\":3847:3857   */\n      dup3\n        /* \"#utility.yul\":3844:3878   */\n      gt\n        /* \"#utility.yul\":3841:3903   */\n      or\n        /* \"#utility.yul\":3838:3926   */\n      iszero\n      tag_266\n      jumpi\n        /* \"#utility.yul\":3906:3924   */\n      tag_267\n      tag_188\n      jump\t// in\n    tag_267:\n        /* \"#utility.yul\":3838:3926   */\n    tag_266:\n        /* \"#utility.yul\":3946:3956   */\n      dup1\n        /* \"#utility.yul\":3942:3944   */\n      0x40\n        /* \"#utility.yul\":3935:3957   */\n      mstore\n        /* \"#utility.yul\":3725:3963   */\n      pop\n        /* \"#utility.yul\":3682:3963   */\n      pop\n      pop\n      jump\t// out\n        /* \"#utility.yul\":3969:4098   */\n    tag_190:\n        /* \"#utility.yul\":4003:4009   */\n      0x00\n        /* \"#utility.yul\":4030:4050   */\n      tag_269\n      tag_169\n      jump\t// in\n    tag_269:\n        /* \"#utility.yul\":4020:4050   */\n      swap1\n      pop\n        /* \"#utility.yul\":4059:4092   */\n      tag_270\n        /* \"#utility.yul\":4087:4091   */\n      dup3\n        /* \"#utility.yul\":4079:4085   */\n      dup3\n        /* \"#utility.yul\":4059:4092   */\n      tag_189\n      jump\t// in\n    tag_270:\n        /* \"#utility.yul\":3969:4098   */\n      swap2\n      swap1\n      pop\n      jump\t// out\n        /* \"#utility.yul\":4104:4412   */\n    tag_191:\n        /* \"#utility.yul\":4166:4170   */\n      0x00\n        /* \"#utility.yul\":4256:4274   */\n      0xffffffffffffffff\n        /* \"#utility.yul\":4248:4254   */\n      dup3\n        /* \"#utility.yul\":4245:4275   */\n      gt\n        /* \"#utility.yul\":4242:4298   */\n      iszero\n      tag_272\n      jumpi\n        /* \"#utility.yul\":4278:4296   */\n      tag_273\n      tag_188\n      jump\t// in\n    tag_273:\n        /* \"#utility.yul\":4242:4298   */\n    tag_272:\n        /* \"#utility.yul\":4316:4345   */\n      tag_274\n        /* \"#utility.yul\":4338:4344   */\n      dup3\n        /* \"#utility.yul\":4316:4345   */\n      tag_187\n      jump\t// in\n    tag_274:\n        /* \"#utility.yul\":4308:4345   */\n      swap1\n      pop\n        /* \"#utility.yul\":4400:4404   */\n      0x20\n        /* \"#utility.yul\":4394:4398   */\n      dup2\n        /* \"#utility.yul\":4390:4405   */\n      add\n        /* \"#utility.yul\":4382:4405   */\n      swap1\n      pop\n        /* \"#utility.yul\":4104:4412   */\n      swap2\n      swap1\n      pop\n      jump\t// out\n        /* \"#utility.yul\":4418:4566   */\n    tag_192:\n        /* \"#utility.yul\":4516:4522   */\n      dup3\n        /* \"#utility.yul\":4511:4514   */\n      dup2\n        /* \"#utility.yul\":4506:4509   */\n      dup4\n        /* \"#utility.yul\":4493:4523   */\n      calldatacopy\n        /* \"#utility.yul\":4557:4558   */\n      0x00\n        /* \"#utility.yul\":4548:4554   */\n      dup4\n        /* \"#utility.yul\":4543:4546   */\n      dup4\n        /* \"#utility.yul\":4539:4555   */\n      add\n        /* \"#utility.yul\":4532:4559   */\n      mstore\n        /* \"#utility.yul\":4418:4566   */\n      pop\n      pop\n      pop\n      jump\t// out\n        /* \"#utility.yul\":4572:4997   */\n    tag_193:\n        /* \"#utility.yul\":4650:4655   */\n      0x00\n        /* \"#utility.yul\":4675:4741   */\n      tag_277\n        /* \"#utility.yul\":4691:4740   */\n      tag_278\n        /* \"#utility.yul\":4733:4739   */\n      dup5\n        /* \"#utility.yul\":4691:4740   */\n      tag_191\n      jump\t// in\n    tag_278:\n        /* \"#utility.yul\":4675:4741   */\n      tag_190\n      jump\t// in\n    tag_277:\n        /* \"#utility.yul\":4666:4741   */\n      swap1\n      pop\n        /* \"#utility.yul\":4764:4770   */\n      dup3\n        /* \"#utility.yul\":4757:4762   */\n      dup2\n        /* \"#utility.yul\":4750:4771   */\n      mstore\n        /* \"#utility.yul\":4802:4806   */\n      0x20\n        /* \"#utility.yul\":4795:4800   */\n      dup2\n        /* \"#utility.yul\":4791:4807   */\n      add\n        /* \"#utility.yul\":4840:4843   */\n      dup5\n        /* \"#utility.yul\":4831:4837   */\n      dup5\n        /* \"#utility.yul\":4826:4829   */\n      dup5\n        /* \"#utility.yul\":4822:4838   */\n      add\n        /* \"#utility.yul\":4819:4844   */\n      gt\n        /* \"#utility.yul\":4816:4928   */\n      iszero\n      tag_279\n      jumpi\n        /* \"#utility.yul\":4847:4926   */\n      tag_280\n      tag_186\n      jump\t// in\n    tag_280:\n        /* \"#utility.yul\":4816:4928   */\n    tag_279:\n        /* \"#utility.yul\":4937:4991   */\n      tag_281\n        /* \"#utility.yul\":4984:4990   */\n      dup5\n        /* \"#utility.yul\":4979:4982   */\n      dup3\n        /* \"#utility.yul\":4974:4977   */\n      dup6\n        /* \"#utility.yul\":4937:4991   */\n      tag_192\n      jump\t// in\n    tag_281:\n        /* \"#utility.yul\":4656:4997   */\n      pop\n        /* \"#utility.yul\":4572:4997   */\n      swap4\n      swap3\n      pop\n      pop\n      pop\n      jump\t// out\n        /* \"#utility.yul\":5017:5357   */\n    tag_194:\n        /* \"#utility.yul\":5073:5078   */\n      0x00\n        /* \"#utility.yul\":5122:5125   */\n      dup3\n        /* \"#utility.yul\":5115:5119   */\n      0x1f\n        /* \"#utility.yul\":5107:5113   */\n      dup4\n        /* \"#utility.yul\":5103:5120   */\n      add\n        /* \"#utility.yul\":5099:5126   */\n      slt\n        /* \"#utility.yul\":5089:5211   */\n      tag_283\n      jumpi\n        /* \"#utility.yul\":5130:5209   */\n      tag_284\n      tag_185\n      jump\t// in\n    tag_284:\n        /* \"#utility.yul\":5089:5211   */\n    tag_283:\n        /* \"#utility.yul\":5247:5253   */\n      dup2\n        /* \"#utility.yul\":5234:5254   */\n      calldataload\n        /* \"#utility.yul\":5272:5351   */\n      tag_285\n        /* \"#utility.yul\":5347:5350   */\n      dup5\n        /* \"#utility.yul\":5339:5345   */\n      dup3\n        /* \"#utility.yul\":5332:5336   */\n      0x20\n        /* \"#utility.yul\":5324:5330   */\n      dup7\n        /* \"#utility.yul\":5320:5337   */\n      add\n        /* \"#utility.yul\":5272:5351   */\n      tag_193\n      jump\t// in\n    tag_285:\n        /* \"#utility.yul\":5263:5351   */\n      swap2\n      pop\n        /* \"#utility.yul\":5079:5357   */\n      pop\n        /* \"#utility.yul\":5017:5357   */\n      swap3\n      swap2\n      pop\n      pop\n      jump\t// out\n        /* \"#utility.yul\":5363:6342   */\n    tag_30:\n        /* \"#utility.yul\":5460:5466   */\n      0x00\n        /* \"#utility.yul\":5468:5474   */\n      dup1\n        /* \"#utility.yul\":5476:5482   */\n      0x00\n        /* \"#utility.yul\":5525:5527   */\n      0x60\n        /* \"#utility.yul\":5513:5522   */\n      dup5\n        /* \"#utility.yul\":5504:5511   */\n      dup7\n        /* \"#utility.yul\":5500:5523   */\n      sub\n        /* \"#utility.yul\":5496:5528   */\n      slt\n        /* \"#utility.yul\":5493:5612   */\n      iszero\n      tag_287\n      jumpi\n        /* \"#utility.yul\":5531:5610   */\n      tag_288\n      tag_170\n      jump\t// in\n    tag_288:\n        /* \"#utility.yul\":5493:5612   */\n    tag_287:\n        /* \"#utility.yul\":5679:5680   */\n      0x00\n        /* \"#utility.yul\":5668:5677   */\n      dup5\n        /* \"#utility.yul\":5664:5681   */\n      add\n        /* \"#utility.yul\":5651:5682   */\n      calldataload\n        /* \"#utility.yul\":5709:5727   */\n      0xffffffffffffffff\n        /* \"#utility.yul\":5701:5707   */\n      dup2\n        /* \"#utility.yul\":5698:5728   */\n      gt\n        /* \"#utility.yul\":5695:5812   */\n      iszero\n      tag_289\n      jumpi\n        /* \"#utility.yul\":5731:5810   */\n      tag_290\n      tag_171\n      jump\t// in\n    tag_290:\n        /* \"#utility.yul\":5695:5812   */\n    tag_289:\n        /* \"#utility.yul\":5836:5899   */\n      tag_291\n        /* \"#utility.yul\":5891:5898   */\n      dup7\n        /* \"#utility.yul\":5882:5888   */\n      dup3\n        /* \"#utility.yul\":5871:5880   */\n      dup8\n        /* \"#utility.yul\":5867:5889   */\n      add\n        /* \"#utility.yul\":5836:5899   */\n      tag_194\n      jump\t// in\n    tag_291:\n        /* \"#utility.yul\":5826:5899   */\n      swap4\n      pop\n        /* \"#utility.yul\":5622:5909   */\n      pop\n        /* \"#utility.yul\":5976:5978   */\n      0x20\n        /* \"#utility.yul\":5965:5974   */\n      dup5\n        /* \"#utility.yul\":5961:5979   */\n      add\n        /* \"#utility.yul\":5948:5980   */\n      calldataload\n        /* \"#utility.yul\":6007:6025   */\n      0xffffffffffffffff\n        /* \"#utility.yul\":5999:6005   */\n      dup2\n        /* \"#utility.yul\":5996:6026   */\n      gt\n        /* \"#utility.yul\":5993:6110   */\n      iszero\n      tag_292\n      jumpi\n        /* \"#utility.yul\":6029:6108   */\n      tag_293\n      tag_171\n      jump\t// in\n    tag_293:\n        /* \"#utility.yul\":5993:6110   */\n    tag_292:\n        /* \"#utility.yul\":6134:6197   */\n      tag_294\n        /* \"#utility.yul\":6189:6196   */\n      dup7\n        /* \"#utility.yul\":6180:6186   */\n      dup3\n        /* \"#utility.yul\":6169:6178   */\n      dup8\n        /* \"#utility.yul\":6165:6187   */\n      add\n        /* \"#utility.yul\":6134:6197   */\n      tag_194\n      jump\t// in\n    tag_294:\n        /* \"#utility.yul\":6124:6197   */\n      swap3\n      pop\n        /* \"#utility.yul\":5919:6207   */\n      pop\n        /* \"#utility.yul\":6246:6248   */\n      0x40\n        /* \"#utility.yul\":6272:6325   */\n      tag_295\n        /* \"#utility.yul\":6317:6324   */\n      dup7\n        /* \"#utility.yul\":6308:6314   */\n      dup3\n        /* \"#utility.yul\":6297:6306   */\n      dup8\n        /* \"#utility.yul\":6293:6315   */\n      add\n        /* \"#utility.yul\":6272:6325   */\n      tag_174\n      jump\t// in\n    tag_295:\n        /* \"#utility.yul\":6262:6325   */\n      swap2\n      pop\n        /* \"#utility.yul\":6217:6335   */\n      pop\n        /* \"#utility.yul\":5363:6342   */\n      swap3\n      pop\n      swap3\n      pop\n      swap3\n      jump\t// out\n        /* \"#utility.yul\":6348:6487   */\n    tag_195:\n        /* \"#utility.yul\":6411:6420   */\n      0x00\n        /* \"#utility.yul\":6444:6481   */\n      tag_297\n        /* \"#utility.yul\":6475:6480   */\n      dup3\n        /* \"#utility.yul\":6444:6481   */\n      tag_178\n      jump\t// in\n    tag_297:\n        /* \"#utility.yul\":6431:6481   */\n      swap1\n      pop\n        /* \"#utility.yul\":6348:6487   */\n      swap2\n      swap1\n      pop\n      jump\t// out\n        /* \"#utility.yul\":6493:6650   */\n    tag_196:\n        /* \"#utility.yul\":6593:6643   */\n      tag_299\n        /* \"#utility.yul\":6637:6642   */\n      dup2\n        /* \"#utility.yul\":6593:6643   */\n      tag_195\n      jump\t// in\n    tag_299:\n        /* \"#utility.yul\":6588:6591   */\n      dup3\n        /* \"#utility.yul\":6581:6644   */\n      mstore\n        /* \"#utility.yul\":6493:6650   */\n      pop\n      pop\n      jump\t// out\n        /* \"#utility.yul\":6656:6904   */\n    tag_37:\n        /* \"#utility.yul\":6762:6766   */\n      0x00\n        /* \"#utility.yul\":6800:6802   */\n      0x20\n        /* \"#utility.yul\":6789:6798   */\n      dup3\n        /* \"#utility.yul\":6785:6803   */\n      add\n        /* \"#utility.yul\":6777:6803   */\n      swap1\n      pop\n        /* \"#utility.yul\":6813:6897   */\n      tag_301\n        /* \"#utility.yul\":6894:6895   */\n      0x00\n        /* \"#utility.yul\":6883:6892   */\n      dup4\n        /* \"#utility.yul\":6879:6896   */\n      add\n        /* \"#utility.yul\":6870:6876   */\n      dup5\n        /* \"#utility.yul\":6813:6897   */\n      tag_196\n      jump\t// in\n    tag_301:\n        /* \"#utility.yul\":6656:6904   */\n      swap3\n      swap2\n      pop\n      pop\n      jump\t// out\n        /* \"#utility.yul\":6910:7384   */\n    tag_40:\n        /* \"#utility.yul\":6978:6984   */\n      0x00\n        /* \"#utility.yul\":6986:6992   */\n      dup1\n        /* \"#utility.yul\":7035:7037   */\n      0x40\n        /* \"#utility.yul\":7023:7032   */\n      dup4\n        /* \"#utility.yul\":7014:7021   */\n      dup6\n        /* \"#utility.yul\":7010:7033   */\n      sub\n        /* \"#utility.yul\":7006:7038   */\n      slt\n        /* \"#utility.yul\":7003:7122   */\n      iszero\n      tag_303\n      jumpi\n        /* \"#utility.yul\":7041:7120   */\n      tag_304\n      tag_170\n      jump\t// in\n    tag_304:\n        /* \"#utility.yul\":7003:7122   */\n    tag_303:\n        /* \"#utility.yul\":7161:7162   */\n      0x00\n        /* \"#utility.yul\":7186:7239   */\n      tag_305\n        /* \"#utility.yul\":7231:7238   */\n      dup6\n        /* \"#utility.yul\":7222:7228   */\n      dup3\n        /* \"#utility.yul\":7211:7220   */\n      dup7\n        /* \"#utility.yul\":7207:7229   */\n      add\n        /* \"#utility.yul\":7186:7239   */\n      tag_183\n      jump\t// in\n    tag_305:\n        /* \"#utility.yul\":7176:7239   */\n      swap3\n      pop\n        /* \"#utility.yul\":7132:7249   */\n      pop\n        /* \"#utility.yul\":7288:7290   */\n      0x20\n        /* \"#utility.yul\":7314:7367   */\n      tag_306\n        /* \"#utility.yul\":7359:7366   */\n      dup6\n        /* \"#utility.yul\":7350:7356   */\n      dup3\n        /* \"#utility.yul\":7339:7348   */\n      dup7\n        /* \"#utility.yul\":7335:7357   */\n      add\n        /* \"#utility.yul\":7314:7367   */\n      tag_174\n      jump\t// in\n    tag_306:\n        /* \"#utility.yul\":7304:7367   */\n      swap2\n      pop\n        /* \"#utility.yul\":7259:7377   */\n      pop\n        /* \"#utility.yul\":6910:7384   */\n      swap3\n      pop\n      swap3\n      swap1\n      pop\n      jump\t// out\n        /* \"#utility.yul\":7390:7480   */\n    tag_197:\n        /* \"#utility.yul\":7424:7431   */\n      0x00\n        /* \"#utility.yul\":7467:7472   */\n      dup2\n        /* \"#utility.yul\":7460:7473   */\n      iszero\n        /* \"#utility.yul\":7453:7474   */\n      iszero\n        /* \"#utility.yul\":7442:7474   */\n      swap1\n      pop\n        /* \"#utility.yul\":7390:7480   */\n      swap2\n      swap1\n      pop\n      jump\t// out\n        /* \"#utility.yul\":7486:7595   */\n    tag_198:\n        /* \"#utility.yul\":7567:7588   */\n      tag_309\n        /* \"#utility.yul\":7582:7587   */\n      dup2\n        /* \"#utility.yul\":7567:7588   */\n      tag_197\n      jump\t// in\n    tag_309:\n        /* \"#utility.yul\":7562:7565   */\n      dup3\n        /* \"#utility.yul\":7555:7589   */\n      mstore\n        /* \"#utility.yul\":7486:7595   */\n      pop\n      pop\n      jump\t// out\n        /* \"#utility.yul\":7601:7811   */\n    tag_45:\n        /* \"#utility.yul\":7688:7692   */\n      0x00\n        /* \"#utility.yul\":7726:7728   */\n      0x20\n        /* \"#utility.yul\":7715:7724   */\n      dup3\n        /* \"#utility.yul\":7711:7729   */\n      add\n        /* \"#utility.yul\":7703:7729   */\n      swap1\n      pop\n        /* \"#utility.yul\":7739:7804   */\n      tag_311\n        /* \"#utility.yul\":7801:7802   */\n      0x00\n        /* \"#utility.yul\":7790:7799   */\n      dup4\n        /* \"#utility.yul\":7786:7803   */\n      add\n        /* \"#utility.yul\":7777:7783   */\n      dup5\n        /* \"#utility.yul\":7739:7804   */\n      tag_198\n      jump\t// in\n    tag_311:\n        /* \"#utility.yul\":7601:7811   */\n      swap3\n      swap2\n      pop\n      pop\n      jump\t// out\n        /* \"#utility.yul\":7817:7935   */\n    tag_199:\n        /* \"#utility.yul\":7904:7928   */\n      tag_313\n        /* \"#utility.yul\":7922:7927   */\n      dup2\n        /* \"#utility.yul\":7904:7928   */\n      tag_181\n      jump\t// in\n    tag_313:\n        /* \"#utility.yul\":7899:7902   */\n      dup3\n        /* \"#utility.yul\":7892:7929   */\n      mstore\n        /* \"#utility.yul\":7817:7935   */\n      pop\n      pop\n      jump\t// out\n        /* \"#utility.yul\":7941:8163   */\n    tag_61:\n        /* \"#utility.yul\":8034:8038   */\n      0x00\n        /* \"#utility.yul\":8072:8074   */\n      0x20\n        /* \"#utility.yul\":8061:8070   */\n      dup3\n        /* \"#utility.yul\":8057:8075   */\n      add\n        /* \"#utility.yul\":8049:8075   */\n      swap1\n      pop\n        /* \"#utility.yul\":8085:8156   */\n      tag_315\n        /* \"#utility.yul\":8153:8154   */\n      0x00\n        /* \"#utility.yul\":8142:8151   */\n      dup4\n        /* \"#utility.yul\":8138:8155   */\n      add\n        /* \"#utility.yul\":8129:8135   */\n      dup5\n        /* \"#utility.yul\":8085:8156   */\n      tag_199\n      jump\t// in\n    tag_315:\n        /* \"#utility.yul\":7941:8163   */\n      swap3\n      swap2\n      pop\n      pop\n      jump\t// out\n        /* \"#utility.yul\":8169:8338   */\n    tag_200:\n        /* \"#utility.yul\":8253:8264   */\n      0x00\n        /* \"#utility.yul\":8287:8293   */\n      dup3\n        /* \"#utility.yul\":8282:8285   */\n      dup3\n        /* \"#utility.yul\":8275:8294   */\n      mstore\n        /* \"#utility.yul\":8327:8331   */\n      0x20\n        /* \"#utility.yul\":8322:8325   */\n      dup3\n        /* \"#utility.yul\":8318:8332   */\n      add\n        /* \"#utility.yul\":8303:8332   */\n      swap1\n      pop\n        /* \"#utility.yul\":8169:8338   */\n      swap3\n      swap2\n      pop\n      pop\n      jump\t// out\n        /* \"#utility.yul\":8344:8569   */\n    tag_201:\n        /* \"#utility.yul\":8484:8518   */\n      0x4f6e6c79207468652061646d696e2063616e20706572666f726d207468697320\n        /* \"#utility.yul\":8480:8481   */\n      0x00\n        /* \"#utility.yul\":8472:8478   */\n      dup3\n        /* \"#utility.yul\":8468:8482   */\n      add\n        /* \"#utility.yul\":8461:8519   */\n      mstore\n        /* \"#utility.yul\":8553:8561   */\n      0x616374696f6e0000000000000000000000000000000000000000000000000000\n        /* \"#utility.yul\":8548:8550   */\n      0x20\n        /* \"#utility.yul\":8540:8546   */\n      dup3\n        /* \"#utility.yul\":8536:8551   */\n      add\n        /* \"#utility.yul\":8529:8562   */\n      mstore\n        /* \"#utility.yul\":8344:8569   */\n      pop\n      jump\t// out\n        /* \"#utility.yul\":8575:8941   */\n    tag_202:\n        /* \"#utility.yul\":8717:8720   */\n      0x00\n        /* \"#utility.yul\":8738:8805   */\n      tag_319\n        /* \"#utility.yul\":8802:8804   */\n      0x26\n        /* \"#utility.yul\":8797:8800   */\n      dup4\n        /* \"#utility.yul\":8738:8805   */\n      tag_200\n      jump\t// in\n    tag_319:\n        /* \"#utility.yul\":8731:8805   */\n      swap2\n      pop\n        /* \"#utility.yul\":8814:8907   */\n      tag_320\n        /* \"#utility.yul\":8903:8906   */\n      dup3\n        /* \"#utility.yul\":8814:8907   */\n      tag_201\n      jump\t// in\n    tag_320:\n        /* \"#utility.yul\":8932:8934   */\n      0x40\n        /* \"#utility.yul\":8927:8930   */\n      dup3\n        /* \"#utility.yul\":8923:8935   */\n      add\n        /* \"#utility.yul\":8916:8935   */\n      swap1\n      pop\n        /* \"#utility.yul\":8575:8941   */\n      swap2\n      swap1\n      pop\n      jump\t// out\n        /* \"#utility.yul\":8947:9366   */\n    tag_67:\n        /* \"#utility.yul\":9113:9117   */\n      0x00\n        /* \"#utility.yul\":9151:9153   */\n      0x20\n        /* \"#utility.yul\":9140:9149   */\n      dup3\n        /* \"#utility.yul\":9136:9154   */\n      add\n        /* \"#utility.yul\":9128:9154   */\n      swap1\n      pop\n        /* \"#utility.yul\":9200:9209   */\n      dup2\n        /* \"#utility.yul\":9194:9198   */\n      dup2\n        /* \"#utility.yul\":9190:9210   */\n      sub\n        /* \"#utility.yul\":9186:9187   */\n      0x00\n        /* \"#utility.yul\":9175:9184   */\n      dup4\n        /* \"#utility.yul\":9171:9188   */\n      add\n        /* \"#utility.yul\":9164:9211   */\n      mstore\n        /* \"#utility.yul\":9228:9359   */\n      tag_322\n        /* \"#utility.yul\":9354:9358   */\n      dup2\n        /* \"#utility.yul\":9228:9359   */\n      tag_202\n      jump\t// in\n    tag_322:\n        /* \"#utility.yul\":9220:9359   */\n      swap1\n      pop\n        /* \"#utility.yul\":8947:9366   */\n      swap2\n      swap1\n      pop\n      jump\t// out\n        /* \"#utility.yul\":9372:9471   */\n    tag_203:\n        /* \"#utility.yul\":9424:9430   */\n      0x00\n        /* \"#utility.yul\":9458:9463   */\n      dup2\n        /* \"#utility.yul\":9452:9464   */\n      mload\n        /* \"#utility.yul\":9442:9464   */\n      swap1\n      pop\n        /* \"#utility.yul\":9372:9471   */\n      swap2\n      swap1\n      pop\n      jump\t// out\n        /* \"#utility.yul\":9477:9616   */\n    tag_204:\n        /* \"#utility.yul\":9566:9572   */\n      dup3\n        /* \"#utility.yul\":9561:9564   */\n      dup2\n        /* \"#utility.yul\":9556:9559   */\n      dup4\n        /* \"#utility.yul\":9550:9573   */\n      mcopy\n        /* \"#utility.yul\":9607:9608   */\n      0x00\n        /* \"#utility.yul\":9598:9604   */\n      dup4\n        /* \"#utility.yul\":9593:9596   */\n      dup4\n        /* \"#utility.yul\":9589:9605   */\n      add\n        /* \"#utility.yul\":9582:9609   */\n      mstore\n        /* \"#utility.yul\":9477:9616   */\n      pop\n      pop\n      pop\n      jump\t// out\n        /* \"#utility.yul\":9622:9999   */\n    tag_205:\n        /* \"#utility.yul\":9710:9713   */\n      0x00\n        /* \"#utility.yul\":9738:9777   */\n      tag_326\n        /* \"#utility.yul\":9771:9776   */\n      dup3\n        /* \"#utility.yul\":9738:9777   */\n      tag_203\n      jump\t// in\n    tag_326:\n        /* \"#utility.yul\":9793:9864   */\n      tag_327\n        /* \"#utility.yul\":9857:9863   */\n      dup2\n        /* \"#utility.yul\":9852:9855   */\n      dup6\n        /* \"#utility.yul\":9793:9864   */\n      tag_200\n      jump\t// in\n    tag_327:\n        /* \"#utility.yul\":9786:9864   */\n      swap4\n      pop\n        /* \"#utility.yul\":9873:9938   */\n      tag_328\n        /* \"#utility.yul\":9931:9937   */\n      dup2\n        /* \"#utility.yul\":9926:9929   */\n      dup6\n        /* \"#utility.yul\":9919:9923   */\n      0x20\n        /* \"#utility.yul\":9912:9917   */\n      dup7\n        /* \"#utility.yul\":9908:9924   */\n      add\n        /* \"#utility.yul\":9873:9938   */\n      tag_204\n      jump\t// in\n    tag_328:\n        /* \"#utility.yul\":9963:9992   */\n      tag_329\n        /* \"#utility.yul\":9985:9991   */\n      dup2\n        /* \"#utility.yul\":9963:9992   */\n      tag_187\n      jump\t// in\n    tag_329:\n        /* \"#utility.yul\":9958:9961   */\n      dup5\n        /* \"#utility.yul\":9954:9993   */\n      add\n        /* \"#utility.yul\":9947:9993   */\n      swap2\n      pop\n        /* \"#utility.yul\":9714:9999   */\n      pop\n        /* \"#utility.yul\":9622:9999   */\n      swap3\n      swap2\n      pop\n      pop\n      jump\t// out\n        /* \"#utility.yul\":10005:10629   */\n    tag_78:\n        /* \"#utility.yul\":10194:10198   */\n      0x00\n        /* \"#utility.yul\":10232:10234   */\n      0x60\n        /* \"#utility.yul\":10221:10230   */\n      dup3\n        /* \"#utility.yul\":10217:10235   */\n      add\n        /* \"#utility.yul\":10209:10235   */\n      swap1\n      pop\n        /* \"#utility.yul\":10281:10290   */\n      dup2\n        /* \"#utility.yul\":10275:10279   */\n      dup2\n        /* \"#utility.yul\":10271:10291   */\n      sub\n        /* \"#utility.yul\":10267:10268   */\n      0x00\n        /* \"#utility.yul\":10256:10265   */\n      dup4\n        /* \"#utility.yul\":10252:10269   */\n      add\n        /* \"#utility.yul\":10245:10292   */\n      mstore\n        /* \"#utility.yul\":10309:10387   */\n      tag_331\n        /* \"#utility.yul\":10382:10386   */\n      dup2\n        /* \"#utility.yul\":10373:10379   */\n      dup7\n        /* \"#utility.yul\":10309:10387   */\n      tag_205\n      jump\t// in\n    tag_331:\n        /* \"#utility.yul\":10301:10387   */\n      swap1\n      pop\n        /* \"#utility.yul\":10434:10443   */\n      dup2\n        /* \"#utility.yul\":10428:10432   */\n      dup2\n        /* \"#utility.yul\":10424:10444   */\n      sub\n        /* \"#utility.yul\":10419:10421   */\n      0x20\n        /* \"#utility.yul\":10408:10417   */\n      dup4\n        /* \"#utility.yul\":10404:10422   */\n      add\n        /* \"#utility.yul\":10397:10445   */\n      mstore\n        /* \"#utility.yul\":10462:10540   */\n      tag_332\n        /* \"#utility.yul\":10535:10539   */\n      dup2\n        /* \"#utility.yul\":10526:10532   */\n      dup6\n        /* \"#utility.yul\":10462:10540   */\n      tag_205\n      jump\t// in\n    tag_332:\n        /* \"#utility.yul\":10454:10540   */\n      swap1\n      pop\n        /* \"#utility.yul\":10550:10622   */\n      tag_333\n        /* \"#utility.yul\":10618:10620   */\n      0x40\n        /* \"#utility.yul\":10607:10616   */\n      dup4\n        /* \"#utility.yul\":10603:10621   */\n      add\n        /* \"#utility.yul\":10594:10600   */\n      dup5\n        /* \"#utility.yul\":10550:10622   */\n      tag_184\n      jump\t// in\n    tag_333:\n        /* \"#utility.yul\":10005:10629   */\n      swap5\n      swap4\n      pop\n      pop\n      pop\n      pop\n      jump\t// out\n        /* \"#utility.yul\":10635:10815   */\n    tag_206:\n        /* \"#utility.yul\":10683:10760   */\n      0x4e487b7100000000000000000000000000000000000000000000000000000000\n        /* \"#utility.yul\":10680:10681   */\n      0x00\n        /* \"#utility.yul\":10673:10761   */\n      mstore\n        /* \"#utility.yul\":10780:10784   */\n      0x11\n        /* \"#utility.yul\":10777:10778   */\n      0x04\n        /* \"#utility.yul\":10770:10785   */\n      mstore\n        /* \"#utility.yul\":10804:10808   */\n      0x24\n        /* \"#utility.yul\":10801:10802   */\n      0x00\n        /* \"#utility.yul\":10794:10809   */\n      revert\n        /* \"#utility.yul\":10821:11015   */\n    tag_82:\n        /* \"#utility.yul\":10861:10865   */\n      0x00\n        /* \"#utility.yul\":10881:10901   */\n      tag_336\n        /* \"#utility.yul\":10899:10900   */\n      dup3\n        /* \"#utility.yul\":10881:10901   */\n      tag_172\n      jump\t// in\n    tag_336:\n        /* \"#utility.yul\":10876:10901   */\n      swap2\n      pop\n        /* \"#utility.yul\":10915:10935   */\n      tag_337\n        /* \"#utility.yul\":10933:10934   */\n      dup4\n        /* \"#utility.yul\":10915:10935   */\n      tag_172\n      jump\t// in\n    tag_337:\n        /* \"#utility.yul\":10910:10935   */\n      swap3\n      pop\n        /* \"#utility.yul\":10959:10960   */\n      dup3\n        /* \"#utility.yul\":10956:10957   */\n      dup3\n        /* \"#utility.yul\":10952:10961   */\n      sub\n        /* \"#utility.yul\":10944:10961   */\n      swap1\n      pop\n        /* \"#utility.yul\":10983:10984   */\n      dup2\n        /* \"#utility.yul\":10977:10981   */\n      dup2\n        /* \"#utility.yul\":10974:10985   */\n      gt\n        /* \"#utility.yul\":10971:11008   */\n      iszero\n      tag_338\n      jumpi\n        /* \"#utility.yul\":10988:11006   */\n      tag_339\n      tag_206\n      jump\t// in\n    tag_339:\n        /* \"#utility.yul\":10971:11008   */\n    tag_338:\n        /* \"#utility.yul\":10821:11015   */\n      swap3\n      swap2\n      pop\n      pop\n      jump\t// out\n        /* \"#utility.yul\":11021:11212   */\n    tag_84:\n        /* \"#utility.yul\":11061:11064   */\n      0x00\n        /* \"#utility.yul\":11080:11100   */\n      tag_341\n        /* \"#utility.yul\":11098:11099   */\n      dup3\n        /* \"#utility.yul\":11080:11100   */\n      tag_172\n      jump\t// in\n    tag_341:\n        /* \"#utility.yul\":11075:11100   */\n      swap2\n      pop\n        /* \"#utility.yul\":11114:11134   */\n      tag_342\n        /* \"#utility.yul\":11132:11133   */\n      dup4\n        /* \"#utility.yul\":11114:11134   */\n      tag_172\n      jump\t// in\n    tag_342:\n        /* \"#utility.yul\":11109:11134   */\n      swap3\n      pop\n        /* \"#utility.yul\":11157:11158   */\n      dup3\n        /* \"#utility.yul\":11154:11155   */\n      dup3\n        /* \"#utility.yul\":11150:11159   */\n      add\n        /* \"#utility.yul\":11143:11159   */\n      swap1\n      pop\n        /* \"#utility.yul\":11178:11181   */\n      dup1\n        /* \"#utility.yul\":11175:11176   */\n      dup3\n        /* \"#utility.yul\":11172:11182   */\n      gt\n        /* \"#utility.yul\":11169:11205   */\n      iszero\n      tag_343\n      jumpi\n        /* \"#utility.yul\":11185:11203   */\n      tag_344\n      tag_206\n      jump\t// in\n    tag_344:\n        /* \"#utility.yul\":11169:11205   */\n    tag_343:\n        /* \"#utility.yul\":11021:11212   */\n      swap3\n      swap2\n      pop\n      pop\n      jump\t// out\n        /* \"#utility.yul\":11218:11953   */\n    tag_86:\n        /* \"#utility.yul\":11435:11439   */\n      0x00\n        /* \"#utility.yul\":11473:11476   */\n      0x80\n        /* \"#utility.yul\":11462:11471   */\n      dup3\n        /* \"#utility.yul\":11458:11477   */\n      add\n        /* \"#utility.yul\":11450:11477   */\n      swap1\n      pop\n        /* \"#utility.yul\":11487:11558   */\n      tag_346\n        /* \"#utility.yul\":11555:11556   */\n      0x00\n        /* \"#utility.yul\":11544:11553   */\n      dup4\n        /* \"#utility.yul\":11540:11557   */\n      add\n        /* \"#utility.yul\":11531:11537   */\n      dup8\n        /* \"#utility.yul\":11487:11558   */\n      tag_184\n      jump\t// in\n    tag_346:\n        /* \"#utility.yul\":11605:11614   */\n      dup2\n        /* \"#utility.yul\":11599:11603   */\n      dup2\n        /* \"#utility.yul\":11595:11615   */\n      sub\n        /* \"#utility.yul\":11590:11592   */\n      0x20\n        /* \"#utility.yul\":11579:11588   */\n      dup4\n        /* \"#utility.yul\":11575:11593   */\n      add\n        /* \"#utility.yul\":11568:11616   */\n      mstore\n        /* \"#utility.yul\":11633:11711   */\n      tag_347\n        /* \"#utility.yul\":11706:11710   */\n      dup2\n        /* \"#utility.yul\":11697:11703   */\n      dup7\n        /* \"#utility.yul\":11633:11711   */\n      tag_205\n      jump\t// in\n    tag_347:\n        /* \"#utility.yul\":11625:11711   */\n      swap1\n      pop\n        /* \"#utility.yul\":11758:11767   */\n      dup2\n        /* \"#utility.yul\":11752:11756   */\n      dup2\n        /* \"#utility.yul\":11748:11768   */\n      sub\n        /* \"#utility.yul\":11743:11745   */\n      0x40\n        /* \"#utility.yul\":11732:11741   */\n      dup4\n        /* \"#utility.yul\":11728:11746   */\n      add\n        /* \"#utility.yul\":11721:11769   */\n      mstore\n        /* \"#utility.yul\":11786:11864   */\n      tag_348\n        /* \"#utility.yul\":11859:11863   */\n      dup2\n        /* \"#utility.yul\":11850:11856   */\n      dup6\n        /* \"#utility.yul\":11786:11864   */\n      tag_205\n      jump\t// in\n    tag_348:\n        /* \"#utility.yul\":11778:11864   */\n      swap1\n      pop\n        /* \"#utility.yul\":11874:11946   */\n      tag_349\n        /* \"#utility.yul\":11942:11944   */\n      0x60\n        /* \"#utility.yul\":11931:11940   */\n      dup4\n        /* \"#utility.yul\":11927:11945   */\n      add\n        /* \"#utility.yul\":11918:11924   */\n      dup5\n        /* \"#utility.yul\":11874:11946   */\n      tag_184\n      jump\t// in\n    tag_349:\n        /* \"#utility.yul\":11218:11953   */\n      swap6\n      swap5\n      pop\n      pop\n      pop\n      pop\n      pop\n      jump\t// out\n        /* \"#utility.yul\":11959:12291   */\n    tag_104:\n        /* \"#utility.yul\":12080:12084   */\n      0x00\n        /* \"#utility.yul\":12118:12120   */\n      0x40\n        /* \"#utility.yul\":12107:12116   */\n      dup3\n        /* \"#utility.yul\":12103:12121   */\n      add\n        /* \"#utility.yul\":12095:12121   */\n      swap1\n      pop\n        /* \"#utility.yul\":12131:12202   */\n      tag_351\n        /* \"#utility.yul\":12199:12200   */\n      0x00\n        /* \"#utility.yul\":12188:12197   */\n      dup4\n        /* \"#utility.yul\":12184:12201   */\n      add\n        /* \"#utility.yul\":12175:12181   */\n      dup6\n        /* \"#utility.yul\":12131:12202   */\n      tag_199\n      jump\t// in\n    tag_351:\n        /* \"#utility.yul\":12212:12284   */\n      tag_352\n        /* \"#utility.yul\":12280:12282   */\n      0x20\n        /* \"#utility.yul\":12269:12278   */\n      dup4\n        /* \"#utility.yul\":12265:12283   */\n      add\n        /* \"#utility.yul\":12256:12262   */\n      dup5\n        /* \"#utility.yul\":12212:12284   */\n      tag_184\n      jump\t// in\n    tag_352:\n        /* \"#utility.yul\":11959:12291   */\n      swap4\n      swap3\n      pop\n      pop\n      pop\n      jump\t// out\n        /* \"#utility.yul\":12297:12524   */\n    tag_207:\n        /* \"#utility.yul\":12437:12471   */\n      0x4e65772061646d696e20616464726573732063616e6e6f74206265207a65726f\n        /* \"#utility.yul\":12433:12434   */\n      0x00\n        /* \"#utility.yul\":12425:12431   */\n      dup3\n        /* \"#utility.yul\":12421:12435   */\n      add\n        /* \"#utility.yul\":12414:12472   */\n      mstore\n        /* \"#utility.yul\":12506:12516   */\n      0x2061646472657373000000000000000000000000000000000000000000000000\n        /* \"#utility.yul\":12501:12503   */\n      0x20\n        /* \"#utility.yul\":12493:12499   */\n      dup3\n        /* \"#utility.yul\":12489:12504   */\n      add\n        /* \"#utility.yul\":12482:12517   */\n      mstore\n        /* \"#utility.yul\":12297:12524   */\n      pop\n      jump\t// out\n        /* \"#utility.yul\":12530:12896   */\n    tag_208:\n        /* \"#utility.yul\":12672:12675   */\n      0x00\n        /* \"#utility.yul\":12693:12760   */\n      tag_355\n        /* \"#utility.yul\":12757:12759   */\n      0x28\n        /* \"#utility.yul\":12752:12755   */\n      dup4\n        /* \"#utility.yul\":12693:12760   */\n      tag_200\n      jump\t// in\n    tag_355:\n        /* \"#utility.yul\":12686:12760   */\n      swap2\n      pop\n        /* \"#utility.yul\":12769:12862   */\n      tag_356\n        /* \"#utility.yul\":12858:12861   */\n      dup3\n        /* \"#utility.yul\":12769:12862   */\n      tag_207\n      jump\t// in\n    tag_356:\n        /* \"#utility.yul\":12887:12889   */\n      0x40\n        /* \"#utility.yul\":12882:12885   */\n      dup3\n        /* \"#utility.yul\":12878:12890   */\n      add\n        /* \"#utility.yul\":12871:12890   */\n      swap1\n      pop\n        /* \"#utility.yul\":12530:12896   */\n      swap2\n      swap1\n      pop\n      jump\t// out\n        /* \"#utility.yul\":12902:13321   */\n    tag_115:\n        /* \"#utility.yul\":13068:13072   */\n      0x00\n        /* \"#utility.yul\":13106:13108   */\n      0x20\n        /* \"#utility.yul\":13095:13104   */\n      dup3\n        /* \"#utility.yul\":13091:13109   */\n      add\n        /* \"#utility.yul\":13083:13109   */\n      swap1\n      pop\n        /* \"#utility.yul\":13155:13164   */\n      dup2\n        /* \"#utility.yul\":13149:13153   */\n      dup2\n        /* \"#utility.yul\":13145:13165   */\n      sub\n        /* \"#utility.yul\":13141:13142   */\n      0x00\n        /* \"#utility.yul\":13130:13139   */\n      dup4\n        /* \"#utility.yul\":13126:13143   */\n      add\n        /* \"#utility.yul\":13119:13166   */\n      mstore\n        /* \"#utility.yul\":13183:13314   */\n      tag_358\n        /* \"#utility.yul\":13309:13313   */\n      dup2\n        /* \"#utility.yul\":13183:13314   */\n      tag_208\n      jump\t// in\n    tag_358:\n        /* \"#utility.yul\":13175:13314   */\n      swap1\n      pop\n        /* \"#utility.yul\":12902:13321   */\n      swap2\n      swap1\n      pop\n      jump\t// out\n        /* \"#utility.yul\":13327:13550   */\n    tag_209:\n        /* \"#utility.yul\":13467:13501   */\n      0x546865206164647265737320646f6573206e6f74206861766520616e7920746f\n        /* \"#utility.yul\":13463:13464   */\n      0x00\n        /* \"#utility.yul\":13455:13461   */\n      dup3\n        /* \"#utility.yul\":13451:13465   */\n      add\n        /* \"#utility.yul\":13444:13502   */\n      mstore\n        /* \"#utility.yul\":13536:13542   */\n      0x6b656e7300000000000000000000000000000000000000000000000000000000\n        /* \"#utility.yul\":13531:13533   */\n      0x20\n        /* \"#utility.yul\":13523:13529   */\n      dup3\n        /* \"#utility.yul\":13519:13534   */\n      add\n        /* \"#utility.yul\":13512:13543   */\n      mstore\n        /* \"#utility.yul\":13327:13550   */\n      pop\n      jump\t// out\n        /* \"#utility.yul\":13556:13922   */\n    tag_210:\n        /* \"#utility.yul\":13698:13701   */\n      0x00\n        /* \"#utility.yul\":13719:13786   */\n      tag_361\n        /* \"#utility.yul\":13783:13785   */\n      0x24\n        /* \"#utility.yul\":13778:13781   */\n      dup4\n        /* \"#utility.yul\":13719:13786   */\n      tag_200\n      jump\t// in\n    tag_361:\n        /* \"#utility.yul\":13712:13786   */\n      swap2\n      pop\n        /* \"#utility.yul\":13795:13888   */\n      tag_362\n        /* \"#utility.yul\":13884:13887   */\n      dup3\n        /* \"#utility.yul\":13795:13888   */\n      tag_209\n      jump\t// in\n    tag_362:\n        /* \"#utility.yul\":13913:13915   */\n      0x40\n        /* \"#utility.yul\":13908:13911   */\n      dup3\n        /* \"#utility.yul\":13904:13916   */\n      add\n        /* \"#utility.yul\":13897:13916   */\n      swap1\n      pop\n        /* \"#utility.yul\":13556:13922   */\n      swap2\n      swap1\n      pop\n      jump\t// out\n        /* \"#utility.yul\":13928:14347   */\n    tag_133:\n        /* \"#utility.yul\":14094:14098   */\n      0x00\n        /* \"#utility.yul\":14132:14134   */\n      0x20\n        /* \"#utility.yul\":14121:14130   */\n      dup3\n        /* \"#utility.yul\":14117:14135   */\n      add\n        /* \"#utility.yul\":14109:14135   */\n      swap1\n      pop\n        /* \"#utility.yul\":14181:14190   */\n      dup2\n        /* \"#utility.yul\":14175:14179   */\n      dup2\n        /* \"#utility.yul\":14171:14191   */\n      sub\n        /* \"#utility.yul\":14167:14168   */\n      0x00\n        /* \"#utility.yul\":14156:14165   */\n      dup4\n        /* \"#utility.yul\":14152:14169   */\n      add\n        /* \"#utility.yul\":14145:14192   */\n      mstore\n        /* \"#utility.yul\":14209:14340   */\n      tag_364\n        /* \"#utility.yul\":14335:14339   */\n      dup2\n        /* \"#utility.yul\":14209:14340   */\n      tag_210\n      jump\t// in\n    tag_364:\n        /* \"#utility.yul\":14201:14340   */\n      swap1\n      pop\n        /* \"#utility.yul\":13928:14347   */\n      swap2\n      swap1\n      pop\n      jump\t// out\n        /* \"#utility.yul\":14353:14533   */\n    tag_139:\n        /* \"#utility.yul\":14401:14478   */\n      0x4e487b7100000000000000000000000000000000000000000000000000000000\n        /* \"#utility.yul\":14398:14399   */\n      0x00\n        /* \"#utility.yul\":14391:14479   */\n      mstore\n        /* \"#utility.yul\":14498:14502   */\n      0x32\n        /* \"#utility.yul\":14495:14496   */\n      0x04\n        /* \"#utility.yul\":14488:14503   */\n      mstore\n        /* \"#utility.yul\":14522:14526   */\n      0x24\n        /* \"#utility.yul\":14519:14520   */\n      0x00\n        /* \"#utility.yul\":14512:14527   */\n      revert\n        /* \"#utility.yul\":14539:14705   */\n    tag_211:\n        /* \"#utility.yul\":14679:14697   */\n      0x5061757361626c653a2070617573656400000000000000000000000000000000\n        /* \"#utility.yul\":14675:14676   */\n      0x00\n        /* \"#utility.yul\":14667:14673   */\n      dup3\n        /* \"#utility.yul\":14663:14677   */\n      add\n        /* \"#utility.yul\":14656:14698   */\n      mstore\n        /* \"#utility.yul\":14539:14705   */\n      pop\n      jump\t// out\n        /* \"#utility.yul\":14711:15077   */\n    tag_212:\n        /* \"#utility.yul\":14853:14856   */\n      0x00\n        /* \"#utility.yul\":14874:14941   */\n      tag_368\n        /* \"#utility.yul\":14938:14940   */\n      0x10\n        /* \"#utility.yul\":14933:14936   */\n      dup4\n        /* \"#utility.yul\":14874:14941   */\n      tag_200\n      jump\t// in\n    tag_368:\n        /* \"#utility.yul\":14867:14941   */\n      swap2\n      pop\n        /* \"#utility.yul\":14950:15043   */\n      tag_369\n        /* \"#utility.yul\":15039:15042   */\n      dup3\n        /* \"#utility.yul\":14950:15043   */\n      tag_211\n      jump\t// in\n    tag_369:\n        /* \"#utility.yul\":15068:15070   */\n      0x20\n        /* \"#utility.yul\":15063:15066   */\n      dup3\n        /* \"#utility.yul\":15059:15071   */\n      add\n        /* \"#utility.yul\":15052:15071   */\n      swap1\n      pop\n        /* \"#utility.yul\":14711:15077   */\n      swap2\n      swap1\n      pop\n      jump\t// out\n        /* \"#utility.yul\":15083:15502   */\n    tag_145:\n        /* \"#utility.yul\":15249:15253   */\n      0x00\n        /* \"#utility.yul\":15287:15289   */\n      0x20\n        /* \"#utility.yul\":15276:15285   */\n      dup3\n        /* \"#utility.yul\":15272:15290   */\n      add\n        /* \"#utility.yul\":15264:15290   */\n      swap1\n      pop\n        /* \"#utility.yul\":15336:15345   */\n      dup2\n        /* \"#utility.yul\":15330:15334   */\n      dup2\n        /* \"#utility.yul\":15326:15346   */\n      sub\n        /* \"#utility.yul\":15322:15323   */\n      0x00\n        /* \"#utility.yul\":15311:15320   */\n      dup4\n        /* \"#utility.yul\":15307:15324   */\n      add\n        /* \"#utility.yul\":15300:15347   */\n      mstore\n        /* \"#utility.yul\":15364:15495   */\n      tag_371\n        /* \"#utility.yul\":15490:15494   */\n      dup2\n        /* \"#utility.yul\":15364:15495   */\n      tag_212\n      jump\t// in\n    tag_371:\n        /* \"#utility.yul\":15356:15495   */\n      swap1\n      pop\n        /* \"#utility.yul\":15083:15502   */\n      swap2\n      swap1\n      pop\n      jump\t// out\n        /* \"#utility.yul\":15508:15689   */\n    tag_213:\n        /* \"#utility.yul\":15648:15681   */\n      0x5265656e7472616e637947756172643a207265656e7472616e742063616c6c00\n        /* \"#utility.yul\":15644:15645   */\n      0x00\n        /* \"#utility.yul\":15636:15642   */\n      dup3\n        /* \"#utility.yul\":15632:15646   */\n      add\n        /* \"#utility.yul\":15625:15682   */\n      mstore\n        /* \"#utility.yul\":15508:15689   */\n      pop\n      jump\t// out\n        /* \"#utility.yul\":15695:16061   */\n    tag_214:\n        /* \"#utility.yul\":15837:15840   */\n      0x00\n        /* \"#utility.yul\":15858:15925   */\n      tag_374\n        /* \"#utility.yul\":15922:15924   */\n      0x1f\n        /* \"#utility.yul\":15917:15920   */\n      dup4\n        /* \"#utility.yul\":15858:15925   */\n      tag_200\n      jump\t// in\n    tag_374:\n        /* \"#utility.yul\":15851:15925   */\n      swap2\n      pop\n        /* \"#utility.yul\":15934:16027   */\n      tag_375\n        /* \"#utility.yul\":16023:16026   */\n      dup3\n        /* \"#utility.yul\":15934:16027   */\n      tag_213\n      jump\t// in\n    tag_375:\n        /* \"#utility.yul\":16052:16054   */\n      0x20\n        /* \"#utility.yul\":16047:16050   */\n      dup3\n        /* \"#utility.yul\":16043:16055   */\n      add\n        /* \"#utility.yul\":16036:16055   */\n      swap1\n      pop\n        /* \"#utility.yul\":15695:16061   */\n      swap2\n      swap1\n      pop\n      jump\t// out\n        /* \"#utility.yul\":16067:16486   */\n    tag_149:\n        /* \"#utility.yul\":16233:16237   */\n      0x00\n        /* \"#utility.yul\":16271:16273   */\n      0x20\n        /* \"#utility.yul\":16260:16269   */\n      dup3\n        /* \"#utility.yul\":16256:16274   */\n      add\n        /* \"#utility.yul\":16248:16274   */\n      swap1\n      pop\n        /* \"#utility.yul\":16320:16329   */\n      dup2\n        /* \"#utility.yul\":16314:16318   */\n      dup2\n        /* \"#utility.yul\":16310:16330   */\n      sub\n        /* \"#utility.yul\":16306:16307   */\n      0x00\n        /* \"#utility.yul\":16295:16304   */\n      dup4\n        /* \"#utility.yul\":16291:16308   */\n      add\n        /* \"#utility.yul\":16284:16331   */\n      mstore\n        /* \"#utility.yul\":16348:16479   */\n      tag_377\n        /* \"#utility.yul\":16474:16478   */\n      dup2\n        /* \"#utility.yul\":16348:16479   */\n      tag_214\n      jump\t// in\n    tag_377:\n        /* \"#utility.yul\":16340:16479   */\n      swap1\n      pop\n        /* \"#utility.yul\":16067:16486   */\n      swap2\n      swap1\n      pop\n      jump\t// out\n        /* \"#utility.yul\":16492:16662   */\n    tag_215:\n        /* \"#utility.yul\":16632:16654   */\n      0x5061757361626c653a206e6f7420706175736564000000000000000000000000\n        /* \"#utility.yul\":16628:16629   */\n      0x00\n        /* \"#utility.yul\":16620:16626   */\n      dup3\n        /* \"#utility.yul\":16616:16630   */\n      add\n        /* \"#utility.yul\":16609:16655   */\n      mstore\n        /* \"#utility.yul\":16492:16662   */\n      pop\n      jump\t// out\n        /* \"#utility.yul\":16668:17034   */\n    tag_216:\n        /* \"#utility.yul\":16810:16813   */\n      0x00\n        /* \"#utility.yul\":16831:16898   */\n      tag_380\n        /* \"#utility.yul\":16895:16897   */\n      0x14\n        /* \"#utility.yul\":16890:16893   */\n      dup4\n        /* \"#utility.yul\":16831:16898   */\n      tag_200\n      jump\t// in\n    tag_380:\n        /* \"#utility.yul\":16824:16898   */\n      swap2\n      pop\n        /* \"#utility.yul\":16907:17000   */\n      tag_381\n        /* \"#utility.yul\":16996:16999   */\n      dup3\n        /* \"#utility.yul\":16907:17000   */\n      tag_215\n      jump\t// in\n    tag_381:\n        /* \"#utility.yul\":17025:17027   */\n      0x20\n        /* \"#utility.yul\":17020:17023   */\n      dup3\n        /* \"#utility.yul\":17016:17028   */\n      add\n        /* \"#utility.yul\":17009:17028   */\n      swap1\n      pop\n        /* \"#utility.yul\":16668:17034   */\n      swap2\n      swap1\n      pop\n      jump\t// out\n        /* \"#utility.yul\":17040:17459   */\n    tag_167:\n        /* \"#utility.yul\":17206:17210   */\n      0x00\n        /* \"#utility.yul\":17244:17246   */\n      0x20\n        /* \"#utility.yul\":17233:17242   */\n      dup3\n        /* \"#utility.yul\":17229:17247   */\n      add\n        /* \"#utility.yul\":17221:17247   */\n      swap1\n      pop\n        /* \"#utility.yul\":17293:17302   */\n      dup2\n        /* \"#utility.yul\":17287:17291   */\n      dup2\n        /* \"#utility.yul\":17283:17303   */\n      sub\n        /* \"#utility.yul\":17279:17280   */\n      0x00\n        /* \"#utility.yul\":17268:17277   */\n      dup4\n        /* \"#utility.yul\":17264:17281   */\n      add\n        /* \"#utility.yul\":17257:17304   */\n      mstore\n        /* \"#utility.yul\":17321:17452   */\n      tag_383\n        /* \"#utility.yul\":17447:17451   */\n      dup2\n        /* \"#utility.yul\":17321:17452   */\n      tag_216\n      jump\t// in\n    tag_383:\n        /* \"#utility.yul\":17313:17452   */\n      swap1\n      pop\n        /* \"#utility.yul\":17040:17459   */\n      swap2\n      swap1\n      pop\n      jump\t// out\n    stop\n\n    sub_0: assembly {\n            /* \"Voting_Contracts/Proposal.sol\":61:1711  contract Proposal {... */\n          mstore(0x40, 0x80)\n            /* \"Voting_Contracts/Proposal.sol\":327:551  constructor(string memory _name, string memory _description, uint _duration) {... */\n          callvalue\n          dup1\n          iszero\n          tag_1\n          jumpi\n          0x00\n          dup1\n          revert\n        tag_1:\n          pop\n          mload(0x40)\n          sub(codesize, bytecodeSize)\n          dup1\n          bytecodeSize\n          dup4\n          codecopy\n          dup2\n          dup2\n          add\n          0x40\n          mstore\n          dup2\n          add\n          swap1\n          tag_2\n          swap2\n          swap1\n          tag_3\n          jump\t// in\n        tag_2:\n            /* \"Voting_Contracts/Proposal.sol\":422:427  _name */\n          dup3\n            /* \"Voting_Contracts/Proposal.sol\":415:419  name */\n          0x00\n            /* \"Voting_Contracts/Proposal.sol\":415:427  name = _name */\n          swap1\n          dup2\n          tag_6\n          swap2\n          swap1\n          tag_7\n          jump\t// in\n        tag_6:\n          pop\n            /* \"Voting_Contracts/Proposal.sol\":452:464  _description */\n          dup2\n            /* \"Voting_Contracts/Proposal.sol\":438:449  description */\n          0x01\n            /* \"Voting_Contracts/Proposal.sol\":438:464  description = _description */\n          swap1\n          dup2\n          tag_8\n          swap2\n          swap1\n          tag_7\n          jump\t// in\n        tag_8:\n          pop\n            /* \"Voting_Contracts/Proposal.sol\":504:513  _duration */\n          dup1\n            /* \"Voting_Contracts/Proposal.sol\":486:501  block.timestamp */\n          timestamp\n            /* \"Voting_Contracts/Proposal.sol\":486:513  block.timestamp + _duration */\n          tag_9\n          swap2\n          swap1\n          tag_10\n          jump\t// in\n        tag_9:\n            /* \"Voting_Contracts/Proposal.sol\":475:483  deadline */\n          0x02\n            /* \"Voting_Contracts/Proposal.sol\":475:513  deadline = block.timestamp + _duration */\n          dup2\n          swap1\n          sstore\n          pop\n            /* \"Voting_Contracts/Proposal.sol\":538:543  false */\n          0x00\n            /* \"Voting_Contracts/Proposal.sol\":524:535  votingEnded */\n          0x05\n          0x00\n            /* \"Voting_Contracts/Proposal.sol\":524:543  votingEnded = false */\n          0x0100\n          exp\n          dup2\n          sload\n          dup2\n          0xff\n          mul\n          not\n          and\n          swap1\n          dup4\n          iszero\n          iszero\n          mul\n          or\n          swap1\n          sstore\n          pop\n            /* \"Voting_Contracts/Proposal.sol\":327:551  constructor(string memory _name, string memory _description, uint _duration) {... */\n          pop\n          pop\n          pop\n            /* \"Voting_Contracts/Proposal.sol\":61:1711  contract Proposal {... */\n          jump(tag_11)\n            /* \"#utility.yul\":7:82   */\n        tag_12:\n            /* \"#utility.yul\":40:46   */\n          0x00\n            /* \"#utility.yul\":73:75   */\n          0x40\n            /* \"#utility.yul\":67:76   */\n          mload\n            /* \"#utility.yul\":57:76   */\n          swap1\n          pop\n            /* \"#utility.yul\":7:82   */\n          swap1\n          jump\t// out\n            /* \"#utility.yul\":88:205   */\n        tag_13:\n            /* \"#utility.yul\":197:198   */\n          0x00\n            /* \"#utility.yul\":194:195   */\n          dup1\n            /* \"#utility.yul\":187:199   */\n          revert\n            /* \"#utility.yul\":211:328   */\n        tag_14:\n            /* \"#utility.yul\":320:321   */\n          0x00\n            /* \"#utility.yul\":317:318   */\n          dup1\n            /* \"#utility.yul\":310:322   */\n          revert\n            /* \"#utility.yul\":334:451   */\n        tag_15:\n            /* \"#utility.yul\":443:444   */\n          0x00\n            /* \"#utility.yul\":440:441   */\n          dup1\n            /* \"#utility.yul\":433:445   */\n          revert\n            /* \"#utility.yul\":457:574   */\n        tag_16:\n            /* \"#utility.yul\":566:567   */\n          0x00\n            /* \"#utility.yul\":563:564   */\n          dup1\n            /* \"#utility.yul\":556:568   */\n          revert\n            /* \"#utility.yul\":580:682   */\n        tag_17:\n            /* \"#utility.yul\":621:627   */\n          0x00\n            /* \"#utility.yul\":672:674   */\n          0x1f\n            /* \"#utility.yul\":668:675   */\n          not\n            /* \"#utility.yul\":663:665   */\n          0x1f\n            /* \"#utility.yul\":656:661   */\n          dup4\n            /* \"#utility.yul\":652:666   */\n          add\n            /* \"#utility.yul\":648:676   */\n          and\n            /* \"#utility.yul\":638:676   */\n          swap1\n          pop\n            /* \"#utility.yul\":580:682   */\n          swap2\n          swap1\n          pop\n          jump\t// out\n            /* \"#utility.yul\":688:868   */\n        tag_18:\n            /* \"#utility.yul\":736:813   */\n          0x4e487b7100000000000000000000000000000000000000000000000000000000\n            /* \"#utility.yul\":733:734   */\n          0x00\n            /* \"#utility.yul\":726:814   */\n          mstore\n            /* \"#utility.yul\":833:837   */\n          0x41\n            /* \"#utility.yul\":830:831   */\n          0x04\n            /* \"#utility.yul\":823:838   */\n          mstore\n            /* \"#utility.yul\":857:861   */\n          0x24\n            /* \"#utility.yul\":854:855   */\n          0x00\n            /* \"#utility.yul\":847:862   */\n          revert\n            /* \"#utility.yul\":874:1155   */\n        tag_19:\n            /* \"#utility.yul\":957:984   */\n          tag_56\n            /* \"#utility.yul\":979:983   */\n          dup3\n            /* \"#utility.yul\":957:984   */\n          tag_17\n          jump\t// in\n        tag_56:\n            /* \"#utility.yul\":949:955   */\n          dup2\n            /* \"#utility.yul\":945:985   */\n          add\n            /* \"#utility.yul\":1087:1093   */\n          dup2\n            /* \"#utility.yul\":1075:1085   */\n          dup2\n            /* \"#utility.yul\":1072:1094   */\n          lt\n            /* \"#utility.yul\":1051:1069   */\n          0xffffffffffffffff\n            /* \"#utility.yul\":1039:1049   */\n          dup3\n            /* \"#utility.yul\":1036:1070   */\n          gt\n            /* \"#utility.yul\":1033:1095   */\n          or\n            /* \"#utility.yul\":1030:1118   */\n          iszero\n          tag_57\n          jumpi\n            /* \"#utility.yul\":1098:1116   */\n          tag_58\n          tag_18\n          jump\t// in\n        tag_58:\n            /* \"#utility.yul\":1030:1118   */\n        tag_57:\n            /* \"#utility.yul\":1138:1148   */\n          dup1\n            /* \"#utility.yul\":1134:1136   */\n          0x40\n            /* \"#utility.yul\":1127:1149   */\n          mstore\n            /* \"#utility.yul\":917:1155   */\n          pop\n            /* \"#utility.yul\":874:1155   */\n          pop\n          pop\n          jump\t// out\n            /* \"#utility.yul\":1161:1290   */\n        tag_20:\n            /* \"#utility.yul\":1195:1201   */\n          0x00\n            /* \"#utility.yul\":1222:1242   */\n          tag_60\n          tag_12\n          jump\t// in\n        tag_60:\n            /* \"#utility.yul\":1212:1242   */\n          swap1\n          pop\n            /* \"#utility.yul\":1251:1284   */\n          tag_61\n            /* \"#utility.yul\":1279:1283   */\n          dup3\n            /* \"#utility.yul\":1271:1277   */\n          dup3\n            /* \"#utility.yul\":1251:1284   */\n          tag_19\n          jump\t// in\n        tag_61:\n            /* \"#utility.yul\":1161:1290   */\n          swap2\n          swap1\n          pop\n          jump\t// out\n            /* \"#utility.yul\":1296:1604   */\n        tag_21:\n            /* \"#utility.yul\":1358:1362   */\n          0x00\n            /* \"#utility.yul\":1448:1466   */\n          0xffffffffffffffff\n            /* \"#utility.yul\":1440:1446   */\n          dup3\n            /* \"#utility.yul\":1437:1467   */\n          gt\n            /* \"#utility.yul\":1434:1490   */\n          iszero\n          tag_63\n          jumpi\n            /* \"#utility.yul\":1470:1488   */\n          tag_64\n          tag_18\n          jump\t// in\n        tag_64:\n            /* \"#utility.yul\":1434:1490   */\n        tag_63:\n            /* \"#utility.yul\":1508:1537   */\n          tag_65\n            /* \"#utility.yul\":1530:1536   */\n          dup3\n            /* \"#utility.yul\":1508:1537   */\n          tag_17\n          jump\t// in\n        tag_65:\n            /* \"#utility.yul\":1500:1537   */\n          swap1\n          pop\n            /* \"#utility.yul\":1592:1596   */\n          0x20\n            /* \"#utility.yul\":1586:1590   */\n          dup2\n            /* \"#utility.yul\":1582:1597   */\n          add\n            /* \"#utility.yul\":1574:1597   */\n          swap1\n          pop\n            /* \"#utility.yul\":1296:1604   */\n          swap2\n          swap1\n          pop\n          jump\t// out\n            /* \"#utility.yul\":1610:1749   */\n        tag_22:\n            /* \"#utility.yul\":1699:1705   */\n          dup3\n            /* \"#utility.yul\":1694:1697   */\n          dup2\n            /* \"#utility.yul\":1689:1692   */\n          dup4\n            /* \"#utility.yul\":1683:1706   */\n          mcopy\n            /* \"#utility.yul\":1740:1741   */\n          0x00\n            /* \"#utility.yul\":1731:1737   */\n          dup4\n            /* \"#utility.yul\":1726:1729   */\n          dup4\n            /* \"#utility.yul\":1722:1738   */\n          add\n            /* \"#utility.yul\":1715:1742   */\n          mstore\n            /* \"#utility.yul\":1610:1749   */\n          pop\n          pop\n          pop\n          jump\t// out\n            /* \"#utility.yul\":1755:2189   */\n        tag_23:\n            /* \"#utility.yul\":1844:1849   */\n          0x00\n            /* \"#utility.yul\":1869:1935   */\n          tag_68\n            /* \"#utility.yul\":1885:1934   */\n          tag_69\n            /* \"#utility.yul\":1927:1933   */\n          dup5\n            /* \"#utility.yul\":1885:1934   */\n          tag_21\n          jump\t// in\n        tag_69:\n            /* \"#utility.yul\":1869:1935   */\n          tag_20\n          jump\t// in\n        tag_68:\n            /* \"#utility.yul\":1860:1935   */\n          swap1\n          pop\n            /* \"#utility.yul\":1958:1964   */\n          dup3\n            /* \"#utility.yul\":1951:1956   */\n          dup2\n            /* \"#utility.yul\":1944:1965   */\n          mstore\n            /* \"#utility.yul\":1996:2000   */\n          0x20\n            /* \"#utility.yul\":1989:1994   */\n          dup2\n            /* \"#utility.yul\":1985:2001   */\n          add\n            /* \"#utility.yul\":2034:2037   */\n          dup5\n            /* \"#utility.yul\":2025:2031   */\n          dup5\n            /* \"#utility.yul\":2020:2023   */\n          dup5\n            /* \"#utility.yul\":2016:2032   */\n          add\n            /* \"#utility.yul\":2013:2038   */\n          gt\n            /* \"#utility.yul\":2010:2122   */\n          iszero\n          tag_70\n          jumpi\n            /* \"#utility.yul\":2041:2120   */\n          tag_71\n          tag_16\n          jump\t// in\n        tag_71:\n            /* \"#utility.yul\":2010:2122   */\n        tag_70:\n            /* \"#utility.yul\":2131:2183   */\n          tag_72\n            /* \"#utility.yul\":2176:2182   */\n          dup5\n            /* \"#utility.yul\":2171:2174   */\n          dup3\n            /* \"#utility.yul\":2166:2169   */\n          dup6\n            /* \"#utility.yul\":2131:2183   */\n          tag_22\n          jump\t// in\n        tag_72:\n            /* \"#utility.yul\":1850:2189   */\n          pop\n            /* \"#utility.yul\":1755:2189   */\n          swap4\n          swap3\n          pop\n          pop\n          pop\n          jump\t// out\n            /* \"#utility.yul\":2209:2564   */\n        tag_24:\n            /* \"#utility.yul\":2276:2281   */\n          0x00\n            /* \"#utility.yul\":2325:2328   */\n          dup3\n            /* \"#utility.yul\":2318:2322   */\n          0x1f\n            /* \"#utility.yul\":2310:2316   */\n          dup4\n            /* \"#utility.yul\":2306:2323   */\n          add\n            /* \"#utility.yul\":2302:2329   */\n          slt\n            /* \"#utility.yul\":2292:2414   */\n          tag_74\n          jumpi\n            /* \"#utility.yul\":2333:2412   */\n          tag_75\n          tag_15\n          jump\t// in\n        tag_75:\n            /* \"#utility.yul\":2292:2414   */\n        tag_74:\n            /* \"#utility.yul\":2443:2449   */\n          dup2\n            /* \"#utility.yul\":2437:2450   */\n          mload\n            /* \"#utility.yul\":2468:2558   */\n          tag_76\n            /* \"#utility.yul\":2554:2557   */\n          dup5\n            /* \"#utility.yul\":2546:2552   */\n          dup3\n            /* \"#utility.yul\":2539:2543   */\n          0x20\n            /* \"#utility.yul\":2531:2537   */\n          dup7\n            /* \"#utility.yul\":2527:2544   */\n          add\n            /* \"#utility.yul\":2468:2558   */\n          tag_23\n          jump\t// in\n        tag_76:\n            /* \"#utility.yul\":2459:2558   */\n          swap2\n          pop\n            /* \"#utility.yul\":2282:2564   */\n          pop\n            /* \"#utility.yul\":2209:2564   */\n          swap3\n          swap2\n          pop\n          pop\n          jump\t// out\n            /* \"#utility.yul\":2570:2647   */\n        tag_25:\n            /* \"#utility.yul\":2607:2614   */\n          0x00\n            /* \"#utility.yul\":2636:2641   */\n          dup2\n            /* \"#utility.yul\":2625:2641   */\n          swap1\n          pop\n            /* \"#utility.yul\":2570:2647   */\n          swap2\n          swap1\n          pop\n          jump\t// out\n            /* \"#utility.yul\":2653:2775   */\n        tag_26:\n            /* \"#utility.yul\":2726:2750   */\n          tag_79\n            /* \"#utility.yul\":2744:2749   */\n          dup2\n            /* \"#utility.yul\":2726:2750   */\n          tag_25\n          jump\t// in\n        tag_79:\n            /* \"#utility.yul\":2719:2724   */\n          dup2\n            /* \"#utility.yul\":2716:2751   */\n          eq\n            /* \"#utility.yul\":2706:2769   */\n          tag_80\n          jumpi\n            /* \"#utility.yul\":2765:2766   */\n          0x00\n            /* \"#utility.yul\":2762:2763   */\n          dup1\n            /* \"#utility.yul\":2755:2767   */\n          revert\n            /* \"#utility.yul\":2706:2769   */\n        tag_80:\n            /* \"#utility.yul\":2653:2775   */\n          pop\n          jump\t// out\n            /* \"#utility.yul\":2781:2924   */\n        tag_27:\n            /* \"#utility.yul\":2838:2843   */\n          0x00\n            /* \"#utility.yul\":2869:2875   */\n          dup2\n            /* \"#utility.yul\":2863:2876   */\n          mload\n            /* \"#utility.yul\":2854:2876   */\n          swap1\n          pop\n            /* \"#utility.yul\":2885:2918   */\n          tag_82\n            /* \"#utility.yul\":2912:2917   */\n          dup2\n            /* \"#utility.yul\":2885:2918   */\n          tag_26\n          jump\t// in\n        tag_82:\n            /* \"#utility.yul\":2781:2924   */\n          swap3\n          swap2\n          pop\n          pop\n          jump\t// out\n            /* \"#utility.yul\":2930:3939   */\n        tag_3:\n            /* \"#utility.yul\":3038:3044   */\n          0x00\n            /* \"#utility.yul\":3046:3052   */\n          dup1\n            /* \"#utility.yul\":3054:3060   */\n          0x00\n            /* \"#utility.yul\":3103:3105   */\n          0x60\n            /* \"#utility.yul\":3091:3100   */\n          dup5\n            /* \"#utility.yul\":3082:3089   */\n          dup7\n            /* \"#utility.yul\":3078:3101   */\n          sub\n            /* \"#utility.yul\":3074:3106   */\n          slt\n            /* \"#utility.yul\":3071:3190   */\n          iszero\n          tag_84\n          jumpi\n            /* \"#utility.yul\":3109:3188   */\n          tag_85\n          tag_13\n          jump\t// in\n        tag_85:\n            /* \"#utility.yul\":3071:3190   */\n        tag_84:\n            /* \"#utility.yul\":3250:3251   */\n          0x00\n            /* \"#utility.yul\":3239:3248   */\n          dup5\n            /* \"#utility.yul\":3235:3252   */\n          add\n            /* \"#utility.yul\":3229:3253   */\n          mload\n            /* \"#utility.yul\":3280:3298   */\n          0xffffffffffffffff\n            /* \"#utility.yul\":3272:3278   */\n          dup2\n            /* \"#utility.yul\":3269:3299   */\n          gt\n            /* \"#utility.yul\":3266:3383   */\n          iszero\n          tag_86\n          jumpi\n            /* \"#utility.yul\":3302:3381   */\n          tag_87\n          tag_14\n          jump\t// in\n        tag_87:\n            /* \"#utility.yul\":3266:3383   */\n        tag_86:\n            /* \"#utility.yul\":3407:3481   */\n          tag_88\n            /* \"#utility.yul\":3473:3480   */\n          dup7\n            /* \"#utility.yul\":3464:3470   */\n          dup3\n            /* \"#utility.yul\":3453:3462   */\n          dup8\n            /* \"#utility.yul\":3449:3471   */\n          add\n            /* \"#utility.yul\":3407:3481   */\n          tag_24\n          jump\t// in\n        tag_88:\n            /* \"#utility.yul\":3397:3481   */\n          swap4\n          pop\n            /* \"#utility.yul\":3200:3491   */\n          pop\n            /* \"#utility.yul\":3551:3553   */\n          0x20\n            /* \"#utility.yul\":3540:3549   */\n          dup5\n            /* \"#utility.yul\":3536:3554   */\n          add\n            /* \"#utility.yul\":3530:3555   */\n          mload\n            /* \"#utility.yul\":3582:3600   */\n          0xffffffffffffffff\n            /* \"#utility.yul\":3574:3580   */\n          dup2\n            /* \"#utility.yul\":3571:3601   */\n          gt\n            /* \"#utility.yul\":3568:3685   */\n          iszero\n          tag_89\n          jumpi\n            /* \"#utility.yul\":3604:3683   */\n          tag_90\n          tag_14\n          jump\t// in\n        tag_90:\n            /* \"#utility.yul\":3568:3685   */\n        tag_89:\n            /* \"#utility.yul\":3709:3783   */\n          tag_91\n            /* \"#utility.yul\":3775:3782   */\n          dup7\n            /* \"#utility.yul\":3766:3772   */\n          dup3\n            /* \"#utility.yul\":3755:3764   */\n          dup8\n            /* \"#utility.yul\":3751:3773   */\n          add\n            /* \"#utility.yul\":3709:3783   */\n          tag_24\n          jump\t// in\n        tag_91:\n            /* \"#utility.yul\":3699:3783   */\n          swap3\n          pop\n            /* \"#utility.yul\":3501:3793   */\n          pop\n            /* \"#utility.yul\":3832:3834   */\n          0x40\n            /* \"#utility.yul\":3858:3922   */\n          tag_92\n            /* \"#utility.yul\":3914:3921   */\n          dup7\n            /* \"#utility.yul\":3905:3911   */\n          dup3\n            /* \"#utility.yul\":3894:3903   */\n          dup8\n            /* \"#utility.yul\":3890:3912   */\n          add\n            /* \"#utility.yul\":3858:3922   */\n          tag_27\n          jump\t// in\n        tag_92:\n            /* \"#utility.yul\":3848:3922   */\n          swap2\n          pop\n            /* \"#utility.yul\":3803:3932   */\n          pop\n            /* \"#utility.yul\":2930:3939   */\n          swap3\n          pop\n          swap3\n          pop\n          swap3\n          jump\t// out\n            /* \"#utility.yul\":3945:4044   */\n        tag_28:\n            /* \"#utility.yul\":3997:4003   */\n          0x00\n            /* \"#utility.yul\":4031:4036   */\n          dup2\n            /* \"#utility.yul\":4025:4037   */\n          mload\n            /* \"#utility.yul\":4015:4037   */\n          swap1\n          pop\n            /* \"#utility.yul\":3945:4044   */\n          swap2\n          swap1\n          pop\n          jump\t// out\n            /* \"#utility.yul\":4050:4230   */\n        tag_29:\n            /* \"#utility.yul\":4098:4175   */\n          0x4e487b7100000000000000000000000000000000000000000000000000000000\n            /* \"#utility.yul\":4095:4096   */\n          0x00\n            /* \"#utility.yul\":4088:4176   */\n          mstore\n            /* \"#utility.yul\":4195:4199   */\n          0x22\n            /* \"#utility.yul\":4192:4193   */\n          0x04\n            /* \"#utility.yul\":4185:4200   */\n          mstore\n            /* \"#utility.yul\":4219:4223   */\n          0x24\n            /* \"#utility.yul\":4216:4217   */\n          0x00\n            /* \"#utility.yul\":4209:4224   */\n          revert\n            /* \"#utility.yul\":4236:4556   */\n        tag_30:\n            /* \"#utility.yul\":4280:4286   */\n          0x00\n            /* \"#utility.yul\":4317:4318   */\n          0x02\n            /* \"#utility.yul\":4311:4315   */\n          dup3\n            /* \"#utility.yul\":4307:4319   */\n          div\n            /* \"#utility.yul\":4297:4319   */\n          swap1\n          pop\n            /* \"#utility.yul\":4364:4365   */\n          0x01\n            /* \"#utility.yul\":4358:4362   */\n          dup3\n            /* \"#utility.yul\":4354:4366   */\n          and\n            /* \"#utility.yul\":4385:4403   */\n          dup1\n            /* \"#utility.yul\":4375:4456   */\n          tag_96\n          jumpi\n            /* \"#utility.yul\":4441:4445   */\n          0x7f\n            /* \"#utility.yul\":4433:4439   */\n          dup3\n            /* \"#utility.yul\":4429:4446   */\n          and\n            /* \"#utility.yul\":4419:4446   */\n          swap2\n          pop\n            /* \"#utility.yul\":4375:4456   */\n        tag_96:\n            /* \"#utility.yul\":4503:4505   */\n          0x20\n            /* \"#utility.yul\":4495:4501   */\n          dup3\n            /* \"#utility.yul\":4492:4506   */\n          lt\n            /* \"#utility.yul\":4472:4490   */\n          dup2\n            /* \"#utility.yul\":4469:4507   */\n          sub\n            /* \"#utility.yul\":4466:4550   */\n          tag_97\n          jumpi\n            /* \"#utility.yul\":4522:4540   */\n          tag_98\n          tag_29\n          jump\t// in\n        tag_98:\n            /* \"#utility.yul\":4466:4550   */\n        tag_97:\n            /* \"#utility.yul\":4287:4556   */\n          pop\n            /* \"#utility.yul\":4236:4556   */\n          swap2\n          swap1\n          pop\n          jump\t// out\n            /* \"#utility.yul\":4562:4703   */\n        tag_31:\n            /* \"#utility.yul\":4611:4615   */\n          0x00\n            /* \"#utility.yul\":4634:4637   */\n          dup2\n            /* \"#utility.yul\":4626:4637   */\n          swap1\n          pop\n            /* \"#utility.yul\":4657:4660   */\n          dup2\n            /* \"#utility.yul\":4654:4655   */\n          0x00\n            /* \"#utility.yul\":4647:4661   */\n          mstore\n            /* \"#utility.yul\":4691:4695   */\n          0x20\n            /* \"#utility.yul\":4688:4689   */\n          0x00\n            /* \"#utility.yul\":4678:4696   */\n          keccak256\n            /* \"#utility.yul\":4670:4696   */\n          swap1\n          pop\n            /* \"#utility.yul\":4562:4703   */\n          swap2\n          swap1\n          pop\n          jump\t// out\n            /* \"#utility.yul\":4709:4802   */\n        tag_32:\n            /* \"#utility.yul\":4746:4752   */\n          0x00\n            /* \"#utility.yul\":4793:4795   */\n          0x20\n            /* \"#utility.yul\":4788:4790   */\n          0x1f\n            /* \"#utility.yul\":4781:4786   */\n          dup4\n            /* \"#utility.yul\":4777:4791   */\n          add\n            /* \"#utility.yul\":4773:4796   */\n          div\n            /* \"#utility.yul\":4763:4796   */\n          swap1\n          pop\n            /* \"#utility.yul\":4709:4802   */\n          swap2\n          swap1\n          pop\n          jump\t// out\n            /* \"#utility.yul\":4808:4915   */\n        tag_33:\n            /* \"#utility.yul\":4852:4860   */\n          0x00\n            /* \"#utility.yul\":4902:4907   */\n          dup3\n            /* \"#utility.yul\":4896:4900   */\n          dup3\n            /* \"#utility.yul\":4892:4908   */\n          shl\n            /* \"#utility.yul\":4871:4908   */\n          swap1\n          pop\n            /* \"#utility.yul\":4808:4915   */\n          swap3\n          swap2\n          pop\n          pop\n          jump\t// out\n            /* \"#utility.yul\":4921:5314   */\n        tag_34:\n            /* \"#utility.yul\":4990:4996   */\n          0x00\n            /* \"#utility.yul\":5040:5041   */\n          0x08\n            /* \"#utility.yul\":5028:5038   */\n          dup4\n            /* \"#utility.yul\":5024:5042   */\n          mul\n            /* \"#utility.yul\":5063:5160   */\n          tag_103\n            /* \"#utility.yul\":5093:5159   */\n          0xffffffffffffffffffffffffffffffffffffffffffffffffffffffffffffffff\n            /* \"#utility.yul\":5082:5091   */\n          dup3\n            /* \"#utility.yul\":5063:5160   */\n          tag_33\n          jump\t// in\n        tag_103:\n            /* \"#utility.yul\":5181:5220   */\n          tag_104\n            /* \"#utility.yul\":5211:5219   */\n          dup7\n            /* \"#utility.yul\":5200:5209   */\n          dup4\n            /* \"#utility.yul\":5181:5220   */\n          tag_33\n          jump\t// in\n        tag_104:\n            /* \"#utility.yul\":5169:5220   */\n          swap6\n          pop\n            /* \"#utility.yul\":5253:5257   */\n          dup1\n            /* \"#utility.yul\":5249:5258   */\n          not\n            /* \"#utility.yul\":5242:5247   */\n          dup5\n            /* \"#utility.yul\":5238:5259   */\n          and\n            /* \"#utility.yul\":5229:5259   */\n          swap4\n          pop\n            /* \"#utility.yul\":5302:5306   */\n          dup1\n            /* \"#utility.yul\":5292:5300   */\n          dup7\n            /* \"#utility.yul\":5288:5307   */\n          and\n            /* \"#utility.yul\":5281:5286   */\n          dup5\n            /* \"#utility.yul\":5278:5308   */\n          or\n            /* \"#utility.yul\":5268:5308   */\n          swap3\n          pop\n            /* \"#utility.yul\":4997:5314   */\n          pop\n          pop\n            /* \"#utility.yul\":4921:5314   */\n          swap4\n          swap3\n          pop\n          pop\n          pop\n          jump\t// out\n            /* \"#utility.yul\":5320:5380   */\n        tag_35:\n            /* \"#utility.yul\":5348:5351   */\n          0x00\n            /* \"#utility.yul\":5369:5374   */\n          dup2\n            /* \"#utility.yul\":5362:5374   */\n          swap1\n          pop\n            /* \"#utility.yul\":5320:5380   */\n          swap2\n          swap1\n          pop\n          jump\t// out\n            /* \"#utility.yul\":5386:5528   */\n        tag_36:\n            /* \"#utility.yul\":5436:5445   */\n          0x00\n            /* \"#utility.yul\":5469:5522   */\n          tag_107\n            /* \"#utility.yul\":5487:5521   */\n          tag_108\n            /* \"#utility.yul\":5496:5520   */\n          tag_109\n            /* \"#utility.yul\":5514:5519   */\n          dup5\n            /* \"#utility.yul\":5496:5520   */\n          tag_25\n          jump\t// in\n        tag_109:\n            /* \"#utility.yul\":5487:5521   */\n          tag_35\n          jump\t// in\n        tag_108:\n            /* \"#utility.yul\":5469:5522   */\n          tag_25\n          jump\t// in\n        tag_107:\n            /* \"#utility.yul\":5456:5522   */\n          swap1\n          pop\n            /* \"#utility.yul\":5386:5528   */\n          swap2\n          swap1\n          pop\n          jump\t// out\n            /* \"#utility.yul\":5534:5609   */\n        tag_37:\n            /* \"#utility.yul\":5577:5580   */\n          0x00\n            /* \"#utility.yul\":5598:5603   */\n          dup2\n            /* \"#utility.yul\":5591:5603   */\n          swap1\n          pop\n            /* \"#utility.yul\":5534:5609   */\n          swap2\n          swap1\n          pop\n          jump\t// out\n            /* \"#utility.yul\":5615:5884   */\n        tag_38:\n            /* \"#utility.yul\":5725:5764   */\n          tag_112\n            /* \"#utility.yul\":5756:5763   */\n          dup4\n            /* \"#utility.yul\":5725:5764   */\n          tag_36\n          jump\t// in\n        tag_112:\n            /* \"#utility.yul\":5786:5877   */\n          tag_113\n            /* \"#utility.yul\":5835:5876   */\n          tag_114\n            /* \"#utility.yul\":5859:5875   */\n          dup3\n            /* \"#utility.yul\":5835:5876   */\n          tag_37\n          jump\t// in\n        tag_114:\n            /* \"#utility.yul\":5827:5833   */\n          dup5\n            /* \"#utility.yul\":5820:5824   */\n          dup5\n            /* \"#utility.yul\":5814:5825   */\n          sload\n            /* \"#utility.yul\":5786:5877   */\n          tag_34\n          jump\t// in\n        tag_113:\n            /* \"#utility.yul\":5780:5784   */\n          dup3\n            /* \"#utility.yul\":5773:5878   */\n          sstore\n            /* \"#utility.yul\":5691:5884   */\n          pop\n            /* \"#utility.yul\":5615:5884   */\n          pop\n          pop\n          pop\n          jump\t// out\n            /* \"#utility.yul\":5890:5963   */\n        tag_39:\n            /* \"#utility.yul\":5935:5938   */\n          0x00\n            /* \"#utility.yul\":5890:5963   */\n          swap1\n          jump\t// out\n            /* \"#utility.yul\":5969:6158   */\n        tag_40:\n            /* \"#utility.yul\":6046:6078   */\n          tag_117\n          tag_39\n          jump\t// in\n        tag_117:\n            /* \"#utility.yul\":6087:6152   */\n          tag_118\n            /* \"#utility.yul\":6145:6151   */\n          dup2\n            /* \"#utility.yul\":6137:6143   */\n          dup5\n            /* \"#utility.yul\":6131:6135   */\n          dup5\n            /* \"#utility.yul\":6087:6152   */\n          tag_38\n          jump\t// in\n        tag_118:\n            /* \"#utility.yul\":6022:6158   */\n          pop\n            /* \"#utility.yul\":5969:6158   */\n          pop\n          pop\n          jump\t// out\n            /* \"#utility.yul\":6164:6350   */\n        tag_41:\n            /* \"#utility.yul\":6224:6344   */\n        tag_120:\n            /* \"#utility.yul\":6241:6244   */\n          dup2\n            /* \"#utility.yul\":6234:6239   */\n          dup2\n            /* \"#utility.yul\":6231:6245   */\n          lt\n            /* \"#utility.yul\":6224:6344   */\n          iszero\n          tag_122\n          jumpi\n            /* \"#utility.yul\":6295:6334   */\n          tag_123\n            /* \"#utility.yul\":6332:6333   */\n          0x00\n            /* \"#utility.yul\":6325:6330   */\n          dup3\n            /* \"#utility.yul\":6295:6334   */\n          tag_40\n          jump\t// in\n        tag_123:\n            /* \"#utility.yul\":6268:6269   */\n          0x01\n            /* \"#utility.yul\":6261:6266   */\n          dup2\n            /* \"#utility.yul\":6257:6270   */\n          add\n            /* \"#utility.yul\":6248:6270   */\n          swap1\n          pop\n            /* \"#utility.yul\":6224:6344   */\n          jump(tag_120)\n        tag_122:\n            /* \"#utility.yul\":6164:6350   */\n          pop\n          pop\n          jump\t// out\n            /* \"#utility.yul\":6356:6899   */\n        tag_42:\n            /* \"#utility.yul\":6457:6459   */\n          0x1f\n            /* \"#utility.yul\":6452:6455   */\n          dup3\n            /* \"#utility.yul\":6449:6460   */\n          gt\n            /* \"#utility.yul\":6446:6892   */\n          iszero\n          tag_125\n          jumpi\n            /* \"#utility.yul\":6491:6529   */\n          tag_126\n            /* \"#utility.yul\":6523:6528   */\n          dup2\n            /* \"#utility.yul\":6491:6529   */\n          tag_31\n          jump\t// in\n        tag_126:\n            /* \"#utility.yul\":6575:6604   */\n          tag_127\n            /* \"#utility.yul\":6593:6603   */\n          dup5\n            /* \"#utility.yul\":6575:6604   */\n          tag_32\n          jump\t// in\n        tag_127:\n            /* \"#utility.yul\":6565:6573   */\n          dup2\n            /* \"#utility.yul\":6561:6605   */\n          add\n            /* \"#utility.yul\":6758:6760   */\n          0x20\n            /* \"#utility.yul\":6746:6756   */\n          dup6\n            /* \"#utility.yul\":6743:6761   */\n          lt\n            /* \"#utility.yul\":6740:6789   */\n          iszero\n          tag_128\n          jumpi\n            /* \"#utility.yul\":6779:6787   */\n          dup2\n            /* \"#utility.yul\":6764:6787   */\n          swap1\n          pop\n            /* \"#utility.yul\":6740:6789   */\n        tag_128:\n            /* \"#utility.yul\":6802:6882   */\n          tag_129\n            /* \"#utility.yul\":6858:6880   */\n          tag_130\n            /* \"#utility.yul\":6876:6879   */\n          dup6\n            /* \"#utility.yul\":6858:6880   */\n          tag_32\n          jump\t// in\n        tag_130:\n            /* \"#utility.yul\":6848:6856   */\n          dup4\n            /* \"#utility.yul\":6844:6881   */\n          add\n            /* \"#utility.yul\":6831:6842   */\n          dup3\n            /* \"#utility.yul\":6802:6882   */\n          tag_41\n          jump\t// in\n        tag_129:\n            /* \"#utility.yul\":6461:6892   */\n          pop\n          pop\n            /* \"#utility.yul\":6446:6892   */\n        tag_125:\n            /* \"#utility.yul\":6356:6899   */\n          pop\n          pop\n          pop\n          jump\t// out\n            /* \"#utility.yul\":6905:7022   */\n        tag_43:\n            /* \"#utility.yul\":6959:6967   */\n          0x00\n            /* \"#utility.yul\":7009:7014   */\n          dup3\n            /* \"#utility.yul\":7003:7007   */\n          dup3\n            /* \"#utility.yul\":6999:7015   */\n          shr\n            /* \"#utility.yul\":6978:7015   */\n          swap1\n          pop\n            /* \"#utility.yul\":6905:7022   */\n          swap3\n          swap2\n          pop\n          pop\n          jump\t// out\n            /* \"#utility.yul\":7028:7197   */\n        tag_44:\n            /* \"#utility.yul\":7072:7078   */\n          0x00\n            /* \"#utility.yul\":7105:7156   */\n          tag_133\n            /* \"#utility.yul\":7153:7154   */\n          0x00\n            /* \"#utility.yul\":7149:7155   */\n          not\n            /* \"#utility.yul\":7141:7146   */\n          dup5\n            /* \"#utility.yul\":7138:7139   */\n          0x08\n            /* \"#utility.yul\":7134:7147   */\n          mul\n            /* \"#utility.yul\":7105:7156   */\n          tag_43\n          jump\t// in\n        tag_133:\n            /* \"#utility.yul\":7101:7157   */\n          not\n            /* \"#utility.yul\":7186:7190   */\n          dup1\n            /* \"#utility.yul\":7180:7184   */\n          dup4\n            /* \"#utility.yul\":7176:7191   */\n          and\n            /* \"#utility.yul\":7166:7191   */\n          swap2\n          pop\n            /* \"#utility.yul\":7079:7197   */\n          pop\n            /* \"#utility.yul\":7028:7197   */\n          swap3\n          swap2\n          pop\n          pop\n          jump\t// out\n            /* \"#utility.yul\":7202:7497   */\n        tag_45:\n            /* \"#utility.yul\":7278:7282   */\n          0x00\n            /* \"#utility.yul\":7424:7453   */\n          tag_135\n            /* \"#utility.yul\":7449:7452   */\n          dup4\n            /* \"#utility.yul\":7443:7447   */\n          dup4\n            /* \"#utility.yul\":7424:7453   */\n          tag_44\n          jump\t// in\n        tag_135:\n            /* \"#utility.yul\":7416:7453   */\n          swap2\n          pop\n            /* \"#utility.yul\":7486:7489   */\n          dup3\n            /* \"#utility.yul\":7483:7484   */\n          0x02\n            /* \"#utility.yul\":7479:7490   */\n          mul\n            /* \"#utility.yul\":7473:7477   */\n          dup3\n            /* \"#utility.yul\":7470:7491   */\n          or\n            /* \"#utility.yul\":7462:7491   */\n          swap1\n          pop\n            /* \"#utility.yul\":7202:7497   */\n          swap3\n          swap2\n          pop\n          pop\n          jump\t// out\n            /* \"#utility.yul\":7502:8897   */\n        tag_7:\n            /* \"#utility.yul\":7619:7656   */\n          tag_137\n            /* \"#utility.yul\":7652:7655   */\n          dup3\n            /* \"#utility.yul\":7619:7656   */\n          tag_28\n          jump\t// in\n        tag_137:\n            /* \"#utility.yul\":7721:7739   */\n          0xffffffffffffffff\n            /* \"#utility.yul\":7713:7719   */\n          dup2\n            /* \"#utility.yul\":7710:7740   */\n          gt\n            /* \"#utility.yul\":7707:7763   */\n          iszero\n          tag_138\n          jumpi\n            /* \"#utility.yul\":7743:7761   */\n          tag_139\n          tag_18\n          jump\t// in\n        tag_139:\n            /* \"#utility.yul\":7707:7763   */\n        tag_138:\n            /* \"#utility.yul\":7787:7825   */\n          tag_140\n            /* \"#utility.yul\":7819:7823   */\n          dup3\n            /* \"#utility.yul\":7813:7824   */\n          sload\n            /* \"#utility.yul\":7787:7825   */\n          tag_30\n          jump\t// in\n        tag_140:\n            /* \"#utility.yul\":7872:7939   */\n          tag_141\n            /* \"#utility.yul\":7932:7938   */\n          dup3\n            /* \"#utility.yul\":7924:7930   */\n          dup3\n            /* \"#utility.yul\":7918:7922   */\n          dup6\n            /* \"#utility.yul\":7872:7939   */\n          tag_42\n          jump\t// in\n        tag_141:\n            /* \"#utility.yul\":7966:7967   */\n          0x00\n            /* \"#utility.yul\":7990:7994   */\n          0x20\n            /* \"#utility.yul\":7977:7994   */\n          swap1\n          pop\n            /* \"#utility.yul\":8022:8024   */\n          0x1f\n            /* \"#utility.yul\":8014:8020   */\n          dup4\n            /* \"#utility.yul\":8011:8025   */\n          gt\n            /* \"#utility.yul\":8039:8040   */\n          0x01\n            /* \"#utility.yul\":8034:8652   */\n          dup2\n          eq\n          tag_143\n          jumpi\n            /* \"#utility.yul\":8696:8697   */\n          0x00\n            /* \"#utility.yul\":8713:8719   */\n          dup5\n            /* \"#utility.yul\":8710:8787   */\n          iszero\n          tag_144\n          jumpi\n            /* \"#utility.yul\":8762:8771   */\n          dup3\n            /* \"#utility.yul\":8757:8760   */\n          dup8\n            /* \"#utility.yul\":8753:8772   */\n          add\n            /* \"#utility.yul\":8747:8773   */\n          mload\n            /* \"#utility.yul\":8738:8773   */\n          swap1\n          pop\n            /* \"#utility.yul\":8710:8787   */\n        tag_144:\n            /* \"#utility.yul\":8813:8880   */\n          tag_145\n            /* \"#utility.yul\":8873:8879   */\n          dup6\n            /* \"#utility.yul\":8866:8871   */\n          dup3\n            /* \"#utility.yul\":8813:8880   */\n          tag_45\n          jump\t// in\n        tag_145:\n            /* \"#utility.yul\":8807:8811   */\n          dup7\n            /* \"#utility.yul\":8800:8881   */\n          sstore\n            /* \"#utility.yul\":8669:8891   */\n          pop\n            /* \"#utility.yul\":8004:8891   */\n          jump(tag_142)\n            /* \"#utility.yul\":8034:8652   */\n        tag_143:\n            /* \"#utility.yul\":8086:8090   */\n          0x1f\n            /* \"#utility.yul\":8082:8091   */\n          not\n            /* \"#utility.yul\":8074:8080   */\n          dup5\n            /* \"#utility.yul\":8070:8092   */\n          and\n            /* \"#utility.yul\":8120:8157   */\n          tag_146\n            /* \"#utility.yul\":8152:8156   */\n          dup7\n            /* \"#utility.yul\":8120:8157   */\n          tag_31\n          jump\t// in\n        tag_146:\n            /* \"#utility.yul\":8179:8180   */\n          0x00\n            /* \"#utility.yul\":8193:8401   */\n        tag_147:\n            /* \"#utility.yul\":8207:8214   */\n          dup3\n            /* \"#utility.yul\":8204:8205   */\n          dup2\n            /* \"#utility.yul\":8201:8215   */\n          lt\n            /* \"#utility.yul\":8193:8401   */\n          iszero\n          tag_149\n          jumpi\n            /* \"#utility.yul\":8286:8295   */\n          dup5\n            /* \"#utility.yul\":8281:8284   */\n          dup10\n            /* \"#utility.yul\":8277:8296   */\n          add\n            /* \"#utility.yul\":8271:8297   */\n          mload\n            /* \"#utility.yul\":8263:8269   */\n          dup3\n            /* \"#utility.yul\":8256:8298   */\n          sstore\n            /* \"#utility.yul\":8337:8338   */\n          0x01\n            /* \"#utility.yul\":8329:8335   */\n          dup3\n            /* \"#utility.yul\":8325:8339   */\n          add\n            /* \"#utility.yul\":8315:8339   */\n          swap2\n          pop\n            /* \"#utility.yul\":8384:8386   */\n          0x20\n            /* \"#utility.yul\":8373:8382   */\n          dup6\n            /* \"#utility.yul\":8369:8387   */\n          add\n            /* \"#utility.yul\":8356:8387   */\n          swap5\n          pop\n            /* \"#utility.yul\":8230:8234   */\n          0x20\n            /* \"#utility.yul\":8227:8228   */\n          dup2\n            /* \"#utility.yul\":8223:8235   */\n          add\n            /* \"#utility.yul\":8218:8235   */\n          swap1\n          pop\n            /* \"#utility.yul\":8193:8401   */\n          jump(tag_147)\n        tag_149:\n            /* \"#utility.yul\":8429:8435   */\n          dup7\n            /* \"#utility.yul\":8420:8427   */\n          dup4\n            /* \"#utility.yul\":8417:8436   */\n          lt\n            /* \"#utility.yul\":8414:8593   */\n          iszero\n          tag_150\n          jumpi\n            /* \"#utility.yul\":8487:8496   */\n          dup5\n            /* \"#utility.yul\":8482:8485   */\n          dup10\n            /* \"#utility.yul\":8478:8497   */\n          add\n            /* \"#utility.yul\":8472:8498   */\n          mload\n            /* \"#utility.yul\":8530:8578   */\n          tag_151\n            /* \"#utility.yul\":8572:8576   */\n          0x1f\n            /* \"#utility.yul\":8564:8570   */\n          dup10\n            /* \"#utility.yul\":8560:8577   */\n          and\n            /* \"#utility.yul\":8549:8558   */\n          dup3\n            /* \"#utility.yul\":8530:8578   */\n          tag_44\n          jump\t// in\n        tag_151:\n            /* \"#utility.yul\":8522:8528   */\n          dup4\n            /* \"#utility.yul\":8515:8579   */\n          sstore\n            /* \"#utility.yul\":8437:8593   */\n          pop\n            /* \"#utility.yul\":8414:8593   */\n        tag_150:\n            /* \"#utility.yul\":8639:8640   */\n          0x01\n            /* \"#utility.yul\":8635:8636   */\n          0x02\n            /* \"#utility.yul\":8627:8633   */\n          dup9\n            /* \"#utility.yul\":8623:8637   */\n          mul\n            /* \"#utility.yul\":8619:8641   */\n          add\n            /* \"#utility.yul\":8613:8617   */\n          dup9\n            /* \"#utility.yul\":8606:8642   */\n          sstore\n            /* \"#utility.yul\":8041:8652   */\n          pop\n          pop\n          pop\n            /* \"#utility.yul\":8004:8891   */\n        tag_142:\n          pop\n            /* \"#utility.yul\":7594:8897   */\n          pop\n          pop\n          pop\n            /* \"#utility.yul\":7502:8897   */\n          pop\n          pop\n          jump\t// out\n            /* \"#utility.yul\":8903:9083   */\n        tag_46:\n            /* \"#utility.yul\":8951:9028   */\n          0x4e487b7100000000000000000000000000000000000000000000000000000000\n            /* \"#utility.yul\":8948:8949   */\n          0x00\n            /* \"#utility.yul\":8941:9029   */\n          mstore\n            /* \"#utility.yul\":9048:9052   */\n          0x11\n            /* \"#utility.yul\":9045:9046   */\n          0x04\n            /* \"#utility.yul\":9038:9053   */\n          mstore\n            /* \"#utility.yul\":9072:9076   */\n          0x24\n            /* \"#utility.yul\":9069:9070   */\n          0x00\n            /* \"#utility.yul\":9062:9077   */\n          revert\n            /* \"#utility.yul\":9089:9280   */\n        tag_10:\n            /* \"#utility.yul\":9129:9132   */\n          0x00\n            /* \"#utility.yul\":9148:9168   */\n          tag_154\n            /* \"#utility.yul\":9166:9167   */\n          dup3\n            /* \"#utility.yul\":9148:9168   */\n          tag_25\n          jump\t// in\n        tag_154:\n            /* \"#utility.yul\":9143:9168   */\n          swap2\n          pop\n            /* \"#utility.yul\":9182:9202   */\n          tag_155\n            /* \"#utility.yul\":9200:9201   */\n          dup4\n            /* \"#utility.yul\":9182:9202   */\n          tag_25\n          jump\t// in\n        tag_155:\n            /* \"#utility.yul\":9177:9202   */\n          swap3\n          pop\n            /* \"#utility.yul\":9225:9226   */\n          dup3\n            /* \"#utility.yul\":9222:9223   */\n          dup3\n            /* \"#utility.yul\":9218:9227   */\n          add\n            /* \"#utility.yul\":9211:9227   */\n          swap1\n          pop\n            /* \"#utility.yul\":9246:9249   */\n          dup1\n            /* \"#utility.yul\":9243:9244   */\n          dup3\n            /* \"#utility.yul\":9240:9250   */\n          gt\n            /* \"#utility.yul\":9237:9273   */\n          iszero\n          tag_156\n          jumpi\n            /* \"#utility.yul\":9253:9271   */\n          tag_157\n          tag_46\n          jump\t// in\n        tag_157:\n            /* \"#utility.yul\":9237:9273   */\n        tag_156:\n            /* \"#utility.yul\":9089:9280   */\n          swap3\n          swap2\n          pop\n          pop\n          jump\t// out\n            /* \"Voting_Contracts/Proposal.sol\":61:1711  contract Proposal {... */\n        tag_11:\n          dataSize(sub_0)\n          dup1\n          dataOffset(sub_0)\n          0x00\n          codecopy\n          0x00\n          return\n        stop\n\n        sub_0: assembly {\n                /* \"Voting_Contracts/Proposal.sol\":61:1711  contract Proposal {... */\n              mstore(0x40, 0x80)\n              callvalue\n              dup1\n              iszero\n              tag_1\n              jumpi\n              0x00\n              dup1\n              revert\n            tag_1:\n              pop\n              jumpi(tag_2, lt(calldatasize, 0x04))\n              shr(0xe0, calldataload(0x00))\n              dup1\n              0x9d5a0529\n              gt\n              tag_12\n              jumpi\n              dup1\n              0x9d5a0529\n              eq\n              tag_7\n              jumpi\n              dup1\n              0xb5b47f42\n              eq\n              tag_8\n              jumpi\n              dup1\n              0xb7156512\n              eq\n              tag_9\n              jumpi\n              dup1\n              0xc3403ddf\n              eq\n              tag_10\n              jumpi\n              dup1\n              0xfb286c65\n              eq\n              tag_11\n              jumpi\n              jump(tag_2)\n            tag_12:\n              dup1\n              0x06fdde03\n              eq\n              tag_3\n              jumpi\n              dup1\n              0x29dcb0cf\n              eq\n              tag_4\n              jumpi\n              dup1\n              0x4717f97c\n              eq\n              tag_5\n              jumpi\n              dup1\n              0x7284e416\n              eq\n              tag_6\n              jumpi\n            tag_2:\n              0x00\n              dup1\n              revert\n                /* \"Voting_Contracts/Proposal.sol\":86:104  string public name */\n            tag_3:\n              tag_13\n              tag_14\n              jump\t// in\n            tag_13:\n              mload(0x40)\n              tag_15\n              swap2\n              swap1\n              tag_16\n              jump\t// in\n            tag_15:\n              mload(0x40)\n              dup1\n              swap2\n              sub\n              swap1\n              return\n                /* \"Voting_Contracts/Proposal.sol\":143:163  uint public deadline */\n            tag_4:\n              tag_17\n              tag_18\n              jump\t// in\n            tag_17:\n              mload(0x40)\n              tag_19\n              swap2\n              swap1\n              tag_20\n              jump\t// in\n            tag_19:\n              mload(0x40)\n              dup1\n              swap2\n              sub\n              swap1\n              return\n                /* \"Voting_Contracts/Proposal.sol\":1171:1706  function getResults() external view returns (string memory outcome, uint yesVotesCount, uint noVotesCount, bool votingStatus) {... */\n            tag_5:\n              tag_21\n              tag_22\n              jump\t// in\n            tag_21:\n              mload(0x40)\n              tag_23\n              swap5\n              swap4\n              swap3\n              swap2\n              swap1\n              tag_24\n              jump\t// in\n            tag_23:\n              mload(0x40)\n              dup1\n              swap2\n              sub\n              swap1\n              return\n                /* \"Voting_Contracts/Proposal.sol\":111:136  string public description */\n            tag_6:\n              tag_25\n              tag_26\n              jump\t// in\n            tag_25:\n              mload(0x40)\n              tag_27\n              swap2\n              swap1\n              tag_16\n              jump\t// in\n            tag_27:\n              mload(0x40)\n              dup1\n              swap2\n              sub\n              swap1\n              return\n                /* \"Voting_Contracts/Proposal.sol\":223:246  bool public votingEnded */\n            tag_7:\n              tag_28\n              tag_29\n              jump\t// in\n            tag_28:\n              mload(0x40)\n              tag_30\n              swap2\n              swap1\n              tag_31\n              jump\t// in\n            tag_30:\n              mload(0x40)\n              dup1\n              swap2\n              sub\n              swap1\n              return\n                /* \"Voting_Contracts/Proposal.sol\":197:216  uint public noVotes */\n            tag_8:\n              tag_32\n              tag_33\n              jump\t// in\n            tag_32:\n              mload(0x40)\n              tag_34\n              swap2\n              swap1\n              tag_20\n              jump\t// in\n            tag_34:\n              mload(0x40)\n              dup1\n              swap2\n              sub\n              swap1\n              return\n                /* \"Voting_Contracts/Proposal.sol\":853:1163  function recordVote(bool voteYes, uint weight) external {... */\n            tag_9:\n              tag_35\n              0x04\n              dup1\n              calldatasize\n              sub\n              dup2\n              add\n              swap1\n              tag_36\n              swap2\n              swap1\n              tag_37\n              jump\t// in\n            tag_36:\n              tag_38\n              jump\t// in\n            tag_35:\n              stop\n                /* \"Voting_Contracts/Proposal.sol\":559:845  function endVoting() external {... */\n            tag_10:\n              tag_39\n              tag_40\n              jump\t// in\n            tag_39:\n              stop\n                /* \"Voting_Contracts/Proposal.sol\":170:190  uint public yesVotes */\n            tag_11:\n              tag_41\n              tag_42\n              jump\t// in\n            tag_41:\n              mload(0x40)\n              tag_43\n              swap2\n              swap1\n              tag_20\n              jump\t// in\n            tag_43:\n              mload(0x40)\n              dup1\n              swap2\n              sub\n              swap1\n              return\n                /* \"Voting_Contracts/Proposal.sol\":86:104  string public name */\n            tag_14:\n              0x00\n              dup1\n              sload\n              tag_44\n              swap1\n              tag_45\n              jump\t// in\n            tag_44:\n              dup1\n              0x1f\n              add\n              0x20\n              dup1\n              swap2\n              div\n              mul\n              0x20\n              add\n              mload(0x40)\n              swap1\n              dup2\n              add\n              0x40\n              mstore\n              dup1\n              swap3\n              swap2\n              swap1\n              dup2\n              dup2\n              mstore\n              0x20\n              add\n              dup3\n              dup1\n              sload\n              tag_46\n              swap1\n              tag_45\n              jump\t// in\n            tag_46:\n              dup1\n              iszero\n              tag_47\n              jumpi\n              dup1\n              0x1f\n              lt\n              tag_48\n              jumpi\n              0x0100\n              dup1\n              dup4\n              sload\n              div\n              mul\n              dup4\n              mstore\n              swap2\n              0x20\n              add\n              swap2\n              jump(tag_47)\n            tag_48:\n              dup3\n              add\n              swap2\n              swap1\n              0x00\n              mstore\n              keccak256(0x00, 0x20)\n              swap1\n            tag_49:\n              dup2\n              sload\n              dup2\n              mstore\n              swap1\n              0x01\n              add\n              swap1\n              0x20\n              add\n              dup1\n              dup4\n              gt\n              tag_49\n              jumpi\n              dup3\n              swap1\n              sub\n              0x1f\n              and\n              dup3\n              add\n              swap2\n            tag_47:\n              pop\n              pop\n              pop\n              pop\n              pop\n              dup2\n              jump\t// out\n                /* \"Voting_Contracts/Proposal.sol\":143:163  uint public deadline */\n            tag_18:\n              sload(0x02)\n              dup2\n              jump\t// out\n                /* \"Voting_Contracts/Proposal.sol\":1171:1706  function getResults() external view returns (string memory outcome, uint yesVotesCount, uint noVotesCount, bool votingStatus) {... */\n            tag_22:\n                /* \"Voting_Contracts/Proposal.sol\":1216:1237  string memory outcome */\n              0x60\n                /* \"Voting_Contracts/Proposal.sol\":1239:1257  uint yesVotesCount */\n              0x00\n                /* \"Voting_Contracts/Proposal.sol\":1259:1276  uint noVotesCount */\n              dup1\n                /* \"Voting_Contracts/Proposal.sol\":1278:1295  bool votingStatus */\n              0x00\n                /* \"Voting_Contracts/Proposal.sol\":1324:1332  yesVotes */\n              sload(0x03)\n                /* \"Voting_Contracts/Proposal.sol\":1308:1332  yesVotesCount = yesVotes */\n              swap3\n              pop\n                /* \"Voting_Contracts/Proposal.sol\":1358:1365  noVotes */\n              sload(0x04)\n                /* \"Voting_Contracts/Proposal.sol\":1343:1365  noVotesCount = noVotes */\n              swap2\n              pop\n                /* \"Voting_Contracts/Proposal.sol\":1391:1402  votingEnded */\n              0x05\n              0x00\n              swap1\n              sload\n              swap1\n              0x0100\n              exp\n              swap1\n              div\n              0xff\n              and\n                /* \"Voting_Contracts/Proposal.sol\":1376:1402  votingStatus = votingEnded */\n              swap1\n              pop\n                /* \"Voting_Contracts/Proposal.sol\":1430:1437  noVotes */\n              sload(0x04)\n                /* \"Voting_Contracts/Proposal.sol\":1419:1427  yesVotes */\n              sload(0x03)\n                /* \"Voting_Contracts/Proposal.sol\":1419:1437  yesVotes > noVotes */\n              gt\n                /* \"Voting_Contracts/Proposal.sol\":1415:1627  if (yesVotes > noVotes) {... */\n              iszero\n              tag_51\n              jumpi\n                /* \"Voting_Contracts/Proposal.sol\":1454:1479  outcome = \"Yes votes won\" */\n              mload(0x40)\n              dup1\n              0x40\n              add\n              0x40\n              mstore\n              dup1\n              0x0d\n              dup2\n              mstore\n              0x20\n              add\n              0x59657320766f74657320776f6e00000000000000000000000000000000000000\n              dup2\n              mstore\n              pop\n              swap4\n              pop\n                /* \"Voting_Contracts/Proposal.sol\":1415:1627  if (yesVotes > noVotes) {... */\n              jump(tag_52)\n            tag_51:\n                /* \"Voting_Contracts/Proposal.sol\":1511:1519  yesVotes */\n              sload(0x03)\n                /* \"Voting_Contracts/Proposal.sol\":1501:1508  noVotes */\n              sload(0x04)\n                /* \"Voting_Contracts/Proposal.sol\":1501:1519  noVotes > yesVotes */\n              gt\n                /* \"Voting_Contracts/Proposal.sol\":1497:1627  if (noVotes > yesVotes) {... */\n              iszero\n              tag_53\n              jumpi\n                /* \"Voting_Contracts/Proposal.sol\":1536:1560  outcome = \"No votes won\" */\n              mload(0x40)\n              dup1\n              0x40\n              add\n              0x40\n              mstore\n              dup1\n              0x0c\n              dup2\n              mstore\n              0x20\n              add\n              0x4e6f20766f74657320776f6e0000000000000000000000000000000000000000\n              dup2\n              mstore\n              pop\n              swap4\n              pop\n                /* \"Voting_Contracts/Proposal.sol\":1497:1627  if (noVotes > yesVotes) {... */\n              jump(tag_54)\n            tag_53:\n                /* \"Voting_Contracts/Proposal.sol\":1593:1615  outcome = \"It's a tie\" */\n              mload(0x40)\n              dup1\n              0x40\n              add\n              0x40\n              mstore\n              dup1\n              0x0a\n              dup2\n              mstore\n              0x20\n              add\n              0x4974277320612074696500000000000000000000000000000000000000000000\n              dup2\n              mstore\n              pop\n              swap4\n              pop\n                /* \"Voting_Contracts/Proposal.sol\":1497:1627  if (noVotes > yesVotes) {... */\n            tag_54:\n                /* \"Voting_Contracts/Proposal.sol\":1415:1627  if (yesVotes > noVotes) {... */\n            tag_52:\n                /* \"Voting_Contracts/Proposal.sol\":1171:1706  function getResults() external view returns (string memory outcome, uint yesVotesCount, uint noVotesCount, bool votingStatus) {... */\n              swap1\n              swap2\n              swap3\n              swap4\n              jump\t// out\n                /* \"Voting_Contracts/Proposal.sol\":111:136  string public description */\n            tag_26:\n              0x01\n              dup1\n              sload\n              tag_55\n              swap1\n              tag_45\n              jump\t// in\n            tag_55:\n              dup1\n              0x1f\n              add\n              0x20\n              dup1\n              swap2\n              div\n              mul\n              0x20\n              add\n              mload(0x40)\n              swap1\n              dup2\n              add\n              0x40\n              mstore\n              dup1\n              swap3\n              swap2\n              swap1\n              dup2\n              dup2\n              mstore\n              0x20\n              add\n              dup3\n              dup1\n              sload\n              tag_56\n              swap1\n              tag_45\n              jump\t// in\n            tag_56:\n              dup1\n              iszero\n              tag_57\n              jumpi\n              dup1\n              0x1f\n              lt\n              tag_58\n              jumpi\n              0x0100\n              dup1\n              dup4\n              sload\n              div\n              mul\n              dup4\n              mstore\n              swap2\n              0x20\n              add\n              swap2\n              jump(tag_57)\n            tag_58:\n              dup3\n              add\n              swap2\n              swap1\n              0x00\n              mstore\n              keccak256(0x00, 0x20)\n              swap1\n            tag_59:\n              dup2\n              sload\n              dup2\n              mstore\n              swap1\n              0x01\n              add\n              swap1\n              0x20\n              add\n              dup1\n              dup4\n              gt\n              tag_59\n              jumpi\n              dup3\n              swap1\n              sub\n              0x1f\n              and\n              dup3\n              add\n              swap2\n            tag_57:\n              pop\n              pop\n              pop\n              pop\n              pop\n              dup2\n              jump\t// out\n                /* \"Voting_Contracts/Proposal.sol\":223:246  bool public votingEnded */\n            tag_29:\n              0x05\n              0x00\n              swap1\n              sload\n              swap1\n              0x0100\n              exp\n              swap1\n              div\n              0xff\n              and\n              dup2\n              jump\t// out\n                /* \"Voting_Contracts/Proposal.sol\":197:216  uint public noVotes */\n            tag_33:\n              sload(0x04)\n              dup2\n              jump\t// out\n                /* \"Voting_Contracts/Proposal.sol\":853:1163  function recordVote(bool voteYes, uint weight) external {... */\n            tag_38:\n                /* \"Voting_Contracts/Proposal.sol\":946:954  deadline */\n              sload(0x02)\n                /* \"Voting_Contracts/Proposal.sol\":928:943  block.timestamp */\n              timestamp\n                /* \"Voting_Contracts/Proposal.sol\":928:954  block.timestamp < deadline */\n              lt\n                /* \"Voting_Contracts/Proposal.sol\":920:975  require(block.timestamp < deadline, \"Voting has ended\") */\n              tag_61\n              jumpi\n              mload(0x40)\n              0x08c379a000000000000000000000000000000000000000000000000000000000\n              dup2\n              mstore\n              0x04\n              add\n              tag_62\n              swap1\n              tag_63\n              jump\t// in\n            tag_62:\n              mload(0x40)\n              dup1\n              swap2\n              sub\n              swap1\n              revert\n            tag_61:\n                /* \"Voting_Contracts/Proposal.sol\":995:1006  votingEnded */\n              0x05\n              0x00\n              swap1\n              sload\n              swap1\n              0x0100\n              exp\n              swap1\n              div\n              0xff\n              and\n                /* \"Voting_Contracts/Proposal.sol\":994:1006  !votingEnded */\n              iszero\n                /* \"Voting_Contracts/Proposal.sol\":986:1027  require(!votingEnded, \"Voting has ended\") */\n              tag_64\n              jumpi\n              mload(0x40)\n              0x08c379a000000000000000000000000000000000000000000000000000000000\n              dup2\n              mstore\n              0x04\n              add\n              tag_65\n              swap1\n              tag_63\n              jump\t// in\n            tag_65:\n              mload(0x40)\n              dup1\n              swap2\n              sub\n              swap1\n              revert\n            tag_64:\n                /* \"Voting_Contracts/Proposal.sol\":1052:1059  voteYes */\n              dup2\n                /* \"Voting_Contracts/Proposal.sol\":1048:1156  if (voteYes) {... */\n              iszero\n              tag_66\n              jumpi\n                /* \"Voting_Contracts/Proposal.sol\":1088:1094  weight */\n              dup1\n                /* \"Voting_Contracts/Proposal.sol\":1076:1084  yesVotes */\n              0x03\n              0x00\n                /* \"Voting_Contracts/Proposal.sol\":1076:1094  yesVotes += weight */\n              dup3\n              dup3\n              sload\n              tag_67\n              swap2\n              swap1\n              tag_68\n              jump\t// in\n            tag_67:\n              swap3\n              pop\n              pop\n              dup2\n              swap1\n              sstore\n              pop\n                /* \"Voting_Contracts/Proposal.sol\":1048:1156  if (voteYes) {... */\n              jump(tag_69)\n            tag_66:\n                /* \"Voting_Contracts/Proposal.sol\":1138:1144  weight */\n              dup1\n                /* \"Voting_Contracts/Proposal.sol\":1127:1134  noVotes */\n              0x04\n              0x00\n                /* \"Voting_Contracts/Proposal.sol\":1127:1144  noVotes += weight */\n              dup3\n              dup3\n              sload\n              tag_70\n              swap2\n              swap1\n              tag_68\n              jump\t// in\n            tag_70:\n              swap3\n              pop\n              pop\n              dup2\n              swap1\n              sstore\n              pop\n                /* \"Voting_Contracts/Proposal.sol\":1048:1156  if (voteYes) {... */\n            tag_69:\n                /* \"Voting_Contracts/Proposal.sol\":853:1163  function recordVote(bool voteYes, uint weight) external {... */\n              pop\n              pop\n              jump\t// out\n                /* \"Voting_Contracts/Proposal.sol\":559:845  function endVoting() external {... */\n            tag_40:\n                /* \"Voting_Contracts/Proposal.sol\":626:634  deadline */\n              sload(0x02)\n                /* \"Voting_Contracts/Proposal.sol\":608:623  block.timestamp */\n              timestamp\n                /* \"Voting_Contracts/Proposal.sol\":608:634  block.timestamp > deadline */\n              gt\n                /* \"Voting_Contracts/Proposal.sol\":600:665  require(block.timestamp > deadline, \"Voting period not yet over\") */\n              tag_72\n              jumpi\n              mload(0x40)\n              0x08c379a000000000000000000000000000000000000000000000000000000000\n              dup2\n              mstore\n              0x04\n              add\n              tag_73\n              swap1\n              tag_74\n              jump\t// in\n            tag_73:\n              mload(0x40)\n              dup1\n              swap2\n              sub\n              swap1\n              revert\n            tag_72:\n                /* \"Voting_Contracts/Proposal.sol\":685:696  votingEnded */\n              0x05\n              0x00\n              swap1\n              sload\n              swap1\n              0x0100\n              exp\n              swap1\n              div\n              0xff\n              and\n                /* \"Voting_Contracts/Proposal.sol\":684:696  !votingEnded */\n              iszero\n                /* \"Voting_Contracts/Proposal.sol\":676:721  require(!votingEnded, \"Voting already ended\") */\n              tag_75\n              jumpi\n              mload(0x40)\n              0x08c379a000000000000000000000000000000000000000000000000000000000\n              dup2\n              mstore\n              0x04\n              add\n              tag_76\n              swap1\n              tag_77\n              jump\t// in\n            tag_76:\n              mload(0x40)\n              dup1\n              swap2\n              sub\n              swap1\n              revert\n            tag_75:\n                /* \"Voting_Contracts/Proposal.sol\":746:750  true */\n              0x01\n                /* \"Voting_Contracts/Proposal.sol\":732:743  votingEnded */\n              0x05\n              0x00\n                /* \"Voting_Contracts/Proposal.sol\":732:750  votingEnded = true */\n              0x0100\n              exp\n              dup2\n              sload\n              dup2\n              0xff\n              mul\n              not\n              and\n              swap1\n              dup4\n              iszero\n              iszero\n              mul\n              or\n              swap1\n              sstore\n              pop\n                /* \"Voting_Contracts/Proposal.sol\":766:837  VotingEnded(uint(keccak256(abi.encodePacked(name))), yesVotes, noVotes) */\n              0xcea89ec8feb1022162fb57e69a2bb2c4774289bcc281c3e4ff611d3a63ee6e08\n                /* \"Voting_Contracts/Proposal.sol\":810:814  name */\n              0x00\n                /* \"Voting_Contracts/Proposal.sol\":793:815  abi.encodePacked(name) */\n              add(0x20, mload(0x40))\n              tag_78\n              swap2\n              swap1\n              tag_79\n              jump\t// in\n            tag_78:\n              mload(0x40)\n              0x20\n              dup2\n              dup4\n              sub\n              sub\n              dup2\n              mstore\n              swap1\n              0x40\n              mstore\n                /* \"Voting_Contracts/Proposal.sol\":783:816  keccak256(abi.encodePacked(name)) */\n              dup1\n              mload\n              swap1\n              0x20\n              add\n              keccak256\n                /* \"Voting_Contracts/Proposal.sol\":778:817  uint(keccak256(abi.encodePacked(name))) */\n              0x00\n              shr\n                /* \"Voting_Contracts/Proposal.sol\":819:827  yesVotes */\n              sload(0x03)\n                /* \"Voting_Contracts/Proposal.sol\":829:836  noVotes */\n              sload(0x04)\n                /* \"Voting_Contracts/Proposal.sol\":766:837  VotingEnded(uint(keccak256(abi.encodePacked(name))), yesVotes, noVotes) */\n              mload(0x40)\n              tag_80\n              swap4\n              swap3\n              swap2\n              swap1\n              tag_81\n              jump\t// in\n            tag_80:\n              mload(0x40)\n              dup1\n              swap2\n              sub\n              swap1\n              log1\n                /* \"Voting_Contracts/Proposal.sol\":559:845  function endVoting() external {... */\n              jump\t// out\n                /* \"Voting_Contracts/Proposal.sol\":170:190  uint public yesVotes */\n            tag_42:\n              sload(0x03)\n              dup2\n              jump\t// out\n                /* \"#utility.yul\":7:106   */\n            tag_82:\n                /* \"#utility.yul\":59:65   */\n              0x00\n                /* \"#utility.yul\":93:98   */\n              dup2\n                /* \"#utility.yul\":87:99   */\n              mload\n                /* \"#utility.yul\":77:99   */\n              swap1\n              pop\n                /* \"#utility.yul\":7:106   */\n              swap2\n              swap1\n              pop\n              jump\t// out\n                /* \"#utility.yul\":112:281   */\n            tag_83:\n                /* \"#utility.yul\":196:207   */\n              0x00\n                /* \"#utility.yul\":230:236   */\n              dup3\n                /* \"#utility.yul\":225:228   */\n              dup3\n                /* \"#utility.yul\":218:237   */\n              mstore\n                /* \"#utility.yul\":270:274   */\n              0x20\n                /* \"#utility.yul\":265:268   */\n              dup3\n                /* \"#utility.yul\":261:275   */\n              add\n                /* \"#utility.yul\":246:275   */\n              swap1\n              pop\n                /* \"#utility.yul\":112:281   */\n              swap3\n              swap2\n              pop\n              pop\n              jump\t// out\n                /* \"#utility.yul\":287:426   */\n            tag_84:\n                /* \"#utility.yul\":376:382   */\n              dup3\n                /* \"#utility.yul\":371:374   */\n              dup2\n                /* \"#utility.yul\":366:369   */\n              dup4\n                /* \"#utility.yul\":360:383   */\n              mcopy\n                /* \"#utility.yul\":417:418   */\n              0x00\n                /* \"#utility.yul\":408:414   */\n              dup4\n                /* \"#utility.yul\":403:406   */\n              dup4\n                /* \"#utility.yul\":399:415   */\n              add\n                /* \"#utility.yul\":392:419   */\n              mstore\n                /* \"#utility.yul\":287:426   */\n              pop\n              pop\n              pop\n              jump\t// out\n                /* \"#utility.yul\":432:534   */\n            tag_85:\n                /* \"#utility.yul\":473:479   */\n              0x00\n                /* \"#utility.yul\":524:526   */\n              0x1f\n                /* \"#utility.yul\":520:527   */\n              not\n                /* \"#utility.yul\":515:517   */\n              0x1f\n                /* \"#utility.yul\":508:513   */\n              dup4\n                /* \"#utility.yul\":504:518   */\n              add\n                /* \"#utility.yul\":500:528   */\n              and\n                /* \"#utility.yul\":490:528   */\n              swap1\n              pop\n                /* \"#utility.yul\":432:534   */\n              swap2\n              swap1\n              pop\n              jump\t// out\n                /* \"#utility.yul\":540:917   */\n            tag_86:\n                /* \"#utility.yul\":628:631   */\n              0x00\n                /* \"#utility.yul\":656:695   */\n              tag_115\n                /* \"#utility.yul\":689:694   */\n              dup3\n                /* \"#utility.yul\":656:695   */\n              tag_82\n              jump\t// in\n            tag_115:\n                /* \"#utility.yul\":711:782   */\n              tag_116\n                /* \"#utility.yul\":775:781   */\n              dup2\n                /* \"#utility.yul\":770:773   */\n              dup6\n                /* \"#utility.yul\":711:782   */\n              tag_83\n              jump\t// in\n            tag_116:\n                /* \"#utility.yul\":704:782   */\n              swap4\n              pop\n                /* \"#utility.yul\":791:856   */\n              tag_117\n                /* \"#utility.yul\":849:855   */\n              dup2\n                /* \"#utility.yul\":844:847   */\n              dup6\n                /* \"#utility.yul\":837:841   */\n              0x20\n                /* \"#utility.yul\":830:835   */\n              dup7\n                /* \"#utility.yul\":826:842   */\n              add\n                /* \"#utility.yul\":791:856   */\n              tag_84\n              jump\t// in\n            tag_117:\n                /* \"#utility.yul\":881:910   */\n              tag_118\n                /* \"#utility.yul\":903:909   */\n              dup2\n                /* \"#utility.yul\":881:910   */\n              tag_85\n              jump\t// in\n            tag_118:\n                /* \"#utility.yul\":876:879   */\n              dup5\n                /* \"#utility.yul\":872:911   */\n              add\n                /* \"#utility.yul\":865:911   */\n              swap2\n              pop\n                /* \"#utility.yul\":632:917   */\n              pop\n                /* \"#utility.yul\":540:917   */\n              swap3\n              swap2\n              pop\n              pop\n              jump\t// out\n                /* \"#utility.yul\":923:1236   */\n            tag_16:\n                /* \"#utility.yul\":1036:1040   */\n              0x00\n                /* \"#utility.yul\":1074:1076   */\n              0x20\n                /* \"#utility.yul\":1063:1072   */\n              dup3\n                /* \"#utility.yul\":1059:1077   */\n              add\n                /* \"#utility.yul\":1051:1077   */\n              swap1\n              pop\n                /* \"#utility.yul\":1123:1132   */\n              dup2\n                /* \"#utility.yul\":1117:1121   */\n              dup2\n                /* \"#utility.yul\":1113:1133   */\n              sub\n                /* \"#utility.yul\":1109:1110   */\n              0x00\n                /* \"#utility.yul\":1098:1107   */\n              dup4\n                /* \"#utility.yul\":1094:1111   */\n              add\n                /* \"#utility.yul\":1087:1134   */\n              mstore\n                /* \"#utility.yul\":1151:1229   */\n              tag_120\n                /* \"#utility.yul\":1224:1228   */\n              dup2\n                /* \"#utility.yul\":1215:1221   */\n              dup5\n                /* \"#utility.yul\":1151:1229   */\n              tag_86\n              jump\t// in\n            tag_120:\n                /* \"#utility.yul\":1143:1229   */\n              swap1\n              pop\n                /* \"#utility.yul\":923:1236   */\n              swap3\n              swap2\n              pop\n              pop\n              jump\t// out\n                /* \"#utility.yul\":1242:1319   */\n            tag_87:\n                /* \"#utility.yul\":1279:1286   */\n              0x00\n                /* \"#utility.yul\":1308:1313   */\n              dup2\n                /* \"#utility.yul\":1297:1313   */\n              swap1\n              pop\n                /* \"#utility.yul\":1242:1319   */\n              swap2\n              swap1\n              pop\n              jump\t// out\n                /* \"#utility.yul\":1325:1443   */\n            tag_88:\n                /* \"#utility.yul\":1412:1436   */\n              tag_123\n                /* \"#utility.yul\":1430:1435   */\n              dup2\n                /* \"#utility.yul\":1412:1436   */\n              tag_87\n              jump\t// in\n            tag_123:\n                /* \"#utility.yul\":1407:1410   */\n              dup3\n                /* \"#utility.yul\":1400:1437   */\n              mstore\n                /* \"#utility.yul\":1325:1443   */\n              pop\n              pop\n              jump\t// out\n                /* \"#utility.yul\":1449:1671   */\n            tag_20:\n                /* \"#utility.yul\":1542:1546   */\n              0x00\n                /* \"#utility.yul\":1580:1582   */\n              0x20\n                /* \"#utility.yul\":1569:1578   */\n              dup3\n                /* \"#utility.yul\":1565:1583   */\n              add\n                /* \"#utility.yul\":1557:1583   */\n              swap1\n              pop\n                /* \"#utility.yul\":1593:1664   */\n              tag_125\n                /* \"#utility.yul\":1661:1662   */\n              0x00\n                /* \"#utility.yul\":1650:1659   */\n              dup4\n                /* \"#utility.yul\":1646:1663   */\n              add\n                /* \"#utility.yul\":1637:1643   */\n              dup5\n                /* \"#utility.yul\":1593:1664   */\n              tag_88\n              jump\t// in\n            tag_125:\n                /* \"#utility.yul\":1449:1671   */\n              swap3\n              swap2\n              pop\n              pop\n              jump\t// out\n                /* \"#utility.yul\":1677:1767   */\n            tag_89:\n                /* \"#utility.yul\":1711:1718   */\n              0x00\n                /* \"#utility.yul\":1754:1759   */\n              dup2\n                /* \"#utility.yul\":1747:1760   */\n              iszero\n                /* \"#utility.yul\":1740:1761   */\n              iszero\n                /* \"#utility.yul\":1729:1761   */\n              swap1\n              pop\n                /* \"#utility.yul\":1677:1767   */\n              swap2\n              swap1\n              pop\n              jump\t// out\n                /* \"#utility.yul\":1773:1882   */\n            tag_90:\n                /* \"#utility.yul\":1854:1875   */\n              tag_128\n                /* \"#utility.yul\":1869:1874   */\n              dup2\n                /* \"#utility.yul\":1854:1875   */\n              tag_89\n              jump\t// in\n            tag_128:\n                /* \"#utility.yul\":1849:1852   */\n              dup3\n                /* \"#utility.yul\":1842:1876   */\n              mstore\n                /* \"#utility.yul\":1773:1882   */\n              pop\n              pop\n              jump\t// out\n                /* \"#utility.yul\":1888:2520   */\n            tag_24:\n                /* \"#utility.yul\":2079:2083   */\n              0x00\n                /* \"#utility.yul\":2117:2120   */\n              0x80\n                /* \"#utility.yul\":2106:2115   */\n              dup3\n                /* \"#utility.yul\":2102:2121   */\n              add\n                /* \"#utility.yul\":2094:2121   */\n              swap1\n              pop\n                /* \"#utility.yul\":2167:2176   */\n              dup2\n                /* \"#utility.yul\":2161:2165   */\n              dup2\n                /* \"#utility.yul\":2157:2177   */\n              sub\n                /* \"#utility.yul\":2153:2154   */\n              0x00\n                /* \"#utility.yul\":2142:2151   */\n              dup4\n                /* \"#utility.yul\":2138:2155   */\n              add\n                /* \"#utility.yul\":2131:2178   */\n              mstore\n                /* \"#utility.yul\":2195:2273   */\n              tag_130\n                /* \"#utility.yul\":2268:2272   */\n              dup2\n                /* \"#utility.yul\":2259:2265   */\n              dup8\n                /* \"#utility.yul\":2195:2273   */\n              tag_86\n              jump\t// in\n            tag_130:\n                /* \"#utility.yul\":2187:2273   */\n              swap1\n              pop\n                /* \"#utility.yul\":2283:2355   */\n              tag_131\n                /* \"#utility.yul\":2351:2353   */\n              0x20\n                /* \"#utility.yul\":2340:2349   */\n              dup4\n                /* \"#utility.yul\":2336:2354   */\n              add\n                /* \"#utility.yul\":2327:2333   */\n              dup7\n                /* \"#utility.yul\":2283:2355   */\n              tag_88\n              jump\t// in\n            tag_131:\n                /* \"#utility.yul\":2365:2437   */\n              tag_132\n                /* \"#utility.yul\":2433:2435   */\n              0x40\n                /* \"#utility.yul\":2422:2431   */\n              dup4\n                /* \"#utility.yul\":2418:2436   */\n              add\n                /* \"#utility.yul\":2409:2415   */\n              dup6\n                /* \"#utility.yul\":2365:2437   */\n              tag_88\n              jump\t// in\n            tag_132:\n                /* \"#utility.yul\":2447:2513   */\n              tag_133\n                /* \"#utility.yul\":2509:2511   */\n              0x60\n                /* \"#utility.yul\":2498:2507   */\n              dup4\n                /* \"#utility.yul\":2494:2512   */\n              add\n                /* \"#utility.yul\":2485:2491   */\n              dup5\n                /* \"#utility.yul\":2447:2513   */\n              tag_90\n              jump\t// in\n            tag_133:\n                /* \"#utility.yul\":1888:2520   */\n              swap6\n              swap5\n              pop\n              pop\n              pop\n              pop\n              pop\n              jump\t// out\n                /* \"#utility.yul\":2526:2736   */\n            tag_31:\n                /* \"#utility.yul\":2613:2617   */\n              0x00\n                /* \"#utility.yul\":2651:2653   */\n              0x20\n                /* \"#utility.yul\":2640:2649   */\n              dup3\n                /* \"#utility.yul\":2636:2654   */\n              add\n                /* \"#utility.yul\":2628:2654   */\n              swap1\n              pop\n                /* \"#utility.yul\":2664:2729   */\n              tag_135\n                /* \"#utility.yul\":2726:2727   */\n              0x00\n                /* \"#utility.yul\":2715:2724   */\n              dup4\n                /* \"#utility.yul\":2711:2728   */\n              add\n                /* \"#utility.yul\":2702:2708   */\n              dup5\n                /* \"#utility.yul\":2664:2729   */\n              tag_90\n              jump\t// in\n            tag_135:\n                /* \"#utility.yul\":2526:2736   */\n              swap3\n              swap2\n              pop\n              pop\n              jump\t// out\n                /* \"#utility.yul\":2823:2940   */\n            tag_92:\n                /* \"#utility.yul\":2932:2933   */\n              0x00\n                /* \"#utility.yul\":2929:2930   */\n              dup1\n                /* \"#utility.yul\":2922:2934   */\n              revert\n                /* \"#utility.yul\":3069:3185   */\n            tag_94:\n                /* \"#utility.yul\":3139:3160   */\n              tag_140\n                /* \"#utility.yul\":3154:3159   */\n              dup2\n                /* \"#utility.yul\":3139:3160   */\n              tag_89\n              jump\t// in\n            tag_140:\n                /* \"#utility.yul\":3132:3137   */\n              dup2\n                /* \"#utility.yul\":3129:3161   */\n              eq\n                /* \"#utility.yul\":3119:3179   */\n              tag_141\n              jumpi\n                /* \"#utility.yul\":3175:3176   */\n              0x00\n                /* \"#utility.yul\":3172:3173   */\n              dup1\n                /* \"#utility.yul\":3165:3177   */\n              revert\n                /* \"#utility.yul\":3119:3179   */\n            tag_141:\n                /* \"#utility.yul\":3069:3185   */\n              pop\n              jump\t// out\n                /* \"#utility.yul\":3191:3324   */\n            tag_95:\n                /* \"#utility.yul\":3234:3239   */\n              0x00\n                /* \"#utility.yul\":3272:3278   */\n              dup2\n                /* \"#utility.yul\":3259:3279   */\n              calldataload\n                /* \"#utility.yul\":3250:3279   */\n              swap1\n              pop\n                /* \"#utility.yul\":3288:3318   */\n              tag_143\n                /* \"#utility.yul\":3312:3317   */\n              dup2\n                /* \"#utility.yul\":3288:3318   */\n              tag_94\n              jump\t// in\n            tag_143:\n                /* \"#utility.yul\":3191:3324   */\n              swap3\n              swap2\n              pop\n              pop\n              jump\t// out\n                /* \"#utility.yul\":3330:3452   */\n            tag_96:\n                /* \"#utility.yul\":3403:3427   */\n              tag_145\n                /* \"#utility.yul\":3421:3426   */\n              dup2\n                /* \"#utility.yul\":3403:3427   */\n              tag_87\n              jump\t// in\n            tag_145:\n                /* \"#utility.yul\":3396:3401   */\n              dup2\n                /* \"#utility.yul\":3393:3428   */\n              eq\n                /* \"#utility.yul\":3383:3446   */\n              tag_146\n              jumpi\n                /* \"#utility.yul\":3442:3443   */\n              0x00\n                /* \"#utility.yul\":3439:3440   */\n              dup1\n                /* \"#utility.yul\":3432:3444   */\n              revert\n                /* \"#utility.yul\":3383:3446   */\n            tag_146:\n                /* \"#utility.yul\":3330:3452   */\n              pop\n              jump\t// out\n                /* \"#utility.yul\":3458:3597   */\n            tag_97:\n                /* \"#utility.yul\":3504:3509   */\n              0x00\n                /* \"#utility.yul\":3542:3548   */\n              dup2\n                /* \"#utility.yul\":3529:3549   */\n              calldataload\n                /* \"#utility.yul\":3520:3549   */\n              swap1\n              pop\n                /* \"#utility.yul\":3558:3591   */\n              tag_148\n                /* \"#utility.yul\":3585:3590   */\n              dup2\n                /* \"#utility.yul\":3558:3591   */\n              tag_96\n              jump\t// in\n            tag_148:\n                /* \"#utility.yul\":3458:3597   */\n              swap3\n              swap2\n              pop\n              pop\n              jump\t// out\n                /* \"#utility.yul\":3603:4071   */\n            tag_37:\n                /* \"#utility.yul\":3668:3674   */\n              0x00\n                /* \"#utility.yul\":3676:3682   */\n              dup1\n                /* \"#utility.yul\":3725:3727   */\n              0x40\n                /* \"#utility.yul\":3713:3722   */\n              dup4\n                /* \"#utility.yul\":3704:3711   */\n              dup6\n                /* \"#utility.yul\":3700:3723   */\n              sub\n                /* \"#utility.yul\":3696:3728   */\n              slt\n                /* \"#utility.yul\":3693:3812   */\n              iszero\n              tag_150\n              jumpi\n                /* \"#utility.yul\":3731:3810   */\n              tag_151\n              tag_92\n              jump\t// in\n            tag_151:\n                /* \"#utility.yul\":3693:3812   */\n            tag_150:\n                /* \"#utility.yul\":3851:3852   */\n              0x00\n                /* \"#utility.yul\":3876:3926   */\n              tag_152\n                /* \"#utility.yul\":3918:3925   */\n              dup6\n                /* \"#utility.yul\":3909:3915   */\n              dup3\n                /* \"#utility.yul\":3898:3907   */\n              dup7\n                /* \"#utility.yul\":3894:3916   */\n              add\n                /* \"#utility.yul\":3876:3926   */\n              tag_95\n              jump\t// in\n            tag_152:\n                /* \"#utility.yul\":3866:3926   */\n              swap3\n              pop\n                /* \"#utility.yul\":3822:3936   */\n              pop\n                /* \"#utility.yul\":3975:3977   */\n              0x20\n                /* \"#utility.yul\":4001:4054   */\n              tag_153\n                /* \"#utility.yul\":4046:4053   */\n              dup6\n                /* \"#utility.yul\":4037:4043   */\n              dup3\n                /* \"#utility.yul\":4026:4035   */\n              dup7\n                /* \"#utility.yul\":4022:4044   */\n              add\n                /* \"#utility.yul\":4001:4054   */\n              tag_97\n              jump\t// in\n            tag_153:\n                /* \"#utility.yul\":3991:4054   */\n              swap2\n              pop\n                /* \"#utility.yul\":3946:4064   */\n              pop\n                /* \"#utility.yul\":3603:4071   */\n              swap3\n              pop\n              swap3\n              swap1\n              pop\n              jump\t// out\n                /* \"#utility.yul\":4077:4257   */\n            tag_98:\n                /* \"#utility.yul\":4125:4202   */\n              0x4e487b7100000000000000000000000000000000000000000000000000000000\n                /* \"#utility.yul\":4122:4123   */\n              0x00\n                /* \"#utility.yul\":4115:4203   */\n              mstore\n                /* \"#utility.yul\":4222:4226   */\n              0x22\n                /* \"#utility.yul\":4219:4220   */\n              0x04\n                /* \"#utility.yul\":4212:4227   */\n              mstore\n                /* \"#utility.yul\":4246:4250   */\n              0x24\n                /* \"#utility.yul\":4243:4244   */\n              0x00\n                /* \"#utility.yul\":4236:4251   */\n              revert\n                /* \"#utility.yul\":4263:4583   */\n            tag_45:\n                /* \"#utility.yul\":4307:4313   */\n              0x00\n                /* \"#utility.yul\":4344:4345   */\n              0x02\n                /* \"#utility.yul\":4338:4342   */\n              dup3\n                /* \"#utility.yul\":4334:4346   */\n              div\n                /* \"#utility.yul\":4324:4346   */\n              swap1\n              pop\n                /* \"#utility.yul\":4391:4392   */\n              0x01\n                /* \"#utility.yul\":4385:4389   */\n              dup3\n                /* \"#utility.yul\":4381:4393   */\n              and\n                /* \"#utility.yul\":4412:4430   */\n              dup1\n                /* \"#utility.yul\":4402:4483   */\n              tag_156\n              jumpi\n                /* \"#utility.yul\":4468:4472   */\n              0x7f\n                /* \"#utility.yul\":4460:4466   */\n              dup3\n                /* \"#utility.yul\":4456:4473   */\n              and\n                /* \"#utility.yul\":4446:4473   */\n              swap2\n              pop\n                /* \"#utility.yul\":4402:4483   */\n            tag_156:\n                /* \"#utility.yul\":4530:4532   */\n              0x20\n                /* \"#utility.yul\":4522:4528   */\n              dup3\n                /* \"#utility.yul\":4519:4533   */\n              lt\n                /* \"#utility.yul\":4499:4517   */\n              dup2\n                /* \"#utility.yul\":4496:4534   */\n              sub\n                /* \"#utility.yul\":4493:4577   */\n              tag_157\n              jumpi\n                /* \"#utility.yul\":4549:4567   */\n              tag_158\n              tag_98\n              jump\t// in\n            tag_158:\n                /* \"#utility.yul\":4493:4577   */\n            tag_157:\n                /* \"#utility.yul\":4314:4583   */\n              pop\n                /* \"#utility.yul\":4263:4583   */\n              swap2\n              swap1\n              pop\n              jump\t// out\n                /* \"#utility.yul\":4589:4755   */\n            tag_99:\n                /* \"#utility.yul\":4729:4747   */\n              0x566f74696e672068617320656e64656400000000000000000000000000000000\n                /* \"#utility.yul\":4725:4726   */\n              0x00\n                /* \"#utility.yul\":4717:4723   */\n              dup3\n                /* \"#utility.yul\":4713:4727   */\n              add\n                /* \"#utility.yul\":4706:4748   */\n              mstore\n                /* \"#utility.yul\":4589:4755   */\n              pop\n              jump\t// out\n                /* \"#utility.yul\":4761:5127   */\n            tag_100:\n                /* \"#utility.yul\":4903:4906   */\n              0x00\n                /* \"#utility.yul\":4924:4991   */\n              tag_161\n                /* \"#utility.yul\":4988:4990   */\n              0x10\n                /* \"#utility.yul\":4983:4986   */\n              dup4\n                /* \"#utility.yul\":4924:4991   */\n              tag_83\n              jump\t// in\n            tag_161:\n                /* \"#utility.yul\":4917:4991   */\n              swap2\n              pop\n                /* \"#utility.yul\":5000:5093   */\n              tag_162\n                /* \"#utility.yul\":5089:5092   */\n              dup3\n                /* \"#utility.yul\":5000:5093   */\n              tag_99\n              jump\t// in\n            tag_162:\n                /* \"#utility.yul\":5118:5120   */\n              0x20\n                /* \"#utility.yul\":5113:5116   */\n              dup3\n                /* \"#utility.yul\":5109:5121   */\n              add\n                /* \"#utility.yul\":5102:5121   */\n              swap1\n              pop\n                /* \"#utility.yul\":4761:5127   */\n              swap2\n              swap1\n              pop\n              jump\t// out\n                /* \"#utility.yul\":5133:5552   */\n            tag_63:\n                /* \"#utility.yul\":5299:5303   */\n              0x00\n                /* \"#utility.yul\":5337:5339   */\n              0x20\n                /* \"#utility.yul\":5326:5335   */\n              dup3\n                /* \"#utility.yul\":5322:5340   */\n              add\n                /* \"#utility.yul\":5314:5340   */\n              swap1\n              pop\n                /* \"#utility.yul\":5386:5395   */\n              dup2\n                /* \"#utility.yul\":5380:5384   */\n              dup2\n                /* \"#utility.yul\":5376:5396   */\n              sub\n                /* \"#utility.yul\":5372:5373   */\n              0x00\n                /* \"#utility.yul\":5361:5370   */\n              dup4\n                /* \"#utility.yul\":5357:5374   */\n              add\n                /* \"#utility.yul\":5350:5397   */\n              mstore\n                /* \"#utility.yul\":5414:5545   */\n              tag_164\n                /* \"#utility.yul\":5540:5544   */\n              dup2\n                /* \"#utility.yul\":5414:5545   */\n              tag_100\n              jump\t// in\n            tag_164:\n                /* \"#utility.yul\":5406:5545   */\n              swap1\n              pop\n                /* \"#utility.yul\":5133:5552   */\n              swap2\n              swap1\n              pop\n              jump\t// out\n                /* \"#utility.yul\":5558:5738   */\n            tag_101:\n                /* \"#utility.yul\":5606:5683   */\n              0x4e487b7100000000000000000000000000000000000000000000000000000000\n                /* \"#utility.yul\":5603:5604   */\n              0x00\n                /* \"#utility.yul\":5596:5684   */\n              mstore\n                /* \"#utility.yul\":5703:5707   */\n              0x11\n                /* \"#utility.yul\":5700:5701   */\n              0x04\n                /* \"#utility.yul\":5693:5708   */\n              mstore\n                /* \"#utility.yul\":5727:5731   */\n              0x24\n                /* \"#utility.yul\":5724:5725   */\n              0x00\n                /* \"#utility.yul\":5717:5732   */\n              revert\n                /* \"#utility.yul\":5744:5935   */\n            tag_68:\n                /* \"#utility.yul\":5784:5787   */\n              0x00\n                /* \"#utility.yul\":5803:5823   */\n              tag_167\n                /* \"#utility.yul\":5821:5822   */\n              dup3\n                /* \"#utility.yul\":5803:5823   */\n              tag_87\n              jump\t// in\n            tag_167:\n                /* \"#utility.yul\":5798:5823   */\n              swap2\n              pop\n                /* \"#utility.yul\":5837:5857   */\n              tag_168\n                /* \"#utility.yul\":5855:5856   */\n              dup4\n                /* \"#utility.yul\":5837:5857   */\n              tag_87\n              jump\t// in\n            tag_168:\n                /* \"#utility.yul\":5832:5857   */\n              swap3\n              pop\n                /* \"#utility.yul\":5880:5881   */\n              dup3\n                /* \"#utility.yul\":5877:5878   */\n              dup3\n                /* \"#utility.yul\":5873:5882   */\n              add\n                /* \"#utility.yul\":5866:5882   */\n              swap1\n              pop\n                /* \"#utility.yul\":5901:5904   */\n              dup1\n                /* \"#utility.yul\":5898:5899   */\n              dup3\n                /* \"#utility.yul\":5895:5905   */\n              gt\n                /* \"#utility.yul\":5892:5928   */\n              iszero\n              tag_169\n              jumpi\n                /* \"#utility.yul\":5908:5926   */\n              tag_170\n              tag_101\n              jump\t// in\n            tag_170:\n                /* \"#utility.yul\":5892:5928   */\n            tag_169:\n                /* \"#utility.yul\":5744:5935   */\n              swap3\n              swap2\n              pop\n              pop\n              jump\t// out\n                /* \"#utility.yul\":5941:6117   */\n            tag_102:\n                /* \"#utility.yul\":6081:6109   */\n              0x566f74696e6720706572696f64206e6f7420796574206f766572000000000000\n                /* \"#utility.yul\":6077:6078   */\n              0x00\n                /* \"#utility.yul\":6069:6075   */\n              dup3\n                /* \"#utility.yul\":6065:6079   */\n              add\n                /* \"#utility.yul\":6058:6110   */\n              mstore\n                /* \"#utility.yul\":5941:6117   */\n              pop\n              jump\t// out\n                /* \"#utility.yul\":6123:6489   */\n            tag_103:\n                /* \"#utility.yul\":6265:6268   */\n              0x00\n                /* \"#utility.yul\":6286:6353   */\n              tag_173\n                /* \"#utility.yul\":6350:6352   */\n              0x1a\n                /* \"#utility.yul\":6345:6348   */\n              dup4\n                /* \"#utility.yul\":6286:6353   */\n              tag_83\n              jump\t// in\n            tag_173:\n                /* \"#utility.yul\":6279:6353   */\n              swap2\n              pop\n                /* \"#utility.yul\":6362:6455   */\n              tag_174\n                /* \"#utility.yul\":6451:6454   */\n              dup3\n                /* \"#utility.yul\":6362:6455   */\n              tag_102\n              jump\t// in\n            tag_174:\n                /* \"#utility.yul\":6480:6482   */\n              0x20\n                /* \"#utility.yul\":6475:6478   */\n              dup3\n                /* \"#utility.yul\":6471:6483   */\n              add\n                /* \"#utility.yul\":6464:6483   */\n              swap1\n              pop\n                /* \"#utility.yul\":6123:6489   */\n              swap2\n              swap1\n              pop\n              jump\t// out\n                /* \"#utility.yul\":6495:6914   */\n            tag_74:\n                /* \"#utility.yul\":6661:6665   */\n              0x00\n                /* \"#utility.yul\":6699:6701   */\n              0x20\n                /* \"#utility.yul\":6688:6697   */\n              dup3\n                /* \"#utility.yul\":6684:6702   */\n              add\n                /* \"#utility.yul\":6676:6702   */\n              swap1\n              pop\n                /* \"#utility.yul\":6748:6757   */\n              dup2\n                /* \"#utility.yul\":6742:6746   */\n              dup2\n                /* \"#utility.yul\":6738:6758   */\n              sub\n                /* \"#utility.yul\":6734:6735   */\n              0x00\n                /* \"#utility.yul\":6723:6732   */\n              dup4\n                /* \"#utility.yul\":6719:6736   */\n              add\n                /* \"#utility.yul\":6712:6759   */\n              mstore\n                /* \"#utility.yul\":6776:6907   */\n              tag_176\n                /* \"#utility.yul\":6902:6906   */\n              dup2\n                /* \"#utility.yul\":6776:6907   */\n              tag_103\n              jump\t// in\n            tag_176:\n                /* \"#utility.yul\":6768:6907   */\n              swap1\n              pop\n                /* \"#utility.yul\":6495:6914   */\n              swap2\n              swap1\n              pop\n              jump\t// out\n                /* \"#utility.yul\":6920:7090   */\n            tag_104:\n                /* \"#utility.yul\":7060:7082   */\n              0x566f74696e6720616c726561647920656e646564000000000000000000000000\n                /* \"#utility.yul\":7056:7057   */\n              0x00\n                /* \"#utility.yul\":7048:7054   */\n              dup3\n                /* \"#utility.yul\":7044:7058   */\n              add\n                /* \"#utility.yul\":7037:7083   */\n              mstore\n                /* \"#utility.yul\":6920:7090   */\n              pop\n              jump\t// out\n                /* \"#utility.yul\":7096:7462   */\n            tag_105:\n                /* \"#utility.yul\":7238:7241   */\n              0x00\n                /* \"#utility.yul\":7259:7326   */\n              tag_179\n                /* \"#utility.yul\":7323:7325   */\n              0x14\n                /* \"#utility.yul\":7318:7321   */\n              dup4\n                /* \"#utility.yul\":7259:7326   */\n              tag_83\n              jump\t// in\n            tag_179:\n                /* \"#utility.yul\":7252:7326   */\n              swap2\n              pop\n                /* \"#utility.yul\":7335:7428   */\n              tag_180\n                /* \"#utility.yul\":7424:7427   */\n              dup3\n                /* \"#utility.yul\":7335:7428   */\n              tag_104\n              jump\t// in\n            tag_180:\n                /* \"#utility.yul\":7453:7455   */\n              0x20\n                /* \"#utility.yul\":7448:7451   */\n              dup3\n                /* \"#utility.yul\":7444:7456   */\n              add\n                /* \"#utility.yul\":7437:7456   */\n              swap1\n              pop\n                /* \"#utility.yul\":7096:7462   */\n              swap2\n              swap1\n              pop\n              jump\t// out\n                /* \"#utility.yul\":7468:7887   */\n            tag_77:\n                /* \"#utility.yul\":7634:7638   */\n              0x00\n                /* \"#utility.yul\":7672:7674   */\n              0x20\n                /* \"#utility.yul\":7661:7670   */\n              dup3\n                /* \"#utility.yul\":7657:7675   */\n              add\n                /* \"#utility.yul\":7649:7675   */\n              swap1\n              pop\n                /* \"#utility.yul\":7721:7730   */\n              dup2\n                /* \"#utility.yul\":7715:7719   */\n              dup2\n                /* \"#utility.yul\":7711:7731   */\n              sub\n                /* \"#utility.yul\":7707:7708   */\n              0x00\n                /* \"#utility.yul\":7696:7705   */\n              dup4\n                /* \"#utility.yul\":7692:7709   */\n              add\n                /* \"#utility.yul\":7685:7732   */\n              mstore\n                /* \"#utility.yul\":7749:7880   */\n              tag_182\n                /* \"#utility.yul\":7875:7879   */\n              dup2\n                /* \"#utility.yul\":7749:7880   */\n              tag_105\n              jump\t// in\n            tag_182:\n                /* \"#utility.yul\":7741:7880   */\n              swap1\n              pop\n                /* \"#utility.yul\":7468:7887   */\n              swap2\n              swap1\n              pop\n              jump\t// out\n                /* \"#utility.yul\":7893:8041   */\n            tag_106:\n                /* \"#utility.yul\":7995:8006   */\n              0x00\n                /* \"#utility.yul\":8032:8035   */\n              dup2\n                /* \"#utility.yul\":8017:8035   */\n              swap1\n              pop\n                /* \"#utility.yul\":7893:8041   */\n              swap3\n              swap2\n              pop\n              pop\n              jump\t// out\n                /* \"#utility.yul\":8047:8188   */\n            tag_107:\n                /* \"#utility.yul\":8096:8100   */\n              0x00\n                /* \"#utility.yul\":8119:8122   */\n              dup2\n                /* \"#utility.yul\":8111:8122   */\n              swap1\n              pop\n                /* \"#utility.yul\":8142:8145   */\n              dup2\n                /* \"#utility.yul\":8139:8140   */\n              0x00\n                /* \"#utility.yul\":8132:8146   */\n              mstore\n                /* \"#utility.yul\":8176:8180   */\n              0x20\n                /* \"#utility.yul\":8173:8174   */\n              0x00\n                /* \"#utility.yul\":8163:8181   */\n              keccak256\n                /* \"#utility.yul\":8155:8181   */\n              swap1\n              pop\n                /* \"#utility.yul\":8047:8188   */\n              swap2\n              swap1\n              pop\n              jump\t// out\n                /* \"#utility.yul\":8218:9092   */\n            tag_108:\n                /* \"#utility.yul\":8321:8324   */\n              0x00\n                /* \"#utility.yul\":8358:8363   */\n              dup2\n                /* \"#utility.yul\":8352:8364   */\n              sload\n                /* \"#utility.yul\":8387:8423   */\n              tag_186\n                /* \"#utility.yul\":8413:8422   */\n              dup2\n                /* \"#utility.yul\":8387:8423   */\n              tag_45\n              jump\t// in\n            tag_186:\n                /* \"#utility.yul\":8439:8528   */\n              tag_187\n                /* \"#utility.yul\":8521:8527   */\n              dup2\n                /* \"#utility.yul\":8516:8519   */\n              dup7\n                /* \"#utility.yul\":8439:8528   */\n              tag_106\n              jump\t// in\n            tag_187:\n                /* \"#utility.yul\":8432:8528   */\n              swap5\n              pop\n                /* \"#utility.yul\":8559:8560   */\n              0x01\n                /* \"#utility.yul\":8548:8557   */\n              dup3\n                /* \"#utility.yul\":8544:8561   */\n              and\n                /* \"#utility.yul\":8575:8576   */\n              0x00\n                /* \"#utility.yul\":8570:8736   */\n              dup2\n              eq\n              tag_189\n              jumpi\n                /* \"#utility.yul\":8750:8751   */\n              0x01\n                /* \"#utility.yul\":8745:9086   */\n              dup2\n              eq\n              tag_190\n              jumpi\n                /* \"#utility.yul\":8537:9086   */\n              jump(tag_188)\n                /* \"#utility.yul\":8570:8736   */\n            tag_189:\n                /* \"#utility.yul\":8654:8658   */\n              0xff\n                /* \"#utility.yul\":8650:8659   */\n              not\n                /* \"#utility.yul\":8639:8648   */\n              dup4\n                /* \"#utility.yul\":8635:8660   */\n              and\n                /* \"#utility.yul\":8630:8633   */\n              dup7\n                /* \"#utility.yul\":8623:8661   */\n              mstore\n                /* \"#utility.yul\":8716:8722   */\n              dup2\n                /* \"#utility.yul\":8709:8723   */\n              iszero\n                /* \"#utility.yul\":8702:8724   */\n              iszero\n                /* \"#utility.yul\":8694:8700   */\n              dup3\n                /* \"#utility.yul\":8690:8725   */\n              mul\n                /* \"#utility.yul\":8685:8688   */\n              dup7\n                /* \"#utility.yul\":8681:8726   */\n              add\n                /* \"#utility.yul\":8674:8726   */\n              swap4\n              pop\n                /* \"#utility.yul\":8570:8736   */\n              jump(tag_188)\n                /* \"#utility.yul\":8745:9086   */\n            tag_190:\n                /* \"#utility.yul\":8812:8850   */\n              tag_191\n                /* \"#utility.yul\":8844:8849   */\n              dup6\n                /* \"#utility.yul\":8812:8850   */\n              tag_107\n              jump\t// in\n            tag_191:\n                /* \"#utility.yul\":8872:8873   */\n              0x00\n                /* \"#utility.yul\":8886:9040   */\n            tag_192:\n                /* \"#utility.yul\":8900:8906   */\n              dup4\n                /* \"#utility.yul\":8897:8898   */\n              dup2\n                /* \"#utility.yul\":8894:8907   */\n              lt\n                /* \"#utility.yul\":8886:9040   */\n              iszero\n              tag_194\n              jumpi\n                /* \"#utility.yul\":8974:8981   */\n              dup2\n                /* \"#utility.yul\":8968:8982   */\n              sload\n                /* \"#utility.yul\":8964:8965   */\n              dup2\n                /* \"#utility.yul\":8959:8962   */\n              dup10\n                /* \"#utility.yul\":8955:8966   */\n              add\n                /* \"#utility.yul\":8948:8983   */\n              mstore\n                /* \"#utility.yul\":9024:9025   */\n              0x01\n                /* \"#utility.yul\":9015:9022   */\n              dup3\n                /* \"#utility.yul\":9011:9026   */\n              add\n                /* \"#utility.yul\":9000:9026   */\n              swap2\n              pop\n                /* \"#utility.yul\":8922:8926   */\n              0x20\n                /* \"#utility.yul\":8919:8920   */\n              dup2\n                /* \"#utility.yul\":8915:8927   */\n              add\n                /* \"#utility.yul\":8910:8927   */\n              swap1\n              pop\n                /* \"#utility.yul\":8886:9040   */\n              jump(tag_192)\n            tag_194:\n                /* \"#utility.yul\":9069:9075   */\n              dup4\n                /* \"#utility.yul\":9064:9067   */\n              dup9\n                /* \"#utility.yul\":9060:9076   */\n              add\n                /* \"#utility.yul\":9053:9076   */\n              swap6\n              pop\n                /* \"#utility.yul\":8752:9086   */\n              pop\n              pop\n                /* \"#utility.yul\":8537:9086   */\n            tag_188:\n              pop\n                /* \"#utility.yul\":8325:9092   */\n              pop\n              pop\n                /* \"#utility.yul\":8218:9092   */\n              swap3\n              swap2\n              pop\n              pop\n              jump\t// out\n                /* \"#utility.yul\":9098:9367   */\n            tag_79:\n                /* \"#utility.yul\":9227:9230   */\n              0x00\n                /* \"#utility.yul\":9249:9341   */\n              tag_196\n                /* \"#utility.yul\":9337:9340   */\n              dup3\n                /* \"#utility.yul\":9328:9334   */\n              dup5\n                /* \"#utility.yul\":9249:9341   */\n              tag_108\n              jump\t// in\n            tag_196:\n                /* \"#utility.yul\":9242:9341   */\n              swap2\n              pop\n                /* \"#utility.yul\":9358:9361   */\n              dup2\n                /* \"#utility.yul\":9351:9361   */\n              swap1\n              pop\n                /* \"#utility.yul\":9098:9367   */\n              swap3\n              swap2\n              pop\n              pop\n              jump\t// out\n                /* \"#utility.yul\":9373:9815   */\n            tag_81:\n                /* \"#utility.yul\":9522:9526   */\n              0x00\n                /* \"#utility.yul\":9560:9562   */\n              0x60\n                /* \"#utility.yul\":9549:9558   */\n              dup3\n                /* \"#utility.yul\":9545:9563   */\n              add\n                /* \"#utility.yul\":9537:9563   */\n              swap1\n              pop\n                /* \"#utility.yul\":9573:9644   */\n              tag_198\n                /* \"#utility.yul\":9641:9642   */\n              0x00\n                /* \"#utility.yul\":9630:9639   */\n              dup4\n                /* \"#utility.yul\":9626:9643   */\n              add\n                /* \"#utility.yul\":9617:9623   */\n              dup7\n                /* \"#utility.yul\":9573:9644   */\n              tag_88\n              jump\t// in\n            tag_198:\n                /* \"#utility.yul\":9654:9726   */\n              tag_199\n                /* \"#utility.yul\":9722:9724   */\n              0x20\n                /* \"#utility.yul\":9711:9720   */\n              dup4\n                /* \"#utility.yul\":9707:9725   */\n              add\n                /* \"#utility.yul\":9698:9704   */\n              dup6\n                /* \"#utility.yul\":9654:9726   */\n              tag_88\n              jump\t// in\n            tag_199:\n                /* \"#utility.yul\":9736:9808   */\n              tag_200\n                /* \"#utility.yul\":9804:9806   */\n              0x40\n                /* \"#utility.yul\":9793:9802   */\n              dup4\n                /* \"#utility.yul\":9789:9807   */\n              add\n                /* \"#utility.yul\":9780:9786   */\n              dup5\n                /* \"#utility.yul\":9736:9808   */\n              tag_88\n              jump\t// in\n            tag_200:\n                /* \"#utility.yul\":9373:9815   */\n              swap5\n              swap4\n              pop\n              pop\n              pop\n              pop\n              jump\t// out\n\n            auxdata: 0xa2646970667358221220a067eee021f94a6ff0acf6b2fdcf957b7e905c567bb976783dcb005f0b0798e064736f6c634300081a0033\n        }\n    }\n\n    auxdata: 0xa26469706673582212201cda983953f44a9cb4daa6ca5349ebfa50377a554f8cb9bd81932c709739688e64736f6c634300081a0033\n}\n\nsub_1: assembly {\n        /* \"Voting_Contracts/Voter.sol\":113:1231  contract Voter {... */\n      mstore(0x40, 0x80)\n      callvalue\n      dup1\n      iszero\n      tag_1\n      jumpi\n      0x00\n      dup1\n      revert\n    tag_1:\n      pop\n      dataSize(sub_0)\n      dup1\n      dataOffset(sub_0)\n      0x00\n      codecopy\n      0x00\n      return\n    stop\n\n    sub_0: assembly {\n            /* \"Voting_Contracts/Voter.sol\":113:1231  contract Voter {... */\n          mstore(0x40, 0x80)\n          callvalue\n          dup1\n          iszero\n          tag_1\n          jumpi\n          0x00\n          dup1\n          revert\n        tag_1:\n          pop\n          jumpi(tag_2, lt(calldatasize, 0x04))\n          shr(0xe0, calldataload(0x00))\n          dup1\n          0x12d320c5\n          eq\n          tag_3\n          jumpi\n          dup1\n          0x43859632\n          eq\n          tag_4\n          jumpi\n          dup1\n          0xdc296ae1\n          eq\n          tag_5\n          jumpi\n        tag_2:\n          0x00\n          dup1\n          revert\n            /* \"Voting_Contracts/Voter.sol\":447:1088  function castVote(Master masterContract, uint proposalId, bool voteYes) external onlyShareholders(masterContract) {... */\n        tag_3:\n          tag_6\n          0x04\n          dup1\n          calldatasize\n          sub\n          dup2\n          add\n          swap1\n          tag_7\n          swap2\n          swap1\n          tag_8\n          jump\t// in\n        tag_7:\n          tag_9\n          jump\t// in\n        tag_6:\n          stop\n            /* \"Voting_Contracts/Voter.sol\":135:192  mapping(uint => mapping(address => bool)) public hasVoted */\n        tag_4:\n          tag_10\n          0x04\n          dup1\n          calldatasize\n          sub\n          dup2\n          add\n          swap1\n          tag_11\n          swap2\n          swap1\n          tag_12\n          jump\t// in\n        tag_11:\n          tag_13\n          jump\t// in\n        tag_10:\n          mload(0x40)\n          tag_14\n          swap2\n          swap1\n          tag_15\n          jump\t// in\n        tag_14:\n          mload(0x40)\n          dup1\n          swap2\n          sub\n          swap1\n          return\n            /* \"Voting_Contracts/Voter.sol\":1096:1228  function hasUserVoted(uint proposalId, address user) public view returns (bool) {... */\n        tag_5:\n          tag_16\n          0x04\n          dup1\n          calldatasize\n          sub\n          dup2\n          add\n          swap1\n          tag_17\n          swap2\n          swap1\n          tag_12\n          jump\t// in\n        tag_17:\n          tag_18\n          jump\t// in\n        tag_16:\n          mload(0x40)\n          tag_19\n          swap2\n          swap1\n          tag_15\n          jump\t// in\n        tag_19:\n          mload(0x40)\n          dup1\n          swap2\n          sub\n          swap1\n          return\n            /* \"Voting_Contracts/Voter.sol\":447:1088  function castVote(Master masterContract, uint proposalId, bool voteYes) external onlyShareholders(masterContract) {... */\n        tag_9:\n            /* \"Voting_Contracts/Voter.sol\":545:559  masterContract */\n          dup3\n            /* \"Voting_Contracts/Voter.sol\":384:385  0 */\n          0x00\n            /* \"Voting_Contracts/Voter.sol\":337:351  masterContract */\n          dup2\n            /* \"Voting_Contracts/Voter.sol\":337:369  masterContract.shareholderTokens */\n          0xffffffffffffffffffffffffffffffffffffffff\n          and\n          0x07e5678c\n            /* \"Voting_Contracts/Voter.sol\":370:380  msg.sender */\n          caller\n            /* \"Voting_Contracts/Voter.sol\":337:381  masterContract.shareholderTokens(msg.sender) */\n          mload(0x40)\n          dup3\n          0xffffffff\n          and\n          0xe0\n          shl\n          dup2\n          mstore\n          0x04\n          add\n          tag_21\n          swap2\n          swap1\n          tag_22\n          jump\t// in\n        tag_21:\n          0x20\n          mload(0x40)\n          dup1\n          dup4\n          sub\n          dup2\n          dup7\n          gas\n          staticcall\n          iszero\n          dup1\n          iszero\n          tag_24\n          jumpi\n          returndatasize\n          0x00\n          dup1\n          returndatacopy\n          revert(0x00, returndatasize)\n        tag_24:\n          pop\n          pop\n          pop\n          pop\n          mload(0x40)\n          returndatasize\n          not(0x1f)\n          0x1f\n          dup3\n          add\n          and\n          dup3\n          add\n          dup1\n          0x40\n          mstore\n          pop\n          dup2\n          add\n          swap1\n          tag_25\n          swap2\n          swap1\n          tag_26\n          jump\t// in\n        tag_25:\n            /* \"Voting_Contracts/Voter.sol\":337:385  masterContract.shareholderTokens(msg.sender) > 0 */\n          gt\n            /* \"Voting_Contracts/Voter.sol\":329:419  require(masterContract.shareholderTokens(msg.sender) > 0, \"You do not have voting rights\") */\n          tag_27\n          jumpi\n          mload(0x40)\n          0x08c379a000000000000000000000000000000000000000000000000000000000\n          dup2\n          mstore\n          0x04\n          add\n          tag_28\n          swap1\n          tag_29\n          jump\t// in\n        tag_28:\n          mload(0x40)\n          dup1\n          swap2\n          sub\n          swap1\n          revert\n        tag_27:\n            /* \"Voting_Contracts/Voter.sol\":572:589  Proposal proposal */\n          0x00\n            /* \"Voting_Contracts/Voter.sol\":592:606  masterContract */\n          dup5\n            /* \"Voting_Contracts/Voter.sol\":592:618  masterContract.getProposal */\n          0xffffffffffffffffffffffffffffffffffffffff\n          and\n          0xc7f758a8\n            /* \"Voting_Contracts/Voter.sol\":619:629  proposalId */\n          dup6\n            /* \"Voting_Contracts/Voter.sol\":592:630  masterContract.getProposal(proposalId) */\n          mload(0x40)\n          dup3\n          0xffffffff\n          and\n          0xe0\n          shl\n          dup2\n          mstore\n          0x04\n          add\n          tag_31\n          swap2\n          swap1\n          tag_32\n          jump\t// in\n        tag_31:\n          0x20\n          mload(0x40)\n          dup1\n          dup4\n          sub\n          dup2\n          dup7\n          gas\n          staticcall\n          iszero\n          dup1\n          iszero\n          tag_34\n          jumpi\n          returndatasize\n          0x00\n          dup1\n          returndatacopy\n          revert(0x00, returndatasize)\n        tag_34:\n          pop\n          pop\n          pop\n          pop\n          mload(0x40)\n          returndatasize\n          not(0x1f)\n          0x1f\n          dup3\n          add\n          and\n          dup3\n          add\n          dup1\n          0x40\n          mstore\n          pop\n          dup2\n          add\n          swap1\n          tag_35\n          swap2\n          swap1\n          tag_36\n          jump\t// in\n        tag_35:\n            /* \"Voting_Contracts/Voter.sol\":572:630  Proposal proposal = masterContract.getProposal(proposalId) */\n          swap1\n          pop\n            /* \"Voting_Contracts/Voter.sol\":667:675  proposal */\n          dup1\n            /* \"Voting_Contracts/Voter.sol\":667:684  proposal.deadline */\n          0xffffffffffffffffffffffffffffffffffffffff\n          and\n          0x29dcb0cf\n            /* \"Voting_Contracts/Voter.sol\":667:686  proposal.deadline() */\n          mload(0x40)\n          dup2\n          0xffffffff\n          and\n          0xe0\n          shl\n          dup2\n          mstore\n          0x04\n          add\n          0x20\n          mload(0x40)\n          dup1\n          dup4\n          sub\n          dup2\n          dup7\n          gas\n          staticcall\n          iszero\n          dup1\n          iszero\n          tag_38\n          jumpi\n          returndatasize\n          0x00\n          dup1\n          returndatacopy\n          revert(0x00, returndatasize)\n        tag_38:\n          pop\n          pop\n          pop\n          pop\n          mload(0x40)\n          returndatasize\n          not(0x1f)\n          0x1f\n          dup3\n          add\n          and\n          dup3\n          add\n          dup1\n          0x40\n          mstore\n          pop\n          dup2\n          add\n          swap1\n          tag_39\n          swap2\n          swap1\n          tag_26\n          jump\t// in\n        tag_39:\n            /* \"Voting_Contracts/Voter.sol\":649:664  block.timestamp */\n          timestamp\n            /* \"Voting_Contracts/Voter.sol\":649:686  block.timestamp < proposal.deadline() */\n          lt\n            /* \"Voting_Contracts/Voter.sol\":641:707  require(block.timestamp < proposal.deadline(), \"Voting has ended\") */\n          tag_40\n          jumpi\n          mload(0x40)\n          0x08c379a000000000000000000000000000000000000000000000000000000000\n          dup2\n          mstore\n          0x04\n          add\n          tag_41\n          swap1\n          tag_42\n          jump\t// in\n        tag_41:\n          mload(0x40)\n          dup1\n          swap2\n          sub\n          swap1\n          revert\n        tag_40:\n            /* \"Voting_Contracts/Voter.sol\":727:735  proposal */\n          dup1\n            /* \"Voting_Contracts/Voter.sol\":727:747  proposal.votingEnded */\n          0xffffffffffffffffffffffffffffffffffffffff\n          and\n          0x9d5a0529\n            /* \"Voting_Contracts/Voter.sol\":727:749  proposal.votingEnded() */\n          mload(0x40)\n          dup2\n          0xffffffff\n          and\n          0xe0\n          shl\n          dup2\n          mstore\n          0x04\n          add\n          0x20\n          mload(0x40)\n          dup1\n          dup4\n          sub\n          dup2\n          dup7\n          gas\n          staticcall\n          iszero\n          dup1\n          iszero\n          tag_44\n          jumpi\n          returndatasize\n          0x00\n          dup1\n          returndatacopy\n          revert(0x00, returndatasize)\n        tag_44:\n          pop\n          pop\n          pop\n          pop\n          mload(0x40)\n          returndatasize\n          not(0x1f)\n          0x1f\n          dup3\n          add\n          and\n          dup3\n          add\n          dup1\n          0x40\n          mstore\n          pop\n          dup2\n          add\n          swap1\n          tag_45\n          swap2\n          swap1\n          tag_46\n          jump\t// in\n        tag_45:\n            /* \"Voting_Contracts/Voter.sol\":726:749  !proposal.votingEnded() */\n          iszero\n            /* \"Voting_Contracts/Voter.sol\":718:770  require(!proposal.votingEnded(), \"Voting has ended\") */\n          tag_47\n          jumpi\n          mload(0x40)\n          0x08c379a000000000000000000000000000000000000000000000000000000000\n          dup2\n          mstore\n          0x04\n          add\n          tag_48\n          swap1\n          tag_42\n          jump\t// in\n        tag_48:\n          mload(0x40)\n          dup1\n          swap2\n          sub\n          swap1\n          revert\n        tag_47:\n            /* \"Voting_Contracts/Voter.sol\":783:794  uint weight */\n          0x00\n            /* \"Voting_Contracts/Voter.sol\":797:811  masterContract */\n          dup6\n            /* \"Voting_Contracts/Voter.sol\":797:829  masterContract.shareholderTokens */\n          0xffffffffffffffffffffffffffffffffffffffff\n          and\n          0x07e5678c\n            /* \"Voting_Contracts/Voter.sol\":830:840  msg.sender */\n          caller\n            /* \"Voting_Contracts/Voter.sol\":797:841  masterContract.shareholderTokens(msg.sender) */\n          mload(0x40)\n          dup3\n          0xffffffff\n          and\n          0xe0\n          shl\n          dup2\n          mstore\n          0x04\n          add\n          tag_49\n          swap2\n          swap1\n          tag_22\n          jump\t// in\n        tag_49:\n          0x20\n          mload(0x40)\n          dup1\n          dup4\n          sub\n          dup2\n          dup7\n          gas\n          staticcall\n          iszero\n          dup1\n          iszero\n          tag_51\n          jumpi\n          returndatasize\n          0x00\n          dup1\n          returndatacopy\n          revert(0x00, returndatasize)\n        tag_51:\n          pop\n          pop\n          pop\n          pop\n          mload(0x40)\n          returndatasize\n          not(0x1f)\n          0x1f\n          dup3\n          add\n          and\n          dup3\n          add\n          dup1\n          0x40\n          mstore\n          pop\n          dup2\n          add\n          swap1\n          tag_52\n          swap2\n          swap1\n          tag_26\n          jump\t// in\n        tag_52:\n            /* \"Voting_Contracts/Voter.sol\":783:841  uint weight = masterContract.shareholderTokens(msg.sender) */\n          swap1\n          pop\n            /* \"Voting_Contracts/Voter.sol\":861:869  hasVoted */\n          0x00\n            /* \"Voting_Contracts/Voter.sol\":861:881  hasVoted[proposalId] */\n          dup1\n            /* \"Voting_Contracts/Voter.sol\":870:880  proposalId */\n          dup7\n            /* \"Voting_Contracts/Voter.sol\":861:881  hasVoted[proposalId] */\n          dup2\n          mstore\n          0x20\n          add\n          swap1\n          dup2\n          mstore\n          0x20\n          add\n          0x00\n          keccak256\n            /* \"Voting_Contracts/Voter.sol\":861:893  hasVoted[proposalId][msg.sender] */\n          0x00\n            /* \"Voting_Contracts/Voter.sol\":882:892  msg.sender */\n          caller\n            /* \"Voting_Contracts/Voter.sol\":861:893  hasVoted[proposalId][msg.sender] */\n          0xffffffffffffffffffffffffffffffffffffffff\n          and\n          0xffffffffffffffffffffffffffffffffffffffff\n          and\n          dup2\n          mstore\n          0x20\n          add\n          swap1\n          dup2\n          mstore\n          0x20\n          add\n          0x00\n          keccak256\n          0x00\n          swap1\n          sload\n          swap1\n          0x0100\n          exp\n          swap1\n          div\n          0xff\n          and\n            /* \"Voting_Contracts/Voter.sol\":860:893  !hasVoted[proposalId][msg.sender] */\n          iszero\n            /* \"Voting_Contracts/Voter.sol\":852:920  require(!hasVoted[proposalId][msg.sender], \"You have already voted\") */\n          tag_53\n          jumpi\n          mload(0x40)\n          0x08c379a000000000000000000000000000000000000000000000000000000000\n          dup2\n          mstore\n          0x04\n          add\n          tag_54\n          swap1\n          tag_55\n          jump\t// in\n        tag_54:\n          mload(0x40)\n          dup1\n          swap2\n          sub\n          swap1\n          revert\n        tag_53:\n            /* \"Voting_Contracts/Voter.sol\":933:941  proposal */\n          dup2\n            /* \"Voting_Contracts/Voter.sol\":933:952  proposal.recordVote */\n          0xffffffffffffffffffffffffffffffffffffffff\n          and\n          0xb7156512\n            /* \"Voting_Contracts/Voter.sol\":953:960  voteYes */\n          dup6\n            /* \"Voting_Contracts/Voter.sol\":962:968  weight */\n          dup4\n            /* \"Voting_Contracts/Voter.sol\":933:969  proposal.recordVote(voteYes, weight) */\n          mload(0x40)\n          dup4\n          0xffffffff\n          and\n          0xe0\n          shl\n          dup2\n          mstore\n          0x04\n          add\n          tag_56\n          swap3\n          swap2\n          swap1\n          tag_57\n          jump\t// in\n        tag_56:\n          0x00\n          mload(0x40)\n          dup1\n          dup4\n          sub\n          dup2\n          0x00\n          dup8\n          dup1\n          extcodesize\n          iszero\n          dup1\n          iszero\n          tag_58\n          jumpi\n          0x00\n          dup1\n          revert\n        tag_58:\n          pop\n          gas\n          call\n          iszero\n          dup1\n          iszero\n          tag_60\n          jumpi\n          returndatasize\n          0x00\n          dup1\n          returndatacopy\n          revert(0x00, returndatasize)\n        tag_60:\n          pop\n          pop\n          pop\n          pop\n            /* \"Voting_Contracts/Voter.sol\":1015:1019  true */\n          0x01\n            /* \"Voting_Contracts/Voter.sol\":980:988  hasVoted */\n          0x00\n            /* \"Voting_Contracts/Voter.sol\":980:1000  hasVoted[proposalId] */\n          dup1\n            /* \"Voting_Contracts/Voter.sol\":989:999  proposalId */\n          dup8\n            /* \"Voting_Contracts/Voter.sol\":980:1000  hasVoted[proposalId] */\n          dup2\n          mstore\n          0x20\n          add\n          swap1\n          dup2\n          mstore\n          0x20\n          add\n          0x00\n          keccak256\n            /* \"Voting_Contracts/Voter.sol\":980:1012  hasVoted[proposalId][msg.sender] */\n          0x00\n            /* \"Voting_Contracts/Voter.sol\":1001:1011  msg.sender */\n          caller\n            /* \"Voting_Contracts/Voter.sol\":980:1012  hasVoted[proposalId][msg.sender] */\n          0xffffffffffffffffffffffffffffffffffffffff\n          and\n          0xffffffffffffffffffffffffffffffffffffffff\n          and\n          dup2\n          mstore\n          0x20\n          add\n          swap1\n          dup2\n          mstore\n          0x20\n          add\n          0x00\n          keccak256\n          0x00\n            /* \"Voting_Contracts/Voter.sol\":980:1019  hasVoted[proposalId][msg.sender] = true */\n          0x0100\n          exp\n          dup2\n          sload\n          dup2\n          0xff\n          mul\n          not\n          and\n          swap1\n          dup4\n          iszero\n          iszero\n          mul\n          or\n          swap1\n          sstore\n          pop\n            /* \"Voting_Contracts/Voter.sol\":1037:1080  VoteCasted(proposalId, msg.sender, voteYes) */\n          0x5aaa9aad7433112662b9e5ae23b96ed62b00035f413ab908c55607284e0804e2\n            /* \"Voting_Contracts/Voter.sol\":1048:1058  proposalId */\n          dup6\n            /* \"Voting_Contracts/Voter.sol\":1060:1070  msg.sender */\n          caller\n            /* \"Voting_Contracts/Voter.sol\":1072:1079  voteYes */\n          dup7\n            /* \"Voting_Contracts/Voter.sol\":1037:1080  VoteCasted(proposalId, msg.sender, voteYes) */\n          mload(0x40)\n          tag_61\n          swap4\n          swap3\n          swap2\n          swap1\n          tag_62\n          jump\t// in\n        tag_61:\n          mload(0x40)\n          dup1\n          swap2\n          sub\n          swap1\n          log1\n            /* \"Voting_Contracts/Voter.sol\":561:1088  {... */\n          pop\n          pop\n            /* \"Voting_Contracts/Voter.sol\":447:1088  function castVote(Master masterContract, uint proposalId, bool voteYes) external onlyShareholders(masterContract) {... */\n          pop\n          pop\n          pop\n          pop\n          jump\t// out\n            /* \"Voting_Contracts/Voter.sol\":135:192  mapping(uint => mapping(address => bool)) public hasVoted */\n        tag_13:\n          mstore(0x20, 0x00)\n          dup2\n          0x00\n          mstore\n          mstore(0x20, keccak256(0x00, 0x40))\n          dup1\n          0x00\n          mstore\n          keccak256(0x00, 0x40)\n          0x00\n          swap2\n          pop\n          swap2\n          pop\n          swap1\n          sload\n          swap1\n          0x0100\n          exp\n          swap1\n          div\n          0xff\n          and\n          dup2\n          jump\t// out\n            /* \"Voting_Contracts/Voter.sol\":1096:1228  function hasUserVoted(uint proposalId, address user) public view returns (bool) {... */\n        tag_18:\n            /* \"Voting_Contracts/Voter.sol\":1170:1174  bool */\n          0x00\n            /* \"Voting_Contracts/Voter.sol\":1194:1202  hasVoted */\n          dup1\n            /* \"Voting_Contracts/Voter.sol\":1194:1214  hasVoted[proposalId] */\n          0x00\n            /* \"Voting_Contracts/Voter.sol\":1203:1213  proposalId */\n          dup5\n            /* \"Voting_Contracts/Voter.sol\":1194:1214  hasVoted[proposalId] */\n          dup2\n          mstore\n          0x20\n          add\n          swap1\n          dup2\n          mstore\n          0x20\n          add\n          0x00\n          keccak256\n            /* \"Voting_Contracts/Voter.sol\":1194:1220  hasVoted[proposalId][user] */\n          0x00\n            /* \"Voting_Contracts/Voter.sol\":1215:1219  user */\n          dup4\n            /* \"Voting_Contracts/Voter.sol\":1194:1220  hasVoted[proposalId][user] */\n          0xffffffffffffffffffffffffffffffffffffffff\n          and\n          0xffffffffffffffffffffffffffffffffffffffff\n          and\n          dup2\n          mstore\n          0x20\n          add\n          swap1\n          dup2\n          mstore\n          0x20\n          add\n          0x00\n          keccak256\n          0x00\n          swap1\n          sload\n          swap1\n          0x0100\n          exp\n          swap1\n          div\n          0xff\n          and\n            /* \"Voting_Contracts/Voter.sol\":1187:1220  return hasVoted[proposalId][user] */\n          swap1\n          pop\n            /* \"Voting_Contracts/Voter.sol\":1096:1228  function hasUserVoted(uint proposalId, address user) public view returns (bool) {... */\n          swap3\n          swap2\n          pop\n          pop\n          jump\t// out\n            /* \"#utility.yul\":88:205   */\n        tag_65:\n            /* \"#utility.yul\":197:198   */\n          0x00\n            /* \"#utility.yul\":194:195   */\n          dup1\n            /* \"#utility.yul\":187:199   */\n          revert\n            /* \"#utility.yul\":334:460   */\n        tag_67:\n            /* \"#utility.yul\":371:378   */\n          0x00\n            /* \"#utility.yul\":411:453   */\n          0xffffffffffffffffffffffffffffffffffffffff\n            /* \"#utility.yul\":404:409   */\n          dup3\n            /* \"#utility.yul\":400:454   */\n          and\n            /* \"#utility.yul\":389:454   */\n          swap1\n          pop\n            /* \"#utility.yul\":334:460   */\n          swap2\n          swap1\n          pop\n          jump\t// out\n            /* \"#utility.yul\":466:562   */\n        tag_68:\n            /* \"#utility.yul\":503:510   */\n          0x00\n            /* \"#utility.yul\":532:556   */\n          tag_101\n            /* \"#utility.yul\":550:555   */\n          dup3\n            /* \"#utility.yul\":532:556   */\n          tag_67\n          jump\t// in\n        tag_101:\n            /* \"#utility.yul\":521:556   */\n          swap1\n          pop\n            /* \"#utility.yul\":466:562   */\n          swap2\n          swap1\n          pop\n          jump\t// out\n            /* \"#utility.yul\":568:678   */\n        tag_69:\n            /* \"#utility.yul\":619:626   */\n          0x00\n            /* \"#utility.yul\":648:672   */\n          tag_103\n            /* \"#utility.yul\":666:671   */\n          dup3\n            /* \"#utility.yul\":648:672   */\n          tag_68\n          jump\t// in\n        tag_103:\n            /* \"#utility.yul\":637:672   */\n          swap1\n          pop\n            /* \"#utility.yul\":568:678   */\n          swap2\n          swap1\n          pop\n          jump\t// out\n            /* \"#utility.yul\":684:834   */\n        tag_70:\n            /* \"#utility.yul\":771:809   */\n          tag_105\n            /* \"#utility.yul\":803:808   */\n          dup2\n            /* \"#utility.yul\":771:809   */\n          tag_69\n          jump\t// in\n        tag_105:\n            /* \"#utility.yul\":764:769   */\n          dup2\n            /* \"#utility.yul\":761:810   */\n          eq\n            /* \"#utility.yul\":751:828   */\n          tag_106\n          jumpi\n            /* \"#utility.yul\":824:825   */\n          0x00\n            /* \"#utility.yul\":821:822   */\n          dup1\n            /* \"#utility.yul\":814:826   */\n          revert\n            /* \"#utility.yul\":751:828   */\n        tag_106:\n            /* \"#utility.yul\":684:834   */\n          pop\n          jump\t// out\n            /* \"#utility.yul\":840:1007   */\n        tag_71:\n            /* \"#utility.yul\":900:905   */\n          0x00\n            /* \"#utility.yul\":938:944   */\n          dup2\n            /* \"#utility.yul\":925:945   */\n          calldataload\n            /* \"#utility.yul\":916:945   */\n          swap1\n          pop\n            /* \"#utility.yul\":954:1001   */\n          tag_108\n            /* \"#utility.yul\":995:1000   */\n          dup2\n            /* \"#utility.yul\":954:1001   */\n          tag_70\n          jump\t// in\n        tag_108:\n            /* \"#utility.yul\":840:1007   */\n          swap3\n          swap2\n          pop\n          pop\n          jump\t// out\n            /* \"#utility.yul\":1013:1090   */\n        tag_72:\n            /* \"#utility.yul\":1050:1057   */\n          0x00\n            /* \"#utility.yul\":1079:1084   */\n          dup2\n            /* \"#utility.yul\":1068:1084   */\n          swap1\n          pop\n            /* \"#utility.yul\":1013:1090   */\n          swap2\n          swap1\n          pop\n          jump\t// out\n            /* \"#utility.yul\":1096:1218   */\n        tag_73:\n            /* \"#utility.yul\":1169:1193   */\n          tag_111\n            /* \"#utility.yul\":1187:1192   */\n          dup2\n            /* \"#utility.yul\":1169:1193   */\n          tag_72\n          jump\t// in\n        tag_111:\n            /* \"#utility.yul\":1162:1167   */\n          dup2\n            /* \"#utility.yul\":1159:1194   */\n          eq\n            /* \"#utility.yul\":1149:1212   */\n          tag_112\n          jumpi\n            /* \"#utility.yul\":1208:1209   */\n          0x00\n            /* \"#utility.yul\":1205:1206   */\n          dup1\n            /* \"#utility.yul\":1198:1210   */\n          revert\n            /* \"#utility.yul\":1149:1212   */\n        tag_112:\n            /* \"#utility.yul\":1096:1218   */\n          pop\n          jump\t// out\n            /* \"#utility.yul\":1224:1363   */\n        tag_74:\n            /* \"#utility.yul\":1270:1275   */\n          0x00\n            /* \"#utility.yul\":1308:1314   */\n          dup2\n            /* \"#utility.yul\":1295:1315   */\n          calldataload\n            /* \"#utility.yul\":1286:1315   */\n          swap1\n          pop\n            /* \"#utility.yul\":1324:1357   */\n          tag_114\n            /* \"#utility.yul\":1351:1356   */\n          dup2\n            /* \"#utility.yul\":1324:1357   */\n          tag_73\n          jump\t// in\n        tag_114:\n            /* \"#utility.yul\":1224:1363   */\n          swap3\n          swap2\n          pop\n          pop\n          jump\t// out\n            /* \"#utility.yul\":1369:1459   */\n        tag_75:\n            /* \"#utility.yul\":1403:1410   */\n          0x00\n            /* \"#utility.yul\":1446:1451   */\n          dup2\n            /* \"#utility.yul\":1439:1452   */\n          iszero\n            /* \"#utility.yul\":1432:1453   */\n          iszero\n            /* \"#utility.yul\":1421:1453   */\n          swap1\n          pop\n            /* \"#utility.yul\":1369:1459   */\n          swap2\n          swap1\n          pop\n          jump\t// out\n            /* \"#utility.yul\":1465:1581   */\n        tag_76:\n            /* \"#utility.yul\":1535:1556   */\n          tag_117\n            /* \"#utility.yul\":1550:1555   */\n          dup2\n            /* \"#utility.yul\":1535:1556   */\n          tag_75\n          jump\t// in\n        tag_117:\n            /* \"#utility.yul\":1528:1533   */\n          dup2\n            /* \"#utility.yul\":1525:1557   */\n          eq\n            /* \"#utility.yul\":1515:1575   */\n          tag_118\n          jumpi\n            /* \"#utility.yul\":1571:1572   */\n          0x00\n            /* \"#utility.yul\":1568:1569   */\n          dup1\n            /* \"#utility.yul\":1561:1573   */\n          revert\n            /* \"#utility.yul\":1515:1575   */\n        tag_118:\n            /* \"#utility.yul\":1465:1581   */\n          pop\n          jump\t// out\n            /* \"#utility.yul\":1587:1720   */\n        tag_77:\n            /* \"#utility.yul\":1630:1635   */\n          0x00\n            /* \"#utility.yul\":1668:1674   */\n          dup2\n            /* \"#utility.yul\":1655:1675   */\n          calldataload\n            /* \"#utility.yul\":1646:1675   */\n          swap1\n          pop\n            /* \"#utility.yul\":1684:1714   */\n          tag_120\n            /* \"#utility.yul\":1708:1713   */\n          dup2\n            /* \"#utility.yul\":1684:1714   */\n          tag_76\n          jump\t// in\n        tag_120:\n            /* \"#utility.yul\":1587:1720   */\n          swap3\n          swap2\n          pop\n          pop\n          jump\t// out\n            /* \"#utility.yul\":1726:2367   */\n        tag_8:\n            /* \"#utility.yul\":1814:1820   */\n          0x00\n            /* \"#utility.yul\":1822:1828   */\n          dup1\n            /* \"#utility.yul\":1830:1836   */\n          0x00\n            /* \"#utility.yul\":1879:1881   */\n          0x60\n            /* \"#utility.yul\":1867:1876   */\n          dup5\n            /* \"#utility.yul\":1858:1865   */\n          dup7\n            /* \"#utility.yul\":1854:1877   */\n          sub\n            /* \"#utility.yul\":1850:1882   */\n          slt\n            /* \"#utility.yul\":1847:1966   */\n          iszero\n          tag_122\n          jumpi\n            /* \"#utility.yul\":1885:1964   */\n          tag_123\n          tag_65\n          jump\t// in\n        tag_123:\n            /* \"#utility.yul\":1847:1966   */\n        tag_122:\n            /* \"#utility.yul\":2005:2006   */\n          0x00\n            /* \"#utility.yul\":2030:2097   */\n          tag_124\n            /* \"#utility.yul\":2089:2096   */\n          dup7\n            /* \"#utility.yul\":2080:2086   */\n          dup3\n            /* \"#utility.yul\":2069:2078   */\n          dup8\n            /* \"#utility.yul\":2065:2087   */\n          add\n            /* \"#utility.yul\":2030:2097   */\n          tag_71\n          jump\t// in\n        tag_124:\n            /* \"#utility.yul\":2020:2097   */\n          swap4\n          pop\n            /* \"#utility.yul\":1976:2107   */\n          pop\n            /* \"#utility.yul\":2146:2148   */\n          0x20\n            /* \"#utility.yul\":2172:2225   */\n          tag_125\n            /* \"#utility.yul\":2217:2224   */\n          dup7\n            /* \"#utility.yul\":2208:2214   */\n          dup3\n            /* \"#utility.yul\":2197:2206   */\n          dup8\n            /* \"#utility.yul\":2193:2215   */\n          add\n            /* \"#utility.yul\":2172:2225   */\n          tag_74\n          jump\t// in\n        tag_125:\n            /* \"#utility.yul\":2162:2225   */\n          swap3\n          pop\n            /* \"#utility.yul\":2117:2235   */\n          pop\n            /* \"#utility.yul\":2274:2276   */\n          0x40\n            /* \"#utility.yul\":2300:2350   */\n          tag_126\n            /* \"#utility.yul\":2342:2349   */\n          dup7\n            /* \"#utility.yul\":2333:2339   */\n          dup3\n            /* \"#utility.yul\":2322:2331   */\n          dup8\n            /* \"#utility.yul\":2318:2340   */\n          add\n            /* \"#utility.yul\":2300:2350   */\n          tag_77\n          jump\t// in\n        tag_126:\n            /* \"#utility.yul\":2290:2350   */\n          swap2\n          pop\n            /* \"#utility.yul\":2245:2360   */\n          pop\n            /* \"#utility.yul\":1726:2367   */\n          swap3\n          pop\n          swap3\n          pop\n          swap3\n          jump\t// out\n            /* \"#utility.yul\":2373:2495   */\n        tag_78:\n            /* \"#utility.yul\":2446:2470   */\n          tag_128\n            /* \"#utility.yul\":2464:2469   */\n          dup2\n            /* \"#utility.yul\":2446:2470   */\n          tag_68\n          jump\t// in\n        tag_128:\n            /* \"#utility.yul\":2439:2444   */\n          dup2\n            /* \"#utility.yul\":2436:2471   */\n          eq\n            /* \"#utility.yul\":2426:2489   */\n          tag_129\n          jumpi\n            /* \"#utility.yul\":2485:2486   */\n          0x00\n            /* \"#utility.yul\":2482:2483   */\n          dup1\n            /* \"#utility.yul\":2475:2487   */\n          revert\n            /* \"#utility.yul\":2426:2489   */\n        tag_129:\n            /* \"#utility.yul\":2373:2495   */\n          pop\n          jump\t// out\n            /* \"#utility.yul\":2501:2640   */\n        tag_79:\n            /* \"#utility.yul\":2547:2552   */\n          0x00\n            /* \"#utility.yul\":2585:2591   */\n          dup2\n            /* \"#utility.yul\":2572:2592   */\n          calldataload\n            /* \"#utility.yul\":2563:2592   */\n          swap1\n          pop\n            /* \"#utility.yul\":2601:2634   */\n          tag_131\n            /* \"#utility.yul\":2628:2633   */\n          dup2\n            /* \"#utility.yul\":2601:2634   */\n          tag_78\n          jump\t// in\n        tag_131:\n            /* \"#utility.yul\":2501:2640   */\n          swap3\n          swap2\n          pop\n          pop\n          jump\t// out\n            /* \"#utility.yul\":2646:3120   */\n        tag_12:\n            /* \"#utility.yul\":2714:2720   */\n          0x00\n            /* \"#utility.yul\":2722:2728   */\n          dup1\n            /* \"#utility.yul\":2771:2773   */\n          0x40\n            /* \"#utility.yul\":2759:2768   */\n          dup4\n            /* \"#utility.yul\":2750:2757   */\n          dup6\n            /* \"#utility.yul\":2746:2769   */\n          sub\n            /* \"#utility.yul\":2742:2774   */\n          slt\n            /* \"#utility.yul\":2739:2858   */\n          iszero\n          tag_133\n          jumpi\n            /* \"#utility.yul\":2777:2856   */\n          tag_134\n          tag_65\n          jump\t// in\n        tag_134:\n            /* \"#utility.yul\":2739:2858   */\n        tag_133:\n            /* \"#utility.yul\":2897:2898   */\n          0x00\n            /* \"#utility.yul\":2922:2975   */\n          tag_135\n            /* \"#utility.yul\":2967:2974   */\n          dup6\n            /* \"#utility.yul\":2958:2964   */\n          dup3\n            /* \"#utility.yul\":2947:2956   */\n          dup7\n            /* \"#utility.yul\":2943:2965   */\n          add\n            /* \"#utility.yul\":2922:2975   */\n          tag_74\n          jump\t// in\n        tag_135:\n            /* \"#utility.yul\":2912:2975   */\n          swap3\n          pop\n            /* \"#utility.yul\":2868:2985   */\n          pop\n            /* \"#utility.yul\":3024:3026   */\n          0x20\n            /* \"#utility.yul\":3050:3103   */\n          tag_136\n            /* \"#utility.yul\":3095:3102   */\n          dup6\n            /* \"#utility.yul\":3086:3092   */\n          dup3\n            /* \"#utility.yul\":3075:3084   */\n          dup7\n            /* \"#utility.yul\":3071:3093   */\n          add\n            /* \"#utility.yul\":3050:3103   */\n          tag_79\n          jump\t// in\n        tag_136:\n            /* \"#utility.yul\":3040:3103   */\n          swap2\n          pop\n            /* \"#utility.yul\":2995:3113   */\n          pop\n            /* \"#utility.yul\":2646:3120   */\n          swap3\n          pop\n          swap3\n          swap1\n          pop\n          jump\t// out\n            /* \"#utility.yul\":3126:3235   */\n        tag_80:\n            /* \"#utility.yul\":3207:3228   */\n          tag_138\n            /* \"#utility.yul\":3222:3227   */\n          dup2\n            /* \"#utility.yul\":3207:3228   */\n          tag_75\n          jump\t// in\n        tag_138:\n            /* \"#utility.yul\":3202:3205   */\n          dup3\n            /* \"#utility.yul\":3195:3229   */\n          mstore\n            /* \"#utility.yul\":3126:3235   */\n          pop\n          pop\n          jump\t// out\n            /* \"#utility.yul\":3241:3451   */\n        tag_15:\n            /* \"#utility.yul\":3328:3332   */\n          0x00\n            /* \"#utility.yul\":3366:3368   */\n          0x20\n            /* \"#utility.yul\":3355:3364   */\n          dup3\n            /* \"#utility.yul\":3351:3369   */\n          add\n            /* \"#utility.yul\":3343:3369   */\n          swap1\n          pop\n            /* \"#utility.yul\":3379:3444   */\n          tag_140\n            /* \"#utility.yul\":3441:3442   */\n          0x00\n            /* \"#utility.yul\":3430:3439   */\n          dup4\n            /* \"#utility.yul\":3426:3443   */\n          add\n            /* \"#utility.yul\":3417:3423   */\n          dup5\n            /* \"#utility.yul\":3379:3444   */\n          tag_80\n          jump\t// in\n        tag_140:\n            /* \"#utility.yul\":3241:3451   */\n          swap3\n          swap2\n          pop\n          pop\n          jump\t// out\n            /* \"#utility.yul\":3457:3575   */\n        tag_81:\n            /* \"#utility.yul\":3544:3568   */\n          tag_142\n            /* \"#utility.yul\":3562:3567   */\n          dup2\n            /* \"#utility.yul\":3544:3568   */\n          tag_68\n          jump\t// in\n        tag_142:\n            /* \"#utility.yul\":3539:3542   */\n          dup3\n            /* \"#utility.yul\":3532:3569   */\n          mstore\n            /* \"#utility.yul\":3457:3575   */\n          pop\n          pop\n          jump\t// out\n            /* \"#utility.yul\":3581:3803   */\n        tag_22:\n            /* \"#utility.yul\":3674:3678   */\n          0x00\n            /* \"#utility.yul\":3712:3714   */\n          0x20\n            /* \"#utility.yul\":3701:3710   */\n          dup3\n            /* \"#utility.yul\":3697:3715   */\n          add\n            /* \"#utility.yul\":3689:3715   */\n          swap1\n          pop\n            /* \"#utility.yul\":3725:3796   */\n          tag_144\n            /* \"#utility.yul\":3793:3794   */\n          0x00\n            /* \"#utility.yul\":3782:3791   */\n          dup4\n            /* \"#utility.yul\":3778:3795   */\n          add\n            /* \"#utility.yul\":3769:3775   */\n          dup5\n            /* \"#utility.yul\":3725:3796   */\n          tag_81\n          jump\t// in\n        tag_144:\n            /* \"#utility.yul\":3581:3803   */\n          swap3\n          swap2\n          pop\n          pop\n          jump\t// out\n            /* \"#utility.yul\":3809:3952   */\n        tag_82:\n            /* \"#utility.yul\":3866:3871   */\n          0x00\n            /* \"#utility.yul\":3897:3903   */\n          dup2\n            /* \"#utility.yul\":3891:3904   */\n          mload\n            /* \"#utility.yul\":3882:3904   */\n          swap1\n          pop\n            /* \"#utility.yul\":3913:3946   */\n          tag_146\n            /* \"#utility.yul\":3940:3945   */\n          dup2\n            /* \"#utility.yul\":3913:3946   */\n          tag_73\n          jump\t// in\n        tag_146:\n            /* \"#utility.yul\":3809:3952   */\n          swap3\n          swap2\n          pop\n          pop\n          jump\t// out\n            /* \"#utility.yul\":3958:4309   */\n        tag_26:\n            /* \"#utility.yul\":4028:4034   */\n          0x00\n            /* \"#utility.yul\":4077:4079   */\n          0x20\n            /* \"#utility.yul\":4065:4074   */\n          dup3\n            /* \"#utility.yul\":4056:4063   */\n          dup5\n            /* \"#utility.yul\":4052:4075   */\n          sub\n            /* \"#utility.yul\":4048:4080   */\n          slt\n            /* \"#utility.yul\":4045:4164   */\n          iszero\n          tag_148\n          jumpi\n            /* \"#utility.yul\":4083:4162   */\n          tag_149\n          tag_65\n          jump\t// in\n        tag_149:\n            /* \"#utility.yul\":4045:4164   */\n        tag_148:\n            /* \"#utility.yul\":4203:4204   */\n          0x00\n            /* \"#utility.yul\":4228:4292   */\n          tag_150\n            /* \"#utility.yul\":4284:4291   */\n          dup5\n            /* \"#utility.yul\":4275:4281   */\n          dup3\n            /* \"#utility.yul\":4264:4273   */\n          dup6\n            /* \"#utility.yul\":4260:4282   */\n          add\n            /* \"#utility.yul\":4228:4292   */\n          tag_82\n          jump\t// in\n        tag_150:\n            /* \"#utility.yul\":4218:4292   */\n          swap2\n          pop\n            /* \"#utility.yul\":4174:4302   */\n          pop\n            /* \"#utility.yul\":3958:4309   */\n          swap3\n          swap2\n          pop\n          pop\n          jump\t// out\n            /* \"#utility.yul\":4315:4484   */\n        tag_83:\n            /* \"#utility.yul\":4399:4410   */\n          0x00\n            /* \"#utility.yul\":4433:4439   */\n          dup3\n            /* \"#utility.yul\":4428:4431   */\n          dup3\n            /* \"#utility.yul\":4421:4440   */\n          mstore\n            /* \"#utility.yul\":4473:4477   */\n          0x20\n            /* \"#utility.yul\":4468:4471   */\n          dup3\n            /* \"#utility.yul\":4464:4478   */\n          add\n            /* \"#utility.yul\":4449:4478   */\n          swap1\n          pop\n            /* \"#utility.yul\":4315:4484   */\n          swap3\n          swap2\n          pop\n          pop\n          jump\t// out\n            /* \"#utility.yul\":4490:4669   */\n        tag_84:\n            /* \"#utility.yul\":4630:4661   */\n          0x596f7520646f206e6f74206861766520766f74696e6720726967687473000000\n            /* \"#utility.yul\":4626:4627   */\n          0x00\n            /* \"#utility.yul\":4618:4624   */\n          dup3\n            /* \"#utility.yul\":4614:4628   */\n          add\n            /* \"#utility.yul\":4607:4662   */\n          mstore\n            /* \"#utility.yul\":4490:4669   */\n          pop\n          jump\t// out\n            /* \"#utility.yul\":4675:5041   */\n        tag_85:\n            /* \"#utility.yul\":4817:4820   */\n          0x00\n            /* \"#utility.yul\":4838:4905   */\n          tag_154\n            /* \"#utility.yul\":4902:4904   */\n          0x1d\n            /* \"#utility.yul\":4897:4900   */\n          dup4\n            /* \"#utility.yul\":4838:4905   */\n          tag_83\n          jump\t// in\n        tag_154:\n            /* \"#utility.yul\":4831:4905   */\n          swap2\n          pop\n            /* \"#utility.yul\":4914:5007   */\n          tag_155\n            /* \"#utility.yul\":5003:5006   */\n          dup3\n            /* \"#utility.yul\":4914:5007   */\n          tag_84\n          jump\t// in\n        tag_155:\n            /* \"#utility.yul\":5032:5034   */\n          0x20\n            /* \"#utility.yul\":5027:5030   */\n          dup3\n            /* \"#utility.yul\":5023:5035   */\n          add\n            /* \"#utility.yul\":5016:5035   */\n          swap1\n          pop\n            /* \"#utility.yul\":4675:5041   */\n          swap2\n          swap1\n          pop\n          jump\t// out\n            /* \"#utility.yul\":5047:5466   */\n        tag_29:\n            /* \"#utility.yul\":5213:5217   */\n          0x00\n            /* \"#utility.yul\":5251:5253   */\n          0x20\n            /* \"#utility.yul\":5240:5249   */\n          dup3\n            /* \"#utility.yul\":5236:5254   */\n          add\n            /* \"#utility.yul\":5228:5254   */\n          swap1\n          pop\n            /* \"#utility.yul\":5300:5309   */\n          dup2\n            /* \"#utility.yul\":5294:5298   */\n          dup2\n            /* \"#utility.yul\":5290:5310   */\n          sub\n            /* \"#utility.yul\":5286:5287   */\n          0x00\n            /* \"#utility.yul\":5275:5284   */\n          dup4\n            /* \"#utility.yul\":5271:5288   */\n          add\n            /* \"#utility.yul\":5264:5311   */\n          mstore\n            /* \"#utility.yul\":5328:5459   */\n          tag_157\n            /* \"#utility.yul\":5454:5458   */\n          dup2\n            /* \"#utility.yul\":5328:5459   */\n          tag_85\n          jump\t// in\n        tag_157:\n            /* \"#utility.yul\":5320:5459   */\n          swap1\n          pop\n            /* \"#utility.yul\":5047:5466   */\n          swap2\n          swap1\n          pop\n          jump\t// out\n            /* \"#utility.yul\":5472:5590   */\n        tag_86:\n            /* \"#utility.yul\":5559:5583   */\n          tag_159\n            /* \"#utility.yul\":5577:5582   */\n          dup2\n            /* \"#utility.yul\":5559:5583   */\n          tag_72\n          jump\t// in\n        tag_159:\n            /* \"#utility.yul\":5554:5557   */\n          dup3\n            /* \"#utility.yul\":5547:5584   */\n          mstore\n            /* \"#utility.yul\":5472:5590   */\n          pop\n          pop\n          jump\t// out\n            /* \"#utility.yul\":5596:5818   */\n        tag_32:\n            /* \"#utility.yul\":5689:5693   */\n          0x00\n            /* \"#utility.yul\":5727:5729   */\n          0x20\n            /* \"#utility.yul\":5716:5725   */\n          dup3\n            /* \"#utility.yul\":5712:5730   */\n          add\n            /* \"#utility.yul\":5704:5730   */\n          swap1\n          pop\n            /* \"#utility.yul\":5740:5811   */\n          tag_161\n            /* \"#utility.yul\":5808:5809   */\n          0x00\n            /* \"#utility.yul\":5797:5806   */\n          dup4\n            /* \"#utility.yul\":5793:5810   */\n          add\n            /* \"#utility.yul\":5784:5790   */\n          dup5\n            /* \"#utility.yul\":5740:5811   */\n          tag_86\n          jump\t// in\n        tag_161:\n            /* \"#utility.yul\":5596:5818   */\n          swap3\n          swap2\n          pop\n          pop\n          jump\t// out\n            /* \"#utility.yul\":5824:5936   */\n        tag_87:\n            /* \"#utility.yul\":5877:5884   */\n          0x00\n            /* \"#utility.yul\":5906:5930   */\n          tag_163\n            /* \"#utility.yul\":5924:5929   */\n          dup3\n            /* \"#utility.yul\":5906:5930   */\n          tag_68\n          jump\t// in\n        tag_163:\n            /* \"#utility.yul\":5895:5930   */\n          swap1\n          pop\n            /* \"#utility.yul\":5824:5936   */\n          swap2\n          swap1\n          pop\n          jump\t// out\n            /* \"#utility.yul\":5942:6096   */\n        tag_88:\n            /* \"#utility.yul\":6031:6071   */\n          tag_165\n            /* \"#utility.yul\":6065:6070   */\n          dup2\n            /* \"#utility.yul\":6031:6071   */\n          tag_87\n          jump\t// in\n        tag_165:\n            /* \"#utility.yul\":6024:6029   */\n          dup2\n            /* \"#utility.yul\":6021:6072   */\n          eq\n            /* \"#utility.yul\":6011:6090   */\n          tag_166\n          jumpi\n            /* \"#utility.yul\":6086:6087   */\n          0x00\n            /* \"#utility.yul\":6083:6084   */\n          dup1\n            /* \"#utility.yul\":6076:6088   */\n          revert\n            /* \"#utility.yul\":6011:6090   */\n        tag_166:\n            /* \"#utility.yul\":5942:6096   */\n          pop\n          jump\t// out\n            /* \"#utility.yul\":6102:6277   */\n        tag_89:\n            /* \"#utility.yul\":6175:6180   */\n          0x00\n            /* \"#utility.yul\":6206:6212   */\n          dup2\n            /* \"#utility.yul\":6200:6213   */\n          mload\n            /* \"#utility.yul\":6191:6213   */\n          swap1\n          pop\n            /* \"#utility.yul\":6222:6271   */\n          tag_168\n            /* \"#utility.yul\":6265:6270   */\n          dup2\n            /* \"#utility.yul\":6222:6271   */\n          tag_88\n          jump\t// in\n        tag_168:\n            /* \"#utility.yul\":6102:6277   */\n          swap3\n          swap2\n          pop\n          pop\n          jump\t// out\n            /* \"#utility.yul\":6283:6666   */\n        tag_36:\n            /* \"#utility.yul\":6369:6375   */\n          0x00\n            /* \"#utility.yul\":6418:6420   */\n          0x20\n            /* \"#utility.yul\":6406:6415   */\n          dup3\n            /* \"#utility.yul\":6397:6404   */\n          dup5\n            /* \"#utility.yul\":6393:6416   */\n          sub\n            /* \"#utility.yul\":6389:6421   */\n          slt\n            /* \"#utility.yul\":6386:6505   */\n          iszero\n          tag_170\n          jumpi\n            /* \"#utility.yul\":6424:6503   */\n          tag_171\n          tag_65\n          jump\t// in\n        tag_171:\n            /* \"#utility.yul\":6386:6505   */\n        tag_170:\n            /* \"#utility.yul\":6544:6545   */\n          0x00\n            /* \"#utility.yul\":6569:6649   */\n          tag_172\n            /* \"#utility.yul\":6641:6648   */\n          dup5\n            /* \"#utility.yul\":6632:6638   */\n          dup3\n            /* \"#utility.yul\":6621:6630   */\n          dup6\n            /* \"#utility.yul\":6617:6639   */\n          add\n            /* \"#utility.yul\":6569:6649   */\n          tag_89\n          jump\t// in\n        tag_172:\n            /* \"#utility.yul\":6559:6649   */\n          swap2\n          pop\n            /* \"#utility.yul\":6515:6659   */\n          pop\n            /* \"#utility.yul\":6283:6666   */\n          swap3\n          swap2\n          pop\n          pop\n          jump\t// out\n            /* \"#utility.yul\":6672:6838   */\n        tag_90:\n            /* \"#utility.yul\":6812:6830   */\n          0x566f74696e672068617320656e64656400000000000000000000000000000000\n            /* \"#utility.yul\":6808:6809   */\n          0x00\n            /* \"#utility.yul\":6800:6806   */\n          dup3\n            /* \"#utility.yul\":6796:6810   */\n          add\n            /* \"#utility.yul\":6789:6831   */\n          mstore\n            /* \"#utility.yul\":6672:6838   */\n          pop\n          jump\t// out\n            /* \"#utility.yul\":6844:7210   */\n        tag_91:\n            /* \"#utility.yul\":6986:6989   */\n          0x00\n            /* \"#utility.yul\":7007:7074   */\n          tag_175\n            /* \"#utility.yul\":7071:7073   */\n          0x10\n            /* \"#utility.yul\":7066:7069   */\n          dup4\n            /* \"#utility.yul\":7007:7074   */\n          tag_83\n          jump\t// in\n        tag_175:\n            /* \"#utility.yul\":7000:7074   */\n          swap2\n          pop\n            /* \"#utility.yul\":7083:7176   */\n          tag_176\n            /* \"#utility.yul\":7172:7175   */\n          dup3\n            /* \"#utility.yul\":7083:7176   */\n          tag_90\n          jump\t// in\n        tag_176:\n            /* \"#utility.yul\":7201:7203   */\n          0x20\n            /* \"#utility.yul\":7196:7199   */\n          dup3\n            /* \"#utility.yul\":7192:7204   */\n          add\n            /* \"#utility.yul\":7185:7204   */\n          swap1\n          pop\n            /* \"#utility.yul\":6844:7210   */\n          swap2\n          swap1\n          pop\n          jump\t// out\n            /* \"#utility.yul\":7216:7635   */\n        tag_42:\n            /* \"#utility.yul\":7382:7386   */\n          0x00\n            /* \"#utility.yul\":7420:7422   */\n          0x20\n            /* \"#utility.yul\":7409:7418   */\n          dup3\n            /* \"#utility.yul\":7405:7423   */\n          add\n            /* \"#utility.yul\":7397:7423   */\n          swap1\n          pop\n            /* \"#utility.yul\":7469:7478   */\n          dup2\n            /* \"#utility.yul\":7463:7467   */\n          dup2\n            /* \"#utility.yul\":7459:7479   */\n          sub\n            /* \"#utility.yul\":7455:7456   */\n          0x00\n            /* \"#utility.yul\":7444:7453   */\n          dup4\n            /* \"#utility.yul\":7440:7457   */\n          add\n            /* \"#utility.yul\":7433:7480   */\n          mstore\n            /* \"#utility.yul\":7497:7628   */\n          tag_178\n            /* \"#utility.yul\":7623:7627   */\n          dup2\n            /* \"#utility.yul\":7497:7628   */\n          tag_91\n          jump\t// in\n        tag_178:\n            /* \"#utility.yul\":7489:7628   */\n          swap1\n          pop\n            /* \"#utility.yul\":7216:7635   */\n          swap2\n          swap1\n          pop\n          jump\t// out\n            /* \"#utility.yul\":7641:7778   */\n        tag_92:\n            /* \"#utility.yul\":7695:7700   */\n          0x00\n            /* \"#utility.yul\":7726:7732   */\n          dup2\n            /* \"#utility.yul\":7720:7733   */\n          mload\n            /* \"#utility.yul\":7711:7733   */\n          swap1\n          pop\n            /* \"#utility.yul\":7742:7772   */\n          tag_180\n            /* \"#utility.yul\":7766:7771   */\n          dup2\n            /* \"#utility.yul\":7742:7772   */\n          tag_76\n          jump\t// in\n        tag_180:\n            /* \"#utility.yul\":7641:7778   */\n          swap3\n          swap2\n          pop\n          pop\n          jump\t// out\n            /* \"#utility.yul\":7784:8129   */\n        tag_46:\n            /* \"#utility.yul\":7851:7857   */\n          0x00\n            /* \"#utility.yul\":7900:7902   */\n          0x20\n            /* \"#utility.yul\":7888:7897   */\n          dup3\n            /* \"#utility.yul\":7879:7886   */\n          dup5\n            /* \"#utility.yul\":7875:7898   */\n          sub\n            /* \"#utility.yul\":7871:7903   */\n          slt\n            /* \"#utility.yul\":7868:7987   */\n          iszero\n          tag_182\n          jumpi\n            /* \"#utility.yul\":7906:7985   */\n          tag_183\n          tag_65\n          jump\t// in\n        tag_183:\n            /* \"#utility.yul\":7868:7987   */\n        tag_182:\n            /* \"#utility.yul\":8026:8027   */\n          0x00\n            /* \"#utility.yul\":8051:8112   */\n          tag_184\n            /* \"#utility.yul\":8104:8111   */\n          dup5\n            /* \"#utility.yul\":8095:8101   */\n          dup3\n            /* \"#utility.yul\":8084:8093   */\n          dup6\n            /* \"#utility.yul\":8080:8102   */\n          add\n            /* \"#utility.yul\":8051:8112   */\n          tag_92\n          jump\t// in\n        tag_184:\n            /* \"#utility.yul\":8041:8112   */\n          swap2\n          pop\n            /* \"#utility.yul\":7997:8122   */\n          pop\n            /* \"#utility.yul\":7784:8129   */\n          swap3\n          swap2\n          pop\n          pop\n          jump\t// out\n            /* \"#utility.yul\":8135:8307   */\n        tag_93:\n            /* \"#utility.yul\":8275:8299   */\n          0x596f75206861766520616c726561647920766f74656400000000000000000000\n            /* \"#utility.yul\":8271:8272   */\n          0x00\n            /* \"#utility.yul\":8263:8269   */\n          dup3\n            /* \"#utility.yul\":8259:8273   */\n          add\n            /* \"#utility.yul\":8252:8300   */\n          mstore\n            /* \"#utility.yul\":8135:8307   */\n          pop\n          jump\t// out\n            /* \"#utility.yul\":8313:8679   */\n        tag_94:\n            /* \"#utility.yul\":8455:8458   */\n          0x00\n            /* \"#utility.yul\":8476:8543   */\n          tag_187\n            /* \"#utility.yul\":8540:8542   */\n          0x16\n            /* \"#utility.yul\":8535:8538   */\n          dup4\n            /* \"#utility.yul\":8476:8543   */\n          tag_83\n          jump\t// in\n        tag_187:\n            /* \"#utility.yul\":8469:8543   */\n          swap2\n          pop\n            /* \"#utility.yul\":8552:8645   */\n          tag_188\n            /* \"#utility.yul\":8641:8644   */\n          dup3\n            /* \"#utility.yul\":8552:8645   */\n          tag_93\n          jump\t// in\n        tag_188:\n            /* \"#utility.yul\":8670:8672   */\n          0x20\n            /* \"#utility.yul\":8665:8668   */\n          dup3\n            /* \"#utility.yul\":8661:8673   */\n          add\n            /* \"#utility.yul\":8654:8673   */\n          swap1\n          pop\n            /* \"#utility.yul\":8313:8679   */\n          swap2\n          swap1\n          pop\n          jump\t// out\n            /* \"#utility.yul\":8685:9104   */\n        tag_55:\n            /* \"#utility.yul\":8851:8855   */\n          0x00\n            /* \"#utility.yul\":8889:8891   */\n          0x20\n            /* \"#utility.yul\":8878:8887   */\n          dup3\n            /* \"#utility.yul\":8874:8892   */\n          add\n            /* \"#utility.yul\":8866:8892   */\n          swap1\n          pop\n            /* \"#utility.yul\":8938:8947   */\n          dup2\n            /* \"#utility.yul\":8932:8936   */\n          dup2\n            /* \"#utility.yul\":8928:8948   */\n          sub\n            /* \"#utility.yul\":8924:8925   */\n          0x00\n            /* \"#utility.yul\":8913:8922   */\n          dup4\n            /* \"#utility.yul\":8909:8926   */\n          add\n            /* \"#utility.yul\":8902:8949   */\n          mstore\n            /* \"#utility.yul\":8966:9097   */\n          tag_190\n            /* \"#utility.yul\":9092:9096   */\n          dup2\n            /* \"#utility.yul\":8966:9097   */\n          tag_94\n          jump\t// in\n        tag_190:\n            /* \"#utility.yul\":8958:9097   */\n          swap1\n          pop\n            /* \"#utility.yul\":8685:9104   */\n          swap2\n          swap1\n          pop\n          jump\t// out\n            /* \"#utility.yul\":9110:9430   */\n        tag_57:\n            /* \"#utility.yul\":9225:9229   */\n          0x00\n            /* \"#utility.yul\":9263:9265   */\n          0x40\n            /* \"#utility.yul\":9252:9261   */\n          dup3\n            /* \"#utility.yul\":9248:9266   */\n          add\n            /* \"#utility.yul\":9240:9266   */\n          swap1\n          pop\n            /* \"#utility.yul\":9276:9341   */\n          tag_192\n            /* \"#utility.yul\":9338:9339   */\n          0x00\n            /* \"#utility.yul\":9327:9336   */\n          dup4\n            /* \"#utility.yul\":9323:9340   */\n          add\n            /* \"#utility.yul\":9314:9320   */\n          dup6\n            /* \"#utility.yul\":9276:9341   */\n          tag_80\n          jump\t// in\n        tag_192:\n            /* \"#utility.yul\":9351:9423   */\n          tag_193\n            /* \"#utility.yul\":9419:9421   */\n          0x20\n            /* \"#utility.yul\":9408:9417   */\n          dup4\n            /* \"#utility.yul\":9404:9422   */\n          add\n            /* \"#utility.yul\":9395:9401   */\n          dup5\n            /* \"#utility.yul\":9351:9423   */\n          tag_86\n          jump\t// in\n        tag_193:\n            /* \"#utility.yul\":9110:9430   */\n          swap4\n          swap3\n          pop\n          pop\n          pop\n          jump\t// out\n            /* \"#utility.yul\":9436:9866   */\n        tag_62:\n            /* \"#utility.yul\":9579:9583   */\n          0x00\n            /* \"#utility.yul\":9617:9619   */\n          0x60\n            /* \"#utility.yul\":9606:9615   */\n          dup3\n            /* \"#utility.yul\":9602:9620   */\n          add\n            /* \"#utility.yul\":9594:9620   */\n          swap1\n          pop\n            /* \"#utility.yul\":9630:9701   */\n          tag_195\n            /* \"#utility.yul\":9698:9699   */\n          0x00\n            /* \"#utility.yul\":9687:9696   */\n          dup4\n            /* \"#utility.yul\":9683:9700   */\n          add\n            /* \"#utility.yul\":9674:9680   */\n          dup7\n            /* \"#utility.yul\":9630:9701   */\n          tag_86\n          jump\t// in\n        tag_195:\n            /* \"#utility.yul\":9711:9783   */\n          tag_196\n            /* \"#utility.yul\":9779:9781   */\n          0x20\n            /* \"#utility.yul\":9768:9777   */\n          dup4\n            /* \"#utility.yul\":9764:9782   */\n          add\n            /* \"#utility.yul\":9755:9761   */\n          dup6\n            /* \"#utility.yul\":9711:9783   */\n          tag_81\n          jump\t// in\n        tag_196:\n            /* \"#utility.yul\":9793:9859   */\n          tag_197\n            /* \"#utility.yul\":9855:9857   */\n          0x40\n            /* \"#utility.yul\":9844:9853   */\n          dup4\n            /* \"#utility.yul\":9840:9858   */\n          add\n            /* \"#utility.yul\":9831:9837   */\n          dup5\n            /* \"#utility.yul\":9793:9859   */\n          tag_80\n          jump\t// in\n        tag_197:\n            /* \"#utility.yul\":9436:9866   */\n          swap5\n          swap4\n          pop\n          pop\n          pop\n          pop\n          jump\t// out\n\n        auxdata: 0xa264697066735822122054c665bf3d76f1402a035b5013d4d43aa24df89e3017319016eaaae1ca420c2264736f6c634300081a0033\n    }\n}\n",
				"bytecode": {
					"linkReferences": {},
					"object": "608060405234801561000f575f80fd5b505f805f6101000a81548160ff021916908315150217905550600180819055503360025f6101000a81548173ffffffffffffffffffffffffffffffffffffffff021916908373ffffffffffffffffffffffffffffffffffffffff16021790555060405161007b906100d9565b604051809103905ff080158015610094573d5f803e3d5ffd5b5060055f6101000a81548173ffffffffffffffffffffffffffffffffffffffff021916908373ffffffffffffffffffffffffffffffffffffffff1602179055506100e6565b610adb8061261f83390190565b61252c806100f35f395ff3fe608060405234801561000f575f80fd5b50600436106100b2575f3560e01c80635c975abb1161006f5780635c975abb1461017657806375829def146101945780638456cb59146101b05780639babdad6146101ba578063c7f758a8146101d6578063f851a44014610206576100b2565b8063013cf08b146100b657806307e5678c146100e65780630ce0ebf4146101165780633f4ba83a1461013257806346c96aac1461013c5780634d7edc151461015a575b5f80fd5b6100d060048036038101906100cb9190610c00565b610224565b6040516100dd9190610ca5565b60405180910390f35b61010060048036038101906100fb9190610cf9565b61025f565b60405161010d9190610d33565b60405180910390f35b610130600480360381019061012b9190610e88565b610274565b005b61013a610412565b005b6101446104ab565b6040516101519190610f30565b60405180910390f35b610174600480360381019061016f9190610f49565b6104d0565b005b61017e6105f6565b60405161018b9190610fa1565b60405180910390f35b6101ae60048036038101906101a99190610cf9565b61060a565b005b6101b861075a565b005b6101d460048036038101906101cf9190610cf9565b6107f3565b005b6101f060048036038101906101eb9190610c00565b610993565b6040516101fd9190610ca5565b60405180910390f35b61020e6109d7565b60405161021b9190610fc9565b60405180910390f35b60048181548110610233575f80fd5b905f5260205f20015f915054906101000a900473ffffffffffffffffffffffffffffffffffffffff1681565b6003602052805f5260405f205f915090505481565b60025f9054906101000a900473ffffffffffffffffffffffffffffffffffffffff1673ffffffffffffffffffffffffffffffffffffffff163373ffffffffffffffffffffffffffffffffffffffff1614610303576040517f08c379a00000000000000000000000000000000000000000000000000000000081526004016102fa90611062565b60405180910390fd5b61030b6109fc565b610313610a46565b5f83838360405161032390610baf565b61032f939291906110d0565b604051809103905ff080158015610348573d5f803e3d5ffd5b509050600481908060018154018082558091505060019003905f5260205f20015f9091909190916101000a81548173ffffffffffffffffffffffffffffffffffffffff021916908373ffffffffffffffffffffffffffffffffffffffff1602179055507f3f86606f711a448daf3ec6c75d04db9515b24b20b64a68406f971eb5a4e1618760016004805490506103de9190611140565b858585426103ec9190611173565b6040516103fc94939291906111a6565b60405180910390a15061040d610a95565b505050565b60025f9054906101000a900473ffffffffffffffffffffffffffffffffffffffff1673ffffffffffffffffffffffffffffffffffffffff163373ffffffffffffffffffffffffffffffffffffffff16146104a1576040517f08c379a000000000000000000000000000000000000000000000000000000000815260040161049890611062565b60405180910390fd5b6104a9610a9e565b565b60055f9054906101000a900473ffffffffffffffffffffffffffffffffffffffff1681565b60025f9054906101000a900473ffffffffffffffffffffffffffffffffffffffff1673ffffffffffffffffffffffffffffffffffffffff163373ffffffffffffffffffffffffffffffffffffffff161461055f576040517f08c379a000000000000000000000000000000000000000000000000000000000815260040161055690611062565b60405180910390fd5b6105676109fc565b61056f610a46565b8060035f8473ffffffffffffffffffffffffffffffffffffffff1673ffffffffffffffffffffffffffffffffffffffff1681526020019081526020015f20819055507f15ecb136272ddf7c77d05760345f8602ce35fe776160e3f4622d911cc4851d8c82826040516105e29291906111f7565b60405180910390a16105f2610a95565b5050565b5f805f9054906101000a900460ff16905090565b60025f9054906101000a900473ffffffffffffffffffffffffffffffffffffffff1673ffffffffffffffffffffffffffffffffffffffff163373ffffffffffffffffffffffffffffffffffffffff1614610699576040517f08c379a000000000000000000000000000000000000000000000000000000000815260040161069090611062565b60405180910390fd5b6106a1610a46565b5f73ffffffffffffffffffffffffffffffffffffffff168173ffffffffffffffffffffffffffffffffffffffff160361070f576040517f08c379a00000000000000000000000000000000000000000000000000000000081526004016107069061128e565b60405180910390fd5b8060025f6101000a81548173ffffffffffffffffffffffffffffffffffffffff021916908373ffffffffffffffffffffffffffffffffffffffff160217905550610757610a95565b50565b60025f9054906101000a900473ffffffffffffffffffffffffffffffffffffffff1673ffffffffffffffffffffffffffffffffffffffff163373ffffffffffffffffffffffffffffffffffffffff16146107e9576040517f08c379a00000000000000000000000000000000000000000000000000000000081526004016107e090611062565b60405180910390fd5b6107f1610afe565b565b60025f9054906101000a900473ffffffffffffffffffffffffffffffffffffffff1673ffffffffffffffffffffffffffffffffffffffff163373ffffffffffffffffffffffffffffffffffffffff1614610882576040517f08c379a000000000000000000000000000000000000000000000000000000000815260040161087990611062565b60405180910390fd5b61088a6109fc565b610892610a46565b5f60035f8373ffffffffffffffffffffffffffffffffffffffff1673ffffffffffffffffffffffffffffffffffffffff1681526020019081526020015f205411610911576040517f08c379a00000000000000000000000000000000000000000000000000000000081526004016109089061131c565b60405180910390fd5b60035f8273ffffffffffffffffffffffffffffffffffffffff1673ffffffffffffffffffffffffffffffffffffffff1681526020019081526020015f205f90557f7ba114ff3d9844510a088eea94cd35562e7c97a2d36a418b37b2e61e5c77affe816040516109809190610fc9565b60405180910390a1610990610a95565b50565b5f600482815481106109a8576109a761133a565b5b905f5260205f20015f9054906101000a900473ffffffffffffffffffffffffffffffffffffffff169050919050565b60025f9054906101000a900473ffffffffffffffffffffffffffffffffffffffff1681565b610a046105f6565b15610a44576040517f08c379a0000000000000000000000000000000000000000000000000000000008152600401610a3b906113b1565b60405180910390fd5b565b600260015403610a8b576040517f08c379a0000000000000000000000000000000000000000000000000000000008152600401610a8290611419565b60405180910390fd5b6002600181905550565b60018081905550565b610aa6610b5f565b5f805f6101000a81548160ff0219169083151502179055507f5db9ee0a495bf2e6ff9c91a7834c1ba4fdd244a5e8aa4e537bd38aeae4b073aa610ae7610ba8565b604051610af49190610fc9565b60405180910390a1565b610b066109fc565b60015f806101000a81548160ff0219169083151502179055507f62e78cea01bee320cd4e420270b5ea74000d11b0c9f74754ebdbfc544b05a258610b48610ba8565b604051610b559190610fc9565b60405180910390a1565b610b676105f6565b610ba6576040517f08c379a0000000000000000000000000000000000000000000000000000000008152600401610b9d90611481565b60405180910390fd5b565b5f33905090565b611057806114a083390190565b5f604051905090565b5f80fd5b5f80fd5b5f819050919050565b610bdf81610bcd565b8114610be9575f80fd5b50565b5f81359050610bfa81610bd6565b92915050565b5f60208284031215610c1557610c14610bc5565b5b5f610c2284828501610bec565b91505092915050565b5f73ffffffffffffffffffffffffffffffffffffffff82169050919050565b5f819050919050565b5f610c6d610c68610c6384610c2b565b610c4a565b610c2b565b9050919050565b5f610c7e82610c53565b9050919050565b5f610c8f82610c74565b9050919050565b610c9f81610c85565b82525050565b5f602082019050610cb85f830184610c96565b92915050565b5f610cc882610c2b565b9050919050565b610cd881610cbe565b8114610ce2575f80fd5b50565b5f81359050610cf381610ccf565b92915050565b5f60208284031215610d0e57610d0d610bc5565b5b5f610d1b84828501610ce5565b91505092915050565b610d2d81610bcd565b82525050565b5f602082019050610d465f830184610d24565b92915050565b5f80fd5b5f80fd5b5f601f19601f8301169050919050565b7f4e487b71000000000000000000000000000000000000000000000000000000005f52604160045260245ffd5b610d9a82610d54565b810181811067ffffffffffffffff82111715610db957610db8610d64565b5b80604052505050565b5f610dcb610bbc565b9050610dd78282610d91565b919050565b5f67ffffffffffffffff821115610df657610df5610d64565b5b610dff82610d54565b9050602081019050919050565b828183375f83830152505050565b5f610e2c610e2784610ddc565b610dc2565b905082815260208101848484011115610e4857610e47610d50565b5b610e53848285610e0c565b509392505050565b5f82601f830112610e6f57610e6e610d4c565b5b8135610e7f848260208601610e1a565b91505092915050565b5f805f60608486031215610e9f57610e9e610bc5565b5b5f84013567ffffffffffffffff811115610ebc57610ebb610bc9565b5b610ec886828701610e5b565b935050602084013567ffffffffffffffff811115610ee957610ee8610bc9565b5b610ef586828701610e5b565b9250506040610f0686828701610bec565b9150509250925092565b5f610f1a82610c74565b9050919050565b610f2a81610f10565b82525050565b5f602082019050610f435f830184610f21565b92915050565b5f8060408385031215610f5f57610f5e610bc5565b5b5f610f6c85828601610ce5565b9250506020610f7d85828601610bec565b9150509250929050565b5f8115159050919050565b610f9b81610f87565b82525050565b5f602082019050610fb45f830184610f92565b92915050565b610fc381610cbe565b82525050565b5f602082019050610fdc5f830184610fba565b92915050565b5f82825260208201905092915050565b7f4f6e6c79207468652061646d696e2063616e20706572666f726d2074686973205f8201527f616374696f6e0000000000000000000000000000000000000000000000000000602082015250565b5f61104c602683610fe2565b915061105782610ff2565b604082019050919050565b5f6020820190508181035f83015261107981611040565b9050919050565b5f81519050919050565b8281835e5f83830152505050565b5f6110a282611080565b6110ac8185610fe2565b93506110bc81856020860161108a565b6110c581610d54565b840191505092915050565b5f6060820190508181035f8301526110e88186611098565b905081810360208301526110fc8185611098565b905061110b6040830184610d24565b949350505050565b7f4e487b71000000000000000000000000000000000000000000000000000000005f52601160045260245ffd5b5f61114a82610bcd565b915061115583610bcd565b925082820390508181111561116d5761116c611113565b5b92915050565b5f61117d82610bcd565b915061118883610bcd565b92508282019050808211156111a05761119f611113565b5b92915050565b5f6080820190506111b95f830187610d24565b81810360208301526111cb8186611098565b905081810360408301526111df8185611098565b90506111ee6060830184610d24565b95945050505050565b5f60408201905061120a5f830185610fba565b6112176020830184610d24565b9392505050565b7f4e65772061646d696e20616464726573732063616e6e6f74206265207a65726f5f8201527f2061646472657373000000000000000000000000000000000000000000000000602082015250565b5f611278602883610fe2565b91506112838261121e565b604082019050919050565b5f6020820190508181035f8301526112a58161126c565b9050919050565b7f546865206164647265737320646f6573206e6f74206861766520616e7920746f5f8201527f6b656e7300000000000000000000000000000000000000000000000000000000602082015250565b5f611306602483610fe2565b9150611311826112ac565b604082019050919050565b5f6020820190508181035f830152611333816112fa565b9050919050565b7f4e487b71000000000000000000000000000000000000000000000000000000005f52603260045260245ffd5b7f5061757361626c653a20706175736564000000000000000000000000000000005f82015250565b5f61139b601083610fe2565b91506113a682611367565b602082019050919050565b5f6020820190508181035f8301526113c88161138f565b9050919050565b7f5265656e7472616e637947756172643a207265656e7472616e742063616c6c005f82015250565b5f611403601f83610fe2565b915061140e826113cf565b602082019050919050565b5f6020820190508181035f830152611430816113f7565b9050919050565b7f5061757361626c653a206e6f74207061757365640000000000000000000000005f82015250565b5f61146b601483610fe2565b915061147682611437565b602082019050919050565b5f6020820190508181035f8301526114988161145f565b905091905056fe608060405234801561000f575f80fd5b5060405161105738038061105783398181016040528101906100319190610203565b825f908161003f919061048f565b50816001908161004f919061048f565b50804261005c919061058b565b6002819055505f60055f6101000a81548160ff0219169083151502179055505050506105be565b5f604051905090565b5f80fd5b5f80fd5b5f80fd5b5f80fd5b5f601f19601f8301169050919050565b7f4e487b71000000000000000000000000000000000000000000000000000000005f52604160045260245ffd5b6100e28261009c565b810181811067ffffffffffffffff82111715610101576101006100ac565b5b80604052505050565b5f610113610083565b905061011f82826100d9565b919050565b5f67ffffffffffffffff82111561013e5761013d6100ac565b5b6101478261009c565b9050602081019050919050565b8281835e5f83830152505050565b5f61017461016f84610124565b61010a565b9050828152602081018484840111156101905761018f610098565b5b61019b848285610154565b509392505050565b5f82601f8301126101b7576101b6610094565b5b81516101c7848260208601610162565b91505092915050565b5f819050919050565b6101e2816101d0565b81146101ec575f80fd5b50565b5f815190506101fd816101d9565b92915050565b5f805f6060848603121561021a5761021961008c565b5b5f84015167ffffffffffffffff81111561023757610236610090565b5b610243868287016101a3565b935050602084015167ffffffffffffffff81111561026457610263610090565b5b610270868287016101a3565b9250506040610281868287016101ef565b9150509250925092565b5f81519050919050565b7f4e487b71000000000000000000000000000000000000000000000000000000005f52602260045260245ffd5b5f60028204905060018216806102d957607f821691505b6020821081036102ec576102eb610295565b5b50919050565b5f819050815f5260205f209050919050565b5f6020601f8301049050919050565b5f82821b905092915050565b5f6008830261034e7fffffffffffffffffffffffffffffffffffffffffffffffffffffffffffffffff82610313565b6103588683610313565b95508019841693508086168417925050509392505050565b5f819050919050565b5f61039361038e610389846101d0565b610370565b6101d0565b9050919050565b5f819050919050565b6103ac83610379565b6103c06103b88261039a565b84845461031f565b825550505050565b5f90565b6103d46103c8565b6103df8184846103a3565b505050565b5b81811015610402576103f75f826103cc565b6001810190506103e5565b5050565b601f82111561044757610418816102f2565b61042184610304565b81016020851015610430578190505b61044461043c85610304565b8301826103e4565b50505b505050565b5f82821c905092915050565b5f6104675f198460080261044c565b1980831691505092915050565b5f61047f8383610458565b9150826002028217905092915050565b6104988261028b565b67ffffffffffffffff8111156104b1576104b06100ac565b5b6104bb82546102c2565b6104c6828285610406565b5f60209050601f8311600181146104f7575f84156104e5578287015190505b6104ef8582610474565b865550610556565b601f198416610505866102f2565b5f5b8281101561052c57848901518255600182019150602085019450602081019050610507565b868310156105495784890151610545601f891682610458565b8355505b6001600288020188555050505b505050505050565b7f4e487b71000000000000000000000000000000000000000000000000000000005f52601160045260245ffd5b5f610595826101d0565b91506105a0836101d0565b92508282019050808211156105b8576105b761055e565b5b92915050565b610a8c806105cb5f395ff3fe608060405234801561000f575f80fd5b5060043610610091575f3560e01c80639d5a0529116100645780639d5a052914610110578063b5b47f421461012e578063b71565121461014c578063c3403ddf14610168578063fb286c651461017257610091565b806306fdde031461009557806329dcb0cf146100b35780634717f97c146100d15780637284e416146100f2575b5f80fd5b61009d610190565b6040516100aa9190610616565b60405180910390f35b6100bb61021b565b6040516100c8919061064e565b60405180910390f35b6100d9610221565b6040516100e99493929190610681565b60405180910390f35b6100fa610313565b6040516101079190610616565b60405180910390f35b61011861039f565b60405161012591906106cb565b60405180910390f35b6101366103b1565b604051610143919061064e565b60405180910390f35b6101666004803603810190610161919061073c565b6103b7565b005b61017061048a565b005b61017a6105a0565b604051610187919061064e565b60405180910390f35b5f805461019c906107a7565b80601f01602080910402602001604051908101604052809291908181526020018280546101c8906107a7565b80156102135780601f106101ea57610100808354040283529160200191610213565b820191905f5260205f20905b8154815290600101906020018083116101f657829003601f168201915b505050505081565b60025481565b60605f805f6003549250600454915060055f9054906101000a900460ff169050600454600354111561028a576040518060400160405280600d81526020017f59657320766f74657320776f6e00000000000000000000000000000000000000815250935061030d565b60035460045411156102d3576040518060400160405280600c81526020017f4e6f20766f74657320776f6e0000000000000000000000000000000000000000815250935061030c565b6040518060400160405280600a81526020017f497427732061207469650000000000000000000000000000000000000000000081525093505b5b90919293565b60018054610320906107a7565b80601f016020809104026020016040519081016040528092919081815260200182805461034c906107a7565b80156103975780601f1061036e57610100808354040283529160200191610397565b820191905f5260205f20905b81548152906001019060200180831161037a57829003601f168201915b505050505081565b60055f9054906101000a900460ff1681565b60045481565b60025442106103fb576040517f08c379a00000000000000000000000000000000000000000000000000000000081526004016103f290610821565b60405180910390fd5b60055f9054906101000a900460ff161561044a576040517f08c379a000000000000000000000000000000000000000000000000000000000815260040161044190610821565b60405180910390fd5b811561046d578060035f828254610461919061086c565b92505081905550610486565b8060045f82825461047e919061086c565b925050819055505b5050565b60025442116104ce576040517f08c379a00000000000000000000000000000000000000000000000000000000081526004016104c5906108e9565b60405180910390fd5b60055f9054906101000a900460ff161561051d576040517f08c379a000000000000000000000000000000000000000000000000000000000815260040161051490610951565b60405180910390fd5b600160055f6101000a81548160ff0219169083151502179055507fcea89ec8feb1022162fb57e69a2bb2c4774289bcc281c3e4ff611d3a63ee6e085f6040516020016105699190610a0b565b604051602081830303815290604052805190602001205f1c60035460045460405161059693929190610a21565b60405180910390a1565b60035481565b5f81519050919050565b5f82825260208201905092915050565b8281835e5f83830152505050565b5f601f19601f8301169050919050565b5f6105e8826105a6565b6105f281856105b0565b93506106028185602086016105c0565b61060b816105ce565b840191505092915050565b5f6020820190508181035f83015261062e81846105de565b905092915050565b5f819050919050565b61064881610636565b82525050565b5f6020820190506106615f83018461063f565b92915050565b5f8115159050919050565b61067b81610667565b82525050565b5f6080820190508181035f83015261069981876105de565b90506106a8602083018661063f565b6106b5604083018561063f565b6106c26060830184610672565b95945050505050565b5f6020820190506106de5f830184610672565b92915050565b5f80fd5b6106f181610667565b81146106fb575f80fd5b50565b5f8135905061070c816106e8565b92915050565b61071b81610636565b8114610725575f80fd5b50565b5f8135905061073681610712565b92915050565b5f8060408385031215610752576107516106e4565b5b5f61075f858286016106fe565b925050602061077085828601610728565b9150509250929050565b7f4e487b71000000000000000000000000000000000000000000000000000000005f52602260045260245ffd5b5f60028204905060018216806107be57607f821691505b6020821081036107d1576107d061077a565b5b50919050565b7f566f74696e672068617320656e646564000000000000000000000000000000005f82015250565b5f61080b6010836105b0565b9150610816826107d7565b602082019050919050565b5f6020820190508181035f830152610838816107ff565b9050919050565b7f4e487b71000000000000000000000000000000000000000000000000000000005f52601160045260245ffd5b5f61087682610636565b915061088183610636565b92508282019050808211156108995761089861083f565b5b92915050565b7f566f74696e6720706572696f64206e6f7420796574206f7665720000000000005f82015250565b5f6108d3601a836105b0565b91506108de8261089f565b602082019050919050565b5f6020820190508181035f830152610900816108c7565b9050919050565b7f566f74696e6720616c726561647920656e6465640000000000000000000000005f82015250565b5f61093b6014836105b0565b915061094682610907565b602082019050919050565b5f6020820190508181035f8301526109688161092f565b9050919050565b5f81905092915050565b5f819050815f5260205f209050919050565b5f8154610997816107a7565b6109a1818661096f565b9450600182165f81146109bb57600181146109d057610a02565b60ff1983168652811515820286019350610a02565b6109d985610979565b5f5b838110156109fa578154818901526001820191506020810190506109db565b838801955050505b50505092915050565b5f610a16828461098b565b915081905092915050565b5f606082019050610a345f83018661063f565b610a41602083018561063f565b610a4e604083018461063f565b94935050505056fea2646970667358221220a067eee021f94a6ff0acf6b2fdcf957b7e905c567bb976783dcb005f0b0798e064736f6c634300081a0033a26469706673582212201cda983953f44a9cb4daa6ca5349ebfa50377a554f8cb9bd81932c709739688e64736f6c634300081a00336080604052348015600e575f80fd5b50610abf8061001c5f395ff3fe608060405234801561000f575f80fd5b506004361061003f575f3560e01c806312d320c514610043578063438596321461005f578063dc296ae11461008f575b5f80fd5b61005d600480360381019061005891906106d1565b6100bf565b005b6100796004803603810190610074919061074b565b610570565b6040516100869190610798565b60405180910390f35b6100a960048036038101906100a4919061074b565b610599565b6040516100b69190610798565b60405180910390f35b825f8173ffffffffffffffffffffffffffffffffffffffff166307e5678c336040518263ffffffff1660e01b81526004016100fa91906107c0565b602060405180830381865afa158015610115573d5f803e3d5ffd5b505050506040513d601f19601f8201168201806040525081019061013991906107ed565b11610179576040517f08c379a000000000000000000000000000000000000000000000000000000000815260040161017090610872565b60405180910390fd5b5f8473ffffffffffffffffffffffffffffffffffffffff1663c7f758a8856040518263ffffffff1660e01b81526004016101b3919061089f565b602060405180830381865afa1580156101ce573d5f803e3d5ffd5b505050506040513d601f19601f820116820180604052508101906101f291906108f3565b90508073ffffffffffffffffffffffffffffffffffffffff166329dcb0cf6040518163ffffffff1660e01b8152600401602060405180830381865afa15801561023d573d5f803e3d5ffd5b505050506040513d601f19601f8201168201806040525081019061026191906107ed565b42106102a2576040517f08c379a000000000000000000000000000000000000000000000000000000000815260040161029990610968565b60405180910390fd5b8073ffffffffffffffffffffffffffffffffffffffff16639d5a05296040518163ffffffff1660e01b8152600401602060405180830381865afa1580156102eb573d5f803e3d5ffd5b505050506040513d601f19601f8201168201806040525081019061030f919061099a565b1561034f576040517f08c379a000000000000000000000000000000000000000000000000000000000815260040161034690610968565b60405180910390fd5b5f8573ffffffffffffffffffffffffffffffffffffffff166307e5678c336040518263ffffffff1660e01b815260040161038991906107c0565b602060405180830381865afa1580156103a4573d5f803e3d5ffd5b505050506040513d601f19601f820116820180604052508101906103c891906107ed565b90505f808681526020019081526020015f205f3373ffffffffffffffffffffffffffffffffffffffff1673ffffffffffffffffffffffffffffffffffffffff1681526020019081526020015f205f9054906101000a900460ff1615610462576040517f08c379a000000000000000000000000000000000000000000000000000000000815260040161045990610a0f565b60405180910390fd5b8173ffffffffffffffffffffffffffffffffffffffff1663b715651285836040518363ffffffff1660e01b815260040161049d929190610a2d565b5f604051808303815f87803b1580156104b4575f80fd5b505af11580156104c6573d5f803e3d5ffd5b5050505060015f808781526020019081526020015f205f3373ffffffffffffffffffffffffffffffffffffffff1673ffffffffffffffffffffffffffffffffffffffff1681526020019081526020015f205f6101000a81548160ff0219169083151502179055507f5aaa9aad7433112662b9e5ae23b96ed62b00035f413ab908c55607284e0804e285338660405161056093929190610a54565b60405180910390a1505050505050565b5f602052815f5260405f20602052805f5260405f205f915091509054906101000a900460ff1681565b5f805f8481526020019081526020015f205f8373ffffffffffffffffffffffffffffffffffffffff1673ffffffffffffffffffffffffffffffffffffffff1681526020019081526020015f205f9054906101000a900460ff16905092915050565b5f80fd5b5f73ffffffffffffffffffffffffffffffffffffffff82169050919050565b5f610627826105fe565b9050919050565b5f6106388261061d565b9050919050565b6106488161062e565b8114610652575f80fd5b50565b5f813590506106638161063f565b92915050565b5f819050919050565b61067b81610669565b8114610685575f80fd5b50565b5f8135905061069681610672565b92915050565b5f8115159050919050565b6106b08161069c565b81146106ba575f80fd5b50565b5f813590506106cb816106a7565b92915050565b5f805f606084860312156106e8576106e76105fa565b5b5f6106f586828701610655565b935050602061070686828701610688565b9250506040610717868287016106bd565b9150509250925092565b61072a8161061d565b8114610734575f80fd5b50565b5f8135905061074581610721565b92915050565b5f8060408385031215610761576107606105fa565b5b5f61076e85828601610688565b925050602061077f85828601610737565b9150509250929050565b6107928161069c565b82525050565b5f6020820190506107ab5f830184610789565b92915050565b6107ba8161061d565b82525050565b5f6020820190506107d35f8301846107b1565b92915050565b5f815190506107e781610672565b92915050565b5f60208284031215610802576108016105fa565b5b5f61080f848285016107d9565b91505092915050565b5f82825260208201905092915050565b7f596f7520646f206e6f74206861766520766f74696e67207269676874730000005f82015250565b5f61085c601d83610818565b915061086782610828565b602082019050919050565b5f6020820190508181035f83015261088981610850565b9050919050565b61089981610669565b82525050565b5f6020820190506108b25f830184610890565b92915050565b5f6108c28261061d565b9050919050565b6108d2816108b8565b81146108dc575f80fd5b50565b5f815190506108ed816108c9565b92915050565b5f60208284031215610908576109076105fa565b5b5f610915848285016108df565b91505092915050565b7f566f74696e672068617320656e646564000000000000000000000000000000005f82015250565b5f610952601083610818565b915061095d8261091e565b602082019050919050565b5f6020820190508181035f83015261097f81610946565b9050919050565b5f81519050610994816106a7565b92915050565b5f602082840312156109af576109ae6105fa565b5b5f6109bc84828501610986565b91505092915050565b7f596f75206861766520616c726561647920766f746564000000000000000000005f82015250565b5f6109f9601683610818565b9150610a04826109c5565b602082019050919050565b5f6020820190508181035f830152610a26816109ed565b9050919050565b5f604082019050610a405f830185610789565b610a4d6020830184610890565b9392505050565b5f606082019050610a675f830186610890565b610a7460208301856107b1565b610a816040830184610789565b94935050505056fea264697066735822122054c665bf3d76f1402a035b5013d4d43aa24df89e3017319016eaaae1ca420c2264736f6c634300081a0033",
					"opcodes": "PUSH1 0x80 PUSH1 0x40 MSTORE CALLVALUE DUP1 ISZERO PUSH2 0xF JUMPI PUSH0 DUP1 REVERT JUMPDEST POP PUSH0 DUP1 PUSH0 PUSH2 0x100 EXP DUP2 SLOAD DUP2 PUSH1 0xFF MUL NOT AND SWAP1 DUP4 ISZERO ISZERO MUL OR SWAP1 SSTORE POP PUSH1 0x1 DUP1 DUP2 SWAP1 SSTORE POP CALLER PUSH1 0x2 PUSH0 PUSH2 0x100 EXP DUP2 SLOAD DUP2 PUSH20 0xFFFFFFFFFFFFFFFFFFFFFFFFFFFFFFFFFFFFFFFF MUL NOT AND SWAP1 DUP4 PUSH20 0xFFFFFFFFFFFFFFFFFFFFFFFFFFFFFFFFFFFFFFFF AND MUL OR SWAP1 SSTORE POP PUSH1 0x40 MLOAD PUSH2 0x7B SWAP1 PUSH2 0xD9 JUMP JUMPDEST PUSH1 0x40 MLOAD DUP1 SWAP2 SUB SWAP1 PUSH0 CREATE DUP1 ISZERO DUP1 ISZERO PUSH2 0x94 JUMPI RETURNDATASIZE PUSH0 DUP1 RETURNDATACOPY RETURNDATASIZE PUSH0 REVERT JUMPDEST POP PUSH1 0x5 PUSH0 PUSH2 0x100 EXP DUP2 SLOAD DUP2 PUSH20 0xFFFFFFFFFFFFFFFFFFFFFFFFFFFFFFFFFFFFFFFF MUL NOT AND SWAP1 DUP4 PUSH20 0xFFFFFFFFFFFFFFFFFFFFFFFFFFFFFFFFFFFFFFFF AND MUL OR SWAP1 SSTORE POP PUSH2 0xE6 JUMP JUMPDEST PUSH2 0xADB DUP1 PUSH2 0x261F DUP4 CODECOPY ADD SWAP1 JUMP JUMPDEST PUSH2 0x252C DUP1 PUSH2 0xF3 PUSH0 CODECOPY PUSH0 RETURN INVALID PUSH1 0x80 PUSH1 0x40 MSTORE CALLVALUE DUP1 ISZERO PUSH2 0xF JUMPI PUSH0 DUP1 REVERT JUMPDEST POP PUSH1 0x4 CALLDATASIZE LT PUSH2 0xB2 JUMPI PUSH0 CALLDATALOAD PUSH1 0xE0 SHR DUP1 PUSH4 0x5C975ABB GT PUSH2 0x6F JUMPI DUP1 PUSH4 0x5C975ABB EQ PUSH2 0x176 JUMPI DUP1 PUSH4 0x75829DEF EQ PUSH2 0x194 JUMPI DUP1 PUSH4 0x8456CB59 EQ PUSH2 0x1B0 JUMPI DUP1 PUSH4 0x9BABDAD6 EQ PUSH2 0x1BA JUMPI DUP1 PUSH4 0xC7F758A8 EQ PUSH2 0x1D6 JUMPI DUP1 PUSH4 0xF851A440 EQ PUSH2 0x206 JUMPI PUSH2 0xB2 JUMP JUMPDEST DUP1 PUSH4 0x13CF08B EQ PUSH2 0xB6 JUMPI DUP1 PUSH4 0x7E5678C EQ PUSH2 0xE6 JUMPI DUP1 PUSH4 0xCE0EBF4 EQ PUSH2 0x116 JUMPI DUP1 PUSH4 0x3F4BA83A EQ PUSH2 0x132 JUMPI DUP1 PUSH4 0x46C96AAC EQ PUSH2 0x13C JUMPI DUP1 PUSH4 0x4D7EDC15 EQ PUSH2 0x15A JUMPI JUMPDEST PUSH0 DUP1 REVERT JUMPDEST PUSH2 0xD0 PUSH1 0x4 DUP1 CALLDATASIZE SUB DUP2 ADD SWAP1 PUSH2 0xCB SWAP2 SWAP1 PUSH2 0xC00 JUMP JUMPDEST PUSH2 0x224 JUMP JUMPDEST PUSH1 0x40 MLOAD PUSH2 0xDD SWAP2 SWAP1 PUSH2 0xCA5 JUMP JUMPDEST PUSH1 0x40 MLOAD DUP1 SWAP2 SUB SWAP1 RETURN JUMPDEST PUSH2 0x100 PUSH1 0x4 DUP1 CALLDATASIZE SUB DUP2 ADD SWAP1 PUSH2 0xFB SWAP2 SWAP1 PUSH2 0xCF9 JUMP JUMPDEST PUSH2 0x25F JUMP JUMPDEST PUSH1 0x40 MLOAD PUSH2 0x10D SWAP2 SWAP1 PUSH2 0xD33 JUMP JUMPDEST PUSH1 0x40 MLOAD DUP1 SWAP2 SUB SWAP1 RETURN JUMPDEST PUSH2 0x130 PUSH1 0x4 DUP1 CALLDATASIZE SUB DUP2 ADD SWAP1 PUSH2 0x12B SWAP2 SWAP1 PUSH2 0xE88 JUMP JUMPDEST PUSH2 0x274 JUMP JUMPDEST STOP JUMPDEST PUSH2 0x13A PUSH2 0x412 JUMP JUMPDEST STOP JUMPDEST PUSH2 0x144 PUSH2 0x4AB JUMP JUMPDEST PUSH1 0x40 MLOAD PUSH2 0x151 SWAP2 SWAP1 PUSH2 0xF30 JUMP JUMPDEST PUSH1 0x40 MLOAD DUP1 SWAP2 SUB SWAP1 RETURN JUMPDEST PUSH2 0x174 PUSH1 0x4 DUP1 CALLDATASIZE SUB DUP2 ADD SWAP1 PUSH2 0x16F SWAP2 SWAP1 PUSH2 0xF49 JUMP JUMPDEST PUSH2 0x4D0 JUMP JUMPDEST STOP JUMPDEST PUSH2 0x17E PUSH2 0x5F6 JUMP JUMPDEST PUSH1 0x40 MLOAD PUSH2 0x18B SWAP2 SWAP1 PUSH2 0xFA1 JUMP JUMPDEST PUSH1 0x40 MLOAD DUP1 SWAP2 SUB SWAP1 RETURN JUMPDEST PUSH2 0x1AE PUSH1 0x4 DUP1 CALLDATASIZE SUB DUP2 ADD SWAP1 PUSH2 0x1A9 SWAP2 SWAP1 PUSH2 0xCF9 JUMP JUMPDEST PUSH2 0x60A JUMP JUMPDEST STOP JUMPDEST PUSH2 0x1B8 PUSH2 0x75A JUMP JUMPDEST STOP JUMPDEST PUSH2 0x1D4 PUSH1 0x4 DUP1 CALLDATASIZE SUB DUP2 ADD SWAP1 PUSH2 0x1CF SWAP2 SWAP1 PUSH2 0xCF9 JUMP JUMPDEST PUSH2 0x7F3 JUMP JUMPDEST STOP JUMPDEST PUSH2 0x1F0 PUSH1 0x4 DUP1 CALLDATASIZE SUB DUP2 ADD SWAP1 PUSH2 0x1EB SWAP2 SWAP1 PUSH2 0xC00 JUMP JUMPDEST PUSH2 0x993 JUMP JUMPDEST PUSH1 0x40 MLOAD PUSH2 0x1FD SWAP2 SWAP1 PUSH2 0xCA5 JUMP JUMPDEST PUSH1 0x40 MLOAD DUP1 SWAP2 SUB SWAP1 RETURN JUMPDEST PUSH2 0x20E PUSH2 0x9D7 JUMP JUMPDEST PUSH1 0x40 MLOAD PUSH2 0x21B SWAP2 SWAP1 PUSH2 0xFC9 JUMP JUMPDEST PUSH1 0x40 MLOAD DUP1 SWAP2 SUB SWAP1 RETURN JUMPDEST PUSH1 0x4 DUP2 DUP2 SLOAD DUP2 LT PUSH2 0x233 JUMPI PUSH0 DUP1 REVERT JUMPDEST SWAP1 PUSH0 MSTORE PUSH1 0x20 PUSH0 KECCAK256 ADD PUSH0 SWAP2 POP SLOAD SWAP1 PUSH2 0x100 EXP SWAP1 DIV PUSH20 0xFFFFFFFFFFFFFFFFFFFFFFFFFFFFFFFFFFFFFFFF AND DUP2 JUMP JUMPDEST PUSH1 0x3 PUSH1 0x20 MSTORE DUP1 PUSH0 MSTORE PUSH1 0x40 PUSH0 KECCAK256 PUSH0 SWAP2 POP SWAP1 POP SLOAD DUP2 JUMP JUMPDEST PUSH1 0x2 PUSH0 SWAP1 SLOAD SWAP1 PUSH2 0x100 EXP SWAP1 DIV PUSH20 0xFFFFFFFFFFFFFFFFFFFFFFFFFFFFFFFFFFFFFFFF AND PUSH20 0xFFFFFFFFFFFFFFFFFFFFFFFFFFFFFFFFFFFFFFFF AND CALLER PUSH20 0xFFFFFFFFFFFFFFFFFFFFFFFFFFFFFFFFFFFFFFFF AND EQ PUSH2 0x303 JUMPI PUSH1 0x40 MLOAD PUSH32 0x8C379A000000000000000000000000000000000000000000000000000000000 DUP2 MSTORE PUSH1 0x4 ADD PUSH2 0x2FA SWAP1 PUSH2 0x1062 JUMP JUMPDEST PUSH1 0x40 MLOAD DUP1 SWAP2 SUB SWAP1 REVERT JUMPDEST PUSH2 0x30B PUSH2 0x9FC JUMP JUMPDEST PUSH2 0x313 PUSH2 0xA46 JUMP JUMPDEST PUSH0 DUP4 DUP4 DUP4 PUSH1 0x40 MLOAD PUSH2 0x323 SWAP1 PUSH2 0xBAF JUMP JUMPDEST PUSH2 0x32F SWAP4 SWAP3 SWAP2 SWAP1 PUSH2 0x10D0 JUMP JUMPDEST PUSH1 0x40 MLOAD DUP1 SWAP2 SUB SWAP1 PUSH0 CREATE DUP1 ISZERO DUP1 ISZERO PUSH2 0x348 JUMPI RETURNDATASIZE PUSH0 DUP1 RETURNDATACOPY RETURNDATASIZE PUSH0 REVERT JUMPDEST POP SWAP1 POP PUSH1 0x4 DUP2 SWAP1 DUP1 PUSH1 0x1 DUP2 SLOAD ADD DUP1 DUP3 SSTORE DUP1 SWAP2 POP POP PUSH1 0x1 SWAP1 SUB SWAP1 PUSH0 MSTORE PUSH1 0x20 PUSH0 KECCAK256 ADD PUSH0 SWAP1 SWAP2 SWAP1 SWAP2 SWAP1 SWAP2 PUSH2 0x100 EXP DUP2 SLOAD DUP2 PUSH20 0xFFFFFFFFFFFFFFFFFFFFFFFFFFFFFFFFFFFFFFFF MUL NOT AND SWAP1 DUP4 PUSH20 0xFFFFFFFFFFFFFFFFFFFFFFFFFFFFFFFFFFFFFFFF AND MUL OR SWAP1 SSTORE POP PUSH32 0x3F86606F711A448DAF3EC6C75D04DB9515B24B20B64A68406F971EB5A4E16187 PUSH1 0x1 PUSH1 0x4 DUP1 SLOAD SWAP1 POP PUSH2 0x3DE SWAP2 SWAP1 PUSH2 0x1140 JUMP JUMPDEST DUP6 DUP6 DUP6 TIMESTAMP PUSH2 0x3EC SWAP2 SWAP1 PUSH2 0x1173 JUMP JUMPDEST PUSH1 0x40 MLOAD PUSH2 0x3FC SWAP5 SWAP4 SWAP3 SWAP2 SWAP1 PUSH2 0x11A6 JUMP JUMPDEST PUSH1 0x40 MLOAD DUP1 SWAP2 SUB SWAP1 LOG1 POP PUSH2 0x40D PUSH2 0xA95 JUMP JUMPDEST POP POP POP JUMP JUMPDEST PUSH1 0x2 PUSH0 SWAP1 SLOAD SWAP1 PUSH2 0x100 EXP SWAP1 DIV PUSH20 0xFFFFFFFFFFFFFFFFFFFFFFFFFFFFFFFFFFFFFFFF AND PUSH20 0xFFFFFFFFFFFFFFFFFFFFFFFFFFFFFFFFFFFFFFFF AND CALLER PUSH20 0xFFFFFFFFFFFFFFFFFFFFFFFFFFFFFFFFFFFFFFFF AND EQ PUSH2 0x4A1 JUMPI PUSH1 0x40 MLOAD PUSH32 0x8C379A000000000000000000000000000000000000000000000000000000000 DUP2 MSTORE PUSH1 0x4 ADD PUSH2 0x498 SWAP1 PUSH2 0x1062 JUMP JUMPDEST PUSH1 0x40 MLOAD DUP1 SWAP2 SUB SWAP1 REVERT JUMPDEST PUSH2 0x4A9 PUSH2 0xA9E JUMP JUMPDEST JUMP JUMPDEST PUSH1 0x5 PUSH0 SWAP1 SLOAD SWAP1 PUSH2 0x100 EXP SWAP1 DIV PUSH20 0xFFFFFFFFFFFFFFFFFFFFFFFFFFFFFFFFFFFFFFFF AND DUP2 JUMP JUMPDEST PUSH1 0x2 PUSH0 SWAP1 SLOAD SWAP1 PUSH2 0x100 EXP SWAP1 DIV PUSH20 0xFFFFFFFFFFFFFFFFFFFFFFFFFFFFFFFFFFFFFFFF AND PUSH20 0xFFFFFFFFFFFFFFFFFFFFFFFFFFFFFFFFFFFFFFFF AND CALLER PUSH20 0xFFFFFFFFFFFFFFFFFFFFFFFFFFFFFFFFFFFFFFFF AND EQ PUSH2 0x55F JUMPI PUSH1 0x40 MLOAD PUSH32 0x8C379A000000000000000000000000000000000000000000000000000000000 DUP2 MSTORE PUSH1 0x4 ADD PUSH2 0x556 SWAP1 PUSH2 0x1062 JUMP JUMPDEST PUSH1 0x40 MLOAD DUP1 SWAP2 SUB SWAP1 REVERT JUMPDEST PUSH2 0x567 PUSH2 0x9FC JUMP JUMPDEST PUSH2 0x56F PUSH2 0xA46 JUMP JUMPDEST DUP1 PUSH1 0x3 PUSH0 DUP5 PUSH20 0xFFFFFFFFFFFFFFFFFFFFFFFFFFFFFFFFFFFFFFFF AND PUSH20 0xFFFFFFFFFFFFFFFFFFFFFFFFFFFFFFFFFFFFFFFF AND DUP2 MSTORE PUSH1 0x20 ADD SWAP1 DUP2 MSTORE PUSH1 0x20 ADD PUSH0 KECCAK256 DUP2 SWAP1 SSTORE POP PUSH32 0x15ECB136272DDF7C77D05760345F8602CE35FE776160E3F4622D911CC4851D8C DUP3 DUP3 PUSH1 0x40 MLOAD PUSH2 0x5E2 SWAP3 SWAP2 SWAP1 PUSH2 0x11F7 JUMP JUMPDEST PUSH1 0x40 MLOAD DUP1 SWAP2 SUB SWAP1 LOG1 PUSH2 0x5F2 PUSH2 0xA95 JUMP JUMPDEST POP POP JUMP JUMPDEST PUSH0 DUP1 PUSH0 SWAP1 SLOAD SWAP1 PUSH2 0x100 EXP SWAP1 DIV PUSH1 0xFF AND SWAP1 POP SWAP1 JUMP JUMPDEST PUSH1 0x2 PUSH0 SWAP1 SLOAD SWAP1 PUSH2 0x100 EXP SWAP1 DIV PUSH20 0xFFFFFFFFFFFFFFFFFFFFFFFFFFFFFFFFFFFFFFFF AND PUSH20 0xFFFFFFFFFFFFFFFFFFFFFFFFFFFFFFFFFFFFFFFF AND CALLER PUSH20 0xFFFFFFFFFFFFFFFFFFFFFFFFFFFFFFFFFFFFFFFF AND EQ PUSH2 0x699 JUMPI PUSH1 0x40 MLOAD PUSH32 0x8C379A000000000000000000000000000000000000000000000000000000000 DUP2 MSTORE PUSH1 0x4 ADD PUSH2 0x690 SWAP1 PUSH2 0x1062 JUMP JUMPDEST PUSH1 0x40 MLOAD DUP1 SWAP2 SUB SWAP1 REVERT JUMPDEST PUSH2 0x6A1 PUSH2 0xA46 JUMP JUMPDEST PUSH0 PUSH20 0xFFFFFFFFFFFFFFFFFFFFFFFFFFFFFFFFFFFFFFFF AND DUP2 PUSH20 0xFFFFFFFFFFFFFFFFFFFFFFFFFFFFFFFFFFFFFFFF AND SUB PUSH2 0x70F JUMPI PUSH1 0x40 MLOAD PUSH32 0x8C379A000000000000000000000000000000000000000000000000000000000 DUP2 MSTORE PUSH1 0x4 ADD PUSH2 0x706 SWAP1 PUSH2 0x128E JUMP JUMPDEST PUSH1 0x40 MLOAD DUP1 SWAP2 SUB SWAP1 REVERT JUMPDEST DUP1 PUSH1 0x2 PUSH0 PUSH2 0x100 EXP DUP2 SLOAD DUP2 PUSH20 0xFFFFFFFFFFFFFFFFFFFFFFFFFFFFFFFFFFFFFFFF MUL NOT AND SWAP1 DUP4 PUSH20 0xFFFFFFFFFFFFFFFFFFFFFFFFFFFFFFFFFFFFFFFF AND MUL OR SWAP1 SSTORE POP PUSH2 0x757 PUSH2 0xA95 JUMP JUMPDEST POP JUMP JUMPDEST PUSH1 0x2 PUSH0 SWAP1 SLOAD SWAP1 PUSH2 0x100 EXP SWAP1 DIV PUSH20 0xFFFFFFFFFFFFFFFFFFFFFFFFFFFFFFFFFFFFFFFF AND PUSH20 0xFFFFFFFFFFFFFFFFFFFFFFFFFFFFFFFFFFFFFFFF AND CALLER PUSH20 0xFFFFFFFFFFFFFFFFFFFFFFFFFFFFFFFFFFFFFFFF AND EQ PUSH2 0x7E9 JUMPI PUSH1 0x40 MLOAD PUSH32 0x8C379A000000000000000000000000000000000000000000000000000000000 DUP2 MSTORE PUSH1 0x4 ADD PUSH2 0x7E0 SWAP1 PUSH2 0x1062 JUMP JUMPDEST PUSH1 0x40 MLOAD DUP1 SWAP2 SUB SWAP1 REVERT JUMPDEST PUSH2 0x7F1 PUSH2 0xAFE JUMP JUMPDEST JUMP JUMPDEST PUSH1 0x2 PUSH0 SWAP1 SLOAD SWAP1 PUSH2 0x100 EXP SWAP1 DIV PUSH20 0xFFFFFFFFFFFFFFFFFFFFFFFFFFFFFFFFFFFFFFFF AND PUSH20 0xFFFFFFFFFFFFFFFFFFFFFFFFFFFFFFFFFFFFFFFF AND CALLER PUSH20 0xFFFFFFFFFFFFFFFFFFFFFFFFFFFFFFFFFFFFFFFF AND EQ PUSH2 0x882 JUMPI PUSH1 0x40 MLOAD PUSH32 0x8C379A000000000000000000000000000000000000000000000000000000000 DUP2 MSTORE PUSH1 0x4 ADD PUSH2 0x879 SWAP1 PUSH2 0x1062 JUMP JUMPDEST PUSH1 0x40 MLOAD DUP1 SWAP2 SUB SWAP1 REVERT JUMPDEST PUSH2 0x88A PUSH2 0x9FC JUMP JUMPDEST PUSH2 0x892 PUSH2 0xA46 JUMP JUMPDEST PUSH0 PUSH1 0x3 PUSH0 DUP4 PUSH20 0xFFFFFFFFFFFFFFFFFFFFFFFFFFFFFFFFFFFFFFFF AND PUSH20 0xFFFFFFFFFFFFFFFFFFFFFFFFFFFFFFFFFFFFFFFF AND DUP2 MSTORE PUSH1 0x20 ADD SWAP1 DUP2 MSTORE PUSH1 0x20 ADD PUSH0 KECCAK256 SLOAD GT PUSH2 0x911 JUMPI PUSH1 0x40 MLOAD PUSH32 0x8C379A000000000000000000000000000000000000000000000000000000000 DUP2 MSTORE PUSH1 0x4 ADD PUSH2 0x908 SWAP1 PUSH2 0x131C JUMP JUMPDEST PUSH1 0x40 MLOAD DUP1 SWAP2 SUB SWAP1 REVERT JUMPDEST PUSH1 0x3 PUSH0 DUP3 PUSH20 0xFFFFFFFFFFFFFFFFFFFFFFFFFFFFFFFFFFFFFFFF AND PUSH20 0xFFFFFFFFFFFFFFFFFFFFFFFFFFFFFFFFFFFFFFFF AND DUP2 MSTORE PUSH1 0x20 ADD SWAP1 DUP2 MSTORE PUSH1 0x20 ADD PUSH0 KECCAK256 PUSH0 SWAP1 SSTORE PUSH32 0x7BA114FF3D9844510A088EEA94CD35562E7C97A2D36A418B37B2E61E5C77AFFE DUP2 PUSH1 0x40 MLOAD PUSH2 0x980 SWAP2 SWAP1 PUSH2 0xFC9 JUMP JUMPDEST PUSH1 0x40 MLOAD DUP1 SWAP2 SUB SWAP1 LOG1 PUSH2 0x990 PUSH2 0xA95 JUMP JUMPDEST POP JUMP JUMPDEST PUSH0 PUSH1 0x4 DUP3 DUP2 SLOAD DUP2 LT PUSH2 0x9A8 JUMPI PUSH2 0x9A7 PUSH2 0x133A JUMP JUMPDEST JUMPDEST SWAP1 PUSH0 MSTORE PUSH1 0x20 PUSH0 KECCAK256 ADD PUSH0 SWAP1 SLOAD SWAP1 PUSH2 0x100 EXP SWAP1 DIV PUSH20 0xFFFFFFFFFFFFFFFFFFFFFFFFFFFFFFFFFFFFFFFF AND SWAP1 POP SWAP2 SWAP1 POP JUMP JUMPDEST PUSH1 0x2 PUSH0 SWAP1 SLOAD SWAP1 PUSH2 0x100 EXP SWAP1 DIV PUSH20 0xFFFFFFFFFFFFFFFFFFFFFFFFFFFFFFFFFFFFFFFF AND DUP2 JUMP JUMPDEST PUSH2 0xA04 PUSH2 0x5F6 JUMP JUMPDEST ISZERO PUSH2 0xA44 JUMPI PUSH1 0x40 MLOAD PUSH32 0x8C379A000000000000000000000000000000000000000000000000000000000 DUP2 MSTORE PUSH1 0x4 ADD PUSH2 0xA3B SWAP1 PUSH2 0x13B1 JUMP JUMPDEST PUSH1 0x40 MLOAD DUP1 SWAP2 SUB SWAP1 REVERT JUMPDEST JUMP JUMPDEST PUSH1 0x2 PUSH1 0x1 SLOAD SUB PUSH2 0xA8B JUMPI PUSH1 0x40 MLOAD PUSH32 0x8C379A000000000000000000000000000000000000000000000000000000000 DUP2 MSTORE PUSH1 0x4 ADD PUSH2 0xA82 SWAP1 PUSH2 0x1419 JUMP JUMPDEST PUSH1 0x40 MLOAD DUP1 SWAP2 SUB SWAP1 REVERT JUMPDEST PUSH1 0x2 PUSH1 0x1 DUP2 SWAP1 SSTORE POP JUMP JUMPDEST PUSH1 0x1 DUP1 DUP2 SWAP1 SSTORE POP JUMP JUMPDEST PUSH2 0xAA6 PUSH2 0xB5F JUMP JUMPDEST PUSH0 DUP1 PUSH0 PUSH2 0x100 EXP DUP2 SLOAD DUP2 PUSH1 0xFF MUL NOT AND SWAP1 DUP4 ISZERO ISZERO MUL OR SWAP1 SSTORE POP PUSH32 0x5DB9EE0A495BF2E6FF9C91A7834C1BA4FDD244A5E8AA4E537BD38AEAE4B073AA PUSH2 0xAE7 PUSH2 0xBA8 JUMP JUMPDEST PUSH1 0x40 MLOAD PUSH2 0xAF4 SWAP2 SWAP1 PUSH2 0xFC9 JUMP JUMPDEST PUSH1 0x40 MLOAD DUP1 SWAP2 SUB SWAP1 LOG1 JUMP JUMPDEST PUSH2 0xB06 PUSH2 0x9FC JUMP JUMPDEST PUSH1 0x1 PUSH0 DUP1 PUSH2 0x100 EXP DUP2 SLOAD DUP2 PUSH1 0xFF MUL NOT AND SWAP1 DUP4 ISZERO ISZERO MUL OR SWAP1 SSTORE POP PUSH32 0x62E78CEA01BEE320CD4E420270B5EA74000D11B0C9F74754EBDBFC544B05A258 PUSH2 0xB48 PUSH2 0xBA8 JUMP JUMPDEST PUSH1 0x40 MLOAD PUSH2 0xB55 SWAP2 SWAP1 PUSH2 0xFC9 JUMP JUMPDEST PUSH1 0x40 MLOAD DUP1 SWAP2 SUB SWAP1 LOG1 JUMP JUMPDEST PUSH2 0xB67 PUSH2 0x5F6 JUMP JUMPDEST PUSH2 0xBA6 JUMPI PUSH1 0x40 MLOAD PUSH32 0x8C379A000000000000000000000000000000000000000000000000000000000 DUP2 MSTORE PUSH1 0x4 ADD PUSH2 0xB9D SWAP1 PUSH2 0x1481 JUMP JUMPDEST PUSH1 0x40 MLOAD DUP1 SWAP2 SUB SWAP1 REVERT JUMPDEST JUMP JUMPDEST PUSH0 CALLER SWAP1 POP SWAP1 JUMP JUMPDEST PUSH2 0x1057 DUP1 PUSH2 0x14A0 DUP4 CODECOPY ADD SWAP1 JUMP JUMPDEST PUSH0 PUSH1 0x40 MLOAD SWAP1 POP SWAP1 JUMP JUMPDEST PUSH0 DUP1 REVERT JUMPDEST PUSH0 DUP1 REVERT JUMPDEST PUSH0 DUP2 SWAP1 POP SWAP2 SWAP1 POP JUMP JUMPDEST PUSH2 0xBDF DUP2 PUSH2 0xBCD JUMP JUMPDEST DUP2 EQ PUSH2 0xBE9 JUMPI PUSH0 DUP1 REVERT JUMPDEST POP JUMP JUMPDEST PUSH0 DUP2 CALLDATALOAD SWAP1 POP PUSH2 0xBFA DUP2 PUSH2 0xBD6 JUMP JUMPDEST SWAP3 SWAP2 POP POP JUMP JUMPDEST PUSH0 PUSH1 0x20 DUP3 DUP5 SUB SLT ISZERO PUSH2 0xC15 JUMPI PUSH2 0xC14 PUSH2 0xBC5 JUMP JUMPDEST JUMPDEST PUSH0 PUSH2 0xC22 DUP5 DUP3 DUP6 ADD PUSH2 0xBEC JUMP JUMPDEST SWAP2 POP POP SWAP3 SWAP2 POP POP JUMP JUMPDEST PUSH0 PUSH20 0xFFFFFFFFFFFFFFFFFFFFFFFFFFFFFFFFFFFFFFFF DUP3 AND SWAP1 POP SWAP2 SWAP1 POP JUMP JUMPDEST PUSH0 DUP2 SWAP1 POP SWAP2 SWAP1 POP JUMP JUMPDEST PUSH0 PUSH2 0xC6D PUSH2 0xC68 PUSH2 0xC63 DUP5 PUSH2 0xC2B JUMP JUMPDEST PUSH2 0xC4A JUMP JUMPDEST PUSH2 0xC2B JUMP JUMPDEST SWAP1 POP SWAP2 SWAP1 POP JUMP JUMPDEST PUSH0 PUSH2 0xC7E DUP3 PUSH2 0xC53 JUMP JUMPDEST SWAP1 POP SWAP2 SWAP1 POP JUMP JUMPDEST PUSH0 PUSH2 0xC8F DUP3 PUSH2 0xC74 JUMP JUMPDEST SWAP1 POP SWAP2 SWAP1 POP JUMP JUMPDEST PUSH2 0xC9F DUP2 PUSH2 0xC85 JUMP JUMPDEST DUP3 MSTORE POP POP JUMP JUMPDEST PUSH0 PUSH1 0x20 DUP3 ADD SWAP1 POP PUSH2 0xCB8 PUSH0 DUP4 ADD DUP5 PUSH2 0xC96 JUMP JUMPDEST SWAP3 SWAP2 POP POP JUMP JUMPDEST PUSH0 PUSH2 0xCC8 DUP3 PUSH2 0xC2B JUMP JUMPDEST SWAP1 POP SWAP2 SWAP1 POP JUMP JUMPDEST PUSH2 0xCD8 DUP2 PUSH2 0xCBE JUMP JUMPDEST DUP2 EQ PUSH2 0xCE2 JUMPI PUSH0 DUP1 REVERT JUMPDEST POP JUMP JUMPDEST PUSH0 DUP2 CALLDATALOAD SWAP1 POP PUSH2 0xCF3 DUP2 PUSH2 0xCCF JUMP JUMPDEST SWAP3 SWAP2 POP POP JUMP JUMPDEST PUSH0 PUSH1 0x20 DUP3 DUP5 SUB SLT ISZERO PUSH2 0xD0E JUMPI PUSH2 0xD0D PUSH2 0xBC5 JUMP JUMPDEST JUMPDEST PUSH0 PUSH2 0xD1B DUP5 DUP3 DUP6 ADD PUSH2 0xCE5 JUMP JUMPDEST SWAP2 POP POP SWAP3 SWAP2 POP POP JUMP JUMPDEST PUSH2 0xD2D DUP2 PUSH2 0xBCD JUMP JUMPDEST DUP3 MSTORE POP POP JUMP JUMPDEST PUSH0 PUSH1 0x20 DUP3 ADD SWAP1 POP PUSH2 0xD46 PUSH0 DUP4 ADD DUP5 PUSH2 0xD24 JUMP JUMPDEST SWAP3 SWAP2 POP POP JUMP JUMPDEST PUSH0 DUP1 REVERT JUMPDEST PUSH0 DUP1 REVERT JUMPDEST PUSH0 PUSH1 0x1F NOT PUSH1 0x1F DUP4 ADD AND SWAP1 POP SWAP2 SWAP1 POP JUMP JUMPDEST PUSH32 0x4E487B7100000000000000000000000000000000000000000000000000000000 PUSH0 MSTORE PUSH1 0x41 PUSH1 0x4 MSTORE PUSH1 0x24 PUSH0 REVERT JUMPDEST PUSH2 0xD9A DUP3 PUSH2 0xD54 JUMP JUMPDEST DUP2 ADD DUP2 DUP2 LT PUSH8 0xFFFFFFFFFFFFFFFF DUP3 GT OR ISZERO PUSH2 0xDB9 JUMPI PUSH2 0xDB8 PUSH2 0xD64 JUMP JUMPDEST JUMPDEST DUP1 PUSH1 0x40 MSTORE POP POP POP JUMP JUMPDEST PUSH0 PUSH2 0xDCB PUSH2 0xBBC JUMP JUMPDEST SWAP1 POP PUSH2 0xDD7 DUP3 DUP3 PUSH2 0xD91 JUMP JUMPDEST SWAP2 SWAP1 POP JUMP JUMPDEST PUSH0 PUSH8 0xFFFFFFFFFFFFFFFF DUP3 GT ISZERO PUSH2 0xDF6 JUMPI PUSH2 0xDF5 PUSH2 0xD64 JUMP JUMPDEST JUMPDEST PUSH2 0xDFF DUP3 PUSH2 0xD54 JUMP JUMPDEST SWAP1 POP PUSH1 0x20 DUP2 ADD SWAP1 POP SWAP2 SWAP1 POP JUMP JUMPDEST DUP3 DUP2 DUP4 CALLDATACOPY PUSH0 DUP4 DUP4 ADD MSTORE POP POP POP JUMP JUMPDEST PUSH0 PUSH2 0xE2C PUSH2 0xE27 DUP5 PUSH2 0xDDC JUMP JUMPDEST PUSH2 0xDC2 JUMP JUMPDEST SWAP1 POP DUP3 DUP2 MSTORE PUSH1 0x20 DUP2 ADD DUP5 DUP5 DUP5 ADD GT ISZERO PUSH2 0xE48 JUMPI PUSH2 0xE47 PUSH2 0xD50 JUMP JUMPDEST JUMPDEST PUSH2 0xE53 DUP5 DUP3 DUP6 PUSH2 0xE0C JUMP JUMPDEST POP SWAP4 SWAP3 POP POP POP JUMP JUMPDEST PUSH0 DUP3 PUSH1 0x1F DUP4 ADD SLT PUSH2 0xE6F JUMPI PUSH2 0xE6E PUSH2 0xD4C JUMP JUMPDEST JUMPDEST DUP2 CALLDATALOAD PUSH2 0xE7F DUP5 DUP3 PUSH1 0x20 DUP7 ADD PUSH2 0xE1A JUMP JUMPDEST SWAP2 POP POP SWAP3 SWAP2 POP POP JUMP JUMPDEST PUSH0 DUP1 PUSH0 PUSH1 0x60 DUP5 DUP7 SUB SLT ISZERO PUSH2 0xE9F JUMPI PUSH2 0xE9E PUSH2 0xBC5 JUMP JUMPDEST JUMPDEST PUSH0 DUP5 ADD CALLDATALOAD PUSH8 0xFFFFFFFFFFFFFFFF DUP2 GT ISZERO PUSH2 0xEBC JUMPI PUSH2 0xEBB PUSH2 0xBC9 JUMP JUMPDEST JUMPDEST PUSH2 0xEC8 DUP7 DUP3 DUP8 ADD PUSH2 0xE5B JUMP JUMPDEST SWAP4 POP POP PUSH1 0x20 DUP5 ADD CALLDATALOAD PUSH8 0xFFFFFFFFFFFFFFFF DUP2 GT ISZERO PUSH2 0xEE9 JUMPI PUSH2 0xEE8 PUSH2 0xBC9 JUMP JUMPDEST JUMPDEST PUSH2 0xEF5 DUP7 DUP3 DUP8 ADD PUSH2 0xE5B JUMP JUMPDEST SWAP3 POP POP PUSH1 0x40 PUSH2 0xF06 DUP7 DUP3 DUP8 ADD PUSH2 0xBEC JUMP JUMPDEST SWAP2 POP POP SWAP3 POP SWAP3 POP SWAP3 JUMP JUMPDEST PUSH0 PUSH2 0xF1A DUP3 PUSH2 0xC74 JUMP JUMPDEST SWAP1 POP SWAP2 SWAP1 POP JUMP JUMPDEST PUSH2 0xF2A DUP2 PUSH2 0xF10 JUMP JUMPDEST DUP3 MSTORE POP POP JUMP JUMPDEST PUSH0 PUSH1 0x20 DUP3 ADD SWAP1 POP PUSH2 0xF43 PUSH0 DUP4 ADD DUP5 PUSH2 0xF21 JUMP JUMPDEST SWAP3 SWAP2 POP POP JUMP JUMPDEST PUSH0 DUP1 PUSH1 0x40 DUP4 DUP6 SUB SLT ISZERO PUSH2 0xF5F JUMPI PUSH2 0xF5E PUSH2 0xBC5 JUMP JUMPDEST JUMPDEST PUSH0 PUSH2 0xF6C DUP6 DUP3 DUP7 ADD PUSH2 0xCE5 JUMP JUMPDEST SWAP3 POP POP PUSH1 0x20 PUSH2 0xF7D DUP6 DUP3 DUP7 ADD PUSH2 0xBEC JUMP JUMPDEST SWAP2 POP POP SWAP3 POP SWAP3 SWAP1 POP JUMP JUMPDEST PUSH0 DUP2 ISZERO ISZERO SWAP1 POP SWAP2 SWAP1 POP JUMP JUMPDEST PUSH2 0xF9B DUP2 PUSH2 0xF87 JUMP JUMPDEST DUP3 MSTORE POP POP JUMP JUMPDEST PUSH0 PUSH1 0x20 DUP3 ADD SWAP1 POP PUSH2 0xFB4 PUSH0 DUP4 ADD DUP5 PUSH2 0xF92 JUMP JUMPDEST SWAP3 SWAP2 POP POP JUMP JUMPDEST PUSH2 0xFC3 DUP2 PUSH2 0xCBE JUMP JUMPDEST DUP3 MSTORE POP POP JUMP JUMPDEST PUSH0 PUSH1 0x20 DUP3 ADD SWAP1 POP PUSH2 0xFDC PUSH0 DUP4 ADD DUP5 PUSH2 0xFBA JUMP JUMPDEST SWAP3 SWAP2 POP POP JUMP JUMPDEST PUSH0 DUP3 DUP3 MSTORE PUSH1 0x20 DUP3 ADD SWAP1 POP SWAP3 SWAP2 POP POP JUMP JUMPDEST PUSH32 0x4F6E6C79207468652061646D696E2063616E20706572666F726D207468697320 PUSH0 DUP3 ADD MSTORE PUSH32 0x616374696F6E0000000000000000000000000000000000000000000000000000 PUSH1 0x20 DUP3 ADD MSTORE POP JUMP JUMPDEST PUSH0 PUSH2 0x104C PUSH1 0x26 DUP4 PUSH2 0xFE2 JUMP JUMPDEST SWAP2 POP PUSH2 0x1057 DUP3 PUSH2 0xFF2 JUMP JUMPDEST PUSH1 0x40 DUP3 ADD SWAP1 POP SWAP2 SWAP1 POP JUMP JUMPDEST PUSH0 PUSH1 0x20 DUP3 ADD SWAP1 POP DUP2 DUP2 SUB PUSH0 DUP4 ADD MSTORE PUSH2 0x1079 DUP2 PUSH2 0x1040 JUMP JUMPDEST SWAP1 POP SWAP2 SWAP1 POP JUMP JUMPDEST PUSH0 DUP2 MLOAD SWAP1 POP SWAP2 SWAP1 POP JUMP JUMPDEST DUP3 DUP2 DUP4 MCOPY PUSH0 DUP4 DUP4 ADD MSTORE POP POP POP JUMP JUMPDEST PUSH0 PUSH2 0x10A2 DUP3 PUSH2 0x1080 JUMP JUMPDEST PUSH2 0x10AC DUP2 DUP6 PUSH2 0xFE2 JUMP JUMPDEST SWAP4 POP PUSH2 0x10BC DUP2 DUP6 PUSH1 0x20 DUP7 ADD PUSH2 0x108A JUMP JUMPDEST PUSH2 0x10C5 DUP2 PUSH2 0xD54 JUMP JUMPDEST DUP5 ADD SWAP2 POP POP SWAP3 SWAP2 POP POP JUMP JUMPDEST PUSH0 PUSH1 0x60 DUP3 ADD SWAP1 POP DUP2 DUP2 SUB PUSH0 DUP4 ADD MSTORE PUSH2 0x10E8 DUP2 DUP7 PUSH2 0x1098 JUMP JUMPDEST SWAP1 POP DUP2 DUP2 SUB PUSH1 0x20 DUP4 ADD MSTORE PUSH2 0x10FC DUP2 DUP6 PUSH2 0x1098 JUMP JUMPDEST SWAP1 POP PUSH2 0x110B PUSH1 0x40 DUP4 ADD DUP5 PUSH2 0xD24 JUMP JUMPDEST SWAP5 SWAP4 POP POP POP POP JUMP JUMPDEST PUSH32 0x4E487B7100000000000000000000000000000000000000000000000000000000 PUSH0 MSTORE PUSH1 0x11 PUSH1 0x4 MSTORE PUSH1 0x24 PUSH0 REVERT JUMPDEST PUSH0 PUSH2 0x114A DUP3 PUSH2 0xBCD JUMP JUMPDEST SWAP2 POP PUSH2 0x1155 DUP4 PUSH2 0xBCD JUMP JUMPDEST SWAP3 POP DUP3 DUP3 SUB SWAP1 POP DUP2 DUP2 GT ISZERO PUSH2 0x116D JUMPI PUSH2 0x116C PUSH2 0x1113 JUMP JUMPDEST JUMPDEST SWAP3 SWAP2 POP POP JUMP JUMPDEST PUSH0 PUSH2 0x117D DUP3 PUSH2 0xBCD JUMP JUMPDEST SWAP2 POP PUSH2 0x1188 DUP4 PUSH2 0xBCD JUMP JUMPDEST SWAP3 POP DUP3 DUP3 ADD SWAP1 POP DUP1 DUP3 GT ISZERO PUSH2 0x11A0 JUMPI PUSH2 0x119F PUSH2 0x1113 JUMP JUMPDEST JUMPDEST SWAP3 SWAP2 POP POP JUMP JUMPDEST PUSH0 PUSH1 0x80 DUP3 ADD SWAP1 POP PUSH2 0x11B9 PUSH0 DUP4 ADD DUP8 PUSH2 0xD24 JUMP JUMPDEST DUP2 DUP2 SUB PUSH1 0x20 DUP4 ADD MSTORE PUSH2 0x11CB DUP2 DUP7 PUSH2 0x1098 JUMP JUMPDEST SWAP1 POP DUP2 DUP2 SUB PUSH1 0x40 DUP4 ADD MSTORE PUSH2 0x11DF DUP2 DUP6 PUSH2 0x1098 JUMP JUMPDEST SWAP1 POP PUSH2 0x11EE PUSH1 0x60 DUP4 ADD DUP5 PUSH2 0xD24 JUMP JUMPDEST SWAP6 SWAP5 POP POP POP POP POP JUMP JUMPDEST PUSH0 PUSH1 0x40 DUP3 ADD SWAP1 POP PUSH2 0x120A PUSH0 DUP4 ADD DUP6 PUSH2 0xFBA JUMP JUMPDEST PUSH2 0x1217 PUSH1 0x20 DUP4 ADD DUP5 PUSH2 0xD24 JUMP JUMPDEST SWAP4 SWAP3 POP POP POP JUMP JUMPDEST PUSH32 0x4E65772061646D696E20616464726573732063616E6E6F74206265207A65726F PUSH0 DUP3 ADD MSTORE PUSH32 0x2061646472657373000000000000000000000000000000000000000000000000 PUSH1 0x20 DUP3 ADD MSTORE POP JUMP JUMPDEST PUSH0 PUSH2 0x1278 PUSH1 0x28 DUP4 PUSH2 0xFE2 JUMP JUMPDEST SWAP2 POP PUSH2 0x1283 DUP3 PUSH2 0x121E JUMP JUMPDEST PUSH1 0x40 DUP3 ADD SWAP1 POP SWAP2 SWAP1 POP JUMP JUMPDEST PUSH0 PUSH1 0x20 DUP3 ADD SWAP1 POP DUP2 DUP2 SUB PUSH0 DUP4 ADD MSTORE PUSH2 0x12A5 DUP2 PUSH2 0x126C JUMP JUMPDEST SWAP1 POP SWAP2 SWAP1 POP JUMP JUMPDEST PUSH32 0x546865206164647265737320646F6573206E6F74206861766520616E7920746F PUSH0 DUP3 ADD MSTORE PUSH32 0x6B656E7300000000000000000000000000000000000000000000000000000000 PUSH1 0x20 DUP3 ADD MSTORE POP JUMP JUMPDEST PUSH0 PUSH2 0x1306 PUSH1 0x24 DUP4 PUSH2 0xFE2 JUMP JUMPDEST SWAP2 POP PUSH2 0x1311 DUP3 PUSH2 0x12AC JUMP JUMPDEST PUSH1 0x40 DUP3 ADD SWAP1 POP SWAP2 SWAP1 POP JUMP JUMPDEST PUSH0 PUSH1 0x20 DUP3 ADD SWAP1 POP DUP2 DUP2 SUB PUSH0 DUP4 ADD MSTORE PUSH2 0x1333 DUP2 PUSH2 0x12FA JUMP JUMPDEST SWAP1 POP SWAP2 SWAP1 POP JUMP JUMPDEST PUSH32 0x4E487B7100000000000000000000000000000000000000000000000000000000 PUSH0 MSTORE PUSH1 0x32 PUSH1 0x4 MSTORE PUSH1 0x24 PUSH0 REVERT JUMPDEST PUSH32 0x5061757361626C653A2070617573656400000000000000000000000000000000 PUSH0 DUP3 ADD MSTORE POP JUMP JUMPDEST PUSH0 PUSH2 0x139B PUSH1 0x10 DUP4 PUSH2 0xFE2 JUMP JUMPDEST SWAP2 POP PUSH2 0x13A6 DUP3 PUSH2 0x1367 JUMP JUMPDEST PUSH1 0x20 DUP3 ADD SWAP1 POP SWAP2 SWAP1 POP JUMP JUMPDEST PUSH0 PUSH1 0x20 DUP3 ADD SWAP1 POP DUP2 DUP2 SUB PUSH0 DUP4 ADD MSTORE PUSH2 0x13C8 DUP2 PUSH2 0x138F JUMP JUMPDEST SWAP1 POP SWAP2 SWAP1 POP JUMP JUMPDEST PUSH32 0x5265656E7472616E637947756172643A207265656E7472616E742063616C6C00 PUSH0 DUP3 ADD MSTORE POP JUMP JUMPDEST PUSH0 PUSH2 0x1403 PUSH1 0x1F DUP4 PUSH2 0xFE2 JUMP JUMPDEST SWAP2 POP PUSH2 0x140E DUP3 PUSH2 0x13CF JUMP JUMPDEST PUSH1 0x20 DUP3 ADD SWAP1 POP SWAP2 SWAP1 POP JUMP JUMPDEST PUSH0 PUSH1 0x20 DUP3 ADD SWAP1 POP DUP2 DUP2 SUB PUSH0 DUP4 ADD MSTORE PUSH2 0x1430 DUP2 PUSH2 0x13F7 JUMP JUMPDEST SWAP1 POP SWAP2 SWAP1 POP JUMP JUMPDEST PUSH32 0x5061757361626C653A206E6F7420706175736564000000000000000000000000 PUSH0 DUP3 ADD MSTORE POP JUMP JUMPDEST PUSH0 PUSH2 0x146B PUSH1 0x14 DUP4 PUSH2 0xFE2 JUMP JUMPDEST SWAP2 POP PUSH2 0x1476 DUP3 PUSH2 0x1437 JUMP JUMPDEST PUSH1 0x20 DUP3 ADD SWAP1 POP SWAP2 SWAP1 POP JUMP JUMPDEST PUSH0 PUSH1 0x20 DUP3 ADD SWAP1 POP DUP2 DUP2 SUB PUSH0 DUP4 ADD MSTORE PUSH2 0x1498 DUP2 PUSH2 0x145F JUMP JUMPDEST SWAP1 POP SWAP2 SWAP1 POP JUMP INVALID PUSH1 0x80 PUSH1 0x40 MSTORE CALLVALUE DUP1 ISZERO PUSH2 0xF JUMPI PUSH0 DUP1 REVERT JUMPDEST POP PUSH1 0x40 MLOAD PUSH2 0x1057 CODESIZE SUB DUP1 PUSH2 0x1057 DUP4 CODECOPY DUP2 DUP2 ADD PUSH1 0x40 MSTORE DUP2 ADD SWAP1 PUSH2 0x31 SWAP2 SWAP1 PUSH2 0x203 JUMP JUMPDEST DUP3 PUSH0 SWAP1 DUP2 PUSH2 0x3F SWAP2 SWAP1 PUSH2 0x48F JUMP JUMPDEST POP DUP2 PUSH1 0x1 SWAP1 DUP2 PUSH2 0x4F SWAP2 SWAP1 PUSH2 0x48F JUMP JUMPDEST POP DUP1 TIMESTAMP PUSH2 0x5C SWAP2 SWAP1 PUSH2 0x58B JUMP JUMPDEST PUSH1 0x2 DUP2 SWAP1 SSTORE POP PUSH0 PUSH1 0x5 PUSH0 PUSH2 0x100 EXP DUP2 SLOAD DUP2 PUSH1 0xFF MUL NOT AND SWAP1 DUP4 ISZERO ISZERO MUL OR SWAP1 SSTORE POP POP POP POP PUSH2 0x5BE JUMP JUMPDEST PUSH0 PUSH1 0x40 MLOAD SWAP1 POP SWAP1 JUMP JUMPDEST PUSH0 DUP1 REVERT JUMPDEST PUSH0 DUP1 REVERT JUMPDEST PUSH0 DUP1 REVERT JUMPDEST PUSH0 DUP1 REVERT JUMPDEST PUSH0 PUSH1 0x1F NOT PUSH1 0x1F DUP4 ADD AND SWAP1 POP SWAP2 SWAP1 POP JUMP JUMPDEST PUSH32 0x4E487B7100000000000000000000000000000000000000000000000000000000 PUSH0 MSTORE PUSH1 0x41 PUSH1 0x4 MSTORE PUSH1 0x24 PUSH0 REVERT JUMPDEST PUSH2 0xE2 DUP3 PUSH2 0x9C JUMP JUMPDEST DUP2 ADD DUP2 DUP2 LT PUSH8 0xFFFFFFFFFFFFFFFF DUP3 GT OR ISZERO PUSH2 0x101 JUMPI PUSH2 0x100 PUSH2 0xAC JUMP JUMPDEST JUMPDEST DUP1 PUSH1 0x40 MSTORE POP POP POP JUMP JUMPDEST PUSH0 PUSH2 0x113 PUSH2 0x83 JUMP JUMPDEST SWAP1 POP PUSH2 0x11F DUP3 DUP3 PUSH2 0xD9 JUMP JUMPDEST SWAP2 SWAP1 POP JUMP JUMPDEST PUSH0 PUSH8 0xFFFFFFFFFFFFFFFF DUP3 GT ISZERO PUSH2 0x13E JUMPI PUSH2 0x13D PUSH2 0xAC JUMP JUMPDEST JUMPDEST PUSH2 0x147 DUP3 PUSH2 0x9C JUMP JUMPDEST SWAP1 POP PUSH1 0x20 DUP2 ADD SWAP1 POP SWAP2 SWAP1 POP JUMP JUMPDEST DUP3 DUP2 DUP4 MCOPY PUSH0 DUP4 DUP4 ADD MSTORE POP POP POP JUMP JUMPDEST PUSH0 PUSH2 0x174 PUSH2 0x16F DUP5 PUSH2 0x124 JUMP JUMPDEST PUSH2 0x10A JUMP JUMPDEST SWAP1 POP DUP3 DUP2 MSTORE PUSH1 0x20 DUP2 ADD DUP5 DUP5 DUP5 ADD GT ISZERO PUSH2 0x190 JUMPI PUSH2 0x18F PUSH2 0x98 JUMP JUMPDEST JUMPDEST PUSH2 0x19B DUP5 DUP3 DUP6 PUSH2 0x154 JUMP JUMPDEST POP SWAP4 SWAP3 POP POP POP JUMP JUMPDEST PUSH0 DUP3 PUSH1 0x1F DUP4 ADD SLT PUSH2 0x1B7 JUMPI PUSH2 0x1B6 PUSH2 0x94 JUMP JUMPDEST JUMPDEST DUP2 MLOAD PUSH2 0x1C7 DUP5 DUP3 PUSH1 0x20 DUP7 ADD PUSH2 0x162 JUMP JUMPDEST SWAP2 POP POP SWAP3 SWAP2 POP POP JUMP JUMPDEST PUSH0 DUP2 SWAP1 POP SWAP2 SWAP1 POP JUMP JUMPDEST PUSH2 0x1E2 DUP2 PUSH2 0x1D0 JUMP JUMPDEST DUP2 EQ PUSH2 0x1EC JUMPI PUSH0 DUP1 REVERT JUMPDEST POP JUMP JUMPDEST PUSH0 DUP2 MLOAD SWAP1 POP PUSH2 0x1FD DUP2 PUSH2 0x1D9 JUMP JUMPDEST SWAP3 SWAP2 POP POP JUMP JUMPDEST PUSH0 DUP1 PUSH0 PUSH1 0x60 DUP5 DUP7 SUB SLT ISZERO PUSH2 0x21A JUMPI PUSH2 0x219 PUSH2 0x8C JUMP JUMPDEST JUMPDEST PUSH0 DUP5 ADD MLOAD PUSH8 0xFFFFFFFFFFFFFFFF DUP2 GT ISZERO PUSH2 0x237 JUMPI PUSH2 0x236 PUSH2 0x90 JUMP JUMPDEST JUMPDEST PUSH2 0x243 DUP7 DUP3 DUP8 ADD PUSH2 0x1A3 JUMP JUMPDEST SWAP4 POP POP PUSH1 0x20 DUP5 ADD MLOAD PUSH8 0xFFFFFFFFFFFFFFFF DUP2 GT ISZERO PUSH2 0x264 JUMPI PUSH2 0x263 PUSH2 0x90 JUMP JUMPDEST JUMPDEST PUSH2 0x270 DUP7 DUP3 DUP8 ADD PUSH2 0x1A3 JUMP JUMPDEST SWAP3 POP POP PUSH1 0x40 PUSH2 0x281 DUP7 DUP3 DUP8 ADD PUSH2 0x1EF JUMP JUMPDEST SWAP2 POP POP SWAP3 POP SWAP3 POP SWAP3 JUMP JUMPDEST PUSH0 DUP2 MLOAD SWAP1 POP SWAP2 SWAP1 POP JUMP JUMPDEST PUSH32 0x4E487B7100000000000000000000000000000000000000000000000000000000 PUSH0 MSTORE PUSH1 0x22 PUSH1 0x4 MSTORE PUSH1 0x24 PUSH0 REVERT JUMPDEST PUSH0 PUSH1 0x2 DUP3 DIV SWAP1 POP PUSH1 0x1 DUP3 AND DUP1 PUSH2 0x2D9 JUMPI PUSH1 0x7F DUP3 AND SWAP2 POP JUMPDEST PUSH1 0x20 DUP3 LT DUP2 SUB PUSH2 0x2EC JUMPI PUSH2 0x2EB PUSH2 0x295 JUMP JUMPDEST JUMPDEST POP SWAP2 SWAP1 POP JUMP JUMPDEST PUSH0 DUP2 SWAP1 POP DUP2 PUSH0 MSTORE PUSH1 0x20 PUSH0 KECCAK256 SWAP1 POP SWAP2 SWAP1 POP JUMP JUMPDEST PUSH0 PUSH1 0x20 PUSH1 0x1F DUP4 ADD DIV SWAP1 POP SWAP2 SWAP1 POP JUMP JUMPDEST PUSH0 DUP3 DUP3 SHL SWAP1 POP SWAP3 SWAP2 POP POP JUMP JUMPDEST PUSH0 PUSH1 0x8 DUP4 MUL PUSH2 0x34E PUSH32 0xFFFFFFFFFFFFFFFFFFFFFFFFFFFFFFFFFFFFFFFFFFFFFFFFFFFFFFFFFFFFFFFF DUP3 PUSH2 0x313 JUMP JUMPDEST PUSH2 0x358 DUP7 DUP4 PUSH2 0x313 JUMP JUMPDEST SWAP6 POP DUP1 NOT DUP5 AND SWAP4 POP DUP1 DUP7 AND DUP5 OR SWAP3 POP POP POP SWAP4 SWAP3 POP POP POP JUMP JUMPDEST PUSH0 DUP2 SWAP1 POP SWAP2 SWAP1 POP JUMP JUMPDEST PUSH0 PUSH2 0x393 PUSH2 0x38E PUSH2 0x389 DUP5 PUSH2 0x1D0 JUMP JUMPDEST PUSH2 0x370 JUMP JUMPDEST PUSH2 0x1D0 JUMP JUMPDEST SWAP1 POP SWAP2 SWAP1 POP JUMP JUMPDEST PUSH0 DUP2 SWAP1 POP SWAP2 SWAP1 POP JUMP JUMPDEST PUSH2 0x3AC DUP4 PUSH2 0x379 JUMP JUMPDEST PUSH2 0x3C0 PUSH2 0x3B8 DUP3 PUSH2 0x39A JUMP JUMPDEST DUP5 DUP5 SLOAD PUSH2 0x31F JUMP JUMPDEST DUP3 SSTORE POP POP POP POP JUMP JUMPDEST PUSH0 SWAP1 JUMP JUMPDEST PUSH2 0x3D4 PUSH2 0x3C8 JUMP JUMPDEST PUSH2 0x3DF DUP2 DUP5 DUP5 PUSH2 0x3A3 JUMP JUMPDEST POP POP POP JUMP JUMPDEST JUMPDEST DUP2 DUP2 LT ISZERO PUSH2 0x402 JUMPI PUSH2 0x3F7 PUSH0 DUP3 PUSH2 0x3CC JUMP JUMPDEST PUSH1 0x1 DUP2 ADD SWAP1 POP PUSH2 0x3E5 JUMP JUMPDEST POP POP JUMP JUMPDEST PUSH1 0x1F DUP3 GT ISZERO PUSH2 0x447 JUMPI PUSH2 0x418 DUP2 PUSH2 0x2F2 JUMP JUMPDEST PUSH2 0x421 DUP5 PUSH2 0x304 JUMP JUMPDEST DUP2 ADD PUSH1 0x20 DUP6 LT ISZERO PUSH2 0x430 JUMPI DUP2 SWAP1 POP JUMPDEST PUSH2 0x444 PUSH2 0x43C DUP6 PUSH2 0x304 JUMP JUMPDEST DUP4 ADD DUP3 PUSH2 0x3E4 JUMP JUMPDEST POP POP JUMPDEST POP POP POP JUMP JUMPDEST PUSH0 DUP3 DUP3 SHR SWAP1 POP SWAP3 SWAP2 POP POP JUMP JUMPDEST PUSH0 PUSH2 0x467 PUSH0 NOT DUP5 PUSH1 0x8 MUL PUSH2 0x44C JUMP JUMPDEST NOT DUP1 DUP4 AND SWAP2 POP POP SWAP3 SWAP2 POP POP JUMP JUMPDEST PUSH0 PUSH2 0x47F DUP4 DUP4 PUSH2 0x458 JUMP JUMPDEST SWAP2 POP DUP3 PUSH1 0x2 MUL DUP3 OR SWAP1 POP SWAP3 SWAP2 POP POP JUMP JUMPDEST PUSH2 0x498 DUP3 PUSH2 0x28B JUMP JUMPDEST PUSH8 0xFFFFFFFFFFFFFFFF DUP2 GT ISZERO PUSH2 0x4B1 JUMPI PUSH2 0x4B0 PUSH2 0xAC JUMP JUMPDEST JUMPDEST PUSH2 0x4BB DUP3 SLOAD PUSH2 0x2C2 JUMP JUMPDEST PUSH2 0x4C6 DUP3 DUP3 DUP6 PUSH2 0x406 JUMP JUMPDEST PUSH0 PUSH1 0x20 SWAP1 POP PUSH1 0x1F DUP4 GT PUSH1 0x1 DUP2 EQ PUSH2 0x4F7 JUMPI PUSH0 DUP5 ISZERO PUSH2 0x4E5 JUMPI DUP3 DUP8 ADD MLOAD SWAP1 POP JUMPDEST PUSH2 0x4EF DUP6 DUP3 PUSH2 0x474 JUMP JUMPDEST DUP7 SSTORE POP PUSH2 0x556 JUMP JUMPDEST PUSH1 0x1F NOT DUP5 AND PUSH2 0x505 DUP7 PUSH2 0x2F2 JUMP JUMPDEST PUSH0 JUMPDEST DUP3 DUP2 LT ISZERO PUSH2 0x52C JUMPI DUP5 DUP10 ADD MLOAD DUP3 SSTORE PUSH1 0x1 DUP3 ADD SWAP2 POP PUSH1 0x20 DUP6 ADD SWAP5 POP PUSH1 0x20 DUP2 ADD SWAP1 POP PUSH2 0x507 JUMP JUMPDEST DUP7 DUP4 LT ISZERO PUSH2 0x549 JUMPI DUP5 DUP10 ADD MLOAD PUSH2 0x545 PUSH1 0x1F DUP10 AND DUP3 PUSH2 0x458 JUMP JUMPDEST DUP4 SSTORE POP JUMPDEST PUSH1 0x1 PUSH1 0x2 DUP9 MUL ADD DUP9 SSTORE POP POP POP JUMPDEST POP POP POP POP POP POP JUMP JUMPDEST PUSH32 0x4E487B7100000000000000000000000000000000000000000000000000000000 PUSH0 MSTORE PUSH1 0x11 PUSH1 0x4 MSTORE PUSH1 0x24 PUSH0 REVERT JUMPDEST PUSH0 PUSH2 0x595 DUP3 PUSH2 0x1D0 JUMP JUMPDEST SWAP2 POP PUSH2 0x5A0 DUP4 PUSH2 0x1D0 JUMP JUMPDEST SWAP3 POP DUP3 DUP3 ADD SWAP1 POP DUP1 DUP3 GT ISZERO PUSH2 0x5B8 JUMPI PUSH2 0x5B7 PUSH2 0x55E JUMP JUMPDEST JUMPDEST SWAP3 SWAP2 POP POP JUMP JUMPDEST PUSH2 0xA8C DUP1 PUSH2 0x5CB PUSH0 CODECOPY PUSH0 RETURN INVALID PUSH1 0x80 PUSH1 0x40 MSTORE CALLVALUE DUP1 ISZERO PUSH2 0xF JUMPI PUSH0 DUP1 REVERT JUMPDEST POP PUSH1 0x4 CALLDATASIZE LT PUSH2 0x91 JUMPI PUSH0 CALLDATALOAD PUSH1 0xE0 SHR DUP1 PUSH4 0x9D5A0529 GT PUSH2 0x64 JUMPI DUP1 PUSH4 0x9D5A0529 EQ PUSH2 0x110 JUMPI DUP1 PUSH4 0xB5B47F42 EQ PUSH2 0x12E JUMPI DUP1 PUSH4 0xB7156512 EQ PUSH2 0x14C JUMPI DUP1 PUSH4 0xC3403DDF EQ PUSH2 0x168 JUMPI DUP1 PUSH4 0xFB286C65 EQ PUSH2 0x172 JUMPI PUSH2 0x91 JUMP JUMPDEST DUP1 PUSH4 0x6FDDE03 EQ PUSH2 0x95 JUMPI DUP1 PUSH4 0x29DCB0CF EQ PUSH2 0xB3 JUMPI DUP1 PUSH4 0x4717F97C EQ PUSH2 0xD1 JUMPI DUP1 PUSH4 0x7284E416 EQ PUSH2 0xF2 JUMPI JUMPDEST PUSH0 DUP1 REVERT JUMPDEST PUSH2 0x9D PUSH2 0x190 JUMP JUMPDEST PUSH1 0x40 MLOAD PUSH2 0xAA SWAP2 SWAP1 PUSH2 0x616 JUMP JUMPDEST PUSH1 0x40 MLOAD DUP1 SWAP2 SUB SWAP1 RETURN JUMPDEST PUSH2 0xBB PUSH2 0x21B JUMP JUMPDEST PUSH1 0x40 MLOAD PUSH2 0xC8 SWAP2 SWAP1 PUSH2 0x64E JUMP JUMPDEST PUSH1 0x40 MLOAD DUP1 SWAP2 SUB SWAP1 RETURN JUMPDEST PUSH2 0xD9 PUSH2 0x221 JUMP JUMPDEST PUSH1 0x40 MLOAD PUSH2 0xE9 SWAP5 SWAP4 SWAP3 SWAP2 SWAP1 PUSH2 0x681 JUMP JUMPDEST PUSH1 0x40 MLOAD DUP1 SWAP2 SUB SWAP1 RETURN JUMPDEST PUSH2 0xFA PUSH2 0x313 JUMP JUMPDEST PUSH1 0x40 MLOAD PUSH2 0x107 SWAP2 SWAP1 PUSH2 0x616 JUMP JUMPDEST PUSH1 0x40 MLOAD DUP1 SWAP2 SUB SWAP1 RETURN JUMPDEST PUSH2 0x118 PUSH2 0x39F JUMP JUMPDEST PUSH1 0x40 MLOAD PUSH2 0x125 SWAP2 SWAP1 PUSH2 0x6CB JUMP JUMPDEST PUSH1 0x40 MLOAD DUP1 SWAP2 SUB SWAP1 RETURN JUMPDEST PUSH2 0x136 PUSH2 0x3B1 JUMP JUMPDEST PUSH1 0x40 MLOAD PUSH2 0x143 SWAP2 SWAP1 PUSH2 0x64E JUMP JUMPDEST PUSH1 0x40 MLOAD DUP1 SWAP2 SUB SWAP1 RETURN JUMPDEST PUSH2 0x166 PUSH1 0x4 DUP1 CALLDATASIZE SUB DUP2 ADD SWAP1 PUSH2 0x161 SWAP2 SWAP1 PUSH2 0x73C JUMP JUMPDEST PUSH2 0x3B7 JUMP JUMPDEST STOP JUMPDEST PUSH2 0x170 PUSH2 0x48A JUMP JUMPDEST STOP JUMPDEST PUSH2 0x17A PUSH2 0x5A0 JUMP JUMPDEST PUSH1 0x40 MLOAD PUSH2 0x187 SWAP2 SWAP1 PUSH2 0x64E JUMP JUMPDEST PUSH1 0x40 MLOAD DUP1 SWAP2 SUB SWAP1 RETURN JUMPDEST PUSH0 DUP1 SLOAD PUSH2 0x19C SWAP1 PUSH2 0x7A7 JUMP JUMPDEST DUP1 PUSH1 0x1F ADD PUSH1 0x20 DUP1 SWAP2 DIV MUL PUSH1 0x20 ADD PUSH1 0x40 MLOAD SWAP1 DUP2 ADD PUSH1 0x40 MSTORE DUP1 SWAP3 SWAP2 SWAP1 DUP2 DUP2 MSTORE PUSH1 0x20 ADD DUP3 DUP1 SLOAD PUSH2 0x1C8 SWAP1 PUSH2 0x7A7 JUMP JUMPDEST DUP1 ISZERO PUSH2 0x213 JUMPI DUP1 PUSH1 0x1F LT PUSH2 0x1EA JUMPI PUSH2 0x100 DUP1 DUP4 SLOAD DIV MUL DUP4 MSTORE SWAP2 PUSH1 0x20 ADD SWAP2 PUSH2 0x213 JUMP JUMPDEST DUP3 ADD SWAP2 SWAP1 PUSH0 MSTORE PUSH1 0x20 PUSH0 KECCAK256 SWAP1 JUMPDEST DUP2 SLOAD DUP2 MSTORE SWAP1 PUSH1 0x1 ADD SWAP1 PUSH1 0x20 ADD DUP1 DUP4 GT PUSH2 0x1F6 JUMPI DUP3 SWAP1 SUB PUSH1 0x1F AND DUP3 ADD SWAP2 JUMPDEST POP POP POP POP POP DUP2 JUMP JUMPDEST PUSH1 0x2 SLOAD DUP2 JUMP JUMPDEST PUSH1 0x60 PUSH0 DUP1 PUSH0 PUSH1 0x3 SLOAD SWAP3 POP PUSH1 0x4 SLOAD SWAP2 POP PUSH1 0x5 PUSH0 SWAP1 SLOAD SWAP1 PUSH2 0x100 EXP SWAP1 DIV PUSH1 0xFF AND SWAP1 POP PUSH1 0x4 SLOAD PUSH1 0x3 SLOAD GT ISZERO PUSH2 0x28A JUMPI PUSH1 0x40 MLOAD DUP1 PUSH1 0x40 ADD PUSH1 0x40 MSTORE DUP1 PUSH1 0xD DUP2 MSTORE PUSH1 0x20 ADD PUSH32 0x59657320766F74657320776F6E00000000000000000000000000000000000000 DUP2 MSTORE POP SWAP4 POP PUSH2 0x30D JUMP JUMPDEST PUSH1 0x3 SLOAD PUSH1 0x4 SLOAD GT ISZERO PUSH2 0x2D3 JUMPI PUSH1 0x40 MLOAD DUP1 PUSH1 0x40 ADD PUSH1 0x40 MSTORE DUP1 PUSH1 0xC DUP2 MSTORE PUSH1 0x20 ADD PUSH32 0x4E6F20766F74657320776F6E0000000000000000000000000000000000000000 DUP2 MSTORE POP SWAP4 POP PUSH2 0x30C JUMP JUMPDEST PUSH1 0x40 MLOAD DUP1 PUSH1 0x40 ADD PUSH1 0x40 MSTORE DUP1 PUSH1 0xA DUP2 MSTORE PUSH1 0x20 ADD PUSH32 0x4974277320612074696500000000000000000000000000000000000000000000 DUP2 MSTORE POP SWAP4 POP JUMPDEST JUMPDEST SWAP1 SWAP2 SWAP3 SWAP4 JUMP JUMPDEST PUSH1 0x1 DUP1 SLOAD PUSH2 0x320 SWAP1 PUSH2 0x7A7 JUMP JUMPDEST DUP1 PUSH1 0x1F ADD PUSH1 0x20 DUP1 SWAP2 DIV MUL PUSH1 0x20 ADD PUSH1 0x40 MLOAD SWAP1 DUP2 ADD PUSH1 0x40 MSTORE DUP1 SWAP3 SWAP2 SWAP1 DUP2 DUP2 MSTORE PUSH1 0x20 ADD DUP3 DUP1 SLOAD PUSH2 0x34C SWAP1 PUSH2 0x7A7 JUMP JUMPDEST DUP1 ISZERO PUSH2 0x397 JUMPI DUP1 PUSH1 0x1F LT PUSH2 0x36E JUMPI PUSH2 0x100 DUP1 DUP4 SLOAD DIV MUL DUP4 MSTORE SWAP2 PUSH1 0x20 ADD SWAP2 PUSH2 0x397 JUMP JUMPDEST DUP3 ADD SWAP2 SWAP1 PUSH0 MSTORE PUSH1 0x20 PUSH0 KECCAK256 SWAP1 JUMPDEST DUP2 SLOAD DUP2 MSTORE SWAP1 PUSH1 0x1 ADD SWAP1 PUSH1 0x20 ADD DUP1 DUP4 GT PUSH2 0x37A JUMPI DUP3 SWAP1 SUB PUSH1 0x1F AND DUP3 ADD SWAP2 JUMPDEST POP POP POP POP POP DUP2 JUMP JUMPDEST PUSH1 0x5 PUSH0 SWAP1 SLOAD SWAP1 PUSH2 0x100 EXP SWAP1 DIV PUSH1 0xFF AND DUP2 JUMP JUMPDEST PUSH1 0x4 SLOAD DUP2 JUMP JUMPDEST PUSH1 0x2 SLOAD TIMESTAMP LT PUSH2 0x3FB JUMPI PUSH1 0x40 MLOAD PUSH32 0x8C379A000000000000000000000000000000000000000000000000000000000 DUP2 MSTORE PUSH1 0x4 ADD PUSH2 0x3F2 SWAP1 PUSH2 0x821 JUMP JUMPDEST PUSH1 0x40 MLOAD DUP1 SWAP2 SUB SWAP1 REVERT JUMPDEST PUSH1 0x5 PUSH0 SWAP1 SLOAD SWAP1 PUSH2 0x100 EXP SWAP1 DIV PUSH1 0xFF AND ISZERO PUSH2 0x44A JUMPI PUSH1 0x40 MLOAD PUSH32 0x8C379A000000000000000000000000000000000000000000000000000000000 DUP2 MSTORE PUSH1 0x4 ADD PUSH2 0x441 SWAP1 PUSH2 0x821 JUMP JUMPDEST PUSH1 0x40 MLOAD DUP1 SWAP2 SUB SWAP1 REVERT JUMPDEST DUP2 ISZERO PUSH2 0x46D JUMPI DUP1 PUSH1 0x3 PUSH0 DUP3 DUP3 SLOAD PUSH2 0x461 SWAP2 SWAP1 PUSH2 0x86C JUMP JUMPDEST SWAP3 POP POP DUP2 SWAP1 SSTORE POP PUSH2 0x486 JUMP JUMPDEST DUP1 PUSH1 0x4 PUSH0 DUP3 DUP3 SLOAD PUSH2 0x47E SWAP2 SWAP1 PUSH2 0x86C JUMP JUMPDEST SWAP3 POP POP DUP2 SWAP1 SSTORE POP JUMPDEST POP POP JUMP JUMPDEST PUSH1 0x2 SLOAD TIMESTAMP GT PUSH2 0x4CE JUMPI PUSH1 0x40 MLOAD PUSH32 0x8C379A000000000000000000000000000000000000000000000000000000000 DUP2 MSTORE PUSH1 0x4 ADD PUSH2 0x4C5 SWAP1 PUSH2 0x8E9 JUMP JUMPDEST PUSH1 0x40 MLOAD DUP1 SWAP2 SUB SWAP1 REVERT JUMPDEST PUSH1 0x5 PUSH0 SWAP1 SLOAD SWAP1 PUSH2 0x100 EXP SWAP1 DIV PUSH1 0xFF AND ISZERO PUSH2 0x51D JUMPI PUSH1 0x40 MLOAD PUSH32 0x8C379A000000000000000000000000000000000000000000000000000000000 DUP2 MSTORE PUSH1 0x4 ADD PUSH2 0x514 SWAP1 PUSH2 0x951 JUMP JUMPDEST PUSH1 0x40 MLOAD DUP1 SWAP2 SUB SWAP1 REVERT JUMPDEST PUSH1 0x1 PUSH1 0x5 PUSH0 PUSH2 0x100 EXP DUP2 SLOAD DUP2 PUSH1 0xFF MUL NOT AND SWAP1 DUP4 ISZERO ISZERO MUL OR SWAP1 SSTORE POP PUSH32 0xCEA89EC8FEB1022162FB57E69A2BB2C4774289BCC281C3E4FF611D3A63EE6E08 PUSH0 PUSH1 0x40 MLOAD PUSH1 0x20 ADD PUSH2 0x569 SWAP2 SWAP1 PUSH2 0xA0B JUMP JUMPDEST PUSH1 0x40 MLOAD PUSH1 0x20 DUP2 DUP4 SUB SUB DUP2 MSTORE SWAP1 PUSH1 0x40 MSTORE DUP1 MLOAD SWAP1 PUSH1 0x20 ADD KECCAK256 PUSH0 SHR PUSH1 0x3 SLOAD PUSH1 0x4 SLOAD PUSH1 0x40 MLOAD PUSH2 0x596 SWAP4 SWAP3 SWAP2 SWAP1 PUSH2 0xA21 JUMP JUMPDEST PUSH1 0x40 MLOAD DUP1 SWAP2 SUB SWAP1 LOG1 JUMP JUMPDEST PUSH1 0x3 SLOAD DUP2 JUMP JUMPDEST PUSH0 DUP2 MLOAD SWAP1 POP SWAP2 SWAP1 POP JUMP JUMPDEST PUSH0 DUP3 DUP3 MSTORE PUSH1 0x20 DUP3 ADD SWAP1 POP SWAP3 SWAP2 POP POP JUMP JUMPDEST DUP3 DUP2 DUP4 MCOPY PUSH0 DUP4 DUP4 ADD MSTORE POP POP POP JUMP JUMPDEST PUSH0 PUSH1 0x1F NOT PUSH1 0x1F DUP4 ADD AND SWAP1 POP SWAP2 SWAP1 POP JUMP JUMPDEST PUSH0 PUSH2 0x5E8 DUP3 PUSH2 0x5A6 JUMP JUMPDEST PUSH2 0x5F2 DUP2 DUP6 PUSH2 0x5B0 JUMP JUMPDEST SWAP4 POP PUSH2 0x602 DUP2 DUP6 PUSH1 0x20 DUP7 ADD PUSH2 0x5C0 JUMP JUMPDEST PUSH2 0x60B DUP2 PUSH2 0x5CE JUMP JUMPDEST DUP5 ADD SWAP2 POP POP SWAP3 SWAP2 POP POP JUMP JUMPDEST PUSH0 PUSH1 0x20 DUP3 ADD SWAP1 POP DUP2 DUP2 SUB PUSH0 DUP4 ADD MSTORE PUSH2 0x62E DUP2 DUP5 PUSH2 0x5DE JUMP JUMPDEST SWAP1 POP SWAP3 SWAP2 POP POP JUMP JUMPDEST PUSH0 DUP2 SWAP1 POP SWAP2 SWAP1 POP JUMP JUMPDEST PUSH2 0x648 DUP2 PUSH2 0x636 JUMP JUMPDEST DUP3 MSTORE POP POP JUMP JUMPDEST PUSH0 PUSH1 0x20 DUP3 ADD SWAP1 POP PUSH2 0x661 PUSH0 DUP4 ADD DUP5 PUSH2 0x63F JUMP JUMPDEST SWAP3 SWAP2 POP POP JUMP JUMPDEST PUSH0 DUP2 ISZERO ISZERO SWAP1 POP SWAP2 SWAP1 POP JUMP JUMPDEST PUSH2 0x67B DUP2 PUSH2 0x667 JUMP JUMPDEST DUP3 MSTORE POP POP JUMP JUMPDEST PUSH0 PUSH1 0x80 DUP3 ADD SWAP1 POP DUP2 DUP2 SUB PUSH0 DUP4 ADD MSTORE PUSH2 0x699 DUP2 DUP8 PUSH2 0x5DE JUMP JUMPDEST SWAP1 POP PUSH2 0x6A8 PUSH1 0x20 DUP4 ADD DUP7 PUSH2 0x63F JUMP JUMPDEST PUSH2 0x6B5 PUSH1 0x40 DUP4 ADD DUP6 PUSH2 0x63F JUMP JUMPDEST PUSH2 0x6C2 PUSH1 0x60 DUP4 ADD DUP5 PUSH2 0x672 JUMP JUMPDEST SWAP6 SWAP5 POP POP POP POP POP JUMP JUMPDEST PUSH0 PUSH1 0x20 DUP3 ADD SWAP1 POP PUSH2 0x6DE PUSH0 DUP4 ADD DUP5 PUSH2 0x672 JUMP JUMPDEST SWAP3 SWAP2 POP POP JUMP JUMPDEST PUSH0 DUP1 REVERT JUMPDEST PUSH2 0x6F1 DUP2 PUSH2 0x667 JUMP JUMPDEST DUP2 EQ PUSH2 0x6FB JUMPI PUSH0 DUP1 REVERT JUMPDEST POP JUMP JUMPDEST PUSH0 DUP2 CALLDATALOAD SWAP1 POP PUSH2 0x70C DUP2 PUSH2 0x6E8 JUMP JUMPDEST SWAP3 SWAP2 POP POP JUMP JUMPDEST PUSH2 0x71B DUP2 PUSH2 0x636 JUMP JUMPDEST DUP2 EQ PUSH2 0x725 JUMPI PUSH0 DUP1 REVERT JUMPDEST POP JUMP JUMPDEST PUSH0 DUP2 CALLDATALOAD SWAP1 POP PUSH2 0x736 DUP2 PUSH2 0x712 JUMP JUMPDEST SWAP3 SWAP2 POP POP JUMP JUMPDEST PUSH0 DUP1 PUSH1 0x40 DUP4 DUP6 SUB SLT ISZERO PUSH2 0x752 JUMPI PUSH2 0x751 PUSH2 0x6E4 JUMP JUMPDEST JUMPDEST PUSH0 PUSH2 0x75F DUP6 DUP3 DUP7 ADD PUSH2 0x6FE JUMP JUMPDEST SWAP3 POP POP PUSH1 0x20 PUSH2 0x770 DUP6 DUP3 DUP7 ADD PUSH2 0x728 JUMP JUMPDEST SWAP2 POP POP SWAP3 POP SWAP3 SWAP1 POP JUMP JUMPDEST PUSH32 0x4E487B7100000000000000000000000000000000000000000000000000000000 PUSH0 MSTORE PUSH1 0x22 PUSH1 0x4 MSTORE PUSH1 0x24 PUSH0 REVERT JUMPDEST PUSH0 PUSH1 0x2 DUP3 DIV SWAP1 POP PUSH1 0x1 DUP3 AND DUP1 PUSH2 0x7BE JUMPI PUSH1 0x7F DUP3 AND SWAP2 POP JUMPDEST PUSH1 0x20 DUP3 LT DUP2 SUB PUSH2 0x7D1 JUMPI PUSH2 0x7D0 PUSH2 0x77A JUMP JUMPDEST JUMPDEST POP SWAP2 SWAP1 POP JUMP JUMPDEST PUSH32 0x566F74696E672068617320656E64656400000000000000000000000000000000 PUSH0 DUP3 ADD MSTORE POP JUMP JUMPDEST PUSH0 PUSH2 0x80B PUSH1 0x10 DUP4 PUSH2 0x5B0 JUMP JUMPDEST SWAP2 POP PUSH2 0x816 DUP3 PUSH2 0x7D7 JUMP JUMPDEST PUSH1 0x20 DUP3 ADD SWAP1 POP SWAP2 SWAP1 POP JUMP JUMPDEST PUSH0 PUSH1 0x20 DUP3 ADD SWAP1 POP DUP2 DUP2 SUB PUSH0 DUP4 ADD MSTORE PUSH2 0x838 DUP2 PUSH2 0x7FF JUMP JUMPDEST SWAP1 POP SWAP2 SWAP1 POP JUMP JUMPDEST PUSH32 0x4E487B7100000000000000000000000000000000000000000000000000000000 PUSH0 MSTORE PUSH1 0x11 PUSH1 0x4 MSTORE PUSH1 0x24 PUSH0 REVERT JUMPDEST PUSH0 PUSH2 0x876 DUP3 PUSH2 0x636 JUMP JUMPDEST SWAP2 POP PUSH2 0x881 DUP4 PUSH2 0x636 JUMP JUMPDEST SWAP3 POP DUP3 DUP3 ADD SWAP1 POP DUP1 DUP3 GT ISZERO PUSH2 0x899 JUMPI PUSH2 0x898 PUSH2 0x83F JUMP JUMPDEST JUMPDEST SWAP3 SWAP2 POP POP JUMP JUMPDEST PUSH32 0x566F74696E6720706572696F64206E6F7420796574206F766572000000000000 PUSH0 DUP3 ADD MSTORE POP JUMP JUMPDEST PUSH0 PUSH2 0x8D3 PUSH1 0x1A DUP4 PUSH2 0x5B0 JUMP JUMPDEST SWAP2 POP PUSH2 0x8DE DUP3 PUSH2 0x89F JUMP JUMPDEST PUSH1 0x20 DUP3 ADD SWAP1 POP SWAP2 SWAP1 POP JUMP JUMPDEST PUSH0 PUSH1 0x20 DUP3 ADD SWAP1 POP DUP2 DUP2 SUB PUSH0 DUP4 ADD MSTORE PUSH2 0x900 DUP2 PUSH2 0x8C7 JUMP JUMPDEST SWAP1 POP SWAP2 SWAP1 POP JUMP JUMPDEST PUSH32 0x566F74696E6720616C726561647920656E646564000000000000000000000000 PUSH0 DUP3 ADD MSTORE POP JUMP JUMPDEST PUSH0 PUSH2 0x93B PUSH1 0x14 DUP4 PUSH2 0x5B0 JUMP JUMPDEST SWAP2 POP PUSH2 0x946 DUP3 PUSH2 0x907 JUMP JUMPDEST PUSH1 0x20 DUP3 ADD SWAP1 POP SWAP2 SWAP1 POP JUMP JUMPDEST PUSH0 PUSH1 0x20 DUP3 ADD SWAP1 POP DUP2 DUP2 SUB PUSH0 DUP4 ADD MSTORE PUSH2 0x968 DUP2 PUSH2 0x92F JUMP JUMPDEST SWAP1 POP SWAP2 SWAP1 POP JUMP JUMPDEST PUSH0 DUP2 SWAP1 POP SWAP3 SWAP2 POP POP JUMP JUMPDEST PUSH0 DUP2 SWAP1 POP DUP2 PUSH0 MSTORE PUSH1 0x20 PUSH0 KECCAK256 SWAP1 POP SWAP2 SWAP1 POP JUMP JUMPDEST PUSH0 DUP2 SLOAD PUSH2 0x997 DUP2 PUSH2 0x7A7 JUMP JUMPDEST PUSH2 0x9A1 DUP2 DUP7 PUSH2 0x96F JUMP JUMPDEST SWAP5 POP PUSH1 0x1 DUP3 AND PUSH0 DUP2 EQ PUSH2 0x9BB JUMPI PUSH1 0x1 DUP2 EQ PUSH2 0x9D0 JUMPI PUSH2 0xA02 JUMP JUMPDEST PUSH1 0xFF NOT DUP4 AND DUP7 MSTORE DUP2 ISZERO ISZERO DUP3 MUL DUP7 ADD SWAP4 POP PUSH2 0xA02 JUMP JUMPDEST PUSH2 0x9D9 DUP6 PUSH2 0x979 JUMP JUMPDEST PUSH0 JUMPDEST DUP4 DUP2 LT ISZERO PUSH2 0x9FA JUMPI DUP2 SLOAD DUP2 DUP10 ADD MSTORE PUSH1 0x1 DUP3 ADD SWAP2 POP PUSH1 0x20 DUP2 ADD SWAP1 POP PUSH2 0x9DB JUMP JUMPDEST DUP4 DUP9 ADD SWAP6 POP POP POP JUMPDEST POP POP POP SWAP3 SWAP2 POP POP JUMP JUMPDEST PUSH0 PUSH2 0xA16 DUP3 DUP5 PUSH2 0x98B JUMP JUMPDEST SWAP2 POP DUP2 SWAP1 POP SWAP3 SWAP2 POP POP JUMP JUMPDEST PUSH0 PUSH1 0x60 DUP3 ADD SWAP1 POP PUSH2 0xA34 PUSH0 DUP4 ADD DUP7 PUSH2 0x63F JUMP JUMPDEST PUSH2 0xA41 PUSH1 0x20 DUP4 ADD DUP6 PUSH2 0x63F JUMP JUMPDEST PUSH2 0xA4E PUSH1 0x40 DUP4 ADD DUP5 PUSH2 0x63F JUMP JUMPDEST SWAP5 SWAP4 POP POP POP POP JUMP INVALID LOG2 PUSH5 0x6970667358 0x22 SLT KECCAK256 LOG0 PUSH8 0xEEE021F94A6FF0AC 0xF6 0xB2 REVERT 0xCF SWAP6 PUSH28 0x7E905C567BB976783DCB005F0B0798E064736F6C634300081A0033A2 PUSH5 0x6970667358 0x22 SLT KECCAK256 SHR 0xDA SWAP9 CODECOPY MSTORE8 DELEGATECALL BLOBBASEFEE SWAP13 0xB4 0xDA 0xA6 0xCA MSTORE8 BLOBHASH 0xEB STATICCALL POP CALLDATACOPY PUSH27 0x554F8CB9BD81932C709739688E64736F6C634300081A0033608060 BLOCKHASH MSTORE CALLVALUE DUP1 ISZERO PUSH1 0xE JUMPI PUSH0 DUP1 REVERT JUMPDEST POP PUSH2 0xABF DUP1 PUSH2 0x1C PUSH0 CODECOPY PUSH0 RETURN INVALID PUSH1 0x80 PUSH1 0x40 MSTORE CALLVALUE DUP1 ISZERO PUSH2 0xF JUMPI PUSH0 DUP1 REVERT JUMPDEST POP PUSH1 0x4 CALLDATASIZE LT PUSH2 0x3F JUMPI PUSH0 CALLDATALOAD PUSH1 0xE0 SHR DUP1 PUSH4 0x12D320C5 EQ PUSH2 0x43 JUMPI DUP1 PUSH4 0x43859632 EQ PUSH2 0x5F JUMPI DUP1 PUSH4 0xDC296AE1 EQ PUSH2 0x8F JUMPI JUMPDEST PUSH0 DUP1 REVERT JUMPDEST PUSH2 0x5D PUSH1 0x4 DUP1 CALLDATASIZE SUB DUP2 ADD SWAP1 PUSH2 0x58 SWAP2 SWAP1 PUSH2 0x6D1 JUMP JUMPDEST PUSH2 0xBF JUMP JUMPDEST STOP JUMPDEST PUSH2 0x79 PUSH1 0x4 DUP1 CALLDATASIZE SUB DUP2 ADD SWAP1 PUSH2 0x74 SWAP2 SWAP1 PUSH2 0x74B JUMP JUMPDEST PUSH2 0x570 JUMP JUMPDEST PUSH1 0x40 MLOAD PUSH2 0x86 SWAP2 SWAP1 PUSH2 0x798 JUMP JUMPDEST PUSH1 0x40 MLOAD DUP1 SWAP2 SUB SWAP1 RETURN JUMPDEST PUSH2 0xA9 PUSH1 0x4 DUP1 CALLDATASIZE SUB DUP2 ADD SWAP1 PUSH2 0xA4 SWAP2 SWAP1 PUSH2 0x74B JUMP JUMPDEST PUSH2 0x599 JUMP JUMPDEST PUSH1 0x40 MLOAD PUSH2 0xB6 SWAP2 SWAP1 PUSH2 0x798 JUMP JUMPDEST PUSH1 0x40 MLOAD DUP1 SWAP2 SUB SWAP1 RETURN JUMPDEST DUP3 PUSH0 DUP2 PUSH20 0xFFFFFFFFFFFFFFFFFFFFFFFFFFFFFFFFFFFFFFFF AND PUSH4 0x7E5678C CALLER PUSH1 0x40 MLOAD DUP3 PUSH4 0xFFFFFFFF AND PUSH1 0xE0 SHL DUP2 MSTORE PUSH1 0x4 ADD PUSH2 0xFA SWAP2 SWAP1 PUSH2 0x7C0 JUMP JUMPDEST PUSH1 0x20 PUSH1 0x40 MLOAD DUP1 DUP4 SUB DUP2 DUP7 GAS STATICCALL ISZERO DUP1 ISZERO PUSH2 0x115 JUMPI RETURNDATASIZE PUSH0 DUP1 RETURNDATACOPY RETURNDATASIZE PUSH0 REVERT JUMPDEST POP POP POP POP PUSH1 0x40 MLOAD RETURNDATASIZE PUSH1 0x1F NOT PUSH1 0x1F DUP3 ADD AND DUP3 ADD DUP1 PUSH1 0x40 MSTORE POP DUP2 ADD SWAP1 PUSH2 0x139 SWAP2 SWAP1 PUSH2 0x7ED JUMP JUMPDEST GT PUSH2 0x179 JUMPI PUSH1 0x40 MLOAD PUSH32 0x8C379A000000000000000000000000000000000000000000000000000000000 DUP2 MSTORE PUSH1 0x4 ADD PUSH2 0x170 SWAP1 PUSH2 0x872 JUMP JUMPDEST PUSH1 0x40 MLOAD DUP1 SWAP2 SUB SWAP1 REVERT JUMPDEST PUSH0 DUP5 PUSH20 0xFFFFFFFFFFFFFFFFFFFFFFFFFFFFFFFFFFFFFFFF AND PUSH4 0xC7F758A8 DUP6 PUSH1 0x40 MLOAD DUP3 PUSH4 0xFFFFFFFF AND PUSH1 0xE0 SHL DUP2 MSTORE PUSH1 0x4 ADD PUSH2 0x1B3 SWAP2 SWAP1 PUSH2 0x89F JUMP JUMPDEST PUSH1 0x20 PUSH1 0x40 MLOAD DUP1 DUP4 SUB DUP2 DUP7 GAS STATICCALL ISZERO DUP1 ISZERO PUSH2 0x1CE JUMPI RETURNDATASIZE PUSH0 DUP1 RETURNDATACOPY RETURNDATASIZE PUSH0 REVERT JUMPDEST POP POP POP POP PUSH1 0x40 MLOAD RETURNDATASIZE PUSH1 0x1F NOT PUSH1 0x1F DUP3 ADD AND DUP3 ADD DUP1 PUSH1 0x40 MSTORE POP DUP2 ADD SWAP1 PUSH2 0x1F2 SWAP2 SWAP1 PUSH2 0x8F3 JUMP JUMPDEST SWAP1 POP DUP1 PUSH20 0xFFFFFFFFFFFFFFFFFFFFFFFFFFFFFFFFFFFFFFFF AND PUSH4 0x29DCB0CF PUSH1 0x40 MLOAD DUP2 PUSH4 0xFFFFFFFF AND PUSH1 0xE0 SHL DUP2 MSTORE PUSH1 0x4 ADD PUSH1 0x20 PUSH1 0x40 MLOAD DUP1 DUP4 SUB DUP2 DUP7 GAS STATICCALL ISZERO DUP1 ISZERO PUSH2 0x23D JUMPI RETURNDATASIZE PUSH0 DUP1 RETURNDATACOPY RETURNDATASIZE PUSH0 REVERT JUMPDEST POP POP POP POP PUSH1 0x40 MLOAD RETURNDATASIZE PUSH1 0x1F NOT PUSH1 0x1F DUP3 ADD AND DUP3 ADD DUP1 PUSH1 0x40 MSTORE POP DUP2 ADD SWAP1 PUSH2 0x261 SWAP2 SWAP1 PUSH2 0x7ED JUMP JUMPDEST TIMESTAMP LT PUSH2 0x2A2 JUMPI PUSH1 0x40 MLOAD PUSH32 0x8C379A000000000000000000000000000000000000000000000000000000000 DUP2 MSTORE PUSH1 0x4 ADD PUSH2 0x299 SWAP1 PUSH2 0x968 JUMP JUMPDEST PUSH1 0x40 MLOAD DUP1 SWAP2 SUB SWAP1 REVERT JUMPDEST DUP1 PUSH20 0xFFFFFFFFFFFFFFFFFFFFFFFFFFFFFFFFFFFFFFFF AND PUSH4 0x9D5A0529 PUSH1 0x40 MLOAD DUP2 PUSH4 0xFFFFFFFF AND PUSH1 0xE0 SHL DUP2 MSTORE PUSH1 0x4 ADD PUSH1 0x20 PUSH1 0x40 MLOAD DUP1 DUP4 SUB DUP2 DUP7 GAS STATICCALL ISZERO DUP1 ISZERO PUSH2 0x2EB JUMPI RETURNDATASIZE PUSH0 DUP1 RETURNDATACOPY RETURNDATASIZE PUSH0 REVERT JUMPDEST POP POP POP POP PUSH1 0x40 MLOAD RETURNDATASIZE PUSH1 0x1F NOT PUSH1 0x1F DUP3 ADD AND DUP3 ADD DUP1 PUSH1 0x40 MSTORE POP DUP2 ADD SWAP1 PUSH2 0x30F SWAP2 SWAP1 PUSH2 0x99A JUMP JUMPDEST ISZERO PUSH2 0x34F JUMPI PUSH1 0x40 MLOAD PUSH32 0x8C379A000000000000000000000000000000000000000000000000000000000 DUP2 MSTORE PUSH1 0x4 ADD PUSH2 0x346 SWAP1 PUSH2 0x968 JUMP JUMPDEST PUSH1 0x40 MLOAD DUP1 SWAP2 SUB SWAP1 REVERT JUMPDEST PUSH0 DUP6 PUSH20 0xFFFFFFFFFFFFFFFFFFFFFFFFFFFFFFFFFFFFFFFF AND PUSH4 0x7E5678C CALLER PUSH1 0x40 MLOAD DUP3 PUSH4 0xFFFFFFFF AND PUSH1 0xE0 SHL DUP2 MSTORE PUSH1 0x4 ADD PUSH2 0x389 SWAP2 SWAP1 PUSH2 0x7C0 JUMP JUMPDEST PUSH1 0x20 PUSH1 0x40 MLOAD DUP1 DUP4 SUB DUP2 DUP7 GAS STATICCALL ISZERO DUP1 ISZERO PUSH2 0x3A4 JUMPI RETURNDATASIZE PUSH0 DUP1 RETURNDATACOPY RETURNDATASIZE PUSH0 REVERT JUMPDEST POP POP POP POP PUSH1 0x40 MLOAD RETURNDATASIZE PUSH1 0x1F NOT PUSH1 0x1F DUP3 ADD AND DUP3 ADD DUP1 PUSH1 0x40 MSTORE POP DUP2 ADD SWAP1 PUSH2 0x3C8 SWAP2 SWAP1 PUSH2 0x7ED JUMP JUMPDEST SWAP1 POP PUSH0 DUP1 DUP7 DUP2 MSTORE PUSH1 0x20 ADD SWAP1 DUP2 MSTORE PUSH1 0x20 ADD PUSH0 KECCAK256 PUSH0 CALLER PUSH20 0xFFFFFFFFFFFFFFFFFFFFFFFFFFFFFFFFFFFFFFFF AND PUSH20 0xFFFFFFFFFFFFFFFFFFFFFFFFFFFFFFFFFFFFFFFF AND DUP2 MSTORE PUSH1 0x20 ADD SWAP1 DUP2 MSTORE PUSH1 0x20 ADD PUSH0 KECCAK256 PUSH0 SWAP1 SLOAD SWAP1 PUSH2 0x100 EXP SWAP1 DIV PUSH1 0xFF AND ISZERO PUSH2 0x462 JUMPI PUSH1 0x40 MLOAD PUSH32 0x8C379A000000000000000000000000000000000000000000000000000000000 DUP2 MSTORE PUSH1 0x4 ADD PUSH2 0x459 SWAP1 PUSH2 0xA0F JUMP JUMPDEST PUSH1 0x40 MLOAD DUP1 SWAP2 SUB SWAP1 REVERT JUMPDEST DUP2 PUSH20 0xFFFFFFFFFFFFFFFFFFFFFFFFFFFFFFFFFFFFFFFF AND PUSH4 0xB7156512 DUP6 DUP4 PUSH1 0x40 MLOAD DUP4 PUSH4 0xFFFFFFFF AND PUSH1 0xE0 SHL DUP2 MSTORE PUSH1 0x4 ADD PUSH2 0x49D SWAP3 SWAP2 SWAP1 PUSH2 0xA2D JUMP JUMPDEST PUSH0 PUSH1 0x40 MLOAD DUP1 DUP4 SUB DUP2 PUSH0 DUP8 DUP1 EXTCODESIZE ISZERO DUP1 ISZERO PUSH2 0x4B4 JUMPI PUSH0 DUP1 REVERT JUMPDEST POP GAS CALL ISZERO DUP1 ISZERO PUSH2 0x4C6 JUMPI RETURNDATASIZE PUSH0 DUP1 RETURNDATACOPY RETURNDATASIZE PUSH0 REVERT JUMPDEST POP POP POP POP PUSH1 0x1 PUSH0 DUP1 DUP8 DUP2 MSTORE PUSH1 0x20 ADD SWAP1 DUP2 MSTORE PUSH1 0x20 ADD PUSH0 KECCAK256 PUSH0 CALLER PUSH20 0xFFFFFFFFFFFFFFFFFFFFFFFFFFFFFFFFFFFFFFFF AND PUSH20 0xFFFFFFFFFFFFFFFFFFFFFFFFFFFFFFFFFFFFFFFF AND DUP2 MSTORE PUSH1 0x20 ADD SWAP1 DUP2 MSTORE PUSH1 0x20 ADD PUSH0 KECCAK256 PUSH0 PUSH2 0x100 EXP DUP2 SLOAD DUP2 PUSH1 0xFF MUL NOT AND SWAP1 DUP4 ISZERO ISZERO MUL OR SWAP1 SSTORE POP PUSH32 0x5AAA9AAD7433112662B9E5AE23B96ED62B00035F413AB908C55607284E0804E2 DUP6 CALLER DUP7 PUSH1 0x40 MLOAD PUSH2 0x560 SWAP4 SWAP3 SWAP2 SWAP1 PUSH2 0xA54 JUMP JUMPDEST PUSH1 0x40 MLOAD DUP1 SWAP2 SUB SWAP1 LOG1 POP POP POP POP POP POP JUMP JUMPDEST PUSH0 PUSH1 0x20 MSTORE DUP2 PUSH0 MSTORE PUSH1 0x40 PUSH0 KECCAK256 PUSH1 0x20 MSTORE DUP1 PUSH0 MSTORE PUSH1 0x40 PUSH0 KECCAK256 PUSH0 SWAP2 POP SWAP2 POP SWAP1 SLOAD SWAP1 PUSH2 0x100 EXP SWAP1 DIV PUSH1 0xFF AND DUP2 JUMP JUMPDEST PUSH0 DUP1 PUSH0 DUP5 DUP2 MSTORE PUSH1 0x20 ADD SWAP1 DUP2 MSTORE PUSH1 0x20 ADD PUSH0 KECCAK256 PUSH0 DUP4 PUSH20 0xFFFFFFFFFFFFFFFFFFFFFFFFFFFFFFFFFFFFFFFF AND PUSH20 0xFFFFFFFFFFFFFFFFFFFFFFFFFFFFFFFFFFFFFFFF AND DUP2 MSTORE PUSH1 0x20 ADD SWAP1 DUP2 MSTORE PUSH1 0x20 ADD PUSH0 KECCAK256 PUSH0 SWAP1 SLOAD SWAP1 PUSH2 0x100 EXP SWAP1 DIV PUSH1 0xFF AND SWAP1 POP SWAP3 SWAP2 POP POP JUMP JUMPDEST PUSH0 DUP1 REVERT JUMPDEST PUSH0 PUSH20 0xFFFFFFFFFFFFFFFFFFFFFFFFFFFFFFFFFFFFFFFF DUP3 AND SWAP1 POP SWAP2 SWAP1 POP JUMP JUMPDEST PUSH0 PUSH2 0x627 DUP3 PUSH2 0x5FE JUMP JUMPDEST SWAP1 POP SWAP2 SWAP1 POP JUMP JUMPDEST PUSH0 PUSH2 0x638 DUP3 PUSH2 0x61D JUMP JUMPDEST SWAP1 POP SWAP2 SWAP1 POP JUMP JUMPDEST PUSH2 0x648 DUP2 PUSH2 0x62E JUMP JUMPDEST DUP2 EQ PUSH2 0x652 JUMPI PUSH0 DUP1 REVERT JUMPDEST POP JUMP JUMPDEST PUSH0 DUP2 CALLDATALOAD SWAP1 POP PUSH2 0x663 DUP2 PUSH2 0x63F JUMP JUMPDEST SWAP3 SWAP2 POP POP JUMP JUMPDEST PUSH0 DUP2 SWAP1 POP SWAP2 SWAP1 POP JUMP JUMPDEST PUSH2 0x67B DUP2 PUSH2 0x669 JUMP JUMPDEST DUP2 EQ PUSH2 0x685 JUMPI PUSH0 DUP1 REVERT JUMPDEST POP JUMP JUMPDEST PUSH0 DUP2 CALLDATALOAD SWAP1 POP PUSH2 0x696 DUP2 PUSH2 0x672 JUMP JUMPDEST SWAP3 SWAP2 POP POP JUMP JUMPDEST PUSH0 DUP2 ISZERO ISZERO SWAP1 POP SWAP2 SWAP1 POP JUMP JUMPDEST PUSH2 0x6B0 DUP2 PUSH2 0x69C JUMP JUMPDEST DUP2 EQ PUSH2 0x6BA JUMPI PUSH0 DUP1 REVERT JUMPDEST POP JUMP JUMPDEST PUSH0 DUP2 CALLDATALOAD SWAP1 POP PUSH2 0x6CB DUP2 PUSH2 0x6A7 JUMP JUMPDEST SWAP3 SWAP2 POP POP JUMP JUMPDEST PUSH0 DUP1 PUSH0 PUSH1 0x60 DUP5 DUP7 SUB SLT ISZERO PUSH2 0x6E8 JUMPI PUSH2 0x6E7 PUSH2 0x5FA JUMP JUMPDEST JUMPDEST PUSH0 PUSH2 0x6F5 DUP7 DUP3 DUP8 ADD PUSH2 0x655 JUMP JUMPDEST SWAP4 POP POP PUSH1 0x20 PUSH2 0x706 DUP7 DUP3 DUP8 ADD PUSH2 0x688 JUMP JUMPDEST SWAP3 POP POP PUSH1 0x40 PUSH2 0x717 DUP7 DUP3 DUP8 ADD PUSH2 0x6BD JUMP JUMPDEST SWAP2 POP POP SWAP3 POP SWAP3 POP SWAP3 JUMP JUMPDEST PUSH2 0x72A DUP2 PUSH2 0x61D JUMP JUMPDEST DUP2 EQ PUSH2 0x734 JUMPI PUSH0 DUP1 REVERT JUMPDEST POP JUMP JUMPDEST PUSH0 DUP2 CALLDATALOAD SWAP1 POP PUSH2 0x745 DUP2 PUSH2 0x721 JUMP JUMPDEST SWAP3 SWAP2 POP POP JUMP JUMPDEST PUSH0 DUP1 PUSH1 0x40 DUP4 DUP6 SUB SLT ISZERO PUSH2 0x761 JUMPI PUSH2 0x760 PUSH2 0x5FA JUMP JUMPDEST JUMPDEST PUSH0 PUSH2 0x76E DUP6 DUP3 DUP7 ADD PUSH2 0x688 JUMP JUMPDEST SWAP3 POP POP PUSH1 0x20 PUSH2 0x77F DUP6 DUP3 DUP7 ADD PUSH2 0x737 JUMP JUMPDEST SWAP2 POP POP SWAP3 POP SWAP3 SWAP1 POP JUMP JUMPDEST PUSH2 0x792 DUP2 PUSH2 0x69C JUMP JUMPDEST DUP3 MSTORE POP POP JUMP JUMPDEST PUSH0 PUSH1 0x20 DUP3 ADD SWAP1 POP PUSH2 0x7AB PUSH0 DUP4 ADD DUP5 PUSH2 0x789 JUMP JUMPDEST SWAP3 SWAP2 POP POP JUMP JUMPDEST PUSH2 0x7BA DUP2 PUSH2 0x61D JUMP JUMPDEST DUP3 MSTORE POP POP JUMP JUMPDEST PUSH0 PUSH1 0x20 DUP3 ADD SWAP1 POP PUSH2 0x7D3 PUSH0 DUP4 ADD DUP5 PUSH2 0x7B1 JUMP JUMPDEST SWAP3 SWAP2 POP POP JUMP JUMPDEST PUSH0 DUP2 MLOAD SWAP1 POP PUSH2 0x7E7 DUP2 PUSH2 0x672 JUMP JUMPDEST SWAP3 SWAP2 POP POP JUMP JUMPDEST PUSH0 PUSH1 0x20 DUP3 DUP5 SUB SLT ISZERO PUSH2 0x802 JUMPI PUSH2 0x801 PUSH2 0x5FA JUMP JUMPDEST JUMPDEST PUSH0 PUSH2 0x80F DUP5 DUP3 DUP6 ADD PUSH2 0x7D9 JUMP JUMPDEST SWAP2 POP POP SWAP3 SWAP2 POP POP JUMP JUMPDEST PUSH0 DUP3 DUP3 MSTORE PUSH1 0x20 DUP3 ADD SWAP1 POP SWAP3 SWAP2 POP POP JUMP JUMPDEST PUSH32 0x596F7520646F206E6F74206861766520766F74696E6720726967687473000000 PUSH0 DUP3 ADD MSTORE POP JUMP JUMPDEST PUSH0 PUSH2 0x85C PUSH1 0x1D DUP4 PUSH2 0x818 JUMP JUMPDEST SWAP2 POP PUSH2 0x867 DUP3 PUSH2 0x828 JUMP JUMPDEST PUSH1 0x20 DUP3 ADD SWAP1 POP SWAP2 SWAP1 POP JUMP JUMPDEST PUSH0 PUSH1 0x20 DUP3 ADD SWAP1 POP DUP2 DUP2 SUB PUSH0 DUP4 ADD MSTORE PUSH2 0x889 DUP2 PUSH2 0x850 JUMP JUMPDEST SWAP1 POP SWAP2 SWAP1 POP JUMP JUMPDEST PUSH2 0x899 DUP2 PUSH2 0x669 JUMP JUMPDEST DUP3 MSTORE POP POP JUMP JUMPDEST PUSH0 PUSH1 0x20 DUP3 ADD SWAP1 POP PUSH2 0x8B2 PUSH0 DUP4 ADD DUP5 PUSH2 0x890 JUMP JUMPDEST SWAP3 SWAP2 POP POP JUMP JUMPDEST PUSH0 PUSH2 0x8C2 DUP3 PUSH2 0x61D JUMP JUMPDEST SWAP1 POP SWAP2 SWAP1 POP JUMP JUMPDEST PUSH2 0x8D2 DUP2 PUSH2 0x8B8 JUMP JUMPDEST DUP2 EQ PUSH2 0x8DC JUMPI PUSH0 DUP1 REVERT JUMPDEST POP JUMP JUMPDEST PUSH0 DUP2 MLOAD SWAP1 POP PUSH2 0x8ED DUP2 PUSH2 0x8C9 JUMP JUMPDEST SWAP3 SWAP2 POP POP JUMP JUMPDEST PUSH0 PUSH1 0x20 DUP3 DUP5 SUB SLT ISZERO PUSH2 0x908 JUMPI PUSH2 0x907 PUSH2 0x5FA JUMP JUMPDEST JUMPDEST PUSH0 PUSH2 0x915 DUP5 DUP3 DUP6 ADD PUSH2 0x8DF JUMP JUMPDEST SWAP2 POP POP SWAP3 SWAP2 POP POP JUMP JUMPDEST PUSH32 0x566F74696E672068617320656E64656400000000000000000000000000000000 PUSH0 DUP3 ADD MSTORE POP JUMP JUMPDEST PUSH0 PUSH2 0x952 PUSH1 0x10 DUP4 PUSH2 0x818 JUMP JUMPDEST SWAP2 POP PUSH2 0x95D DUP3 PUSH2 0x91E JUMP JUMPDEST PUSH1 0x20 DUP3 ADD SWAP1 POP SWAP2 SWAP1 POP JUMP JUMPDEST PUSH0 PUSH1 0x20 DUP3 ADD SWAP1 POP DUP2 DUP2 SUB PUSH0 DUP4 ADD MSTORE PUSH2 0x97F DUP2 PUSH2 0x946 JUMP JUMPDEST SWAP1 POP SWAP2 SWAP1 POP JUMP JUMPDEST PUSH0 DUP2 MLOAD SWAP1 POP PUSH2 0x994 DUP2 PUSH2 0x6A7 JUMP JUMPDEST SWAP3 SWAP2 POP POP JUMP JUMPDEST PUSH0 PUSH1 0x20 DUP3 DUP5 SUB SLT ISZERO PUSH2 0x9AF JUMPI PUSH2 0x9AE PUSH2 0x5FA JUMP JUMPDEST JUMPDEST PUSH0 PUSH2 0x9BC DUP5 DUP3 DUP6 ADD PUSH2 0x986 JUMP JUMPDEST SWAP2 POP POP SWAP3 SWAP2 POP POP JUMP JUMPDEST PUSH32 0x596F75206861766520616C726561647920766F74656400000000000000000000 PUSH0 DUP3 ADD MSTORE POP JUMP JUMPDEST PUSH0 PUSH2 0x9F9 PUSH1 0x16 DUP4 PUSH2 0x818 JUMP JUMPDEST SWAP2 POP PUSH2 0xA04 DUP3 PUSH2 0x9C5 JUMP JUMPDEST PUSH1 0x20 DUP3 ADD SWAP1 POP SWAP2 SWAP1 POP JUMP JUMPDEST PUSH0 PUSH1 0x20 DUP3 ADD SWAP1 POP DUP2 DUP2 SUB PUSH0 DUP4 ADD MSTORE PUSH2 0xA26 DUP2 PUSH2 0x9ED JUMP JUMPDEST SWAP1 POP SWAP2 SWAP1 POP JUMP JUMPDEST PUSH0 PUSH1 0x40 DUP3 ADD SWAP1 POP PUSH2 0xA40 PUSH0 DUP4 ADD DUP6 PUSH2 0x789 JUMP JUMPDEST PUSH2 0xA4D PUSH1 0x20 DUP4 ADD DUP5 PUSH2 0x890 JUMP JUMPDEST SWAP4 SWAP3 POP POP POP JUMP JUMPDEST PUSH0 PUSH1 0x60 DUP3 ADD SWAP1 POP PUSH2 0xA67 PUSH0 DUP4 ADD DUP7 PUSH2 0x890 JUMP JUMPDEST PUSH2 0xA74 PUSH1 0x20 DUP4 ADD DUP6 PUSH2 0x7B1 JUMP JUMPDEST PUSH2 0xA81 PUSH1 0x40 DUP4 ADD DUP5 PUSH2 0x789 JUMP JUMPDEST SWAP5 SWAP4 POP POP POP POP JUMP INVALID LOG2 PUSH5 0x6970667358 0x22 SLT KECCAK256 SLOAD 0xC6 PUSH6 0xBF3D76F1402A SUB JUMPDEST POP SGT 0xD4 0xD4 GASPRICE LOG2 0x4D 0xF8 SWAP15 ADDRESS OR BALANCE SWAP1 AND 0xEA 0xAA 0xE1 0xCA TIMESTAMP 0xC 0x22 PUSH5 0x736F6C6343 STOP ADDMOD BYTE STOP CALLER "
				},
				"gasEstimates": {
					"creation": {
						"codeDepositCost": "1903200",
						"executionCost": "infinite",
						"totalCost": "infinite"
					},
					"external": {
						"admin()": "2618",
						"assignTokens(address,uint256)": "infinite",
						"createProposal(string,string,uint256)": "infinite",
						"getProposal(uint256)": "infinite",
						"pause()": "30128",
						"paused()": "2473",
						"proposals(uint256)": "infinite",
						"removeShareholder(address)": "infinite",
						"shareholderTokens(address)": "2825",
						"transferAdmin(address)": "56239",
						"unpause()": "30147",
						"voter()": "infinite"
					}
				},
				"methodIdentifiers": {
					"admin()": "f851a440",
					"assignTokens(address,uint256)": "4d7edc15",
					"createProposal(string,string,uint256)": "0ce0ebf4",
					"getProposal(uint256)": "c7f758a8",
					"pause()": "8456cb59",
					"paused()": "5c975abb",
					"proposals(uint256)": "013cf08b",
					"removeShareholder(address)": "9babdad6",
					"shareholderTokens(address)": "07e5678c",
					"transferAdmin(address)": "75829def",
					"unpause()": "3f4ba83a",
					"voter()": "46c96aac"
				}
			},
			"storageLayout": {
				"storage": [
					{
						"astId": 17,
						"contract": "Voting_Contracts/Master.sol:Master",
						"label": "_paused",
						"offset": 0,
						"slot": "0",
						"type": "t_bool"
					},
					{
						"astId": 118,
						"contract": "Voting_Contracts/Master.sol:Master",
						"label": "_status",
						"offset": 0,
						"slot": "1",
						"type": "t_uint256"
					},
					{
						"astId": 214,
						"contract": "Voting_Contracts/Master.sol:Master",
						"label": "admin",
						"offset": 0,
						"slot": "2",
						"type": "t_address"
					},
					{
						"astId": 218,
						"contract": "Voting_Contracts/Master.sol:Master",
						"label": "shareholderTokens",
						"offset": 0,
						"slot": "3",
						"type": "t_mapping(t_address,t_uint256)"
					},
					{
						"astId": 222,
						"contract": "Voting_Contracts/Master.sol:Master",
						"label": "proposals",
						"offset": 0,
						"slot": "4",
						"type": "t_array(t_contract(Proposal)619)dyn_storage"
					},
					{
						"astId": 225,
						"contract": "Voting_Contracts/Master.sol:Master",
						"label": "voter",
						"offset": 0,
						"slot": "5",
						"type": "t_contract(Voter)754"
					}
				],
				"types": {
					"t_address": {
						"encoding": "inplace",
						"label": "address",
						"numberOfBytes": "20"
					},
					"t_array(t_contract(Proposal)619)dyn_storage": {
						"base": "t_contract(Proposal)619",
						"encoding": "dynamic_array",
						"label": "contract Proposal[]",
						"numberOfBytes": "32"
					},
					"t_bool": {
						"encoding": "inplace",
						"label": "bool",
						"numberOfBytes": "1"
					},
					"t_contract(Proposal)619": {
						"encoding": "inplace",
						"label": "contract Proposal",
						"numberOfBytes": "20"
					},
					"t_contract(Voter)754": {
						"encoding": "inplace",
						"label": "contract Voter",
						"numberOfBytes": "20"
					},
					"t_mapping(t_address,t_uint256)": {
						"encoding": "mapping",
						"key": "t_address",
						"label": "mapping(address => uint256)",
						"numberOfBytes": "32",
						"value": "t_uint256"
					},
					"t_uint256": {
						"encoding": "inplace",
						"label": "uint256",
						"numberOfBytes": "32"
					}
				}
			},
			"userdoc": {
				"kind": "user",
				"methods": {},
				"version": 1
			}
		}
	}
}