{
  "contractName": "VotingSystem",
  "abi": [
    {
      "inputs": [],
      "stateMutability": "nonpayable",
      "type": "constructor"
    },
    {
      "anonymous": false,
      "inputs": [
        {
          "indexed": false,
          "internalType": "uint256",
          "name": "id",
          "type": "uint256"
        },
        {
          "indexed": false,
          "internalType": "string",
          "name": "name",
          "type": "string"
        },
        {
          "indexed": false,
          "internalType": "string",
          "name": "description",
          "type": "string"
        },
        {
          "indexed": false,
          "internalType": "uint256",
          "name": "deadline",
          "type": "uint256"
        }
      ],
      "name": "ProposalCreated",
      "type": "event"
    },
    {
      "anonymous": false,
      "inputs": [
        {
          "indexed": false,
          "internalType": "uint256",
          "name": "proposalId",
          "type": "uint256"
        },
        {
          "indexed": false,
          "internalType": "address",
          "name": "voter",
          "type": "address"
        },
        {
          "indexed": false,
          "internalType": "bool",
          "name": "vote",
          "type": "bool"
        }
      ],
      "name": "VoteCasted",
      "type": "event"
    },
    {
      "anonymous": false,
      "inputs": [
        {
          "indexed": false,
          "internalType": "uint256",
          "name": "proposalId",
          "type": "uint256"
        },
        {
          "indexed": false,
          "internalType": "uint256",
          "name": "yesVotes",
          "type": "uint256"
        },
        {
          "indexed": false,
          "internalType": "uint256",
          "name": "noVotes",
          "type": "uint256"
        }
      ],
      "name": "VotingEnded",
      "type": "event"
    },
    {
      "inputs": [],
      "name": "admin",
      "outputs": [
        {
          "internalType": "address",
          "name": "",
          "type": "address"
        }
      ],
      "stateMutability": "view",
      "type": "function",
      "constant": true
    },
    {
      "inputs": [
        {
          "internalType": "uint256",
          "name": "",
          "type": "uint256"
        },
        {
          "internalType": "address",
          "name": "",
          "type": "address"
        }
      ],
      "name": "hasVoted",
      "outputs": [
        {
          "internalType": "bool",
          "name": "",
          "type": "bool"
        }
      ],
      "stateMutability": "view",
      "type": "function",
      "constant": true
    },
    {
      "inputs": [],
      "name": "proposalCount",
      "outputs": [
        {
          "internalType": "uint256",
          "name": "",
          "type": "uint256"
        }
      ],
      "stateMutability": "view",
      "type": "function",
      "constant": true
    },
    {
      "inputs": [
        {
          "internalType": "uint256",
          "name": "",
          "type": "uint256"
        },
        {
          "internalType": "uint256",
          "name": "",
          "type": "uint256"
        }
      ],
      "name": "proposalVotes",
      "outputs": [
        {
          "internalType": "address",
          "name": "voter",
          "type": "address"
        },
        {
          "internalType": "bool",
          "name": "vote",
          "type": "bool"
        },
        {
          "internalType": "uint256",
          "name": "weight",
          "type": "uint256"
        }
      ],
      "stateMutability": "view",
      "type": "function",
      "constant": true
    },
    {
      "inputs": [
        {
          "internalType": "uint256",
          "name": "",
          "type": "uint256"
        }
      ],
      "name": "proposals",
      "outputs": [
        {
          "internalType": "string",
          "name": "name",
          "type": "string"
        },
        {
          "internalType": "string",
          "name": "description",
          "type": "string"
        },
        {
          "internalType": "uint256",
          "name": "deadline",
          "type": "uint256"
        },
        {
          "internalType": "uint256",
          "name": "yesVotes",
          "type": "uint256"
        },
        {
          "internalType": "uint256",
          "name": "noVotes",
          "type": "uint256"
        },
        {
          "internalType": "bool",
          "name": "votingEnded",
          "type": "bool"
        }
      ],
      "stateMutability": "view",
      "type": "function",
      "constant": true
    },
    {
      "inputs": [
        {
          "internalType": "address",
          "name": "",
          "type": "address"
        }
      ],
      "name": "shareholderTokens",
      "outputs": [
        {
          "internalType": "uint256",
          "name": "",
          "type": "uint256"
        }
      ],
      "stateMutability": "view",
      "type": "function",
      "constant": true
    },
    {
      "inputs": [
        {
          "internalType": "address",
          "name": "shareholder",
          "type": "address"
        },
        {
          "internalType": "uint256",
          "name": "amount",
          "type": "uint256"
        }
      ],
      "name": "assignTokens",
      "outputs": [],
      "stateMutability": "nonpayable",
      "type": "function"
    },
    {
      "inputs": [
        {
          "internalType": "string",
          "name": "description",
          "type": "string"
        },
        {
          "internalType": "string",
          "name": "name",
          "type": "string"
        },
        {
          "internalType": "uint256",
          "name": "duration",
          "type": "uint256"
        }
      ],
      "name": "createProposal",
      "outputs": [],
      "stateMutability": "nonpayable",
      "type": "function"
    },
    {
      "inputs": [
        {
          "internalType": "uint256",
          "name": "proposalId",
          "type": "uint256"
        },
        {
          "internalType": "bool",
          "name": "voteYes",
          "type": "bool"
        }
      ],
      "name": "vote",
      "outputs": [],
      "stateMutability": "nonpayable",
      "type": "function"
    },
    {
      "inputs": [
        {
          "internalType": "uint256",
          "name": "proposalId",
          "type": "uint256"
        }
      ],
      "name": "endVoting",
      "outputs": [],
      "stateMutability": "nonpayable",
      "type": "function"
    },
    {
      "inputs": [
        {
          "internalType": "uint256",
          "name": "proposalId",
          "type": "uint256"
        }
      ],
      "name": "getProposalResults",
      "outputs": [
        {
          "internalType": "string",
          "name": "description",
          "type": "string"
        },
        {
          "internalType": "uint256",
          "name": "yesVotes",
          "type": "uint256"
        },
        {
          "internalType": "uint256",
          "name": "noVotes",
          "type": "uint256"
        },
        {
          "internalType": "bool",
          "name": "ended",
          "type": "bool"
        }
      ],
      "stateMutability": "view",
      "type": "function",
      "constant": true
    },
    {
      "inputs": [
        {
          "internalType": "uint256",
          "name": "proposalId",
          "type": "uint256"
        }
      ],
      "name": "getVotePercentages",
      "outputs": [
        {
          "internalType": "uint256",
          "name": "yesPercentage",
          "type": "uint256"
        },
        {
          "internalType": "uint256",
          "name": "noPercentage",
          "type": "uint256"
        }
      ],
      "stateMutability": "view",
      "type": "function",
      "constant": true
    },
    {
      "inputs": [
        {
          "internalType": "uint256",
          "name": "proposalId",
          "type": "uint256"
        }
      ],
      "name": "getProposalVotes",
      "outputs": [
        {
          "components": [
            {
              "internalType": "address",
              "name": "voter",
              "type": "address"
            },
            {
              "internalType": "bool",
              "name": "vote",
              "type": "bool"
            },
            {
              "internalType": "uint256",
              "name": "weight",
              "type": "uint256"
            }
          ],
          "internalType": "struct VotingSystem.Vote[]",
          "name": "",
          "type": "tuple[]"
        }
      ],
      "stateMutability": "view",
      "type": "function",
      "constant": true
    },
    {
      "inputs": [
        {
          "internalType": "address",
          "name": "newAdmin",
          "type": "address"
        }
      ],
      "name": "transferAdmin",
      "outputs": [],
      "stateMutability": "nonpayable",
      "type": "function"
    }
  ],
  "bytecode": "0x6080604052348015600e575f80fd5b50335f806101000a81548173ffffffffffffffffffffffffffffffffffffffff021916908373ffffffffffffffffffffffffffffffffffffffff16021790555061222f8061005b5f395ff3fe608060405234801561000f575f80fd5b50600436106100e8575f3560e01c80635015de3a1161008a57806375829def1161006457806375829def1461029b578063c9d27afe146102b7578063da35c664146102d3578063f851a440146102f1576100e8565b80635015de3a1461021b5780635bdcd0081461024c578063649f89a51461027f576100e8565b80630d68eb9e116100c65780630d68eb9e1461016d578063438596321461019f57806347c66140146101cf5780634d7edc15146101ff576100e8565b8063013cf08b146100ec57806307e5678c146101215780630ce0ebf414610151575b5f80fd5b610106600480360381019061010191906112ff565b61030f565b604051610118969594939291906113c3565b60405180910390f35b61013b6004803603810190610136919061148a565b61045f565b60405161014891906114b5565b60405180910390f35b61016b600480360381019061016691906115fa565b610474565b005b61018760048036038101906101829190611682565b61061e565b604051610196939291906116cf565b60405180910390f35b6101b960048036038101906101b49190611704565b610689565b6040516101c69190611742565b60405180910390f35b6101e960048036038101906101e491906112ff565b6106b3565b6040516101f69190611870565b60405180910390f35b61021960048036038101906102149190611890565b610798565b005b610235600480360381019061023091906112ff565b61086b565b6040516102439291906118ce565b60405180910390f35b610266600480360381019061026191906112ff565b610a52565b60405161027694939291906118f5565b60405180910390f35b610299600480360381019061029491906112ff565b610bf1565b005b6102b560048036038101906102b0919061148a565b610dc7565b005b6102d160048036038101906102cc9190611969565b610f04565b005b6102db611292565b6040516102e891906114b5565b60405180910390f35b6102f9611298565b60405161030691906119a7565b60405180910390f35b6002602052805f5260405f205f91509050805f01805461032e906119ed565b80601f016020809104026020016040519081016040528092919081815260200182805461035a906119ed565b80156103a55780601f1061037c576101008083540402835291602001916103a5565b820191905f5260205f20905b81548152906001019060200180831161038857829003601f168201915b5050505050908060010180546103ba906119ed565b80601f01602080910402602001604051908101604052809291908181526020018280546103e6906119ed565b80156104315780601f1061040857610100808354040283529160200191610431565b820191905f5260205f20905b81548152906001019060200180831161041457829003601f168201915b505050505090806002015490806003015490806004015490806005015f9054906101000a900460ff16905086565b6001602052805f5260405f205f915090505481565b5f8054906101000a900473ffffffffffffffffffffffffffffffffffffffff1673ffffffffffffffffffffffffffffffffffffffff163373ffffffffffffffffffffffffffffffffffffffff1614610501576040517f08c379a00000000000000000000000000000000000000000000000000000000081526004016104f890611a8d565b60405180910390fd5b6040518060c0016040528083815260200184815260200182426105249190611ad8565b81526020015f81526020015f81526020015f151581525060025f60035481526020019081526020015f205f820151815f0190816105619190611ca8565b5060208201518160010190816105779190611ca8565b5060408201518160020155606082015181600301556080820151816004015560a0820151816005015f6101000a81548160ff0219169083151502179055509050507f3f86606f711a448daf3ec6c75d04db9515b24b20b64a68406f971eb5a4e16187600354838584426105ea9190611ad8565b6040516105fa9493929190611d77565b60405180910390a160035f81548092919061061490611dc8565b9190505550505050565b6004602052815f5260405f208181548110610637575f80fd5b905f5260205f2090600202015f9150915050805f015f9054906101000a900473ffffffffffffffffffffffffffffffffffffffff1690805f0160149054906101000a900460ff16908060010154905083565b6005602052815f5260405f20602052805f5260405f205f915091509054906101000a900460ff1681565b606060045f8381526020019081526020015f20805480602002602001604051908101604052809291908181526020015f905b8282101561078d578382905f5260205f2090600202016040518060600160405290815f82015f9054906101000a900473ffffffffffffffffffffffffffffffffffffffff1673ffffffffffffffffffffffffffffffffffffffff1673ffffffffffffffffffffffffffffffffffffffff1681526020015f820160149054906101000a900460ff16151515158152602001600182015481525050815260200190600101906106e5565b505050509050919050565b5f8054906101000a900473ffffffffffffffffffffffffffffffffffffffff1673ffffffffffffffffffffffffffffffffffffffff163373ffffffffffffffffffffffffffffffffffffffff1614610825576040517f08c379a000000000000000000000000000000000000000000000000000000000815260040161081c90611a8d565b60405180910390fd5b8060015f8473ffffffffffffffffffffffffffffffffffffffff1673ffffffffffffffffffffffffffffffffffffffff1681526020019081526020015f20819055505050565b5f805f60025f8581526020019081526020015f206040518060c00160405290815f82018054610899906119ed565b80601f01602080910402602001604051908101604052809291908181526020018280546108c5906119ed565b80156109105780601f106108e757610100808354040283529160200191610910565b820191905f5260205f20905b8154815290600101906020018083116108f357829003601f168201915b50505050508152602001600182018054610929906119ed565b80601f0160208091040260200160405190810160405280929190818152602001828054610955906119ed565b80156109a05780601f10610977576101008083540402835291602001916109a0565b820191905f5260205f20905b81548152906001019060200180831161098357829003601f168201915b50505050508152602001600282015481526020016003820154815260200160048201548152602001600582015f9054906101000a900460ff16151515158152505090505f816080015182606001516109f89190611ad8565b90505f8103610a0e575f80935093505050610a4d565b8060648360600151610a209190611e0f565b610a2a9190611e7d565b93508060648360800151610a3e9190611e0f565b610a489190611e7d565b925050505b915091565b60605f805f8060025f8781526020019081526020015f206040518060c00160405290815f82018054610a83906119ed565b80601f0160208091040260200160405190810160405280929190818152602001828054610aaf906119ed565b8015610afa5780601f10610ad157610100808354040283529160200191610afa565b820191905f5260205f20905b815481529060010190602001808311610add57829003601f168201915b50505050508152602001600182018054610b13906119ed565b80601f0160208091040260200160405190810160405280929190818152602001828054610b3f906119ed565b8015610b8a5780601f10610b6157610100808354040283529160200191610b8a565b820191905f5260205f20905b815481529060010190602001808311610b6d57829003601f168201915b50505050508152602001600282015481526020016003820154815260200160048201548152602001600582015f9054906101000a900460ff16151515158152505090508060200151816060015182608001518360a001519450945094509450509193509193565b5f8054906101000a900473ffffffffffffffffffffffffffffffffffffffff1673ffffffffffffffffffffffffffffffffffffffff163373ffffffffffffffffffffffffffffffffffffffff1614610c7e576040517f08c379a0000000000000000000000000000000000000000000000000000000008152600401610c7590611a8d565b60405180910390fd5b60025f8281526020019081526020015f20600201544211610cd4576040517f08c379a0000000000000000000000000000000000000000000000000000000008152600401610ccb90611ef7565b60405180910390fd5b60025f8281526020019081526020015f206005015f9054906101000a900460ff1615610d35576040517f08c379a0000000000000000000000000000000000000000000000000000000008152600401610d2c90611f5f565b60405180910390fd5b600160025f8381526020019081526020015f206005015f6101000a81548160ff0219169083151502179055507fcea89ec8feb1022162fb57e69a2bb2c4774289bcc281c3e4ff611d3a63ee6e088160025f8481526020019081526020015f206003015460025f8581526020019081526020015f2060040154604051610dbc93929190611f7d565b60405180910390a150565b5f8054906101000a900473ffffffffffffffffffffffffffffffffffffffff1673ffffffffffffffffffffffffffffffffffffffff163373ffffffffffffffffffffffffffffffffffffffff1614610e54576040517f08c379a0000000000000000000000000000000000000000000000000000000008152600401610e4b90611a8d565b60405180910390fd5b5f73ffffffffffffffffffffffffffffffffffffffff168173ffffffffffffffffffffffffffffffffffffffff1603610ec2576040517f08c379a0000000000000000000000000000000000000000000000000000000008152600401610eb990612022565b60405180910390fd5b805f806101000a81548173ffffffffffffffffffffffffffffffffffffffff021916908373ffffffffffffffffffffffffffffffffffffffff16021790555050565b8160025f8281526020019081526020015f20600201544210610f5b576040517f08c379a0000000000000000000000000000000000000000000000000000000008152600401610f52906120b0565b60405180910390fd5b5f60015f3373ffffffffffffffffffffffffffffffffffffffff1673ffffffffffffffffffffffffffffffffffffffff1681526020019081526020015f205411610fda576040517f08c379a0000000000000000000000000000000000000000000000000000000008152600401610fd190612118565b60405180910390fd5b60055f8481526020019081526020015f205f3373ffffffffffffffffffffffffffffffffffffffff1673ffffffffffffffffffffffffffffffffffffffff1681526020019081526020015f205f9054906101000a900460ff1615611073576040517f08c379a000000000000000000000000000000000000000000000000000000000815260040161106a906121a6565b60405180910390fd5b5f60015f3373ffffffffffffffffffffffffffffffffffffffff1673ffffffffffffffffffffffffffffffffffffffff1681526020019081526020015f2054905082156110e9578060025f8681526020019081526020015f206003015f8282546110dd9190611ad8565b92505081905550611114565b8060025f8681526020019081526020015f206004015f82825461110c9190611ad8565b925050819055505b60045f8581526020019081526020015f2060405180606001604052803373ffffffffffffffffffffffffffffffffffffffff168152602001851515815260200183815250908060018154018082558091505060019003905f5260205f2090600202015f909190919091505f820151815f015f6101000a81548173ffffffffffffffffffffffffffffffffffffffff021916908373ffffffffffffffffffffffffffffffffffffffff1602179055506020820151815f0160146101000a81548160ff021916908315150217905550604082015181600101555050600160055f8681526020019081526020015f205f3373ffffffffffffffffffffffffffffffffffffffff1673ffffffffffffffffffffffffffffffffffffffff1681526020019081526020015f205f6101000a81548160ff0219169083151502179055507f5aaa9aad7433112662b9e5ae23b96ed62b00035f413ab908c55607284e0804e2843385604051611284939291906121c4565b60405180910390a150505050565b60035481565b5f8054906101000a900473ffffffffffffffffffffffffffffffffffffffff1681565b5f604051905090565b5f80fd5b5f80fd5b5f819050919050565b6112de816112cc565b81146112e8575f80fd5b50565b5f813590506112f9816112d5565b92915050565b5f60208284031215611314576113136112c4565b5b5f611321848285016112eb565b91505092915050565b5f81519050919050565b5f82825260208201905092915050565b8281835e5f83830152505050565b5f601f19601f8301169050919050565b5f61136c8261132a565b6113768185611334565b9350611386818560208601611344565b61138f81611352565b840191505092915050565b6113a3816112cc565b82525050565b5f8115159050919050565b6113bd816113a9565b82525050565b5f60c0820190508181035f8301526113db8189611362565b905081810360208301526113ef8188611362565b90506113fe604083018761139a565b61140b606083018661139a565b611418608083018561139a565b61142560a08301846113b4565b979650505050505050565b5f73ffffffffffffffffffffffffffffffffffffffff82169050919050565b5f61145982611430565b9050919050565b6114698161144f565b8114611473575f80fd5b50565b5f8135905061148481611460565b92915050565b5f6020828403121561149f5761149e6112c4565b5b5f6114ac84828501611476565b91505092915050565b5f6020820190506114c85f83018461139a565b92915050565b5f80fd5b5f80fd5b7f4e487b71000000000000000000000000000000000000000000000000000000005f52604160045260245ffd5b61150c82611352565b810181811067ffffffffffffffff8211171561152b5761152a6114d6565b5b80604052505050565b5f61153d6112bb565b90506115498282611503565b919050565b5f67ffffffffffffffff821115611568576115676114d6565b5b61157182611352565b9050602081019050919050565b828183375f83830152505050565b5f61159e6115998461154e565b611534565b9050828152602081018484840111156115ba576115b96114d2565b5b6115c584828561157e565b509392505050565b5f82601f8301126115e1576115e06114ce565b5b81356115f184826020860161158c565b91505092915050565b5f805f60608486031215611611576116106112c4565b5b5f84013567ffffffffffffffff81111561162e5761162d6112c8565b5b61163a868287016115cd565b935050602084013567ffffffffffffffff81111561165b5761165a6112c8565b5b611667868287016115cd565b9250506040611678868287016112eb565b9150509250925092565b5f8060408385031215611698576116976112c4565b5b5f6116a5858286016112eb565b92505060206116b6858286016112eb565b9150509250929050565b6116c98161144f565b82525050565b5f6060820190506116e25f8301866116c0565b6116ef60208301856113b4565b6116fc604083018461139a565b949350505050565b5f806040838503121561171a576117196112c4565b5b5f611727858286016112eb565b925050602061173885828601611476565b9150509250929050565b5f6020820190506117555f8301846113b4565b92915050565b5f81519050919050565b5f82825260208201905092915050565b5f819050602082019050919050565b61178d8161144f565b82525050565b61179c816113a9565b82525050565b6117ab816112cc565b82525050565b606082015f8201516117c55f850182611784565b5060208201516117d86020850182611793565b5060408201516117eb60408501826117a2565b50505050565b5f6117fc83836117b1565b60608301905092915050565b5f602082019050919050565b5f61181e8261175b565b6118288185611765565b935061183383611775565b805f5b8381101561186357815161184a88826117f1565b975061185583611808565b925050600181019050611836565b5085935050505092915050565b5f6020820190508181035f8301526118888184611814565b905092915050565b5f80604083850312156118a6576118a56112c4565b5b5f6118b385828601611476565b92505060206118c4858286016112eb565b9150509250929050565b5f6040820190506118e15f83018561139a565b6118ee602083018461139a565b9392505050565b5f6080820190508181035f83015261190d8187611362565b905061191c602083018661139a565b611929604083018561139a565b61193660608301846113b4565b95945050505050565b611948816113a9565b8114611952575f80fd5b50565b5f813590506119638161193f565b92915050565b5f806040838503121561197f5761197e6112c4565b5b5f61198c858286016112eb565b925050602061199d85828601611955565b9150509250929050565b5f6020820190506119ba5f8301846116c0565b92915050565b7f4e487b71000000000000000000000000000000000000000000000000000000005f52602260045260245ffd5b5f6002820490506001821680611a0457607f821691505b602082108103611a1757611a166119c0565b5b50919050565b7f4f6e6c79207468652061646d696e2063616e20706572666f726d2074686973205f8201527f616374696f6e0000000000000000000000000000000000000000000000000000602082015250565b5f611a77602683611334565b9150611a8282611a1d565b604082019050919050565b5f6020820190508181035f830152611aa481611a6b565b9050919050565b7f4e487b71000000000000000000000000000000000000000000000000000000005f52601160045260245ffd5b5f611ae2826112cc565b9150611aed836112cc565b9250828201905080821115611b0557611b04611aab565b5b92915050565b5f819050815f5260205f209050919050565b5f6020601f8301049050919050565b5f82821b905092915050565b5f60088302611b677fffffffffffffffffffffffffffffffffffffffffffffffffffffffffffffffff82611b2c565b611b718683611b2c565b95508019841693508086168417925050509392505050565b5f819050919050565b5f611bac611ba7611ba2846112cc565b611b89565b6112cc565b9050919050565b5f819050919050565b611bc583611b92565b611bd9611bd182611bb3565b848454611b38565b825550505050565b5f90565b611bed611be1565b611bf8818484611bbc565b505050565b5b81811015611c1b57611c105f82611be5565b600181019050611bfe565b5050565b601f821115611c6057611c3181611b0b565b611c3a84611b1d565b81016020851015611c49578190505b611c5d611c5585611b1d565b830182611bfd565b50505b505050565b5f82821c905092915050565b5f611c805f1984600802611c65565b1980831691505092915050565b5f611c988383611c71565b9150826002028217905092915050565b611cb18261132a565b67ffffffffffffffff811115611cca57611cc96114d6565b5b611cd482546119ed565b611cdf828285611c1f565b5f60209050601f831160018114611d10575f8415611cfe578287015190505b611d088582611c8d565b865550611d6f565b601f198416611d1e86611b0b565b5f5b82811015611d4557848901518255600182019150602085019450602081019050611d20565b86831015611d625784890151611d5e601f891682611c71565b8355505b6001600288020188555050505b505050505050565b5f608082019050611d8a5f83018761139a565b8181036020830152611d9c8186611362565b90508181036040830152611db08185611362565b9050611dbf606083018461139a565b95945050505050565b5f611dd2826112cc565b91507fffffffffffffffffffffffffffffffffffffffffffffffffffffffffffffffff8203611e0457611e03611aab565b5b600182019050919050565b5f611e19826112cc565b9150611e24836112cc565b9250828202611e32816112cc565b91508282048414831517611e4957611e48611aab565b5b5092915050565b7f4e487b71000000000000000000000000000000000000000000000000000000005f52601260045260245ffd5b5f611e87826112cc565b9150611e92836112cc565b925082611ea257611ea1611e50565b5b828204905092915050565b7f566f74696e6720706572696f64206e6f7420796574206f7665720000000000005f82015250565b5f611ee1601a83611334565b9150611eec82611ead565b602082019050919050565b5f6020820190508181035f830152611f0e81611ed5565b9050919050565b7f566f74696e672068617320616c726561647920656e64656400000000000000005f82015250565b5f611f49601883611334565b9150611f5482611f15565b602082019050919050565b5f6020820190508181035f830152611f7681611f3d565b9050919050565b5f606082019050611f905f83018661139a565b611f9d602083018561139a565b611faa604083018461139a565b949350505050565b7f4e65772061646d696e20616464726573732063616e6e6f74206265207a65726f5f8201527f2061646472657373000000000000000000000000000000000000000000000000602082015250565b5f61200c602883611334565b915061201782611fb2565b604082019050919050565b5f6020820190508181035f83015261203981612000565b9050919050565b7f566f74696e672068617320656e64656420666f7220746869732070726f706f735f8201527f616c000000000000000000000000000000000000000000000000000000000000602082015250565b5f61209a602283611334565b91506120a582612040565b604082019050919050565b5f6020820190508181035f8301526120c78161208e565b9050919050565b7f596f7520646f206e6f74206861766520766f74696e67207269676874730000005f82015250565b5f612102601d83611334565b915061210d826120ce565b602082019050919050565b5f6020820190508181035f83015261212f816120f6565b9050919050565b7f596f75206861766520616c726561647920766f746564206f6e207468697320705f8201527f726f706f73616c00000000000000000000000000000000000000000000000000602082015250565b5f612190602783611334565b915061219b82612136565b604082019050919050565b5f6020820190508181035f8301526121bd81612184565b9050919050565b5f6060820190506121d75f83018661139a565b6121e460208301856116c0565b6121f160408301846113b4565b94935050505056fea264697066735822122088a27c7c78fd2e8edceb4387480a0876d02f12665a6274f233a7e9366ea82b8c64736f6c634300081a0033",
  "immutableReferences": {},
  "source": "//SPDX-License-Identifier: MIT\npragma solidity ^0.8.26;\n\ncontract VotingSystem {\n\n    struct Proposal {\n        string name;\n        string description;\n        uint deadline;\n        uint yesVotes;\n        uint noVotes;\n        bool votingEnded;\n    }\n\n    struct Vote {\n        address voter;\n        bool vote; // true for yes, false for no\n        uint256 weight; // number of tokens used for the vote\n    }\n\n    // Admin address\n    address public admin;\n\n    // Mapping shareholder addresses to their token balance\n    mapping(address => uint) public shareholderTokens;\n\n    // Mapping for proposals\n    mapping(uint => Proposal) public proposals;\n    uint public proposalCount;  // Keeps track of proposals\n\n    // Mapping for votes cast per proposal\n    mapping(uint => Vote[]) public proposalVotes;\n\n    // v1.2: mapping for the users that has already voted\n    mapping(uint => mapping(address => bool)) public hasVoted;\n\n    // Events for logging\n    event ProposalCreated(uint id, string name, string description, uint deadline);\n    event VoteCasted(uint proposalId, address voter, bool vote);\n    event VotingEnded(uint proposalId, uint yesVotes, uint noVotes);\n\n    // Modifier to check if the sender is the admin\n    modifier onlyAdmin() {\n        require(msg.sender == admin, \"Only the admin can perform this action\");\n        _;\n    }\n\n    // Modifier to check if a proposal is still accepting votes\n    modifier onlyDuringVoting(uint proposalId) {\n        require(block.timestamp < proposals[proposalId].deadline, \"Voting has ended for this proposal\");\n        _;\n    }\n\n    // Modifier to check if the user is a shareholder\n    modifier onlyShareholders() {\n        require(shareholderTokens[msg.sender] > 0, \"You do not have voting rights\");\n        _;\n    }\n\n    // Constructor to initialize the admin\n    constructor() {\n        admin = msg.sender;  // The deployer of the contract is the admin\n    }\n\n    // Admin function to assign tokens to shareholders\n    function assignTokens(address shareholder, uint amount) public onlyAdmin {\n        shareholderTokens[shareholder] = amount;\n    }\n\n    // Admin function to create a proposal\n    function createProposal(string memory description, string memory name, uint duration) public onlyAdmin {\n        proposals[proposalCount] = Proposal({\n            name:name,\n            description: description,\n            deadline: block.timestamp + duration,\n            yesVotes: 0,\n            noVotes: 0,\n            votingEnded: false\n        });\n        emit ProposalCreated(proposalCount, name, description, block.timestamp + duration);\n        proposalCount++;\n    }\n\n    // Shareholder function to cast a vote on a proposal\n    function vote(uint proposalId, bool voteYes) public onlyDuringVoting(proposalId) onlyShareholders {\n        // v1.2: check if the user has already voted\n        require(!hasVoted[proposalId][msg.sender], \"You have already voted on this proposal\");\n        \n        uint256 weight = shareholderTokens[msg.sender];\n        if (voteYes) {\n            proposals[proposalId].yesVotes += weight;\n        } else {\n            proposals[proposalId].noVotes += weight;\n        }\n\n        // Record the vote\n        proposalVotes[proposalId].push(Vote({\n            voter: msg.sender,\n            vote: voteYes,\n            weight: weight\n        }));\n        \n        // v1.2: added a check so that we know the user voted\n        hasVoted[proposalId][msg.sender] = true;\n\n        emit VoteCasted(proposalId, msg.sender, voteYes);\n    }\n\n    // Admin function to end voting manually (can be automated by checking time)\n    function endVoting(uint proposalId) public onlyAdmin {\n        require(block.timestamp > proposals[proposalId].deadline, \"Voting period not yet over\");\n        require(!proposals[proposalId].votingEnded, \"Voting has already ended\");\n\n        proposals[proposalId].votingEnded = true;\n        emit VotingEnded(proposalId, proposals[proposalId].yesVotes, proposals[proposalId].noVotes);\n    }\n\n    // Function to get the result of a proposal\n    function getProposalResults(uint proposalId) public view returns (string memory description, uint yesVotes, uint noVotes, bool ended) {\n        Proposal memory p = proposals[proposalId];\n        return (p.description, p.yesVotes, p.noVotes, p.votingEnded);\n    }\n\n    // Function to calculate the percentage of yes and no votes\n    function getVotePercentages(uint proposalId) public view returns (uint yesPercentage, uint noPercentage) {\n        Proposal memory p = proposals[proposalId];\n        uint totalVotes = p.yesVotes + p.noVotes;\n\n        // If no votes have been cast, return 0% for both\n        if (totalVotes == 0) {\n            return (0, 0);\n        }\n\n        // Calculate percentages\n        yesPercentage = (p.yesVotes * 100) / totalVotes;\n        noPercentage = (p.noVotes * 100) / totalVotes;\n    }\n\n    // Function to retrieve all votes for a given proposal\n    function getProposalVotes(uint proposalId) public view returns (Vote[] memory) {\n        return proposalVotes[proposalId];\n    }\n\n    // Admin function to transfer admin privileges to a new address\n    function transferAdmin(address newAdmin) public onlyAdmin {\n        require(newAdmin != address(0), \"New admin address cannot be zero address\");\n        admin = newAdmin;\n    }\n}\n\n",
  "sourcePath": "/Users/elias/Desktop/blockchain-voting-system/contracts/VotingSystem.sol",
  "compiler": {
    "name": "solc",
    "version": "0.8.26+commit.8a97fa7a.Emscripten.clang"
  },
  "schemaVersion": "3.4.16",
  "updatedAt": "2024-11-05T16:50:51.811Z",
  "networkType": "ethereum",
  "devdoc": {
    "kind": "dev",
    "methods": {},
    "version": 1
  },
  "userdoc": {
    "kind": "user",
    "methods": {},
    "version": 1
  }
}